{
  "contractName": "ArtFundsStorage",
  "abi": [
    {
      "inputs": [],
      "stateMutability": "nonpayable",
      "type": "constructor"
    },
    {
      "anonymous": false,
      "inputs": [
        {
          "indexed": true,
          "internalType": "address",
          "name": "owner",
          "type": "address"
        },
        {
          "indexed": true,
          "internalType": "address",
          "name": "approved",
          "type": "address"
        },
        {
          "indexed": true,
          "internalType": "uint256",
          "name": "tokenId",
          "type": "uint256"
        }
      ],
      "name": "Approval",
      "type": "event"
    },
    {
      "anonymous": false,
      "inputs": [
        {
          "indexed": true,
          "internalType": "address",
          "name": "owner",
          "type": "address"
        },
        {
          "indexed": true,
          "internalType": "address",
          "name": "operator",
          "type": "address"
        },
        {
          "indexed": false,
          "internalType": "bool",
          "name": "approved",
          "type": "bool"
        }
      ],
      "name": "ApprovalForAll",
      "type": "event"
    },
    {
      "anonymous": false,
      "inputs": [
        {
          "indexed": false,
          "internalType": "uint256",
          "name": "tokenId",
          "type": "uint256"
        },
        {
          "indexed": false,
          "internalType": "string",
          "name": "imageURL",
          "type": "string"
        },
        {
          "indexed": false,
          "internalType": "string",
          "name": "name",
          "type": "string"
        },
        {
          "indexed": false,
          "internalType": "address",
          "name": "ownedBy",
          "type": "address"
        },
        {
          "indexed": false,
          "internalType": "string",
          "name": "description",
          "type": "string"
        }
      ],
      "name": "CollectionCreated",
      "type": "event"
    },
    {
      "anonymous": false,
      "inputs": [
        {
          "indexed": false,
          "internalType": "uint256",
          "name": "id",
          "type": "uint256"
        },
        {
          "indexed": false,
          "internalType": "uint256",
          "name": "belongByColID",
          "type": "uint256"
        },
        {
          "indexed": false,
          "internalType": "string",
          "name": "name",
          "type": "string"
        },
        {
          "indexed": false,
          "internalType": "address",
          "name": "mintedBy",
          "type": "address"
        },
        {
          "indexed": false,
          "internalType": "address",
          "name": "currentOwner",
          "type": "address"
        },
        {
          "indexed": false,
          "internalType": "uint256",
          "name": "price",
          "type": "uint256"
        },
        {
          "indexed": false,
          "internalType": "string",
          "name": "itemURL",
          "type": "string"
        },
        {
          "indexed": false,
          "internalType": "uint256",
          "name": "numberOfTransfers",
          "type": "uint256"
        },
        {
          "indexed": false,
          "internalType": "bool",
          "name": "forSale",
          "type": "bool"
        }
      ],
      "name": "ItemCreated",
      "type": "event"
    },
    {
      "anonymous": false,
      "inputs": [
        {
          "indexed": false,
          "internalType": "uint256",
          "name": "id",
          "type": "uint256"
        },
        {
          "indexed": false,
          "internalType": "bool",
          "name": "forSale",
          "type": "bool"
        }
      ],
      "name": "ItemForSale",
      "type": "event"
    },
    {
      "anonymous": false,
      "inputs": [
        {
          "indexed": true,
          "internalType": "address",
          "name": "from",
          "type": "address"
        },
        {
          "indexed": true,
          "internalType": "address",
          "name": "to",
          "type": "address"
        },
        {
          "indexed": true,
          "internalType": "uint256",
          "name": "tokenId",
          "type": "uint256"
        }
      ],
      "name": "Transfer",
      "type": "event"
    },
    {
      "inputs": [],
      "name": "ARTFUNDS",
      "outputs": [
        {
          "internalType": "address payable",
          "name": "",
          "type": "address"
        }
      ],
      "stateMutability": "view",
      "type": "function",
      "constant": true
    },
    {
      "inputs": [
        {
          "internalType": "address",
          "name": "to",
          "type": "address"
        },
        {
          "internalType": "uint256",
          "name": "tokenId",
          "type": "uint256"
        }
      ],
      "name": "approve",
      "outputs": [],
      "stateMutability": "nonpayable",
      "type": "function"
    },
    {
      "inputs": [
        {
          "internalType": "address",
          "name": "owner",
          "type": "address"
        }
      ],
      "name": "balanceOf",
      "outputs": [
        {
          "internalType": "uint256",
          "name": "",
          "type": "uint256"
        }
      ],
      "stateMutability": "view",
      "type": "function",
      "constant": true
    },
    {
      "inputs": [],
      "name": "baseURI",
      "outputs": [
        {
          "internalType": "string",
          "name": "",
          "type": "string"
        }
      ],
      "stateMutability": "view",
      "type": "function",
      "constant": true
    },
    {
      "inputs": [],
      "name": "collectionCounter",
      "outputs": [
        {
          "internalType": "uint256",
          "name": "",
          "type": "uint256"
        }
      ],
      "stateMutability": "view",
      "type": "function",
      "constant": true
    },
    {
      "inputs": [],
      "name": "collectionName",
      "outputs": [
        {
          "internalType": "string",
          "name": "",
          "type": "string"
        }
      ],
      "stateMutability": "view",
      "type": "function",
      "constant": true
    },
    {
      "inputs": [],
      "name": "collectionNameSymbol",
      "outputs": [
        {
          "internalType": "string",
          "name": "",
          "type": "string"
        }
      ],
      "stateMutability": "view",
      "type": "function",
      "constant": true
    },
    {
      "inputs": [],
      "name": "digitalItemCounter",
      "outputs": [
        {
          "internalType": "uint256",
          "name": "",
          "type": "uint256"
        }
      ],
      "stateMutability": "view",
      "type": "function",
      "constant": true
    },
    {
      "inputs": [
        {
          "internalType": "uint256",
          "name": "tokenId",
          "type": "uint256"
        }
      ],
      "name": "getApproved",
      "outputs": [
        {
          "internalType": "address",
          "name": "",
          "type": "address"
        }
      ],
      "stateMutability": "view",
      "type": "function",
      "constant": true
    },
    {
      "inputs": [
        {
          "internalType": "address",
          "name": "owner",
          "type": "address"
        },
        {
          "internalType": "address",
          "name": "operator",
          "type": "address"
        }
      ],
      "name": "isApprovedForAll",
      "outputs": [
        {
          "internalType": "bool",
          "name": "",
          "type": "bool"
        }
      ],
      "stateMutability": "view",
      "type": "function",
      "constant": true
    },
    {
      "inputs": [
        {
          "internalType": "uint256",
          "name": "",
          "type": "uint256"
        }
      ],
      "name": "listAllCollection",
      "outputs": [
        {
          "internalType": "uint256",
          "name": "tokenId",
          "type": "uint256"
        },
        {
          "internalType": "string",
          "name": "imageURL",
          "type": "string"
        },
        {
          "internalType": "string",
          "name": "name",
          "type": "string"
        },
        {
          "internalType": "string",
          "name": "description",
          "type": "string"
        }
      ],
      "stateMutability": "view",
      "type": "function",
      "constant": true
    },
    {
      "inputs": [
        {
          "internalType": "uint256",
          "name": "",
          "type": "uint256"
        }
      ],
      "name": "listAllDigitalItem",
      "outputs": [
        {
          "internalType": "uint256",
          "name": "tokenId",
          "type": "uint256"
        },
        {
          "internalType": "uint256",
          "name": "collectionID",
          "type": "uint256"
        },
        {
          "internalType": "string",
          "name": "name",
          "type": "string"
        },
        {
          "internalType": "uint256",
          "name": "price",
          "type": "uint256"
        },
        {
          "internalType": "string",
          "name": "itemURL",
          "type": "string"
        },
        {
          "internalType": "address payable",
          "name": "mintedBy",
          "type": "address"
        },
        {
          "internalType": "address payable",
          "name": "currentOwner",
          "type": "address"
        },
        {
          "internalType": "uint256",
          "name": "numberOfTransfers",
          "type": "uint256"
        },
        {
          "internalType": "bool",
          "name": "forSale",
          "type": "bool"
        }
      ],
      "stateMutability": "view",
      "type": "function",
      "constant": true
    },
    {
      "inputs": [],
      "name": "name",
      "outputs": [
        {
          "internalType": "string",
          "name": "",
          "type": "string"
        }
      ],
      "stateMutability": "view",
      "type": "function",
      "constant": true
    },
    {
      "inputs": [
        {
          "internalType": "address",
          "name": "",
          "type": "address"
        },
        {
          "internalType": "uint256",
          "name": "",
          "type": "uint256"
        }
      ],
      "name": "ownerCollections",
      "outputs": [
        {
          "internalType": "uint256",
          "name": "tokenId",
          "type": "uint256"
        },
        {
          "internalType": "string",
          "name": "imageURL",
          "type": "string"
        },
        {
          "internalType": "string",
          "name": "name",
          "type": "string"
        },
        {
          "internalType": "string",
          "name": "description",
          "type": "string"
        }
      ],
      "stateMutability": "view",
      "type": "function",
      "constant": true
    },
    {
      "inputs": [
        {
          "internalType": "address",
          "name": "",
          "type": "address"
        },
        {
          "internalType": "uint256",
          "name": "",
          "type": "uint256"
        }
      ],
      "name": "ownerDigitalItems",
      "outputs": [
        {
          "internalType": "uint256",
          "name": "tokenId",
          "type": "uint256"
        },
        {
          "internalType": "uint256",
          "name": "collectionID",
          "type": "uint256"
        },
        {
          "internalType": "string",
          "name": "name",
          "type": "string"
        },
        {
          "internalType": "uint256",
          "name": "price",
          "type": "uint256"
        },
        {
          "internalType": "string",
          "name": "itemURL",
          "type": "string"
        },
        {
          "internalType": "address payable",
          "name": "mintedBy",
          "type": "address"
        },
        {
          "internalType": "address payable",
          "name": "currentOwner",
          "type": "address"
        },
        {
          "internalType": "uint256",
          "name": "numberOfTransfers",
          "type": "uint256"
        },
        {
          "internalType": "bool",
          "name": "forSale",
          "type": "bool"
        }
      ],
      "stateMutability": "view",
      "type": "function",
      "constant": true
    },
    {
      "inputs": [
        {
          "internalType": "uint256",
          "name": "tokenId",
          "type": "uint256"
        }
      ],
      "name": "ownerOf",
      "outputs": [
        {
          "internalType": "address",
          "name": "",
          "type": "address"
        }
      ],
      "stateMutability": "view",
      "type": "function",
      "constant": true
    },
    {
      "inputs": [
        {
          "internalType": "address",
          "name": "from",
          "type": "address"
        },
        {
          "internalType": "address",
          "name": "to",
          "type": "address"
        },
        {
          "internalType": "uint256",
          "name": "tokenId",
          "type": "uint256"
        }
      ],
      "name": "safeTransferFrom",
      "outputs": [],
      "stateMutability": "nonpayable",
      "type": "function"
    },
    {
      "inputs": [
        {
          "internalType": "address",
          "name": "from",
          "type": "address"
        },
        {
          "internalType": "address",
          "name": "to",
          "type": "address"
        },
        {
          "internalType": "uint256",
          "name": "tokenId",
          "type": "uint256"
        },
        {
          "internalType": "bytes",
          "name": "_data",
          "type": "bytes"
        }
      ],
      "name": "safeTransferFrom",
      "outputs": [],
      "stateMutability": "nonpayable",
      "type": "function"
    },
    {
      "inputs": [
        {
          "internalType": "address",
          "name": "operator",
          "type": "address"
        },
        {
          "internalType": "bool",
          "name": "approved",
          "type": "bool"
        }
      ],
      "name": "setApprovalForAll",
      "outputs": [],
      "stateMutability": "nonpayable",
      "type": "function"
    },
    {
      "inputs": [
        {
          "internalType": "bytes4",
          "name": "interfaceId",
          "type": "bytes4"
        }
      ],
      "name": "supportsInterface",
      "outputs": [
        {
          "internalType": "bool",
          "name": "",
          "type": "bool"
        }
      ],
      "stateMutability": "view",
      "type": "function",
      "constant": true
    },
    {
      "inputs": [],
      "name": "symbol",
      "outputs": [
        {
          "internalType": "string",
          "name": "",
          "type": "string"
        }
      ],
      "stateMutability": "view",
      "type": "function",
      "constant": true
    },
    {
      "inputs": [
        {
          "internalType": "uint256",
          "name": "index",
          "type": "uint256"
        }
      ],
      "name": "tokenByIndex",
      "outputs": [
        {
          "internalType": "uint256",
          "name": "",
          "type": "uint256"
        }
      ],
      "stateMutability": "view",
      "type": "function",
      "constant": true
    },
    {
      "inputs": [
        {
          "internalType": "address",
          "name": "owner",
          "type": "address"
        },
        {
          "internalType": "uint256",
          "name": "index",
          "type": "uint256"
        }
      ],
      "name": "tokenOfOwnerByIndex",
      "outputs": [
        {
          "internalType": "uint256",
          "name": "",
          "type": "uint256"
        }
      ],
      "stateMutability": "view",
      "type": "function",
      "constant": true
    },
    {
      "inputs": [
        {
          "internalType": "uint256",
          "name": "tokenId",
          "type": "uint256"
        }
      ],
      "name": "tokenURI",
      "outputs": [
        {
          "internalType": "string",
          "name": "",
          "type": "string"
        }
      ],
      "stateMutability": "view",
      "type": "function",
      "constant": true
    },
    {
      "inputs": [],
      "name": "totalSupply",
      "outputs": [
        {
          "internalType": "uint256",
          "name": "",
          "type": "uint256"
        }
      ],
      "stateMutability": "view",
      "type": "function",
      "constant": true
    },
    {
      "inputs": [
        {
          "internalType": "address",
          "name": "from",
          "type": "address"
        },
        {
          "internalType": "address",
          "name": "to",
          "type": "address"
        },
        {
          "internalType": "uint256",
          "name": "tokenId",
          "type": "uint256"
        }
      ],
      "name": "transferFrom",
      "outputs": [],
      "stateMutability": "nonpayable",
      "type": "function"
    },
    {
      "inputs": [
        {
          "internalType": "uint256",
          "name": "_collectionID",
          "type": "uint256"
        },
        {
          "internalType": "string",
          "name": "_name",
          "type": "string"
        },
        {
          "internalType": "uint256",
          "name": "_price",
          "type": "uint256"
        },
        {
          "internalType": "string",
          "name": "_itemURL",
          "type": "string"
        },
        {
          "internalType": "bool",
          "name": "_forSale",
          "type": "bool"
        }
      ],
      "name": "mintDigitalItem",
      "outputs": [],
      "stateMutability": "nonpayable",
      "type": "function"
    },
    {
      "inputs": [
        {
          "internalType": "address",
          "name": "_owner",
          "type": "address"
        },
        {
          "internalType": "uint256",
          "name": "_tokenId",
          "type": "uint256"
        },
        {
          "internalType": "uint256",
          "name": "_newCollectionID",
          "type": "uint256"
        },
        {
          "internalType": "string",
          "name": "_name",
          "type": "string"
        },
        {
          "internalType": "uint256",
          "name": "_price",
          "type": "uint256"
        },
        {
          "internalType": "string",
          "name": "_itemURL",
          "type": "string"
        },
        {
          "internalType": "uint256",
          "name": "_numberOfTransfers",
          "type": "uint256"
        },
        {
          "internalType": "bool",
          "name": "_forSale",
          "type": "bool"
        }
      ],
      "name": "updateInfoBasicDigitalItem",
      "outputs": [
        {
          "internalType": "bool",
          "name": "success",
          "type": "bool"
        }
      ],
      "stateMutability": "nonpayable",
      "type": "function"
    },
    {
      "inputs": [
        {
          "internalType": "uint256",
          "name": "_itemID",
          "type": "uint256"
        },
        {
          "internalType": "address",
          "name": "_owner",
          "type": "address"
        }
      ],
      "name": "getDigitalItem",
      "outputs": [
        {
          "components": [
            {
              "internalType": "uint256",
              "name": "tokenId",
              "type": "uint256"
            },
            {
              "internalType": "uint256",
              "name": "collectionID",
              "type": "uint256"
            },
            {
              "internalType": "string",
              "name": "name",
              "type": "string"
            },
            {
              "internalType": "uint256",
              "name": "price",
              "type": "uint256"
            },
            {
              "internalType": "string",
              "name": "itemURL",
              "type": "string"
            },
            {
              "internalType": "address payable",
              "name": "mintedBy",
              "type": "address"
            },
            {
              "internalType": "address payable",
              "name": "currentOwner",
              "type": "address"
            },
            {
              "internalType": "uint256",
              "name": "numberOfTransfers",
              "type": "uint256"
            },
            {
              "internalType": "bool",
              "name": "forSale",
              "type": "bool"
            }
          ],
          "internalType": "struct ArtFundsStorage.DigitalItem",
          "name": "",
          "type": "tuple"
        }
      ],
      "stateMutability": "view",
      "type": "function",
      "constant": true
    },
    {
      "inputs": [
        {
          "internalType": "address",
          "name": "_owner",
          "type": "address"
        }
      ],
      "name": "getDigitalItemCount",
      "outputs": [
        {
          "internalType": "uint256",
          "name": "count",
          "type": "uint256"
        }
      ],
      "stateMutability": "view",
      "type": "function",
      "constant": true
    },
    {
      "inputs": [
        {
          "internalType": "string",
          "name": "_imageURL",
          "type": "string"
        },
        {
          "internalType": "string",
          "name": "_name",
          "type": "string"
        },
        {
          "internalType": "string",
          "name": "_description",
          "type": "string"
        }
      ],
      "name": "createCollection",
      "outputs": [
        {
          "internalType": "bool",
          "name": "success",
          "type": "bool"
        }
      ],
      "stateMutability": "nonpayable",
      "type": "function"
    },
    {
      "inputs": [
        {
          "internalType": "uint256",
          "name": "_tokenId",
          "type": "uint256"
        }
      ],
      "name": "getCollectionByID",
      "outputs": [
        {
          "internalType": "uint256",
          "name": "_id",
          "type": "uint256"
        },
        {
          "internalType": "string",
          "name": "_imageURL",
          "type": "string"
        },
        {
          "internalType": "string",
          "name": "_name",
          "type": "string"
        },
        {
          "internalType": "string",
          "name": "_description",
          "type": "string"
        }
      ],
      "stateMutability": "view",
      "type": "function",
      "constant": true
    },
    {
      "inputs": [
        {
          "internalType": "uint256",
          "name": "_tokenId",
          "type": "uint256"
        },
        {
          "internalType": "address",
          "name": "_owner",
          "type": "address"
        }
      ],
      "name": "getCollection",
      "outputs": [
        {
          "internalType": "uint256",
          "name": "_id",
          "type": "uint256"
        },
        {
          "internalType": "string",
          "name": "_imageURL",
          "type": "string"
        },
        {
          "internalType": "string",
          "name": "_name",
          "type": "string"
        },
        {
          "internalType": "string",
          "name": "_description",
          "type": "string"
        }
      ],
      "stateMutability": "view",
      "type": "function",
      "constant": true
    },
    {
      "inputs": [
        {
          "internalType": "address",
          "name": "_owner",
          "type": "address"
        }
      ],
      "name": "getCollectionCount",
      "outputs": [
        {
          "internalType": "uint256",
          "name": "count",
          "type": "uint256"
        }
      ],
      "stateMutability": "view",
      "type": "function",
      "constant": true
    },
    {
      "inputs": [
        {
          "internalType": "address",
          "name": "_owner",
          "type": "address"
        }
      ],
      "name": "getDigitalItemOwnerCount",
      "outputs": [
        {
          "internalType": "uint256",
          "name": "count",
          "type": "uint256"
        }
      ],
      "stateMutability": "view",
      "type": "function",
      "constant": true
    },
    {
      "inputs": [
        {
          "internalType": "uint256",
          "name": "_tokenId",
          "type": "uint256"
        }
      ],
      "name": "buyItem",
      "outputs": [
        {
          "internalType": "bool",
          "name": "success",
          "type": "bool"
        }
      ],
      "stateMutability": "payable",
      "type": "function",
      "payable": true
    },
    {
      "inputs": [
        {
          "internalType": "uint256",
          "name": "_tokenId",
          "type": "uint256"
        },
        {
          "internalType": "uint256",
          "name": "_newPrice",
          "type": "uint256"
        }
      ],
      "name": "changeItemPrice",
      "outputs": [
        {
          "internalType": "bool",
          "name": "success",
          "type": "bool"
        }
      ],
      "stateMutability": "nonpayable",
      "type": "function"
    }
  ],
  "bytecode": "0x60806040526000600d553480156200001657600080fd5b506040518060400160405280601381526020017f41727446756e647320436f6c6c656374696f6e000000000000000000000000008152506040518060400160405280600281526020017f43420000000000000000000000000000000000000000000000000000000000008152506200009b6301ffc9a760e01b620001d860201b60201c565b8160069080519060200190620000b39291906200042d565b508060079080519060200190620000cc9291906200042d565b50620000e56380ac58cd60e01b620001d860201b60201c565b620000fd635b5e139f60e01b620001d860201b60201c565b6200011563780e9d6360e01b620001d860201b60201c565b505062000127620002e160201b60201c565b600a90805190602001906200013e9291906200042d565b506200014f6200038760201b60201c565b600b9080519060200190620001669291906200042d565b50730972db4e608b92899a0a9514257070502592362b73ffffffffffffffffffffffffffffffffffffffff16600c60006101000a81548173ffffffffffffffffffffffffffffffffffffffff021916908373ffffffffffffffffffffffffffffffffffffffff160217905550620004e3565b63ffffffff60e01b817bffffffffffffffffffffffffffffffffffffffffffffffffffffffff1916141562000275576040517f08c379a000000000000000000000000000000000000000000000000000000000815260040180806020018281038252601c8152602001807f4552433136353a20696e76616c696420696e746572666163652069640000000081525060200191505060405180910390fd5b6001600080837bffffffffffffffffffffffffffffffffffffffffffffffffffffffff19167bffffffffffffffffffffffffffffffffffffffffffffffffffffffff1916815260200190815260200160002060006101000a81548160ff02191690831515021790555050565b606060068054600181600116156101000203166002900480601f0160208091040260200160405190810160405280929190818152602001828054600181600116156101000203166002900480156200037d5780601f1062000351576101008083540402835291602001916200037d565b820191906000526020600020905b8154815290600101906020018083116200035f57829003601f168201915b5050505050905090565b606060078054600181600116156101000203166002900480601f016020809104026020016040519081016040528092919081815260200182805460018160011615610100020316600290048015620004235780601f10620003f75761010080835404028352916020019162000423565b820191906000526020600020905b8154815290600101906020018083116200040557829003601f168201915b5050505050905090565b828054600181600116156101000203166002900490600052602060002090601f016020900481019282620004655760008555620004b1565b82601f106200048057805160ff1916838001178555620004b1565b82800160010185558215620004b1579182015b82811115620004b057825182559160200191906001019062000493565b5b509050620004c09190620004c4565b5090565b5b80821115620004df576000816000905550600101620004c5565b5090565b615edf80620004f36000396000f3fe60806040526004361061021a5760003560e01c80636352211e11610123578063a22cb465116100ab578063d79e69421161006f578063d79e6942146108d3578063e5326ab114610910578063e7fb74c71461093b578063e985e9c51461096b578063ece86c21146109a85761021a565b8063a22cb465146107c2578063a7b19424146107eb578063b88d4fde14610828578063c87b56dd14610851578063d5f45a7d1461088e5761021a565b806370a08231116100f257806370a082311461069b5780638146f68d146106d8578063849a33ce1461071d57806395d89b411461075a5780639bdbf7e0146107855761021a565b80636352211e146105df5780636a3a852e1461061c5780636c0360eb146106455780636f9507f9146106705761021a565b80632f745c59116101a657806344ee9f661161017557806344ee9f66146104ba5780634e5d2821146104fa5780634f6ccce71461053a5780635187a82d1461057757806354515bb6146105a25761021a565b80632f745c59146103e9578063371913261461042657806339b5f8301461045157806342842e0e146104915761021a565b8063081812fc116101ed578063081812fc14610304578063095ea7b31461034157806318160ddd1461036a57806322c009361461039557806323b872dd146103c05761021a565b806301188b3f1461021f57806301ffc9a71461025f57806306fdde031461029c57806307a5b578146102c7575b600080fd5b34801561022b57600080fd5b5061024660048036038101906102419190615523565b6109e5565b6040516102569493929190615910565b60405180910390f35b34801561026b57600080fd5b506102866004803603810190610281919061543a565b610c69565b604051610293919061582e565b60405180910390f35b3480156102a857600080fd5b506102b1610cd0565b6040516102be9190615849565b60405180910390f35b3480156102d357600080fd5b506102ee60048036038101906102e991906151b1565b610d72565b6040516102fb919061588d565b60405180910390f35b34801561031057600080fd5b5061032b600480360381019061032691906154fa565b610df7565b60405161033891906157f8565b60405180910390f35b34801561034d57600080fd5b506103686004803603810190610363919061531c565b610e92565b005b34801561037657600080fd5b5061037f610fd6565b60405161038c919061588d565b60405180910390f35b3480156103a157600080fd5b506103aa610fe7565b6040516103b79190615813565b60405180910390f35b3480156103cc57600080fd5b506103e760048036038101906103e29190615216565b61100d565b005b3480156103f557600080fd5b50610410600480360381019061040b919061531c565b611083565b60405161041d919061588d565b60405180910390f35b34801561043257600080fd5b5061043b6110de565b604051610448919061588d565b60405180910390f35b34801561045d57600080fd5b506104786004803603810190610473919061531c565b6110e4565b6040516104889493929190615910565b60405180910390f35b34801561049d57600080fd5b506104b860048036038101906104b39190615216565b6112f9565b005b3480156104c657600080fd5b506104e160048036038101906104dc91906154fa565b611319565b6040516104f19493929190615910565b60405180910390f35b34801561050657600080fd5b50610521600480360381019061051c91906154fa565b611511565b6040516105319493929190615910565b60405180910390f35b34801561054657600080fd5b50610561600480360381019061055c91906154fa565b61174e565b60405161056e919061588d565b60405180910390f35b34801561058357600080fd5b5061058c611771565b604051610599919061588d565b60405180910390f35b3480156105ae57600080fd5b506105c960048036038101906105c491906151b1565b611777565b6040516105d6919061588d565b60405180910390f35b3480156105eb57600080fd5b50610606600480360381019061060191906154fa565b6117c3565b60405161061391906157f8565b60405180910390f35b34801561062857600080fd5b50610643600480360381019061063e919061555f565b6117fa565b005b34801561065157600080fd5b5061065a611b96565b6040516106679190615849565b60405180910390f35b34801561067c57600080fd5b50610685611c38565b6040516106929190615849565b60405180910390f35b3480156106a757600080fd5b506106c260048036038101906106bd91906151b1565b611cd6565b6040516106cf919061588d565b60405180910390f35b3480156106e457600080fd5b506106ff60048036038101906106fa91906154fa565b611dab565b6040516107149998979695949392919061596a565b60405180910390f35b34801561072957600080fd5b50610744600480360381019061073f91906151b1565b611f76565b604051610751919061588d565b60405180910390f35b34801561076657600080fd5b5061076f611fc2565b60405161077c9190615849565b60405180910390f35b34801561079157600080fd5b506107ac60048036038101906107a79190615523565b612064565b6040516107b9919061586b565b60405180910390f35b3480156107ce57600080fd5b506107e960048036038101906107e491906152e0565b6123aa565b005b3480156107f757600080fd5b50610812600480360381019061080d9190615606565b612560565b60405161081f919061582e565b60405180910390f35b34801561083457600080fd5b5061084f600480360381019061084a9190615265565b612a10565b005b34801561085d57600080fd5b50610878600480360381019061087391906154fa565b612a88565b6040516108859190615849565b60405180910390f35b34801561089a57600080fd5b506108b560048036038101906108b0919061531c565b612d59565b6040516108ca9998979695949392919061596a565b60405180910390f35b3480156108df57600080fd5b506108fa60048036038101906108f59190615358565b612f41565b604051610907919061582e565b60405180910390f35b34801561091c57600080fd5b50610925613407565b6040516109329190615849565b60405180910390f35b610955600480360381019061095091906154fa565b6134a5565b604051610962919061582e565b60405180910390f35b34801561097757600080fd5b50610992600480360381019061098d91906151da565b613a3d565b60405161099f919061582e565b60405180910390f35b3480156109b457600080fd5b506109cf60048036038101906109ca9190615463565b613ad1565b6040516109dc919061582e565b60405180910390f35b600060608060606000600e60008773ffffffffffffffffffffffffffffffffffffffff1673ffffffffffffffffffffffffffffffffffffffff1681526020019081526020016000208781548110610a3857fe5b906000526020600020906004020160405180608001604052908160008201548152602001600182018054600181600116156101000203166002900480601f016020809104026020016040519081016040528092919081815260200182805460018160011615610100020316600290048015610af45780601f10610ac957610100808354040283529160200191610af4565b820191906000526020600020905b815481529060010190602001808311610ad757829003601f168201915b50505050508152602001600282018054600181600116156101000203166002900480601f016020809104026020016040519081016040528092919081815260200182805460018160011615610100020316600290048015610b965780601f10610b6b57610100808354040283529160200191610b96565b820191906000526020600020905b815481529060010190602001808311610b7957829003601f168201915b50505050508152602001600382018054600181600116156101000203166002900480601f016020809104026020016040519081016040528092919081815260200182805460018160011615610100020316600290048015610c385780601f10610c0d57610100808354040283529160200191610c38565b820191906000526020600020905b815481529060010190602001808311610c1b57829003601f168201915b5050505050815250509050806000015181602001518260400151836060015194509450945094505092959194509250565b6000806000837bffffffffffffffffffffffffffffffffffffffffffffffffffffffff19167bffffffffffffffffffffffffffffffffffffffffffffffffffffffff1916815260200190815260200160002060009054906101000a900460ff169050919050565b606060068054600181600116156101000203166002900480601f016020809104026020016040519081016040528092919081815260200182805460018160011615610100020316600290048015610d685780601f10610d3d57610100808354040283529160200191610d68565b820191906000526020600020905b815481529060010190602001808311610d4b57829003601f168201915b5050505050905090565b60008073ffffffffffffffffffffffffffffffffffffffff168273ffffffffffffffffffffffffffffffffffffffff161415610dad57600080fd5b601060008373ffffffffffffffffffffffffffffffffffffffff1673ffffffffffffffffffffffffffffffffffffffff168152602001908152602001600020805490509050919050565b6000610e0282613c9f565b610e57576040517f08c379a000000000000000000000000000000000000000000000000000000000815260040180806020018281038252602c815260200180615da8602c913960400191505060405180910390fd5b6004600083815260200190815260200160002060009054906101000a900473ffffffffffffffffffffffffffffffffffffffff169050919050565b6000610e9d826117c3565b90508073ffffffffffffffffffffffffffffffffffffffff168373ffffffffffffffffffffffffffffffffffffffff161415610f24576040517f08c379a0000000000000000000000000000000000000000000000000000000008152600401808060200182810382526021815260200180615e586021913960400191505060405180910390fd5b8073ffffffffffffffffffffffffffffffffffffffff16610f43613cbc565b73ffffffffffffffffffffffffffffffffffffffff161480610f725750610f7181610f6c613cbc565b613a3d565b5b610fc7576040517f08c379a0000000000000000000000000000000000000000000000000000000008152600401808060200182810382526038815260200180615cfb6038913960400191505060405180910390fd5b610fd18383613cc4565b505050565b6000610fe26002613d7d565b905090565b600c60009054906101000a900473ffffffffffffffffffffffffffffffffffffffff1681565b61101e611018613cbc565b82613d92565b611073576040517f08c379a0000000000000000000000000000000000000000000000000000000008152600401808060200182810382526031815260200180615e796031913960400191505060405180910390fd5b61107e838383613e86565b505050565b60006110d682600160008673ffffffffffffffffffffffffffffffffffffffff1673ffffffffffffffffffffffffffffffffffffffff1681526020019081526020016000206140c990919063ffffffff16565b905092915050565b600f5481565b600e602052816000526040600020818154811061110057600080fd5b906000526020600020906004020160009150915050806000015490806001018054600181600116156101000203166002900480601f0160208091040260200160405190810160405280929190818152602001828054600181600116156101000203166002900480156111b35780601f10611188576101008083540402835291602001916111b3565b820191906000526020600020905b81548152906001019060200180831161119657829003601f168201915b505050505090806002018054600181600116156101000203166002900480601f0160208091040260200160405190810160405280929190818152602001828054600181600116156101000203166002900480156112515780601f1061122657610100808354040283529160200191611251565b820191906000526020600020905b81548152906001019060200180831161123457829003601f168201915b505050505090806003018054600181600116156101000203166002900480601f0160208091040260200160405190810160405280929190818152602001828054600181600116156101000203166002900480156112ef5780601f106112c4576101008083540402835291602001916112ef565b820191906000526020600020905b8154815290600101906020018083116112d257829003601f168201915b5050505050905084565b61131483838360405180602001604052806000815250612a10565b505050565b6012602052806000526040600020600091509050806000015490806001018054600181600116156101000203166002900480601f0160208091040260200160405190810160405280929190818152602001828054600181600116156101000203166002900480156113cb5780601f106113a0576101008083540402835291602001916113cb565b820191906000526020600020905b8154815290600101906020018083116113ae57829003601f168201915b505050505090806002018054600181600116156101000203166002900480601f0160208091040260200160405190810160405280929190818152602001828054600181600116156101000203166002900480156114695780601f1061143e57610100808354040283529160200191611469565b820191906000526020600020905b81548152906001019060200180831161144c57829003601f168201915b505050505090806003018054600181600116156101000203166002900480601f0160208091040260200160405190810160405280929190818152602001828054600181600116156101000203166002900480156115075780601f106114dc57610100808354040283529160200191611507565b820191906000526020600020905b8154815290600101906020018083116114ea57829003601f168201915b5050505050905084565b6000606080606060006012600087815260200190815260200160002060405180608001604052908160008201548152602001600182018054600181600116156101000203166002900480601f0160208091040260200160405190810160405280929190818152602001828054600181600116156101000203166002900480156115db5780601f106115b0576101008083540402835291602001916115db565b820191906000526020600020905b8154815290600101906020018083116115be57829003601f168201915b50505050508152602001600282018054600181600116156101000203166002900480601f01602080910402602001604051908101604052809291908181526020018280546001816001161561010002031660029004801561167d5780601f106116525761010080835404028352916020019161167d565b820191906000526020600020905b81548152906001019060200180831161166057829003601f168201915b50505050508152602001600382018054600181600116156101000203166002900480601f01602080910402602001604051908101604052809291908181526020018280546001816001161561010002031660029004801561171f5780601f106116f45761010080835404028352916020019161171f565b820191906000526020600020905b81548152906001019060200180831161170257829003601f168201915b505050505081525050905080600001518160200151826040015183606001519450945094509450509193509193565b6000806117658360026140e390919063ffffffff16565b50905080915050919050565b600d5481565b6000600e60008373ffffffffffffffffffffffffffffffffffffffff1673ffffffffffffffffffffffffffffffffffffffff168152602001908152602001600020805490509050919050565b60006117f382604051806060016040528060298152602001615d5d60299139600261410f9092919063ffffffff16565b9050919050565b600073ffffffffffffffffffffffffffffffffffffffff163373ffffffffffffffffffffffffffffffffffffffff16141561183457600080fd5b600f60008154809291906001019190505550611851600f54613c9f565b1561185b57600080fd5b61186733600f5461412e565b611873600f5483614322565b6000604051806101200160405280600f5481526020018781526020018681526020018581526020018481526020013373ffffffffffffffffffffffffffffffffffffffff1681526020013373ffffffffffffffffffffffffffffffffffffffff1681526020016000815260200183151581525090508060116000600f5481526020019081526020016000206000820151816000015560208201518160010155604082015181600201908051906020019061192e929190614f68565b50606082015181600301556080820151816004019080519060200190611955929190614f68565b5060a08201518160050160006101000a81548173ffffffffffffffffffffffffffffffffffffffff021916908373ffffffffffffffffffffffffffffffffffffffff16021790555060c08201518160060160006101000a81548173ffffffffffffffffffffffffffffffffffffffff021916908373ffffffffffffffffffffffffffffffffffffffff16021790555060e082015181600701556101008201518160080160006101000a81548160ff021916908315150217905550905050601060003373ffffffffffffffffffffffffffffffffffffffff1673ffffffffffffffffffffffffffffffffffffffff16815260200190815260200160002081908060018154018082558091505060019003906000526020600020906009020160009091909190915060008201518160000155602082015181600101556040820151816002019080519060200190611aab929190614f68565b50606082015181600301556080820151816004019080519060200190611ad2929190614f68565b5060a08201518160050160006101000a81548173ffffffffffffffffffffffffffffffffffffffff021916908373ffffffffffffffffffffffffffffffffffffffff16021790555060c08201518160060160006101000a81548173ffffffffffffffffffffffffffffffffffffffff021916908373ffffffffffffffffffffffffffffffffffffffff16021790555060e082015181600701556101008201518160080160006101000a81548160ff0219169083151502179055505050505050505050565b606060098054600181600116156101000203166002900480601f016020809104026020016040519081016040528092919081815260200182805460018160011615610100020316600290048015611c2e5780601f10611c0357610100808354040283529160200191611c2e565b820191906000526020600020905b815481529060010190602001808311611c1157829003601f168201915b5050505050905090565b600b8054600181600116156101000203166002900480601f016020809104026020016040519081016040528092919081815260200182805460018160011615610100020316600290048015611cce5780601f10611ca357610100808354040283529160200191611cce565b820191906000526020600020905b815481529060010190602001808311611cb157829003601f168201915b505050505081565b60008073ffffffffffffffffffffffffffffffffffffffff168273ffffffffffffffffffffffffffffffffffffffff161415611d5d576040517f08c379a000000000000000000000000000000000000000000000000000000000815260040180806020018281038252602a815260200180615d33602a913960400191505060405180910390fd5b611da4600160008473ffffffffffffffffffffffffffffffffffffffff1673ffffffffffffffffffffffffffffffffffffffff1681526020019081526020016000206143ac565b9050919050565b6011602052806000526040600020600091509050806000015490806001015490806002018054600181600116156101000203166002900480601f016020809104026020016040519081016040528092919081815260200182805460018160011615610100020316600290048015611e635780601f10611e3857610100808354040283529160200191611e63565b820191906000526020600020905b815481529060010190602001808311611e4657829003601f168201915b505050505090806003015490806004018054600181600116156101000203166002900480601f016020809104026020016040519081016040528092919081815260200182805460018160011615610100020316600290048015611f075780601f10611edc57610100808354040283529160200191611f07565b820191906000526020600020905b815481529060010190602001808311611eea57829003601f168201915b5050505050908060050160009054906101000a900473ffffffffffffffffffffffffffffffffffffffff16908060060160009054906101000a900473ffffffffffffffffffffffffffffffffffffffff16908060070154908060080160009054906101000a900460ff16905089565b6000601060008373ffffffffffffffffffffffffffffffffffffffff1673ffffffffffffffffffffffffffffffffffffffff168152602001908152602001600020805490509050919050565b606060078054600181600116156101000203166002900480601f01602080910402602001604051908101604052809291908181526020018280546001816001161561010002031660029004801561205a5780601f1061202f5761010080835404028352916020019161205a565b820191906000526020600020905b81548152906001019060200180831161203d57829003601f168201915b5050505050905090565b61206c614ff6565b600073ffffffffffffffffffffffffffffffffffffffff168273ffffffffffffffffffffffffffffffffffffffff1614156120a657600080fd5b6000600d5410156120b657600080fd5b6000601060008473ffffffffffffffffffffffffffffffffffffffff1673ffffffffffffffffffffffffffffffffffffffff168152602001908152602001600020805490501161210557600080fd5b6000601060008473ffffffffffffffffffffffffffffffffffffffff1673ffffffffffffffffffffffffffffffffffffffff168152602001908152602001600020848154811061215157fe5b9060005260206000209060090201604051806101200160405290816000820154815260200160018201548152602001600282018054600181600116156101000203166002900480601f0160208091040260200160405190810160405280929190818152602001828054600181600116156101000203166002900480156122185780601f106121ed57610100808354040283529160200191612218565b820191906000526020600020905b8154815290600101906020018083116121fb57829003601f168201915b5050505050815260200160038201548152602001600482018054600181600116156101000203166002900480601f0160208091040260200160405190810160405280929190818152602001828054600181600116156101000203166002900480156122c45780601f10612299576101008083540402835291602001916122c4565b820191906000526020600020905b8154815290600101906020018083116122a757829003601f168201915b505050505081526020016005820160009054906101000a900473ffffffffffffffffffffffffffffffffffffffff1673ffffffffffffffffffffffffffffffffffffffff1673ffffffffffffffffffffffffffffffffffffffff1681526020016006820160009054906101000a900473ffffffffffffffffffffffffffffffffffffffff1673ffffffffffffffffffffffffffffffffffffffff1673ffffffffffffffffffffffffffffffffffffffff168152602001600782015481526020016008820160009054906101000a900460ff16151515158152505090508091505092915050565b6123b2613cbc565b73ffffffffffffffffffffffffffffffffffffffff168273ffffffffffffffffffffffffffffffffffffffff161415612453576040517f08c379a00000000000000000000000000000000000000000000000000000000081526004018080602001828103825260198152602001807f4552433732313a20617070726f766520746f2063616c6c65720000000000000081525060200191505060405180910390fd5b8060056000612460613cbc565b73ffffffffffffffffffffffffffffffffffffffff1673ffffffffffffffffffffffffffffffffffffffff16815260200190815260200160002060008473ffffffffffffffffffffffffffffffffffffffff1673ffffffffffffffffffffffffffffffffffffffff16815260200190815260200160002060006101000a81548160ff0219169083151502179055508173ffffffffffffffffffffffffffffffffffffffff1661250d613cbc565b73ffffffffffffffffffffffffffffffffffffffff167f17307eab39ab6107e8899845ad3d59bd9653f200f220920489ca2b5937696c318360405180821515815260200191505060405180910390a35050565b60008073ffffffffffffffffffffffffffffffffffffffff163373ffffffffffffffffffffffffffffffffffffffff16141561259b57600080fd5b6125a483613c9f565b6125ad57600080fd5b60006125b8846117c3565b90503373ffffffffffffffffffffffffffffffffffffffff168173ffffffffffffffffffffffffffffffffffffffff16146125f257600080fd5b6000601060008373ffffffffffffffffffffffffffffffffffffffff1673ffffffffffffffffffffffffffffffffffffffff168152602001908152602001600020858154811061263e57fe5b9060005260206000209060090201604051806101200160405290816000820154815260200160018201548152602001600282018054600181600116156101000203166002900480601f0160208091040260200160405190810160405280929190818152602001828054600181600116156101000203166002900480156127055780601f106126da57610100808354040283529160200191612705565b820191906000526020600020905b8154815290600101906020018083116126e857829003601f168201915b5050505050815260200160038201548152602001600482018054600181600116156101000203166002900480601f0160208091040260200160405190810160405280929190818152602001828054600181600116156101000203166002900480156127b15780601f10612786576101008083540402835291602001916127b1565b820191906000526020600020905b81548152906001019060200180831161279457829003601f168201915b505050505081526020016005820160009054906101000a900473ffffffffffffffffffffffffffffffffffffffff1673ffffffffffffffffffffffffffffffffffffffff1673ffffffffffffffffffffffffffffffffffffffff1681526020016006820160009054906101000a900473ffffffffffffffffffffffffffffffffffffffff1673ffffffffffffffffffffffffffffffffffffffff1673ffffffffffffffffffffffffffffffffffffffff168152602001600782015481526020016008820160009054906101000a900460ff16151515158152505090508381606001818152505080601060008473ffffffffffffffffffffffffffffffffffffffff1673ffffffffffffffffffffffffffffffffffffffff16815260200190815260200160002086815481106128e257fe5b906000526020600020906009020160008201518160000155602082015181600101556040820151816002019080519060200190612920929190614f68565b50606082015181600301556080820151816004019080519060200190612947929190614f68565b5060a08201518160050160006101000a81548173ffffffffffffffffffffffffffffffffffffffff021916908373ffffffffffffffffffffffffffffffffffffffff16021790555060c08201518160060160006101000a81548173ffffffffffffffffffffffffffffffffffffffff021916908373ffffffffffffffffffffffffffffffffffffffff16021790555060e082015181600701556101008201518160080160006101000a81548160ff02191690831515021790555090505060019250505092915050565b612a21612a1b613cbc565b83613d92565b612a76576040517f08c379a0000000000000000000000000000000000000000000000000000000008152600401808060200182810382526031815260200180615e796031913960400191505060405180910390fd5b612a82848484846143c1565b50505050565b6060612a9382613c9f565b612ae8576040517f08c379a000000000000000000000000000000000000000000000000000000000815260040180806020018281038252602f815260200180615e29602f913960400191505060405180910390fd5b6000600860008481526020019081526020016000208054600181600116156101000203166002900480601f016020809104026020016040519081016040528092919081815260200182805460018160011615610100020316600290048015612b915780601f10612b6657610100808354040283529160200191612b91565b820191906000526020600020905b815481529060010190602001808311612b7457829003601f168201915b505050505090506000612ba2611b96565b9050600081511415612bb8578192505050612d54565b600082511115612c895780826040516020018083805190602001908083835b60208310612bfa5780518252602082019150602081019050602083039250612bd7565b6001836020036101000a03801982511681845116808217855250505050505090500182805190602001908083835b60208310612c4b5780518252602082019150602081019050602083039250612c28565b6001836020036101000a0380198251168184511680821785525050505050509050019250505060405160208183030381529060405292505050612d54565b80612c9385614433565b6040516020018083805190602001908083835b60208310612cc95780518252602082019150602081019050602083039250612ca6565b6001836020036101000a03801982511681845116808217855250505050505090500182805190602001908083835b60208310612d1a5780518252602082019150602081019050602083039250612cf7565b6001836020036101000a03801982511681845116808217855250505050505090500192505050604051602081830303815290604052925050505b919050565b60106020528160005260406000208181548110612d7557600080fd5b906000526020600020906009020160009150915050806000015490806001015490806002018054600181600116156101000203166002900480601f016020809104026020016040519081016040528092919081815260200182805460018160011615610100020316600290048015612e2e5780601f10612e0357610100808354040283529160200191612e2e565b820191906000526020600020905b815481529060010190602001808311612e1157829003601f168201915b505050505090806003015490806004018054600181600116156101000203166002900480601f016020809104026020016040519081016040528092919081815260200182805460018160011615610100020316600290048015612ed25780601f10612ea757610100808354040283529160200191612ed2565b820191906000526020600020905b815481529060010190602001808311612eb557829003601f168201915b5050505050908060050160009054906101000a900473ffffffffffffffffffffffffffffffffffffffff16908060060160009054906101000a900473ffffffffffffffffffffffffffffffffffffffff16908060070154908060080160009054906101000a900460ff16905089565b6000612f4c88613c9f565b612f5557600080fd5b612f5e87613c9f565b612f6757600080fd5b6000612f72896117c3565b90508973ffffffffffffffffffffffffffffffffffffffff168173ffffffffffffffffffffffffffffffffffffffff1614612fac57600080fd5b6000601060008c73ffffffffffffffffffffffffffffffffffffffff1673ffffffffffffffffffffffffffffffffffffffff1681526020019081526020016000208a81548110612ff857fe5b9060005260206000209060090201604051806101200160405290816000820154815260200160018201548152602001600282018054600181600116156101000203166002900480601f0160208091040260200160405190810160405280929190818152602001828054600181600116156101000203166002900480156130bf5780601f10613094576101008083540402835291602001916130bf565b820191906000526020600020905b8154815290600101906020018083116130a257829003601f168201915b5050505050815260200160038201548152602001600482018054600181600116156101000203166002900480601f01602080910402602001604051908101604052809291908181526020018280546001816001161561010002031660029004801561316b5780601f106131405761010080835404028352916020019161316b565b820191906000526020600020905b81548152906001019060200180831161314e57829003601f168201915b505050505081526020016005820160009054906101000a900473ffffffffffffffffffffffffffffffffffffffff1673ffffffffffffffffffffffffffffffffffffffff1673ffffffffffffffffffffffffffffffffffffffff1681526020016006820160009054906101000a900473ffffffffffffffffffffffffffffffffffffffff1673ffffffffffffffffffffffffffffffffffffffff1673ffffffffffffffffffffffffffffffffffffffff168152602001600782015481526020016008820160009054906101000a900460ff161515151581525050905085816080018190525087816040018190525086816060018181525050838161010001901515908115158152505088816020018181525050848160e001818152505080601060008d73ffffffffffffffffffffffffffffffffffffffff1673ffffffffffffffffffffffffffffffffffffffff1681526020019081526020016000208b815481106132d357fe5b906000526020600020906009020160008201518160000155602082015181600101556040820151816002019080519060200190613311929190614f68565b50606082015181600301556080820151816004019080519060200190613338929190614f68565b5060a08201518160050160006101000a81548173ffffffffffffffffffffffffffffffffffffffff021916908373ffffffffffffffffffffffffffffffffffffffff16021790555060c08201518160060160006101000a81548173ffffffffffffffffffffffffffffffffffffffff021916908373ffffffffffffffffffffffffffffffffffffffff16021790555060e082015181600701556101008201518160080160006101000a81548160ff02191690831515021790555090505060019250505098975050505050505050565b600a8054600181600116156101000203166002900480601f01602080910402602001604051908101604052809291908181526020018280546001816001161561010002031660029004801561349d5780601f106134725761010080835404028352916020019161349d565b820191906000526020600020905b81548152906001019060200180831161348057829003601f168201915b505050505081565b60008073ffffffffffffffffffffffffffffffffffffffff163373ffffffffffffffffffffffffffffffffffffffff1614156134e057600080fd5b6134e982613c9f565b6134f257600080fd5b60006134fd836117c3565b9050600073ffffffffffffffffffffffffffffffffffffffff168173ffffffffffffffffffffffffffffffffffffffff16141561353957600080fd5b3373ffffffffffffffffffffffffffffffffffffffff168173ffffffffffffffffffffffffffffffffffffffff16141561357257600080fd5b600060116000858152602001908152602001600020604051806101200160405290816000820154815260200160018201548152602001600282018054600181600116156101000203166002900480601f0160208091040260200160405190810160405280929190818152602001828054600181600116156101000203166002900480156136405780601f1061361557610100808354040283529160200191613640565b820191906000526020600020905b81548152906001019060200180831161362357829003601f168201915b5050505050815260200160038201548152602001600482018054600181600116156101000203166002900480601f0160208091040260200160405190810160405280929190818152602001828054600181600116156101000203166002900480156136ec5780601f106136c1576101008083540402835291602001916136ec565b820191906000526020600020905b8154815290600101906020018083116136cf57829003601f168201915b505050505081526020016005820160009054906101000a900473ffffffffffffffffffffffffffffffffffffffff1673ffffffffffffffffffffffffffffffffffffffff1673ffffffffffffffffffffffffffffffffffffffff1681526020016006820160009054906101000a900473ffffffffffffffffffffffffffffffffffffffff1673ffffffffffffffffffffffffffffffffffffffff1673ffffffffffffffffffffffffffffffffffffffff168152602001600782015481526020016008820160009054906101000a900460ff161515151581525050905080606001513410156137d957600080fd5b8061010001516137e857600080fd5b6137f3823386613e86565b60008160c00151905060008260a0015190508173ffffffffffffffffffffffffffffffffffffffff166108fc6064605f34028161382c57fe5b049081150290604051600060405180830381858888f19350505050158015613858573d6000803e3d6000fd5b508073ffffffffffffffffffffffffffffffffffffffff166108fc6064600334028161388057fe5b049081150290604051600060405180830381858888f193505050501580156138ac573d6000803e3d6000fd5b50338360c0019073ffffffffffffffffffffffffffffffffffffffff16908173ffffffffffffffffffffffffffffffffffffffff168152505060018360e001818151019150818152505060008361010001901515908115158152505082601160008881526020019081526020016000206000820151816000015560208201518160010155604082015181600201908051906020019061394c929190614f68565b50606082015181600301556080820151816004019080519060200190613973929190614f68565b5060a08201518160050160006101000a81548173ffffffffffffffffffffffffffffffffffffffff021916908373ffffffffffffffffffffffffffffffffffffffff16021790555060c08201518160060160006101000a81548173ffffffffffffffffffffffffffffffffffffffff021916908373ffffffffffffffffffffffffffffffffffffffff16021790555060e082015181600701556101008201518160080160006101000a81548160ff0219169083151502179055509050506001945050505050919050565b6000600560008473ffffffffffffffffffffffffffffffffffffffff1673ffffffffffffffffffffffffffffffffffffffff16815260200190815260200160002060008373ffffffffffffffffffffffffffffffffffffffff1673ffffffffffffffffffffffffffffffffffffffff16815260200190815260200160002060009054906101000a900460ff16905092915050565b6000600d6000815480929190600101919050555060006040518060800160405280600d5481526020018681526020018581526020018481525090508060126000600d548152602001908152602001600020600082015181600001556020820151816001019080519060200190613b48929190614f68565b506040820151816002019080519060200190613b65929190614f68565b506060820151816003019080519060200190613b82929190614f68565b50905050600e60003373ffffffffffffffffffffffffffffffffffffffff1673ffffffffffffffffffffffffffffffffffffffff168152602001908152602001600020819080600181540180825580915050600190039060005260206000209060040201600090919091909150600082015181600001556020820151816001019080519060200190613c15929190614f68565b506040820151816002019080519060200190613c32929190614f68565b506060820151816003019080519060200190613c4f929190614f68565b5050507fefbd145fea57de09a0db3eea45c2b6b13a53246bff3d28eaf26c5b4b1ece83f8600d5486863387604051613c8b9594939291906158a8565b60405180910390a160019150509392505050565b6000613cb582600261457a90919063ffffffff16565b9050919050565b600033905090565b816004600083815260200190815260200160002060006101000a81548173ffffffffffffffffffffffffffffffffffffffff021916908373ffffffffffffffffffffffffffffffffffffffff160217905550808273ffffffffffffffffffffffffffffffffffffffff16613d37836117c3565b73ffffffffffffffffffffffffffffffffffffffff167f8c5be1e5ebec7d5bd14f71427d1e84f3dd0314c0f7b2291e5b200ac8c7c3b92560405160405180910390a45050565b6000613d8b82600001614594565b9050919050565b6000613d9d82613c9f565b613df2576040517f08c379a000000000000000000000000000000000000000000000000000000000815260040180806020018281038252602c815260200180615ccf602c913960400191505060405180910390fd5b6000613dfd836117c3565b90508073ffffffffffffffffffffffffffffffffffffffff168473ffffffffffffffffffffffffffffffffffffffff161480613e6c57508373ffffffffffffffffffffffffffffffffffffffff16613e5484610df7565b73ffffffffffffffffffffffffffffffffffffffff16145b80613e7d5750613e7c8185613a3d565b5b91505092915050565b8273ffffffffffffffffffffffffffffffffffffffff16613ea6826117c3565b73ffffffffffffffffffffffffffffffffffffffff1614613f12576040517f08c379a0000000000000000000000000000000000000000000000000000000008152600401808060200182810382526029815260200180615e006029913960400191505060405180910390fd5b600073ffffffffffffffffffffffffffffffffffffffff168273ffffffffffffffffffffffffffffffffffffffff161415613f98576040517f08c379a0000000000000000000000000000000000000000000000000000000008152600401808060200182810382526024815260200180615c856024913960400191505060405180910390fd5b613fa38383836145a5565b613fae600082613cc4565b613fff81600160008673ffffffffffffffffffffffffffffffffffffffff1673ffffffffffffffffffffffffffffffffffffffff1681526020019081526020016000206145aa90919063ffffffff16565b5061405181600160008573ffffffffffffffffffffffffffffffffffffffff1673ffffffffffffffffffffffffffffffffffffffff1681526020019081526020016000206145c490919063ffffffff16565b50614068818360026145de9092919063ffffffff16565b50808273ffffffffffffffffffffffffffffffffffffffff168473ffffffffffffffffffffffffffffffffffffffff167fddf252ad1be2c89b69c2b068fc378daa952ba7f163c4a11628f55a4df523b3ef60405160405180910390a4505050565b60006140d88360000183614613565b60001c905092915050565b6000806000806140f68660000186614696565b915091508160001c8160001c9350935050509250929050565b6000614122846000018460001b8461472f565b60001c90509392505050565b600073ffffffffffffffffffffffffffffffffffffffff168273ffffffffffffffffffffffffffffffffffffffff1614156141d1576040517f08c379a00000000000000000000000000000000000000000000000000000000081526004018080602001828103825260208152602001807f4552433732313a206d696e7420746f20746865207a65726f206164647265737381525060200191505060405180910390fd5b6141da81613c9f565b1561424d576040517f08c379a000000000000000000000000000000000000000000000000000000000815260040180806020018281038252601c8152602001807f4552433732313a20746f6b656e20616c7265616479206d696e7465640000000081525060200191505060405180910390fd5b614259600083836145a5565b6142aa81600160008573ffffffffffffffffffffffffffffffffffffffff1673ffffffffffffffffffffffffffffffffffffffff1681526020019081526020016000206145c490919063ffffffff16565b506142c1818360026145de9092919063ffffffff16565b50808273ffffffffffffffffffffffffffffffffffffffff16600073ffffffffffffffffffffffffffffffffffffffff167fddf252ad1be2c89b69c2b068fc378daa952ba7f163c4a11628f55a4df523b3ef60405160405180910390a45050565b61432b82613c9f565b614380576040517f08c379a000000000000000000000000000000000000000000000000000000000815260040180806020018281038252602c815260200180615dd4602c913960400191505060405180910390fd5b806008600084815260200190815260200160002090805190602001906143a7929190614f68565b505050565b60006143ba82600001614825565b9050919050565b6143cc848484613e86565b6143d884848484614836565b61442d576040517f08c379a0000000000000000000000000000000000000000000000000000000008152600401808060200182810382526032815260200180615c536032913960400191505060405180910390fd5b50505050565b6060600082141561447b576040518060400160405280600181526020017f30000000000000000000000000000000000000000000000000000000000000008152509050614575565b600082905060005b600082146144a5578080600101915050600a828161449d57fe5b049150614483565b60008167ffffffffffffffff811180156144be57600080fd5b506040519080825280601f01601f1916602001820160405280156144f15781602001600182028036833780820191505090505b50905060006001830390508593505b6000841461456d57600a848161451257fe5b0660300160f81b8282806001900393508151811061452c57fe5b60200101907effffffffffffffffffffffffffffffffffffffffffffffffffffffffffffff1916908160001a905350600a848161456557fe5b049350614500565b819450505050505b919050565b600061458c836000018360001b614a4f565b905092915050565b600081600001805490509050919050565b505050565b60006145bc836000018360001b614a72565b905092915050565b60006145d6836000018360001b614b5a565b905092915050565b600061460a846000018460001b8473ffffffffffffffffffffffffffffffffffffffff1660001b614bca565b90509392505050565b600081836000018054905011614674576040517f08c379a0000000000000000000000000000000000000000000000000000000008152600401808060200182810382526022815260200180615c316022913960400191505060405180910390fd5b82600001828154811061468357fe5b9060005260206000200154905092915050565b600080828460000180549050116146f8576040517f08c379a0000000000000000000000000000000000000000000000000000000008152600401808060200182810382526022815260200180615d866022913960400191505060405180910390fd5b600084600001848154811061470957fe5b906000526020600020906002020190508060000154816001015492509250509250929050565b600080846001016000858152602001908152602001600020549050600081141583906147f6576040517f08c379a00000000000000000000000000000000000000000000000000000000081526004018080602001828103825283818151815260200191508051906020019080838360005b838110156147bb5780820151818401526020810190506147a0565b50505050905090810190601f1680156147e85780820380516001836020036101000a031916815260200191505b509250505060405180910390fd5b5084600001600182038154811061480957fe5b9060005260206000209060020201600101549150509392505050565b600081600001805490509050919050565b60006148578473ffffffffffffffffffffffffffffffffffffffff16614ca6565b6148645760019050614a47565b60006149ce63150b7a0260e01b614879613cbc565b888787604051602401808573ffffffffffffffffffffffffffffffffffffffff1681526020018473ffffffffffffffffffffffffffffffffffffffff16815260200183815260200180602001828103825283818151815260200191508051906020019080838360005b838110156148fd5780820151818401526020810190506148e2565b50505050905090810190601f16801561492a5780820380516001836020036101000a031916815260200191505b5095505050505050604051602081830303815290604052907bffffffffffffffffffffffffffffffffffffffffffffffffffffffff19166020820180517bffffffffffffffffffffffffffffffffffffffffffffffffffffffff8381831617835250505050604051806060016040528060328152602001615c53603291398773ffffffffffffffffffffffffffffffffffffffff16614cb99092919063ffffffff16565b905060008180602001905160208110156149e757600080fd5b8101908080519060200190929190505050905063150b7a0260e01b7bffffffffffffffffffffffffffffffffffffffffffffffffffffffff1916817bffffffffffffffffffffffffffffffffffffffffffffffffffffffff191614925050505b949350505050565b600080836001016000848152602001908152602001600020541415905092915050565b60008083600101600084815260200190815260200160002054905060008114614b4e5760006001820390506000600186600001805490500390506000866000018281548110614abd57fe5b9060005260206000200154905080876000018481548110614ada57fe5b9060005260206000200181905550600183018760010160008381526020019081526020016000208190555086600001805480614b1257fe5b60019003818190600052602060002001600090559055866001016000878152602001908152602001600020600090556001945050505050614b54565b60009150505b92915050565b6000614b668383614cd1565b614bbf578260000182908060018154018082558091505060019003906000526020600020016000909190919091505582600001805490508360010160008481526020019081526020016000208190555060019050614bc4565b600090505b92915050565b6000808460010160008581526020019081526020016000205490506000811415614c7157846000016040518060400160405280868152602001858152509080600181540180825580915050600190039060005260206000209060020201600090919091909150600082015181600001556020820151816001015550508460000180549050856001016000868152602001908152602001600020819055506001915050614c9f565b82856000016001830381548110614c8457fe5b90600052602060002090600202016001018190555060009150505b9392505050565b600080823b905060008111915050919050565b6060614cc88484600085614cf4565b90509392505050565b600080836001016000848152602001908152602001600020541415905092915050565b606082471015614d4f576040517f08c379a0000000000000000000000000000000000000000000000000000000008152600401808060200182810382526026815260200180615ca96026913960400191505060405180910390fd5b614d5885614ca6565b614dca576040517f08c379a000000000000000000000000000000000000000000000000000000000815260040180806020018281038252601d8152602001807f416464726573733a2063616c6c20746f206e6f6e2d636f6e747261637400000081525060200191505060405180910390fd5b6000808673ffffffffffffffffffffffffffffffffffffffff1685876040518082805190602001908083835b60208310614e195780518252602082019150602081019050602083039250614df6565b6001836020036101000a03801982511681845116808217855250505050505090500191505060006040518083038185875af1925050503d8060008114614e7b576040519150601f19603f3d011682016040523d82523d6000602084013e614e80565b606091505b5091509150614e90828286614e9c565b92505050949350505050565b60608315614eac57829050614f61565b600083511115614ebf5782518084602001fd5b816040517f08c379a00000000000000000000000000000000000000000000000000000000081526004018080602001828103825283818151815260200191508051906020019080838360005b83811015614f26578082015181840152602081019050614f0b565b50505050905090810190601f168015614f535780820380516001836020036101000a031916815260200191505b509250505060405180910390fd5b9392505050565b828054600181600116156101000203166002900490600052602060002090601f016020900481019282614f9e5760008555614fe5565b82601f10614fb757805160ff1916838001178555614fe5565b82800160010185558215614fe5579182015b82811115614fe4578251825591602001919060010190614fc9565b5b509050614ff29190615070565b5090565b6040518061012001604052806000815260200160008152602001606081526020016000815260200160608152602001600073ffffffffffffffffffffffffffffffffffffffff168152602001600073ffffffffffffffffffffffffffffffffffffffff168152602001600081526020016000151581525090565b5b80821115615089576000816000905550600101615071565b5090565b60006150a061509b84615a36565b615a05565b9050828152602081018484840111156150b857600080fd5b6150c3848285615b7f565b509392505050565b60006150de6150d984615a66565b615a05565b9050828152602081018484840111156150f657600080fd5b615101848285615b7f565b509392505050565b60008135905061511881615bd4565b92915050565b60008135905061512d81615beb565b92915050565b60008135905061514281615c02565b92915050565b600082601f83011261515957600080fd5b813561516984826020860161508d565b91505092915050565b600082601f83011261518357600080fd5b81356151938482602086016150cb565b91505092915050565b6000813590506151ab81615c19565b92915050565b6000602082840312156151c357600080fd5b60006151d184828501615109565b91505092915050565b600080604083850312156151ed57600080fd5b60006151fb85828601615109565b925050602061520c85828601615109565b9150509250929050565b60008060006060848603121561522b57600080fd5b600061523986828701615109565b935050602061524a86828701615109565b925050604061525b8682870161519c565b9150509250925092565b6000806000806080858703121561527b57600080fd5b600061528987828801615109565b945050602061529a87828801615109565b93505060406152ab8782880161519c565b925050606085013567ffffffffffffffff8111156152c857600080fd5b6152d487828801615148565b91505092959194509250565b600080604083850312156152f357600080fd5b600061530185828601615109565b92505060206153128582860161511e565b9150509250929050565b6000806040838503121561532f57600080fd5b600061533d85828601615109565b925050602061534e8582860161519c565b9150509250929050565b600080600080600080600080610100898b03121561537557600080fd5b60006153838b828c01615109565b98505060206153948b828c0161519c565b97505060406153a58b828c0161519c565b965050606089013567ffffffffffffffff8111156153c257600080fd5b6153ce8b828c01615172565b95505060806153df8b828c0161519c565b94505060a089013567ffffffffffffffff8111156153fc57600080fd5b6154088b828c01615172565b93505060c06154198b828c0161519c565b92505060e061542a8b828c0161511e565b9150509295985092959890939650565b60006020828403121561544c57600080fd5b600061545a84828501615133565b91505092915050565b60008060006060848603121561547857600080fd5b600084013567ffffffffffffffff81111561549257600080fd5b61549e86828701615172565b935050602084013567ffffffffffffffff8111156154bb57600080fd5b6154c786828701615172565b925050604084013567ffffffffffffffff8111156154e457600080fd5b6154f086828701615172565b9150509250925092565b60006020828403121561550c57600080fd5b600061551a8482850161519c565b91505092915050565b6000806040838503121561553657600080fd5b60006155448582860161519c565b925050602061555585828601615109565b9150509250929050565b600080600080600060a0868803121561557757600080fd5b60006155858882890161519c565b955050602086013567ffffffffffffffff8111156155a257600080fd5b6155ae88828901615172565b94505060406155bf8882890161519c565b935050606086013567ffffffffffffffff8111156155dc57600080fd5b6155e888828901615172565b92505060806155f98882890161511e565b9150509295509295909350565b6000806040838503121561561957600080fd5b60006156278582860161519c565b92505060206156388582860161519c565b9150509250929050565b61564b81615b49565b82525050565b61565a81615ad5565b82525050565b61566981615ad5565b82525050565b61567881615ac3565b82525050565b61568781615ae7565b82525050565b61569681615ae7565b82525050565b60006156a782615a96565b6156b18185615aa1565b93506156c1818560208601615b8e565b6156ca81615bc3565b840191505092915050565b60006156e082615a96565b6156ea8185615ab2565b93506156fa818560208601615b8e565b61570381615bc3565b840191505092915050565b60006101208301600083015161572760008601826157da565b50602083015161573a60208601826157da565b5060408301518482036040860152615752828261569c565b915050606083015161576760608601826157da565b506080830151848203608086015261577f828261569c565b91505060a083015161579460a0860182615651565b5060c08301516157a760c0860182615651565b5060e08301516157ba60e08601826157da565b506101008301516157cf61010086018261567e565b508091505092915050565b6157e381615b3f565b82525050565b6157f281615b3f565b82525050565b600060208201905061580d600083018461566f565b92915050565b60006020820190506158286000830184615660565b92915050565b6000602082019050615843600083018461568d565b92915050565b6000602082019050818103600083015261586381846156d5565b905092915050565b60006020820190508181036000830152615885818461570e565b905092915050565b60006020820190506158a260008301846157e9565b92915050565b600060a0820190506158bd60008301886157e9565b81810360208301526158cf81876156d5565b905081810360408301526158e381866156d5565b90506158f26060830185615642565b818103608083015261590481846156d5565b90509695505050505050565b600060808201905061592560008301876157e9565b818103602083015261593781866156d5565b9050818103604083015261594b81856156d5565b9050818103606083015261595f81846156d5565b905095945050505050565b600061012082019050615980600083018c6157e9565b61598d602083018b6157e9565b818103604083015261599f818a6156d5565b90506159ae60608301896157e9565b81810360808301526159c081886156d5565b90506159cf60a0830187615660565b6159dc60c0830186615660565b6159e960e08301856157e9565b6159f761010083018461568d565b9a9950505050505050505050565b6000604051905081810181811067ffffffffffffffff82111715615a2c57615a2b615bc1565b5b8060405250919050565b600067ffffffffffffffff821115615a5157615a50615bc1565b5b601f19601f8301169050602081019050919050565b600067ffffffffffffffff821115615a8157615a80615bc1565b5b601f19601f8301169050602081019050919050565b600081519050919050565b600082825260208201905092915050565b600082825260208201905092915050565b6000615ace82615b1f565b9050919050565b6000615ae082615b1f565b9050919050565b60008115159050919050565b60007fffffffff0000000000000000000000000000000000000000000000000000000082169050919050565b600073ffffffffffffffffffffffffffffffffffffffff82169050919050565b6000819050919050565b6000615b5482615b5b565b9050919050565b6000615b6682615b6d565b9050919050565b6000615b7882615b1f565b9050919050565b82818337600083830152505050565b60005b83811015615bac578082015181840152602081019050615b91565b83811115615bbb576000848401525b50505050565bfe5b6000601f19601f8301169050919050565b615bdd81615ac3565b8114615be857600080fd5b50565b615bf481615ae7565b8114615bff57600080fd5b50565b615c0b81615af3565b8114615c1657600080fd5b50565b615c2281615b3f565b8114615c2d57600080fd5b5056fe456e756d657261626c655365743a20696e646578206f7574206f6620626f756e64734552433732313a207472616e7366657220746f206e6f6e20455243373231526563656976657220696d706c656d656e7465724552433732313a207472616e7366657220746f20746865207a65726f2061646472657373416464726573733a20696e73756666696369656e742062616c616e636520666f722063616c6c4552433732313a206f70657261746f7220717565727920666f72206e6f6e6578697374656e7420746f6b656e4552433732313a20617070726f76652063616c6c6572206973206e6f74206f776e6572206e6f7220617070726f76656420666f7220616c6c4552433732313a2062616c616e636520717565727920666f7220746865207a65726f20616464726573734552433732313a206f776e657220717565727920666f72206e6f6e6578697374656e7420746f6b656e456e756d657261626c654d61703a20696e646578206f7574206f6620626f756e64734552433732313a20617070726f76656420717565727920666f72206e6f6e6578697374656e7420746f6b656e4552433732314d657461646174613a2055524920736574206f66206e6f6e6578697374656e7420746f6b656e4552433732313a207472616e73666572206f6620746f6b656e2074686174206973206e6f74206f776e4552433732314d657461646174613a2055524920717565727920666f72206e6f6e6578697374656e7420746f6b656e4552433732313a20617070726f76616c20746f2063757272656e74206f776e65724552433732313a207472616e736665722063616c6c6572206973206e6f74206f776e6572206e6f7220617070726f766564a264697066735822122066f04623ae7f426b21c14726c6a7e7eaab5816ac3ab0391a9700c29e2543b4d664736f6c63430007060033",
  "immutableReferences": {},
  "source": "//import ERC721 interface\r\nimport \"./ERC721.sol\";\r\n// SPDX-License-Identifier: MIT\r\npragma solidity >=0.6.0 <0.8.0;\r\npragma experimental ABIEncoderV2;\r\n\r\n//implement\r\ncontract ArtFundsStorage is ERC721 {\r\n    // this contract's token collection name\r\n    string public collectionName;\r\n    // this contract's token symbol\r\n    string public collectionNameSymbol;\r\n    address payable public ARTFUNDS;\r\n    struct Collection {\r\n        uint256 tokenId;\r\n        string imageURL;\r\n        string name;\r\n        string description;\r\n    }\r\n\r\n    uint256 public collectionCounter = 0;\r\n    mapping(address => Collection[]) public ownerCollections;\r\n\r\n    struct DigitalItem {\r\n        uint256 tokenId;\r\n        uint256 collectionID;\r\n        string name;\r\n        uint256 price;\r\n        string itemURL;\r\n        address payable mintedBy;\r\n        address payable currentOwner;\r\n        // address payable previousOwner;\r\n        uint256 numberOfTransfers;\r\n        bool forSale;\r\n    }\r\n\r\n    uint256 public digitalItemCounter;\r\n    mapping(address => DigitalItem[]) public ownerDigitalItems;\r\n\r\n    mapping(uint256 => DigitalItem) public listAllDigitalItem;\r\n\r\n    mapping(uint256 => Collection) public listAllCollection;\r\n\r\n    event ItemCreated(\r\n        uint256 id,\r\n        uint256 belongByColID,\r\n        string name,\r\n        address mintedBy,\r\n        address currentOwner,\r\n        uint256 price,\r\n        string itemURL,\r\n        uint256 numberOfTransfers,\r\n        bool forSale\r\n    );\r\n\r\n    event ItemForSale(uint256 id, bool forSale);\r\n\r\n    event CollectionCreated(\r\n        uint256 tokenId,\r\n        string imageURL,\r\n        string name,\r\n        address ownedBy,\r\n        string description\r\n    );\r\n\r\n    // initialize contract while deployment with contract's collection name and token\r\n    constructor() ERC721(\"ArtFunds Collection\", \"CB\") {\r\n        collectionName = name();\r\n        collectionNameSymbol = symbol();\r\n        ARTFUNDS = address(uint256(0x0972Db4E608b92899a0A9514257070502592362B));\r\n    }\r\n\r\n    // mint a new digital item\r\n    function mintDigitalItem(\r\n        uint256 _collectionID,\r\n        string memory _name,\r\n        uint256 _price,\r\n        string memory _itemURL,\r\n        bool _forSale\r\n    ) external {\r\n        // check if thic fucntion caller is not an zero address account\r\n        require(msg.sender != address(0));\r\n        // increment counter\r\n        digitalItemCounter++;\r\n        // check if a token exists with the above token id => incremented counter\r\n        require(!_exists(digitalItemCounter));\r\n        // mint the token\r\n        _mint(msg.sender, digitalItemCounter);\r\n        // set token URL (bind token id with the passed in token URL)\r\n        _setTokenURI(digitalItemCounter, _itemURL);\r\n\r\n        DigitalItem memory newDigitalItem = DigitalItem(\r\n            digitalItemCounter,\r\n            _collectionID,\r\n            _name,\r\n            _price,\r\n            _itemURL,\r\n            // _tech,\r\n            // _material,\r\n            // _color,\r\n            // _field,\r\n            // _imageURL,\r\n            // _description,\r\n            msg.sender,\r\n            msg.sender,\r\n            0,\r\n            _forSale\r\n        );\r\n\r\n        listAllDigitalItem[digitalItemCounter] = newDigitalItem;\r\n        ownerDigitalItems[msg.sender].push(newDigitalItem);\r\n    }\r\n\r\n    function updateInfoBasicDigitalItem(\r\n        address _owner,\r\n        uint256 _tokenId,\r\n        uint256 _newCollectionID,\r\n        string memory _name,\r\n        uint256 _price,\r\n        string memory _itemURL,\r\n        uint256 _numberOfTransfers,\r\n        bool _forSale\r\n    ) public returns (bool success) {\r\n        require(_exists(_tokenId));\r\n        require(_exists(_newCollectionID));\r\n        address tokenOwner = ownerOf(_tokenId);\r\n        require(tokenOwner == _owner);\r\n        DigitalItem memory digitalItem = ownerDigitalItems[_owner][_tokenId];\r\n        digitalItem.itemURL = _itemURL;\r\n        digitalItem.name = _name;\r\n        digitalItem.price = _price;\r\n        digitalItem.forSale = _forSale;\r\n        digitalItem.collectionID = _newCollectionID;\r\n        digitalItem.numberOfTransfers = _numberOfTransfers;\r\n        ownerDigitalItems[_owner][_tokenId] = digitalItem;\r\n        return true;\r\n    }\r\n\r\n    function getDigitalItem(uint256 _itemID, address _owner)\r\n        public\r\n        view\r\n        returns (DigitalItem memory)\r\n    {\r\n        require(_owner != address(0x0));\r\n        require(collectionCounter >= 0);\r\n        require(ownerDigitalItems[_owner].length > 0);\r\n        DigitalItem memory digitalItem = ownerDigitalItems[_owner][_itemID];\r\n\r\n        return digitalItem;\r\n    }\r\n\r\n    function getDigitalItemCount(address _owner)\r\n        public\r\n        view\r\n        returns (uint256 count)\r\n    {\r\n        require(_owner != address(0x0));\r\n        return ownerDigitalItems[_owner].length;\r\n    }\r\n\r\n    //This function to create collection from address\r\n    function createCollection(\r\n        string memory _imageURL,\r\n        string memory _name,\r\n        string memory _description\r\n    ) public returns (bool success) {\r\n        collectionCounter++;\r\n        Collection memory collection = Collection(\r\n            collectionCounter,\r\n            _imageURL,\r\n            _name,\r\n            _description\r\n        );\r\n        listAllCollection[collectionCounter] = collection;\r\n        ownerCollections[msg.sender].push(collection);\r\n\r\n        emit CollectionCreated(\r\n            collectionCounter,\r\n            _imageURL,\r\n            _name,\r\n            msg.sender,\r\n            _description\r\n        );\r\n        return true;\r\n    }\r\n\r\n    function getCollectionByID(uint256 _tokenId)\r\n        public\r\n        view\r\n        returns (\r\n            uint256 _id,\r\n            string memory _imageURL,\r\n            string memory _name,\r\n            string memory _description\r\n        )\r\n    {\r\n        Collection memory collection = listAllCollection[_tokenId];\r\n\r\n        return (\r\n            collection.tokenId,\r\n            collection.imageURL,\r\n            collection.name,\r\n            collection.description\r\n        );\r\n    }\r\n\r\n    function getCollection(uint256 _tokenId, address _owner)\r\n        public\r\n        view\r\n        returns (\r\n            uint256 _id,\r\n            string memory _imageURL,\r\n            string memory _name,\r\n            string memory _description\r\n        )\r\n    {\r\n        Collection memory collection = ownerCollections[_owner][_tokenId];\r\n\r\n        return (\r\n            collection.tokenId,\r\n            collection.imageURL,\r\n            collection.name,\r\n            collection.description\r\n        );\r\n    }\r\n\r\n    // // function updateCollection(\r\n    // //     uint256 _tokenId,\r\n    // //     string memory _imageURL,\r\n    // //     string memory _name,\r\n    // //     string memory _description,\r\n    // //     address _owner\r\n    // // ) public returns (bool success) {\r\n    // //     require(_owner != address(0x0));\r\n    // //     require(_tokenId >= 0);\r\n    // //     require(ownerCollections[_owner].length > 0);\r\n    // //     Collection storage collection = ownerCollections[_owner][_tokenId];\r\n    // //     collection.imageURL = _imageURL;\r\n    // //     collection.name = _name;\r\n    // //     collection.description = _description;\r\n    // //     return true;\r\n    // // }\r\n\r\n    function getCollectionCount(address _owner)\r\n        public\r\n        view\r\n        returns (uint256 count)\r\n    {\r\n        return ownerCollections[_owner].length;\r\n    }\r\n\r\n    function getDigitalItemOwnerCount(address _owner)\r\n        public\r\n        view\r\n        returns (uint256 count)\r\n    {\r\n        return ownerDigitalItems[_owner].length;\r\n    }\r\n\r\n    // by a token by passing in the token's id\r\n    function buyItem(uint256 _tokenId) public payable returns (bool success) {\r\n        // check if the function caller is not an zero account address\r\n        require(msg.sender != address(0x0));\r\n        // check if the token id of the token being bought exists or not\r\n        require(_exists(_tokenId));\r\n        // get the token's owner\r\n        address tokenOwner = ownerOf(_tokenId);\r\n        // token's owner should not be an zero address account\r\n        require(tokenOwner != address(0));\r\n        // the one who wants to buy the token should not be the token's owner\r\n        require(tokenOwner != msg.sender);\r\n        // get that token from all crypto boys mapping and create a memory of it defined as (struct => digitalItem)\r\n        DigitalItem memory digitalItem = listAllDigitalItem[_tokenId];\r\n        // price sent in to buy should be equal to or more than the token's price\r\n        require(msg.value >= digitalItem.price);\r\n        // token should be for sale\r\n        require(digitalItem.forSale);\r\n        // transfer the token from owner to the caller of the function (buyer)\r\n        _transfer(tokenOwner, msg.sender, _tokenId);\r\n        // get owner of the token\r\n        address payable sendTo = digitalItem.currentOwner;\r\n        // get guy who mint this token\r\n        address payable sendToRoot = digitalItem.mintedBy;\r\n        // send token's worth of ethers to the owner\r\n        sendTo.transfer((msg.value * 95) / 100);\r\n        sendToRoot.transfer((msg.value * 3) / 100);\r\n        // send worth to marketplace\r\n        // ARTFUNDS.transfer((msg.value * 2) / 100);\r\n        // update the token's previous owner\r\n        // digitalItem.previousOwner = digitalItem.currentOwner;\r\n        // update the token's current owner\r\n        digitalItem.currentOwner = msg.sender;\r\n        // update the how many times this token was transfered\r\n        digitalItem.numberOfTransfers += 1;\r\n        digitalItem.forSale = false;\r\n        // set and update that token in the mapping\r\n        listAllDigitalItem[_tokenId] = digitalItem;\r\n        // ownerDigitalItems[msg.sender].push(digitalItem);\r\n        return true;\r\n    }\r\n\r\n    function changeItemPrice(uint256 _tokenId, uint256 _newPrice)\r\n        public\r\n        returns (bool success)\r\n    {\r\n        // require caller of the function is not an empty address\r\n        require(msg.sender != address(0x0));\r\n        // require that token should exist\r\n        require(_exists(_tokenId));\r\n        // get the token's owner\r\n        address tokenOwner = ownerOf(_tokenId);\r\n        // check that token's owner should be equal to the caller of the function\r\n        require(tokenOwner == msg.sender);\r\n        // get that token from all crypto boys mapping and create a memory of it defined as (struct => digitalItem)\r\n        DigitalItem memory digitalItem = ownerDigitalItems[tokenOwner][\r\n            _tokenId\r\n        ];\r\n        // update token's price with new price\r\n        digitalItem.price = _newPrice;\r\n        // set and update that token in the mapping\r\n        ownerDigitalItems[tokenOwner][_tokenId] = digitalItem;\r\n        return true;\r\n    }\r\n\r\n    // switch between set for sale and set not for sale\r\n    // function toggleForSale(uint256 _tokenId) public returns (bool statusSale) {\r\n    //     // require caller of the function is not an empty address\r\n    //     require(msg.sender != address(0));\r\n    //     // require that token should exist\r\n    //     require(_exists(_tokenId));\r\n    //     // get the token's owner\r\n    //     address tokenOwner = ownerOf(_tokenId);\r\n    //     // check that token's owner should be equal to the caller of the function\r\n    //     require(tokenOwner == msg.sender);\r\n    //     // get that token from all crypto boys mapping and create a memory of it defined as (struct => digitalItem)\r\n    //     DigitalItem memory digitalItem = ownerDigitalItems[tokenOwner][\r\n    //         _tokenId\r\n    //     ];\r\n    //     // if token's forSale is false make it true and vice versa\r\n    //     if (digitalItem.forSale) {\r\n    //         digitalItem.forSale = false;\r\n    //     } else {\r\n    //         digitalItem.forSale = true;\r\n    //     }\r\n    //     // set and update that token in the mapping\r\n    //     ownerDigitalItems[tokenOwner][_tokenId] = digitalItem;\r\n    //     return digitalItem.forSale;\r\n    // }\r\n}\r\n",
  "sourcePath": "G:\\GitHub\\ArtFunds_DevFest\\blockchain\\contracts\\ArtFundsStorage.sol",
  "compiler": {
    "name": "solc",
    "version": "0.7.6+commit.7338295f.Emscripten.clang"
  },
  "schemaVersion": "3.4.3",
  "updatedAt": "2021-10-29T20:19:42.264Z",
  "networkType": "ethereum",
  "devdoc": {
    "kind": "dev",
    "methods": {
      "approve(address,uint256)": {
        "details": "See {IERC721-approve}."
      },
      "balanceOf(address)": {
        "details": "See {IERC721-balanceOf}."
      },
      "baseURI()": {
        "details": "Returns the base URI set via {_setBaseURI}. This will be automatically added as a prefix in {tokenURI} to each token's URI, or to the token ID if no specific URI is set for that token ID."
      },
      "getApproved(uint256)": {
        "details": "See {IERC721-getApproved}."
      },
      "isApprovedForAll(address,address)": {
        "details": "See {IERC721-isApprovedForAll}."
      },
      "name()": {
        "details": "See {IERC721Metadata-name}."
      },
      "ownerOf(uint256)": {
        "details": "See {IERC721-ownerOf}."
      },
      "safeTransferFrom(address,address,uint256)": {
        "details": "See {IERC721-safeTransferFrom}."
      },
      "safeTransferFrom(address,address,uint256,bytes)": {
        "details": "See {IERC721-safeTransferFrom}."
      },
      "setApprovalForAll(address,bool)": {
        "details": "See {IERC721-setApprovalForAll}."
      },
      "supportsInterface(bytes4)": {
        "details": "See {IERC165-supportsInterface}. Time complexity O(1), guaranteed to always use less than 30 000 gas."
      },
      "symbol()": {
        "details": "See {IERC721Metadata-symbol}."
      },
      "tokenByIndex(uint256)": {
        "details": "See {IERC721Enumerable-tokenByIndex}."
      },
      "tokenOfOwnerByIndex(address,uint256)": {
        "details": "See {IERC721Enumerable-tokenOfOwnerByIndex}."
      },
      "tokenURI(uint256)": {
        "details": "See {IERC721Metadata-tokenURI}."
      },
      "totalSupply()": {
        "details": "See {IERC721Enumerable-totalSupply}."
      },
      "transferFrom(address,address,uint256)": {
        "details": "See {IERC721-transferFrom}."
      }
    },
    "version": 1
  },
  "userdoc": {
    "kind": "user",
    "methods": {},
    "version": 1
  }
}