{
  "contractName": "ArtFundsStorage",
  "abi": [
    {
      "inputs": [],
      "stateMutability": "nonpayable",
      "type": "constructor"
    },
    {
      "anonymous": false,
      "inputs": [
        {
          "indexed": true,
          "internalType": "address",
          "name": "owner",
          "type": "address"
        },
        {
          "indexed": true,
          "internalType": "address",
          "name": "approved",
          "type": "address"
        },
        {
          "indexed": true,
          "internalType": "uint256",
          "name": "tokenId",
          "type": "uint256"
        }
      ],
      "name": "Approval",
      "type": "event"
    },
    {
      "anonymous": false,
      "inputs": [
        {
          "indexed": true,
          "internalType": "address",
          "name": "owner",
          "type": "address"
        },
        {
          "indexed": true,
          "internalType": "address",
          "name": "operator",
          "type": "address"
        },
        {
          "indexed": false,
          "internalType": "bool",
          "name": "approved",
          "type": "bool"
        }
      ],
      "name": "ApprovalForAll",
      "type": "event"
    },
    {
      "anonymous": false,
      "inputs": [
        {
          "indexed": false,
          "internalType": "uint256",
          "name": "tokenId",
          "type": "uint256"
        },
        {
          "indexed": false,
          "internalType": "string",
          "name": "imageURL",
          "type": "string"
        },
        {
          "indexed": false,
          "internalType": "string",
          "name": "name",
          "type": "string"
        },
        {
          "indexed": false,
          "internalType": "address",
          "name": "ownedBy",
          "type": "address"
        },
        {
          "indexed": false,
          "internalType": "string",
          "name": "description",
          "type": "string"
        }
      ],
      "name": "CollectionCreated",
      "type": "event"
    },
    {
      "anonymous": false,
      "inputs": [
        {
          "indexed": false,
          "internalType": "uint256",
          "name": "id",
          "type": "uint256"
        },
        {
          "indexed": false,
          "internalType": "string",
          "name": "name",
          "type": "string"
        },
        {
          "indexed": false,
          "internalType": "address",
          "name": "mintedBy",
          "type": "address"
        },
        {
          "indexed": false,
          "internalType": "address",
          "name": "currentOwner",
          "type": "address"
        },
        {
          "indexed": false,
          "internalType": "address",
          "name": "previousOwner",
          "type": "address"
        },
        {
          "indexed": false,
          "internalType": "uint256",
          "name": "price",
          "type": "uint256"
        },
        {
          "indexed": false,
          "internalType": "string",
          "name": "imageURL",
          "type": "string"
        },
        {
          "indexed": false,
          "internalType": "uint256",
          "name": "numberOfTransfers",
          "type": "uint256"
        },
        {
          "indexed": false,
          "internalType": "bool",
          "name": "forSale",
          "type": "bool"
        }
      ],
      "name": "ItemCreated",
      "type": "event"
    },
    {
      "anonymous": false,
      "inputs": [
        {
          "indexed": false,
          "internalType": "uint256",
          "name": "id",
          "type": "uint256"
        },
        {
          "indexed": false,
          "internalType": "bool",
          "name": "forSale",
          "type": "bool"
        }
      ],
      "name": "ItemForSale",
      "type": "event"
    },
    {
      "anonymous": false,
      "inputs": [
        {
          "indexed": true,
          "internalType": "address",
          "name": "from",
          "type": "address"
        },
        {
          "indexed": true,
          "internalType": "address",
          "name": "to",
          "type": "address"
        },
        {
          "indexed": true,
          "internalType": "uint256",
          "name": "tokenId",
          "type": "uint256"
        }
      ],
      "name": "Transfer",
      "type": "event"
    },
    {
      "inputs": [
        {
          "internalType": "address",
          "name": "to",
          "type": "address"
        },
        {
          "internalType": "uint256",
          "name": "tokenId",
          "type": "uint256"
        }
      ],
      "name": "approve",
      "outputs": [],
      "stateMutability": "nonpayable",
      "type": "function"
    },
    {
      "inputs": [
        {
          "internalType": "address",
          "name": "owner",
          "type": "address"
        }
      ],
      "name": "balanceOf",
      "outputs": [
        {
          "internalType": "uint256",
          "name": "",
          "type": "uint256"
        }
      ],
      "stateMutability": "view",
      "type": "function",
      "constant": true
    },
    {
      "inputs": [],
      "name": "baseURI",
      "outputs": [
        {
          "internalType": "string",
          "name": "",
          "type": "string"
        }
      ],
      "stateMutability": "view",
      "type": "function",
      "constant": true
    },
    {
      "inputs": [],
      "name": "collectionCounter",
      "outputs": [
        {
          "internalType": "uint256",
          "name": "",
          "type": "uint256"
        }
      ],
      "stateMutability": "view",
      "type": "function",
      "constant": true
    },
    {
      "inputs": [],
      "name": "collectionName",
      "outputs": [
        {
          "internalType": "string",
          "name": "",
          "type": "string"
        }
      ],
      "stateMutability": "view",
      "type": "function",
      "constant": true
    },
    {
      "inputs": [],
      "name": "collectionNameSymbol",
      "outputs": [
        {
          "internalType": "string",
          "name": "",
          "type": "string"
        }
      ],
      "stateMutability": "view",
      "type": "function",
      "constant": true
    },
    {
      "inputs": [
        {
          "internalType": "uint256",
          "name": "tokenId",
          "type": "uint256"
        }
      ],
      "name": "getApproved",
      "outputs": [
        {
          "internalType": "address",
          "name": "",
          "type": "address"
        }
      ],
      "stateMutability": "view",
      "type": "function",
      "constant": true
    },
    {
      "inputs": [
        {
          "internalType": "address",
          "name": "owner",
          "type": "address"
        },
        {
          "internalType": "address",
          "name": "operator",
          "type": "address"
        }
      ],
      "name": "isApprovedForAll",
      "outputs": [
        {
          "internalType": "bool",
          "name": "",
          "type": "bool"
        }
      ],
      "stateMutability": "view",
      "type": "function",
      "constant": true
    },
    {
      "inputs": [],
      "name": "name",
      "outputs": [
        {
          "internalType": "string",
          "name": "",
          "type": "string"
        }
      ],
      "stateMutability": "view",
      "type": "function",
      "constant": true
    },
    {
      "inputs": [
        {
          "internalType": "address",
          "name": "",
          "type": "address"
        },
        {
          "internalType": "uint256",
          "name": "",
          "type": "uint256"
        }
      ],
      "name": "ownerCollections",
      "outputs": [
        {
          "internalType": "uint256",
          "name": "tokenId",
          "type": "uint256"
        },
        {
          "internalType": "string",
          "name": "imageURL",
          "type": "string"
        },
        {
          "internalType": "string",
          "name": "name",
          "type": "string"
        },
        {
          "internalType": "string",
          "name": "description",
          "type": "string"
        },
        {
          "internalType": "uint8",
          "name": "listSize",
          "type": "uint8"
        }
      ],
      "stateMutability": "view",
      "type": "function",
      "constant": true
    },
    {
      "inputs": [
        {
          "internalType": "address",
          "name": "",
          "type": "address"
        },
        {
          "internalType": "uint256",
          "name": "",
          "type": "uint256"
        }
      ],
      "name": "ownerDigitalItems",
      "outputs": [
        {
          "internalType": "uint256",
          "name": "tokenId",
          "type": "uint256"
        },
        {
          "internalType": "string",
          "name": "name",
          "type": "string"
        },
        {
          "internalType": "address payable",
          "name": "mintedBy",
          "type": "address"
        },
        {
          "internalType": "address payable",
          "name": "currentOwner",
          "type": "address"
        },
        {
          "internalType": "address payable",
          "name": "previousOwner",
          "type": "address"
        },
        {
          "internalType": "uint256",
          "name": "price",
          "type": "uint256"
        },
        {
          "internalType": "string",
          "name": "imageURL",
          "type": "string"
        },
        {
          "internalType": "uint256",
          "name": "numberOfTransfers",
          "type": "uint256"
        },
        {
          "internalType": "bool",
          "name": "forSale",
          "type": "bool"
        }
      ],
      "stateMutability": "view",
      "type": "function",
      "constant": true
    },
    {
      "inputs": [
        {
          "internalType": "uint256",
          "name": "tokenId",
          "type": "uint256"
        }
      ],
      "name": "ownerOf",
      "outputs": [
        {
          "internalType": "address",
          "name": "",
          "type": "address"
        }
      ],
      "stateMutability": "view",
      "type": "function",
      "constant": true
    },
    {
      "inputs": [
        {
          "internalType": "address",
          "name": "from",
          "type": "address"
        },
        {
          "internalType": "address",
          "name": "to",
          "type": "address"
        },
        {
          "internalType": "uint256",
          "name": "tokenId",
          "type": "uint256"
        }
      ],
      "name": "safeTransferFrom",
      "outputs": [],
      "stateMutability": "nonpayable",
      "type": "function"
    },
    {
      "inputs": [
        {
          "internalType": "address",
          "name": "from",
          "type": "address"
        },
        {
          "internalType": "address",
          "name": "to",
          "type": "address"
        },
        {
          "internalType": "uint256",
          "name": "tokenId",
          "type": "uint256"
        },
        {
          "internalType": "bytes",
          "name": "_data",
          "type": "bytes"
        }
      ],
      "name": "safeTransferFrom",
      "outputs": [],
      "stateMutability": "nonpayable",
      "type": "function"
    },
    {
      "inputs": [
        {
          "internalType": "address",
          "name": "operator",
          "type": "address"
        },
        {
          "internalType": "bool",
          "name": "approved",
          "type": "bool"
        }
      ],
      "name": "setApprovalForAll",
      "outputs": [],
      "stateMutability": "nonpayable",
      "type": "function"
    },
    {
      "inputs": [
        {
          "internalType": "bytes4",
          "name": "interfaceId",
          "type": "bytes4"
        }
      ],
      "name": "supportsInterface",
      "outputs": [
        {
          "internalType": "bool",
          "name": "",
          "type": "bool"
        }
      ],
      "stateMutability": "view",
      "type": "function",
      "constant": true
    },
    {
      "inputs": [],
      "name": "symbol",
      "outputs": [
        {
          "internalType": "string",
          "name": "",
          "type": "string"
        }
      ],
      "stateMutability": "view",
      "type": "function",
      "constant": true
    },
    {
      "inputs": [
        {
          "internalType": "uint256",
          "name": "index",
          "type": "uint256"
        }
      ],
      "name": "tokenByIndex",
      "outputs": [
        {
          "internalType": "uint256",
          "name": "",
          "type": "uint256"
        }
      ],
      "stateMutability": "view",
      "type": "function",
      "constant": true
    },
    {
      "inputs": [
        {
          "internalType": "address",
          "name": "owner",
          "type": "address"
        },
        {
          "internalType": "uint256",
          "name": "index",
          "type": "uint256"
        }
      ],
      "name": "tokenOfOwnerByIndex",
      "outputs": [
        {
          "internalType": "uint256",
          "name": "",
          "type": "uint256"
        }
      ],
      "stateMutability": "view",
      "type": "function",
      "constant": true
    },
    {
      "inputs": [
        {
          "internalType": "uint256",
          "name": "tokenId",
          "type": "uint256"
        }
      ],
      "name": "tokenURI",
      "outputs": [
        {
          "internalType": "string",
          "name": "",
          "type": "string"
        }
      ],
      "stateMutability": "view",
      "type": "function",
      "constant": true
    },
    {
      "inputs": [],
      "name": "totalSupply",
      "outputs": [
        {
          "internalType": "uint256",
          "name": "",
          "type": "uint256"
        }
      ],
      "stateMutability": "view",
      "type": "function",
      "constant": true
    },
    {
      "inputs": [
        {
          "internalType": "address",
          "name": "from",
          "type": "address"
        },
        {
          "internalType": "address",
          "name": "to",
          "type": "address"
        },
        {
          "internalType": "uint256",
          "name": "tokenId",
          "type": "uint256"
        }
      ],
      "name": "transferFrom",
      "outputs": [],
      "stateMutability": "nonpayable",
      "type": "function"
    },
    {
      "inputs": [
        {
          "internalType": "string",
          "name": "_name",
          "type": "string"
        },
        {
          "internalType": "uint256",
          "name": "_price",
          "type": "uint256"
        },
        {
          "internalType": "string",
          "name": "_imageURL",
          "type": "string"
        },
        {
          "internalType": "uint256",
          "name": "_numberOfTransfers",
          "type": "uint256"
        },
        {
          "internalType": "bool",
          "name": "_forSale",
          "type": "bool"
        }
      ],
      "name": "mintDigitalItem",
      "outputs": [],
      "stateMutability": "nonpayable",
      "type": "function"
    },
    {
      "inputs": [
        {
          "internalType": "address",
          "name": "_owner",
          "type": "address"
        },
        {
          "internalType": "address payable",
          "name": "_newOwner",
          "type": "address"
        },
        {
          "internalType": "uint256",
          "name": "_tokenId",
          "type": "uint256"
        }
      ],
      "name": "updateCurrentOwnerDigitalItem",
      "outputs": [
        {
          "internalType": "bool",
          "name": "success",
          "type": "bool"
        }
      ],
      "stateMutability": "nonpayable",
      "type": "function"
    },
    {
      "inputs": [
        {
          "internalType": "address",
          "name": "_owner",
          "type": "address"
        },
        {
          "internalType": "uint256",
          "name": "_tokenId",
          "type": "uint256"
        },
        {
          "internalType": "string",
          "name": "_name",
          "type": "string"
        },
        {
          "internalType": "uint256",
          "name": "_price",
          "type": "uint256"
        },
        {
          "internalType": "string",
          "name": "_imageURL",
          "type": "string"
        },
        {
          "internalType": "uint256",
          "name": "_numberOfTransfers",
          "type": "uint256"
        },
        {
          "internalType": "bool",
          "name": "_forSale",
          "type": "bool"
        }
      ],
      "name": "updateInfoBasicDigitalItem",
      "outputs": [
        {
          "internalType": "bool",
          "name": "success",
          "type": "bool"
        }
      ],
      "stateMutability": "nonpayable",
      "type": "function"
    },
    {
      "inputs": [
        {
          "internalType": "uint256",
          "name": "_tokenId",
          "type": "uint256"
        },
        {
          "internalType": "address",
          "name": "_owner",
          "type": "address"
        }
      ],
      "name": "getDigitalItem",
      "outputs": [
        {
          "internalType": "string",
          "name": "_name",
          "type": "string"
        },
        {
          "internalType": "address",
          "name": "_mintedBy",
          "type": "address"
        },
        {
          "internalType": "address",
          "name": "_currentOwner",
          "type": "address"
        },
        {
          "internalType": "address",
          "name": "_previousOwner",
          "type": "address"
        },
        {
          "internalType": "uint256",
          "name": "_price",
          "type": "uint256"
        },
        {
          "internalType": "string",
          "name": "_imageURL",
          "type": "string"
        },
        {
          "internalType": "uint256",
          "name": "_numberOfTransfers",
          "type": "uint256"
        },
        {
          "internalType": "bool",
          "name": "_forSale",
          "type": "bool"
        }
      ],
      "stateMutability": "view",
      "type": "function",
      "constant": true
    },
    {
      "inputs": [
        {
          "internalType": "address",
          "name": "_owner",
          "type": "address"
        }
      ],
      "name": "getDigitalItemCount",
      "outputs": [
        {
          "internalType": "uint256",
          "name": "",
          "type": "uint256"
        }
      ],
      "stateMutability": "view",
      "type": "function",
      "constant": true
    },
    {
      "inputs": [
        {
          "internalType": "string",
          "name": "_imageURL",
          "type": "string"
        },
        {
          "internalType": "string",
          "name": "_name",
          "type": "string"
        },
        {
          "internalType": "string",
          "name": "_description",
          "type": "string"
        }
      ],
      "name": "createCollection",
      "outputs": [
        {
          "internalType": "bool",
          "name": "success",
          "type": "bool"
        }
      ],
      "stateMutability": "nonpayable",
      "type": "function"
    },
    {
      "inputs": [
        {
          "internalType": "uint256",
          "name": "_tokenId",
          "type": "uint256"
        },
        {
          "internalType": "address",
          "name": "_owner",
          "type": "address"
        }
      ],
      "name": "getCollection",
      "outputs": [
        {
          "internalType": "string",
          "name": "_imageURL",
          "type": "string"
        },
        {
          "internalType": "string",
          "name": "_name",
          "type": "string"
        },
        {
          "internalType": "string",
          "name": "_description",
          "type": "string"
        }
      ],
      "stateMutability": "view",
      "type": "function",
      "constant": true
    },
    {
      "inputs": [
        {
          "internalType": "address",
          "name": "_owner",
          "type": "address"
        }
      ],
      "name": "getCollectionCount",
      "outputs": [
        {
          "internalType": "uint256",
          "name": "",
          "type": "uint256"
        }
      ],
      "stateMutability": "view",
      "type": "function",
      "constant": true
    }
  ],
  "bytecode": "0x60806040526000600e553480156200001657600080fd5b506040518060400160405280601381526020017f41727446756e647320436f6c6c656374696f6e000000000000000000000000008152506040518060400160405280600281526020017f43420000000000000000000000000000000000000000000000000000000000008152506200009b6301ffc9a760e01b6200016d60201b60201c565b8160069080519060200190620000b3929190620003c2565b508060079080519060200190620000cc929190620003c2565b50620000e56380ac58cd60e01b6200016d60201b60201c565b620000fd635b5e139f60e01b6200016d60201b60201c565b6200011563780e9d6360e01b6200016d60201b60201c565b5050620001276200027660201b60201c565b600a90805190602001906200013e929190620003c2565b506200014f6200031c60201b60201c565b600b908051906020019062000166929190620003c2565b5062000478565b63ffffffff60e01b817bffffffffffffffffffffffffffffffffffffffffffffffffffffffff191614156200020a576040517f08c379a000000000000000000000000000000000000000000000000000000000815260040180806020018281038252601c8152602001807f4552433136353a20696e76616c696420696e746572666163652069640000000081525060200191505060405180910390fd5b6001600080837bffffffffffffffffffffffffffffffffffffffffffffffffffffffff19167bffffffffffffffffffffffffffffffffffffffffffffffffffffffff1916815260200190815260200160002060006101000a81548160ff02191690831515021790555050565b606060068054600181600116156101000203166002900480601f016020809104026020016040519081016040528092919081815260200182805460018160011615610100020316600290048015620003125780601f10620002e65761010080835404028352916020019162000312565b820191906000526020600020905b815481529060010190602001808311620002f457829003601f168201915b5050505050905090565b606060078054600181600116156101000203166002900480601f016020809104026020016040519081016040528092919081815260200182805460018160011615610100020316600290048015620003b85780601f106200038c57610100808354040283529160200191620003b8565b820191906000526020600020905b8154815290600101906020018083116200039a57829003601f168201915b5050505050905090565b828054600181600116156101000203166002900490600052602060002090601f016020900481019282620003fa576000855562000446565b82601f106200041557805160ff191683800117855562000446565b8280016001018555821562000446579182015b828111156200044557825182559160200191906001019062000428565b5b50905062000455919062000459565b5090565b5b80821115620004745760008160009055506001016200045a565b5090565b61467c80620004886000396000f3fe608060405234801561001057600080fd5b50600436106101da5760003560e01c806354515bb611610104578063a22cb465116100a2578063e5326ab111610071578063e5326ab1146105f0578063e985e9c51461060e578063ebdc07e81461063e578063ece86c211461066e576101da565b8063a22cb46514610550578063b88d4fde1461056c578063c87b56dd14610588578063d5f45a7d146105b8576101da565b80636f9507f9116100de5780636f9507f9146104ad57806370a08231146104cb57806395d89b41146104fb5780639bdbf7e014610519576101da565b806354515bb61461042f5780636352211e1461045f5780636c0360eb1461048f576101da565b806323b872dd1161017c57806342842e0e1161014b57806342842e0e146103a95780634f6ccce7146103c5578063501845c6146103f55780635187a82d14610411576101da565b806323b872dd146102f95780632588e01c146103155780632f745c591461034557806339b5f83014610375576101da565b806307a5b578116101b857806307a5b5781461025f578063081812fc1461028f578063095ea7b3146102bf57806318160ddd146102db576101da565b806301188b3f146101df57806301ffc9a71461021157806306fdde0314610241575b600080fd5b6101f960048036038101906101f49190613e36565b61069e565b60405161020893929190613fe9565b60405180910390f35b61022b60048036038101906102269190613ca6565b610984565b6040516102389190613f20565b60405180910390f35b6102496109eb565b6040516102569190613f3b565b60405180910390f35b610279600480360381019061027491906139e2565b610a8d565b6040516102869190614035565b60405180910390f35b6102a960048036038101906102a49190613e0d565b610b12565b6040516102b69190613f05565b60405180910390f35b6102d960048036038101906102d49190613b9c565b610bad565b005b6102e3610cf1565b6040516102f09190614035565b60405180910390f35b610313600480360381019061030e9190613a96565b610d02565b005b61032f600480360381019061032a9190613a47565b610d78565b60405161033c9190613f20565b60405180910390f35b61035f600480360381019061035a9190613b9c565b610f0d565b60405161036c9190614035565b60405180910390f35b61038f600480360381019061038a9190613b9c565b610f68565b6040516103a0959493929190614153565b60405180910390f35b6103c360048036038101906103be9190613a96565b611190565b005b6103df60048036038101906103da9190613e0d565b6111b0565b6040516103ec9190614035565b60405180910390f35b61040f600480360381019061040a9190613d66565b6111d3565b005b61041961148d565b6040516104269190614035565b60405180910390f35b610449600480360381019061044491906139e2565b611493565b6040516104569190614035565b60405180910390f35b61047960048036038101906104749190613e0d565b611518565b6040516104869190613f05565b60405180910390f35b61049761154f565b6040516104a49190613f3b565b60405180910390f35b6104b56115f1565b6040516104c29190613f3b565b60405180910390f35b6104e560048036038101906104e091906139e2565b61168f565b6040516104f29190614035565b60405180910390f35b610503611764565b6040516105109190613f3b565b60405180910390f35b610533600480360381019061052e9190613e36565b611806565b604051610547989796959493929190613f5d565b60405180910390f35b61056a60048036038101906105659190613b60565b611aef565b005b61058660048036038101906105819190613ae5565b611ca5565b005b6105a2600480360381019061059d9190613e0d565b611d1d565b6040516105af9190613f3b565b60405180910390f35b6105d260048036038101906105cd9190613b9c565b611fee565b6040516105e799989796959493929190614050565b60405180910390f35b6105f86121f6565b6040516106059190613f3b565b60405180910390f35b61062860048036038101906106239190613a0b565b612294565b6040516106359190613f20565b60405180910390f35b61065860048036038101906106539190613bd8565b612328565b6040516106659190613f20565b60405180910390f35b61068860048036038101906106839190613ccf565b61248c565b6040516106959190613f20565b60405180910390f35b6060806060600073ffffffffffffffffffffffffffffffffffffffff168473ffffffffffffffffffffffffffffffffffffffff1614156106dd57600080fd5b60008510156106eb57600080fd5b6000600d60008673ffffffffffffffffffffffffffffffffffffffff1673ffffffffffffffffffffffffffffffffffffffff168152602001908152602001600020805490501161073a57600080fd5b6000600d60008673ffffffffffffffffffffffffffffffffffffffff1673ffffffffffffffffffffffffffffffffffffffff168152602001908152602001600020868154811061078657fe5b90600052602060002090600602019050806001018160020182600301828054600181600116156101000203166002900480601f0160208091040260200160405190810160405280929190818152602001828054600181600116156101000203166002900480156108375780601f1061080c57610100808354040283529160200191610837565b820191906000526020600020905b81548152906001019060200180831161081a57829003601f168201915b50505050509250818054600181600116156101000203166002900480601f0160208091040260200160405190810160405280929190818152602001828054600181600116156101000203166002900480156108d35780601f106108a8576101008083540402835291602001916108d3565b820191906000526020600020905b8154815290600101906020018083116108b657829003601f168201915b50505050509150808054600181600116156101000203166002900480601f01602080910402602001604051908101604052809291908181526020018280546001816001161561010002031660029004801561096f5780601f106109445761010080835404028352916020019161096f565b820191906000526020600020905b81548152906001019060200180831161095257829003601f168201915b50505050509050935093509350509250925092565b6000806000837bffffffffffffffffffffffffffffffffffffffffffffffffffffffff19167bffffffffffffffffffffffffffffffffffffffffffffffffffffffff1916815260200190815260200160002060009054906101000a900460ff169050919050565b606060068054600181600116156101000203166002900480601f016020809104026020016040519081016040528092919081815260200182805460018160011615610100020316600290048015610a835780601f10610a5857610100808354040283529160200191610a83565b820191906000526020600020905b815481529060010190602001808311610a6657829003601f168201915b5050505050905090565b60008073ffffffffffffffffffffffffffffffffffffffff168273ffffffffffffffffffffffffffffffffffffffff161415610ac857600080fd5b600f60008373ffffffffffffffffffffffffffffffffffffffff1673ffffffffffffffffffffffffffffffffffffffff168152602001908152602001600020805490509050919050565b6000610b1d826125bf565b610b72576040517f08c379a000000000000000000000000000000000000000000000000000000000815260040180806020018281038252602c815260200180614571602c913960400191505060405180910390fd5b6004600083815260200190815260200160002060009054906101000a900473ffffffffffffffffffffffffffffffffffffffff169050919050565b6000610bb882611518565b90508073ffffffffffffffffffffffffffffffffffffffff168373ffffffffffffffffffffffffffffffffffffffff161415610c3f576040517f08c379a00000000000000000000000000000000000000000000000000000000081526004018080602001828103825260218152602001806145f56021913960400191505060405180910390fd5b8073ffffffffffffffffffffffffffffffffffffffff16610c5e6125dc565b73ffffffffffffffffffffffffffffffffffffffff161480610c8d5750610c8c81610c876125dc565b612294565b5b610ce2576040517f08c379a00000000000000000000000000000000000000000000000000000000081526004018080602001828103825260388152602001806144c46038913960400191505060405180910390fd5b610cec83836125e4565b505050565b6000610cfd600261269d565b905090565b610d13610d0d6125dc565b826126b2565b610d68576040517f08c379a00000000000000000000000000000000000000000000000000000000081526004018080602001828103825260318152602001806146166031913960400191505060405180910390fd5b610d738383836127a6565b505050565b60008073ffffffffffffffffffffffffffffffffffffffff168473ffffffffffffffffffffffffffffffffffffffff161415610db357600080fd5b600073ffffffffffffffffffffffffffffffffffffffff168373ffffffffffffffffffffffffffffffffffffffff161415610ded57600080fd5b6000821015610dfb57600080fd5b6000600f60008673ffffffffffffffffffffffffffffffffffffffff1673ffffffffffffffffffffffffffffffffffffffff1681526020019081526020016000208381548110610e4757fe5b906000526020600020906009020190508060030160009054906101000a900473ffffffffffffffffffffffffffffffffffffffff168160040160006101000a81548173ffffffffffffffffffffffffffffffffffffffff021916908373ffffffffffffffffffffffffffffffffffffffff160217905550838160030160006101000a81548173ffffffffffffffffffffffffffffffffffffffff021916908373ffffffffffffffffffffffffffffffffffffffff16021790555060019150509392505050565b6000610f6082600160008673ffffffffffffffffffffffffffffffffffffffff1673ffffffffffffffffffffffffffffffffffffffff1681526020019081526020016000206129e990919063ffffffff16565b905092915050565b600d6020528160005260406000208181548110610f8457600080fd5b906000526020600020906006020160009150915050806000015490806001018054600181600116156101000203166002900480601f0160208091040260200160405190810160405280929190818152602001828054600181600116156101000203166002900480156110375780601f1061100c57610100808354040283529160200191611037565b820191906000526020600020905b81548152906001019060200180831161101a57829003601f168201915b505050505090806002018054600181600116156101000203166002900480601f0160208091040260200160405190810160405280929190818152602001828054600181600116156101000203166002900480156110d55780601f106110aa576101008083540402835291602001916110d5565b820191906000526020600020905b8154815290600101906020018083116110b857829003601f168201915b505050505090806003018054600181600116156101000203166002900480601f0160208091040260200160405190810160405280929190818152602001828054600181600116156101000203166002900480156111735780601f1061114857610100808354040283529160200191611173565b820191906000526020600020905b81548152906001019060200180831161115657829003601f168201915b5050505050908060050160009054906101000a900460ff16905085565b6111ab83838360405180602001604052806000815250611ca5565b505050565b6000806111c7836002612a0390919063ffffffff16565b50905080915050919050565b600073ffffffffffffffffffffffffffffffffffffffff163373ffffffffffffffffffffffffffffffffffffffff16141561120d57600080fd5b600e6000815480929190600101919050555061122a600e546125bf565b1561123457600080fd5b61124033600e54612a2f565b6000604051806101200160405280600e5481526020018781526020013373ffffffffffffffffffffffffffffffffffffffff1681526020013373ffffffffffffffffffffffffffffffffffffffff1681526020013373ffffffffffffffffffffffffffffffffffffffff16815260200186815260200185815260200160008152602001600115158152509050600f60003373ffffffffffffffffffffffffffffffffffffffff1673ffffffffffffffffffffffffffffffffffffffff16815260200190815260200160002081908060018154018082558091505060019003906000526020600020906009020160009091909190915060008201518160000155602082015181600101908051906020019061135b9291906137fe565b5060408201518160020160006101000a81548173ffffffffffffffffffffffffffffffffffffffff021916908373ffffffffffffffffffffffffffffffffffffffff16021790555060608201518160030160006101000a81548173ffffffffffffffffffffffffffffffffffffffff021916908373ffffffffffffffffffffffffffffffffffffffff16021790555060808201518160040160006101000a81548173ffffffffffffffffffffffffffffffffffffffff021916908373ffffffffffffffffffffffffffffffffffffffff16021790555060a0820151816005015560c08201518160060190805190602001906114579291906137fe565b5060e082015181600701556101008201518160080160006101000a81548160ff0219169083151502179055505050505050505050565b600c5481565b60008073ffffffffffffffffffffffffffffffffffffffff168273ffffffffffffffffffffffffffffffffffffffff1614156114ce57600080fd5b600d60008373ffffffffffffffffffffffffffffffffffffffff1673ffffffffffffffffffffffffffffffffffffffff168152602001908152602001600020805490509050919050565b600061154882604051806060016040528060298152602001614526602991396002612c239092919063ffffffff16565b9050919050565b606060098054600181600116156101000203166002900480601f0160208091040260200160405190810160405280929190818152602001828054600181600116156101000203166002900480156115e75780601f106115bc576101008083540402835291602001916115e7565b820191906000526020600020905b8154815290600101906020018083116115ca57829003601f168201915b5050505050905090565b600b8054600181600116156101000203166002900480601f0160208091040260200160405190810160405280929190818152602001828054600181600116156101000203166002900480156116875780601f1061165c57610100808354040283529160200191611687565b820191906000526020600020905b81548152906001019060200180831161166a57829003601f168201915b505050505081565b60008073ffffffffffffffffffffffffffffffffffffffff168273ffffffffffffffffffffffffffffffffffffffff161415611716576040517f08c379a000000000000000000000000000000000000000000000000000000000815260040180806020018281038252602a8152602001806144fc602a913960400191505060405180910390fd5b61175d600160008473ffffffffffffffffffffffffffffffffffffffff1673ffffffffffffffffffffffffffffffffffffffff168152602001908152602001600020612c42565b9050919050565b606060078054600181600116156101000203166002900480601f0160208091040260200160405190810160405280929190818152602001828054600181600116156101000203166002900480156117fc5780601f106117d1576101008083540402835291602001916117fc565b820191906000526020600020905b8154815290600101906020018083116117df57829003601f168201915b5050505050905090565b60606000806000806060600080600073ffffffffffffffffffffffffffffffffffffffff168973ffffffffffffffffffffffffffffffffffffffff16141561184d57600080fd5b60008a101561185b57600080fd5b6000600f60008b73ffffffffffffffffffffffffffffffffffffffff1673ffffffffffffffffffffffffffffffffffffffff16815260200190815260200160002080549050116118aa57600080fd5b6000600f60008b73ffffffffffffffffffffffffffffffffffffffff1673ffffffffffffffffffffffffffffffffffffffff1681526020019081526020016000208b815481106118f657fe5b90600052602060002090600902019050806001018160020160009054906101000a900473ffffffffffffffffffffffffffffffffffffffff168260030160009054906101000a900473ffffffffffffffffffffffffffffffffffffffff168360040160009054906101000a900473ffffffffffffffffffffffffffffffffffffffff1684600501548560060186600701548760080160009054906101000a900460ff16878054600181600116156101000203166002900480601f016020809104026020016040519081016040528092919081815260200182805460018160011615610100020316600290048015611a2e5780601f10611a0357610100808354040283529160200191611a2e565b820191906000526020600020905b815481529060010190602001808311611a1157829003601f168201915b50505050509750828054600181600116156101000203166002900480601f016020809104026020016040519081016040528092919081815260200182805460018160011615610100020316600290048015611aca5780601f10611a9f57610100808354040283529160200191611aca565b820191906000526020600020905b815481529060010190602001808311611aad57829003601f168201915b5050505050925098509850985098509850985098509850509295985092959890939650565b611af76125dc565b73ffffffffffffffffffffffffffffffffffffffff168273ffffffffffffffffffffffffffffffffffffffff161415611b98576040517f08c379a00000000000000000000000000000000000000000000000000000000081526004018080602001828103825260198152602001807f4552433732313a20617070726f766520746f2063616c6c65720000000000000081525060200191505060405180910390fd5b8060056000611ba56125dc565b73ffffffffffffffffffffffffffffffffffffffff1673ffffffffffffffffffffffffffffffffffffffff16815260200190815260200160002060008473ffffffffffffffffffffffffffffffffffffffff1673ffffffffffffffffffffffffffffffffffffffff16815260200190815260200160002060006101000a81548160ff0219169083151502179055508173ffffffffffffffffffffffffffffffffffffffff16611c526125dc565b73ffffffffffffffffffffffffffffffffffffffff167f17307eab39ab6107e8899845ad3d59bd9653f200f220920489ca2b5937696c318360405180821515815260200191505060405180910390a35050565b611cb6611cb06125dc565b836126b2565b611d0b576040517f08c379a00000000000000000000000000000000000000000000000000000000081526004018080602001828103825260318152602001806146166031913960400191505060405180910390fd5b611d1784848484612c57565b50505050565b6060611d28826125bf565b611d7d576040517f08c379a000000000000000000000000000000000000000000000000000000000815260040180806020018281038252602f8152602001806145c6602f913960400191505060405180910390fd5b6000600860008481526020019081526020016000208054600181600116156101000203166002900480601f016020809104026020016040519081016040528092919081815260200182805460018160011615610100020316600290048015611e265780601f10611dfb57610100808354040283529160200191611e26565b820191906000526020600020905b815481529060010190602001808311611e0957829003601f168201915b505050505090506000611e3761154f565b9050600081511415611e4d578192505050611fe9565b600082511115611f1e5780826040516020018083805190602001908083835b60208310611e8f5780518252602082019150602081019050602083039250611e6c565b6001836020036101000a03801982511681845116808217855250505050505090500182805190602001908083835b60208310611ee05780518252602082019150602081019050602083039250611ebd565b6001836020036101000a0380198251168184511680821785525050505050509050019250505060405160208183030381529060405292505050611fe9565b80611f2885612cc9565b6040516020018083805190602001908083835b60208310611f5e5780518252602082019150602081019050602083039250611f3b565b6001836020036101000a03801982511681845116808217855250505050505090500182805190602001908083835b60208310611faf5780518252602082019150602081019050602083039250611f8c565b6001836020036101000a03801982511681845116808217855250505050505090500192505050604051602081830303815290604052925050505b919050565b600f602052816000526040600020818154811061200a57600080fd5b906000526020600020906009020160009150915050806000015490806001018054600181600116156101000203166002900480601f0160208091040260200160405190810160405280929190818152602001828054600181600116156101000203166002900480156120bd5780601f10612092576101008083540402835291602001916120bd565b820191906000526020600020905b8154815290600101906020018083116120a057829003601f168201915b5050505050908060020160009054906101000a900473ffffffffffffffffffffffffffffffffffffffff16908060030160009054906101000a900473ffffffffffffffffffffffffffffffffffffffff16908060040160009054906101000a900473ffffffffffffffffffffffffffffffffffffffff1690806005015490806006018054600181600116156101000203166002900480601f0160208091040260200160405190810160405280929190818152602001828054600181600116156101000203166002900480156121d35780601f106121a8576101008083540402835291602001916121d3565b820191906000526020600020905b8154815290600101906020018083116121b657829003601f168201915b5050505050908060070154908060080160009054906101000a900460ff16905089565b600a8054600181600116156101000203166002900480601f01602080910402602001604051908101604052809291908181526020018280546001816001161561010002031660029004801561228c5780601f106122615761010080835404028352916020019161228c565b820191906000526020600020905b81548152906001019060200180831161226f57829003601f168201915b505050505081565b6000600560008473ffffffffffffffffffffffffffffffffffffffff1673ffffffffffffffffffffffffffffffffffffffff16815260200190815260200160002060008373ffffffffffffffffffffffffffffffffffffffff1673ffffffffffffffffffffffffffffffffffffffff16815260200190815260200160002060009054906101000a900460ff16905092915050565b60008073ffffffffffffffffffffffffffffffffffffffff168873ffffffffffffffffffffffffffffffffffffffff16141561236357600080fd5b600087101561237157600080fd5b6000600f60008a73ffffffffffffffffffffffffffffffffffffffff1673ffffffffffffffffffffffffffffffffffffffff16815260200190815260200160002080549050116123c057600080fd5b6000600f60008a73ffffffffffffffffffffffffffffffffffffffff1673ffffffffffffffffffffffffffffffffffffffff168152602001908152602001600020888154811061240c57fe5b90600052602060002090600902019050848160060190805190602001906124349291906137fe565b508681600101908051906020019061244d9291906137fe565b50858160050181905550828160080160006101000a81548160ff0219169083151502179055508381600701819055506001915050979650505050505050565b6000600c600081548092919060010191905055506000600d60003373ffffffffffffffffffffffffffffffffffffffff1673ffffffffffffffffffffffffffffffffffffffff168152602001908152602001600020600c54815481106124ee57fe5b90600052602060002090600602019050600c548160000181905550848160010190805190602001906125219291906137fe565b508381600201908051906020019061253a9291906137fe565b50828160030190805190602001906125539291906137fe565b5060008160050160006101000a81548160ff021916908360ff1602179055507fefbd145fea57de09a0db3eea45c2b6b13a53246bff3d28eaf26c5b4b1ece83f8600c54868633876040516125ab9594939291906140eb565b60405180910390a160019150509392505050565b60006125d5826002612e1090919063ffffffff16565b9050919050565b600033905090565b816004600083815260200190815260200160002060006101000a81548173ffffffffffffffffffffffffffffffffffffffff021916908373ffffffffffffffffffffffffffffffffffffffff160217905550808273ffffffffffffffffffffffffffffffffffffffff1661265783611518565b73ffffffffffffffffffffffffffffffffffffffff167f8c5be1e5ebec7d5bd14f71427d1e84f3dd0314c0f7b2291e5b200ac8c7c3b92560405160405180910390a45050565b60006126ab82600001612e2a565b9050919050565b60006126bd826125bf565b612712576040517f08c379a000000000000000000000000000000000000000000000000000000000815260040180806020018281038252602c815260200180614498602c913960400191505060405180910390fd5b600061271d83611518565b90508073ffffffffffffffffffffffffffffffffffffffff168473ffffffffffffffffffffffffffffffffffffffff16148061278c57508373ffffffffffffffffffffffffffffffffffffffff1661277484610b12565b73ffffffffffffffffffffffffffffffffffffffff16145b8061279d575061279c8185612294565b5b91505092915050565b8273ffffffffffffffffffffffffffffffffffffffff166127c682611518565b73ffffffffffffffffffffffffffffffffffffffff1614612832576040517f08c379a000000000000000000000000000000000000000000000000000000000815260040180806020018281038252602981526020018061459d6029913960400191505060405180910390fd5b600073ffffffffffffffffffffffffffffffffffffffff168273ffffffffffffffffffffffffffffffffffffffff1614156128b8576040517f08c379a000000000000000000000000000000000000000000000000000000000815260040180806020018281038252602481526020018061444e6024913960400191505060405180910390fd5b6128c3838383612e3b565b6128ce6000826125e4565b61291f81600160008673ffffffffffffffffffffffffffffffffffffffff1673ffffffffffffffffffffffffffffffffffffffff168152602001908152602001600020612e4090919063ffffffff16565b5061297181600160008573ffffffffffffffffffffffffffffffffffffffff1673ffffffffffffffffffffffffffffffffffffffff168152602001908152602001600020612e5a90919063ffffffff16565b5061298881836002612e749092919063ffffffff16565b50808273ffffffffffffffffffffffffffffffffffffffff168473ffffffffffffffffffffffffffffffffffffffff167fddf252ad1be2c89b69c2b068fc378daa952ba7f163c4a11628f55a4df523b3ef60405160405180910390a4505050565b60006129f88360000183612ea9565b60001c905092915050565b600080600080612a168660000186612f2c565b915091508160001c8160001c9350935050509250929050565b600073ffffffffffffffffffffffffffffffffffffffff168273ffffffffffffffffffffffffffffffffffffffff161415612ad2576040517f08c379a00000000000000000000000000000000000000000000000000000000081526004018080602001828103825260208152602001807f4552433732313a206d696e7420746f20746865207a65726f206164647265737381525060200191505060405180910390fd5b612adb816125bf565b15612b4e576040517f08c379a000000000000000000000000000000000000000000000000000000000815260040180806020018281038252601c8152602001807f4552433732313a20746f6b656e20616c7265616479206d696e7465640000000081525060200191505060405180910390fd5b612b5a60008383612e3b565b612bab81600160008573ffffffffffffffffffffffffffffffffffffffff1673ffffffffffffffffffffffffffffffffffffffff168152602001908152602001600020612e5a90919063ffffffff16565b50612bc281836002612e749092919063ffffffff16565b50808273ffffffffffffffffffffffffffffffffffffffff16600073ffffffffffffffffffffffffffffffffffffffff167fddf252ad1be2c89b69c2b068fc378daa952ba7f163c4a11628f55a4df523b3ef60405160405180910390a45050565b6000612c36846000018460001b84612fc5565b60001c90509392505050565b6000612c50826000016130bb565b9050919050565b612c628484846127a6565b612c6e848484846130cc565b612cc3576040517f08c379a000000000000000000000000000000000000000000000000000000000815260040180806020018281038252603281526020018061441c6032913960400191505060405180910390fd5b50505050565b60606000821415612d11576040518060400160405280600181526020017f30000000000000000000000000000000000000000000000000000000000000008152509050612e0b565b600082905060005b60008214612d3b578080600101915050600a8281612d3357fe5b049150612d19565b60008167ffffffffffffffff81118015612d5457600080fd5b506040519080825280601f01601f191660200182016040528015612d875781602001600182028036833780820191505090505b50905060006001830390508593505b60008414612e0357600a8481612da857fe5b0660300160f81b82828060019003935081518110612dc257fe5b60200101907effffffffffffffffffffffffffffffffffffffffffffffffffffffffffffff1916908160001a905350600a8481612dfb57fe5b049350612d96565b819450505050505b919050565b6000612e22836000018360001b6132e5565b905092915050565b600081600001805490509050919050565b505050565b6000612e52836000018360001b613308565b905092915050565b6000612e6c836000018360001b6133f0565b905092915050565b6000612ea0846000018460001b8473ffffffffffffffffffffffffffffffffffffffff1660001b613460565b90509392505050565b600081836000018054905011612f0a576040517f08c379a00000000000000000000000000000000000000000000000000000000081526004018080602001828103825260228152602001806143fa6022913960400191505060405180910390fd5b826000018281548110612f1957fe5b9060005260206000200154905092915050565b60008082846000018054905011612f8e576040517f08c379a000000000000000000000000000000000000000000000000000000000815260040180806020018281038252602281526020018061454f6022913960400191505060405180910390fd5b6000846000018481548110612f9f57fe5b906000526020600020906002020190508060000154816001015492509250509250929050565b6000808460010160008581526020019081526020016000205490506000811415839061308c576040517f08c379a00000000000000000000000000000000000000000000000000000000081526004018080602001828103825283818151815260200191508051906020019080838360005b83811015613051578082015181840152602081019050613036565b50505050905090810190601f16801561307e5780820380516001836020036101000a031916815260200191505b509250505060405180910390fd5b5084600001600182038154811061309f57fe5b9060005260206000209060020201600101549150509392505050565b600081600001805490509050919050565b60006130ed8473ffffffffffffffffffffffffffffffffffffffff1661353c565b6130fa57600190506132dd565b600061326463150b7a0260e01b61310f6125dc565b888787604051602401808573ffffffffffffffffffffffffffffffffffffffff1681526020018473ffffffffffffffffffffffffffffffffffffffff16815260200183815260200180602001828103825283818151815260200191508051906020019080838360005b83811015613193578082015181840152602081019050613178565b50505050905090810190601f1680156131c05780820380516001836020036101000a031916815260200191505b5095505050505050604051602081830303815290604052907bffffffffffffffffffffffffffffffffffffffffffffffffffffffff19166020820180517bffffffffffffffffffffffffffffffffffffffffffffffffffffffff838183161783525050505060405180606001604052806032815260200161441c603291398773ffffffffffffffffffffffffffffffffffffffff1661354f9092919063ffffffff16565b9050600081806020019051602081101561327d57600080fd5b8101908080519060200190929190505050905063150b7a0260e01b7bffffffffffffffffffffffffffffffffffffffffffffffffffffffff1916817bffffffffffffffffffffffffffffffffffffffffffffffffffffffff191614925050505b949350505050565b600080836001016000848152602001908152602001600020541415905092915050565b600080836001016000848152602001908152602001600020549050600081146133e4576000600182039050600060018660000180549050039050600086600001828154811061335357fe5b906000526020600020015490508087600001848154811061337057fe5b90600052602060002001819055506001830187600101600083815260200190815260200160002081905550866000018054806133a857fe5b600190038181906000526020600020016000905590558660010160008781526020019081526020016000206000905560019450505050506133ea565b60009150505b92915050565b60006133fc8383613567565b61345557826000018290806001815401808255809150506001900390600052602060002001600090919091909150558260000180549050836001016000848152602001908152602001600020819055506001905061345a565b600090505b92915050565b600080846001016000858152602001908152602001600020549050600081141561350757846000016040518060400160405280868152602001858152509080600181540180825580915050600190039060005260206000209060020201600090919091909150600082015181600001556020820151816001015550508460000180549050856001016000868152602001908152602001600020819055506001915050613535565b8285600001600183038154811061351a57fe5b90600052602060002090600202016001018190555060009150505b9392505050565b600080823b905060008111915050919050565b606061355e848460008561358a565b90509392505050565b600080836001016000848152602001908152602001600020541415905092915050565b6060824710156135e5576040517f08c379a00000000000000000000000000000000000000000000000000000000081526004018080602001828103825260268152602001806144726026913960400191505060405180910390fd5b6135ee8561353c565b613660576040517f08c379a000000000000000000000000000000000000000000000000000000000815260040180806020018281038252601d8152602001807f416464726573733a2063616c6c20746f206e6f6e2d636f6e747261637400000081525060200191505060405180910390fd5b6000808673ffffffffffffffffffffffffffffffffffffffff1685876040518082805190602001908083835b602083106136af578051825260208201915060208101905060208303925061368c565b6001836020036101000a03801982511681845116808217855250505050505090500191505060006040518083038185875af1925050503d8060008114613711576040519150601f19603f3d011682016040523d82523d6000602084013e613716565b606091505b5091509150613726828286613732565b92505050949350505050565b60608315613742578290506137f7565b6000835111156137555782518084602001fd5b816040517f08c379a00000000000000000000000000000000000000000000000000000000081526004018080602001828103825283818151815260200191508051906020019080838360005b838110156137bc5780820151818401526020810190506137a1565b50505050905090810190601f1680156137e95780820380516001836020036101000a031916815260200191505b509250505060405180910390fd5b9392505050565b828054600181600116156101000203166002900490600052602060002090601f016020900481019282613834576000855561387b565b82601f1061384d57805160ff191683800117855561387b565b8280016001018555821561387b579182015b8281111561387a57825182559160200191906001019061385f565b5b509050613888919061388c565b5090565b5b808211156138a557600081600090555060010161388d565b5090565b60006138bc6138b7846141ec565b6141bb565b9050828152602081018484840111156138d457600080fd5b6138df848285614331565b509392505050565b60006138fa6138f58461421c565b6141bb565b90508281526020810184848401111561391257600080fd5b61391d848285614331565b509392505050565b60008135905061393481614386565b92915050565b6000813590506139498161439d565b92915050565b60008135905061395e816143b4565b92915050565b600081359050613973816143cb565b92915050565b600082601f83011261398a57600080fd5b813561399a8482602086016138a9565b91505092915050565b600082601f8301126139b457600080fd5b81356139c48482602086016138e7565b91505092915050565b6000813590506139dc816143e2565b92915050565b6000602082840312156139f457600080fd5b6000613a0284828501613925565b91505092915050565b60008060408385031215613a1e57600080fd5b6000613a2c85828601613925565b9250506020613a3d85828601613925565b9150509250929050565b600080600060608486031215613a5c57600080fd5b6000613a6a86828701613925565b9350506020613a7b8682870161393a565b9250506040613a8c868287016139cd565b9150509250925092565b600080600060608486031215613aab57600080fd5b6000613ab986828701613925565b9350506020613aca86828701613925565b9250506040613adb868287016139cd565b9150509250925092565b60008060008060808587031215613afb57600080fd5b6000613b0987828801613925565b9450506020613b1a87828801613925565b9350506040613b2b878288016139cd565b925050606085013567ffffffffffffffff811115613b4857600080fd5b613b5487828801613979565b91505092959194509250565b60008060408385031215613b7357600080fd5b6000613b8185828601613925565b9250506020613b928582860161394f565b9150509250929050565b60008060408385031215613baf57600080fd5b6000613bbd85828601613925565b9250506020613bce858286016139cd565b9150509250929050565b600080600080600080600060e0888a031215613bf357600080fd5b6000613c018a828b01613925565b9750506020613c128a828b016139cd565b965050604088013567ffffffffffffffff811115613c2f57600080fd5b613c3b8a828b016139a3565b9550506060613c4c8a828b016139cd565b945050608088013567ffffffffffffffff811115613c6957600080fd5b613c758a828b016139a3565b93505060a0613c868a828b016139cd565b92505060c0613c978a828b0161394f565b91505092959891949750929550565b600060208284031215613cb857600080fd5b6000613cc684828501613964565b91505092915050565b600080600060608486031215613ce457600080fd5b600084013567ffffffffffffffff811115613cfe57600080fd5b613d0a868287016139a3565b935050602084013567ffffffffffffffff811115613d2757600080fd5b613d33868287016139a3565b925050604084013567ffffffffffffffff811115613d5057600080fd5b613d5c868287016139a3565b9150509250925092565b600080600080600060a08688031215613d7e57600080fd5b600086013567ffffffffffffffff811115613d9857600080fd5b613da4888289016139a3565b9550506020613db5888289016139cd565b945050604086013567ffffffffffffffff811115613dd257600080fd5b613dde888289016139a3565b9350506060613def888289016139cd565b9250506080613e008882890161394f565b9150509295509295909350565b600060208284031215613e1f57600080fd5b6000613e2d848285016139cd565b91505092915050565b60008060408385031215613e4957600080fd5b6000613e57858286016139cd565b9250506020613e6885828601613925565b9150509250929050565b613e7b816142fb565b82525050565b613e8a8161427a565b82525050565b613e9981614268565b82525050565b613ea88161428c565b82525050565b6000613eb98261424c565b613ec38185614257565b9350613ed3818560208601614340565b613edc81614375565b840191505092915050565b613ef0816142e4565b82525050565b613eff816142ee565b82525050565b6000602082019050613f1a6000830184613e90565b92915050565b6000602082019050613f356000830184613e9f565b92915050565b60006020820190508181036000830152613f558184613eae565b905092915050565b6000610100820190508181036000830152613f78818b613eae565b9050613f87602083018a613e90565b613f946040830189613e90565b613fa16060830188613e90565b613fae6080830187613ee7565b81810360a0830152613fc08186613eae565b9050613fcf60c0830185613ee7565b613fdc60e0830184613e9f565b9998505050505050505050565b600060608201905081810360008301526140038186613eae565b905081810360208301526140178185613eae565b9050818103604083015261402b8184613eae565b9050949350505050565b600060208201905061404a6000830184613ee7565b92915050565b600061012082019050614066600083018c613ee7565b8181036020830152614078818b613eae565b9050614087604083018a613e81565b6140946060830189613e81565b6140a16080830188613e81565b6140ae60a0830187613ee7565b81810360c08301526140c08186613eae565b90506140cf60e0830185613ee7565b6140dd610100830184613e9f565b9a9950505050505050505050565b600060a0820190506141006000830188613ee7565b81810360208301526141128187613eae565b905081810360408301526141268186613eae565b90506141356060830185613e72565b81810360808301526141478184613eae565b90509695505050505050565b600060a0820190506141686000830188613ee7565b818103602083015261417a8187613eae565b9050818103604083015261418e8186613eae565b905081810360608301526141a28185613eae565b90506141b16080830184613ef6565b9695505050505050565b6000604051905081810181811067ffffffffffffffff821117156141e2576141e1614373565b5b8060405250919050565b600067ffffffffffffffff82111561420757614206614373565b5b601f19601f8301169050602081019050919050565b600067ffffffffffffffff82111561423757614236614373565b5b601f19601f8301169050602081019050919050565b600081519050919050565b600082825260208201905092915050565b6000614273826142c4565b9050919050565b6000614285826142c4565b9050919050565b60008115159050919050565b60007fffffffff0000000000000000000000000000000000000000000000000000000082169050919050565b600073ffffffffffffffffffffffffffffffffffffffff82169050919050565b6000819050919050565b600060ff82169050919050565b60006143068261430d565b9050919050565b60006143188261431f565b9050919050565b600061432a826142c4565b9050919050565b82818337600083830152505050565b60005b8381101561435e578082015181840152602081019050614343565b8381111561436d576000848401525b50505050565bfe5b6000601f19601f8301169050919050565b61438f81614268565b811461439a57600080fd5b50565b6143a68161427a565b81146143b157600080fd5b50565b6143bd8161428c565b81146143c857600080fd5b50565b6143d481614298565b81146143df57600080fd5b50565b6143eb816142e4565b81146143f657600080fd5b5056fe456e756d657261626c655365743a20696e646578206f7574206f6620626f756e64734552433732313a207472616e7366657220746f206e6f6e20455243373231526563656976657220696d706c656d656e7465724552433732313a207472616e7366657220746f20746865207a65726f2061646472657373416464726573733a20696e73756666696369656e742062616c616e636520666f722063616c6c4552433732313a206f70657261746f7220717565727920666f72206e6f6e6578697374656e7420746f6b656e4552433732313a20617070726f76652063616c6c6572206973206e6f74206f776e6572206e6f7220617070726f76656420666f7220616c6c4552433732313a2062616c616e636520717565727920666f7220746865207a65726f20616464726573734552433732313a206f776e657220717565727920666f72206e6f6e6578697374656e7420746f6b656e456e756d657261626c654d61703a20696e646578206f7574206f6620626f756e64734552433732313a20617070726f76656420717565727920666f72206e6f6e6578697374656e7420746f6b656e4552433732313a207472616e73666572206f6620746f6b656e2074686174206973206e6f74206f776e4552433732314d657461646174613a2055524920717565727920666f72206e6f6e6578697374656e7420746f6b656e4552433732313a20617070726f76616c20746f2063757272656e74206f776e65724552433732313a207472616e736665722063616c6c6572206973206e6f74206f776e6572206e6f7220617070726f766564a264697066735822122075e56a100edbc6102ee515aa68b90b1078d26ec862f121754cc8df204870e1a064736f6c63430007060033",
  "immutableReferences": {},
  "source": "//import ERC721 interface\r\nimport \"./ERC721.sol\";\r\n\r\npragma abicoder v2;\r\npragma solidity >=0.6.0 <0.8.0;\r\n\r\n//implement\r\ncontract ArtFundsStorage is ERC721 {\r\n    // this contract's token collection name\r\n    string public collectionName;\r\n    // this contract's token symbol\r\n    string public collectionNameSymbol;\r\n\r\n    struct Collection {\r\n        uint256 tokenId;\r\n        string imageURL;\r\n        string name;\r\n        string description;\r\n        mapping(uint256 => DigitalItem) listDigital;\r\n        uint8 listSize;\r\n    }\r\n\r\n    uint256 public collectionCounter;\r\n    mapping(address => Collection[]) public ownerCollections;\r\n    // uint256[] collections;\r\n\r\n    struct DigitalItem {\r\n        uint256 tokenId;\r\n        string name;\r\n        address payable mintedBy;\r\n        address payable currentOwner;\r\n        address payable previousOwner;\r\n        uint256 price;\r\n        string imageURL;\r\n        uint256 numberOfTransfers;\r\n        bool forSale;\r\n    }\r\n\r\n    uint256 digitalItemCounter = 0;\r\n    mapping(address => DigitalItem[]) public ownerDigitalItems;\r\n    // uint256[] digitalItems;\r\n\r\n    event ItemCreated(\r\n        uint256 id,\r\n        string name,\r\n        address mintedBy,\r\n        address currentOwner,\r\n        address previousOwner,\r\n        uint256 price,\r\n        string imageURL,\r\n        uint256 numberOfTransfers,\r\n        bool forSale\r\n    );\r\n\r\n    event ItemForSale(uint256 id, bool forSale);\r\n\r\n    event CollectionCreated(\r\n        uint256 tokenId,\r\n        string imageURL,\r\n        string name,\r\n        address ownedBy,\r\n        string description\r\n    );\r\n\r\n    // initialize contract while deployment with contract's collection name and token\r\n    constructor() ERC721(\"ArtFunds Collection\", \"CB\") {\r\n        collectionName = name();\r\n        collectionNameSymbol = symbol();\r\n    }\r\n\r\n    // mint a new digital item\r\n    function mintDigitalItem(\r\n        string memory _name,\r\n        uint256 _price,\r\n        string memory _imageURL,\r\n        uint256 _numberOfTransfers,\r\n        bool _forSale\r\n    ) external {\r\n        // check if thic fucntion caller is not an zero address account\r\n        require(msg.sender != address(0));\r\n        // increment counter\r\n        digitalItemCounter++;\r\n        // check if a token exists with the above token id => incremented counter\r\n        require(!_exists(digitalItemCounter));\r\n\r\n        // mint the token\r\n        _mint(msg.sender, digitalItemCounter);\r\n\r\n        DigitalItem memory newDigitalItem = DigitalItem(\r\n            digitalItemCounter,\r\n            _name,\r\n            msg.sender,\r\n            msg.sender,\r\n            msg.sender,\r\n            _price,\r\n            _imageURL,\r\n            0,\r\n            true\r\n        );\r\n        ownerDigitalItems[msg.sender].push(newDigitalItem);\r\n    }\r\n\r\n    function updateCurrentOwnerDigitalItem(\r\n        address _owner,\r\n        address payable _newOwner,\r\n        uint256 _tokenId\r\n    ) public returns (bool success) {\r\n        require(_owner != address(0x0));\r\n        require(_newOwner != address(0x0));\r\n        require(_tokenId >= 0);\r\n        DigitalItem storage digitalItem = ownerDigitalItems[_owner][_tokenId];\r\n        digitalItem.previousOwner = digitalItem.currentOwner;\r\n        digitalItem.currentOwner = _newOwner;\r\n        return true;\r\n    }\r\n\r\n    function updateInfoBasicDigitalItem(\r\n        address _owner,\r\n        uint256 _tokenId,\r\n        string memory _name,\r\n        uint256 _price,\r\n        string memory _imageURL,\r\n        uint256 _numberOfTransfers,\r\n        bool _forSale\r\n    ) public returns (bool success) {\r\n        require(_owner != address(0x0));\r\n        require(_tokenId >= 0);\r\n        require(ownerDigitalItems[_owner].length > 0);\r\n        DigitalItem storage digitalItem = ownerDigitalItems[_owner][_tokenId];\r\n        digitalItem.imageURL = _imageURL;\r\n        digitalItem.name = _name;\r\n        digitalItem.price = _price;\r\n        digitalItem.forSale = _forSale;\r\n        digitalItem.numberOfTransfers = _numberOfTransfers;\r\n        return true;\r\n    }\r\n\r\n    function getDigitalItem(uint256 _tokenId, address _owner)\r\n        public\r\n        view\r\n        returns (\r\n            string memory _name,\r\n            address _mintedBy,\r\n            address _currentOwner,\r\n            address _previousOwner,\r\n            uint256 _price,\r\n            string memory _imageURL,\r\n            uint256 _numberOfTransfers,\r\n            bool _forSale\r\n        )\r\n    {\r\n        require(_owner != address(0x0));\r\n        require(_tokenId >= 0);\r\n        require(ownerDigitalItems[_owner].length > 0);\r\n        DigitalItem storage digitalItem = ownerDigitalItems[_owner][_tokenId];\r\n\r\n        return (\r\n            digitalItem.name,\r\n            digitalItem.mintedBy,\r\n            digitalItem.currentOwner,\r\n            digitalItem.previousOwner,\r\n            digitalItem.price,\r\n            digitalItem.imageURL,\r\n            digitalItem.numberOfTransfers,\r\n            digitalItem.forSale\r\n        );\r\n    }\r\n\r\n    function getDigitalItemCount(address _owner) public view returns (uint256) {\r\n        require(_owner != address(0x0));\r\n        return ownerDigitalItems[_owner].length;\r\n    }\r\n\r\n    //This function to create collection from address\r\n    function createCollection(\r\n        string memory _imageURL,\r\n        string memory _name,\r\n        string memory _description\r\n    ) public returns (bool success) {\r\n        collectionCounter++;\r\n        Collection storage collection = ownerCollections[msg.sender][\r\n            collectionCounter\r\n        ];\r\n        collection.tokenId = collectionCounter;\r\n        collection.imageURL = _imageURL;\r\n        collection.name = _name;\r\n        collection.description = _description;\r\n        collection.listSize = 0;\r\n\r\n        // ownerCollections[msg.sender].push(collection);\r\n\r\n        emit CollectionCreated( \r\n            collectionCounter,\r\n            _imageURL,\r\n            _name,\r\n            msg.sender,\r\n            _description\r\n        );\r\n        return true;\r\n    }\r\n\r\n    // function getCollections(address _owner)\r\n    //     public\r\n    //     view\r\n    //     returns (Collection[] memory)\r\n    // {\r\n    //     require(_owner != address(0x0));\r\n    //     require(ownerCollections[_owner].length > 0);\r\n    //     return ownerCollections[_owner];\r\n    // }\r\n\r\n    function getCollection(uint256 _tokenId, address _owner)\r\n        public\r\n        view\r\n        returns (\r\n            string memory _imageURL,\r\n            string memory _name,\r\n            string memory _description\r\n        )\r\n    {\r\n        require(_owner != address(0x0));\r\n        require(_tokenId >= 0);\r\n        require(ownerCollections[_owner].length > 0);\r\n        Collection storage collection = ownerCollections[_owner][_tokenId];\r\n\r\n        return (collection.imageURL, collection.name, collection.description);\r\n    }\r\n\r\n    // function updateCollection(\r\n    //     uint256 _tokenId,\r\n    //     string memory _imageURL,\r\n    //     string memory _name,\r\n    //     string memory _description,\r\n    //     address _owner\r\n    // ) public returns (bool success) {\r\n    //     require(_owner != address(0x0));\r\n    //     require(_tokenId >= 0);\r\n    //     require(ownerCollections[_owner].length > 0);\r\n    //     Collection storage collection = ownerCollections[_owner][_tokenId];\r\n    //     collection.imageURL = _imageURL;\r\n    //     collection.name = _name;\r\n    //     collection.description = _description;\r\n    //     return true;\r\n    // }\r\n\r\n    // function deleteCollection(address _owner, uint256 _tokenId)\r\n    //     public\r\n    //     returns (bool success)\r\n    // {\r\n    //     require(_owner != address(0x0));\r\n    //     require(_tokenId >= 0);\r\n    //     require(ownerCollections[_owner].length > 0);\r\n    //     // uint256 rowToDelete = ownerCollections[_owner][_tokenId].index;\r\n    //     delete ownerCollections[_owner][_tokenId];\r\n    //     collectionCounter--;\r\n    //     return true;\r\n    // }\r\n\r\n    function getCollectionCount(address _owner)\r\n        public\r\n        view\r\n        returns (uint256)\r\n    {\r\n        require(_owner != address(0x0));\r\n        // return (collectionCounter);\r\n        return (ownerCollections[_owner].length);\r\n    }\r\n\r\n    struct Order {\r\n        address maker;\r\n        address taker;\r\n        uint256 tokenId;\r\n    }\r\n\r\n    // mapping(uint256 => Order) orders;\r\n\r\n    // function makeOrder(uint256 _tokenId, uint256 _price) external {\r\n    //     // validate nft\r\n    //     // ...\r\n    // }\r\n\r\n    // function takeOrder(uint256 _tokenId) external {\r\n    //     // check order exists\r\n    //     // validate funds\r\n    //     // transfer funds\r\n    //     // transfer nft\r\n    // }\r\n}\r\n",
  "sourcePath": "E:\\DSC\\DevFest\\ArtFunds\\ArtFunds_DevFest2021\\blockchain\\contracts\\ArtFundsStorage.sol",
  "compiler": {
    "name": "solc",
    "version": "0.7.6+commit.7338295f.Emscripten.clang"
  },
  "schemaVersion": "3.4.3",
  "updatedAt": "2021-10-28T06:19:37.269Z",
  "networkType": "ethereum",
  "devdoc": {
    "kind": "dev",
    "methods": {
      "approve(address,uint256)": {
        "details": "See {IERC721-approve}."
      },
      "balanceOf(address)": {
        "details": "See {IERC721-balanceOf}."
      },
      "baseURI()": {
        "details": "Returns the base URI set via {_setBaseURI}. This will be automatically added as a prefix in {tokenURI} to each token's URI, or to the token ID if no specific URI is set for that token ID."
      },
      "getApproved(uint256)": {
        "details": "See {IERC721-getApproved}."
      },
      "isApprovedForAll(address,address)": {
        "details": "See {IERC721-isApprovedForAll}."
      },
      "name()": {
        "details": "See {IERC721Metadata-name}."
      },
      "ownerOf(uint256)": {
        "details": "See {IERC721-ownerOf}."
      },
      "safeTransferFrom(address,address,uint256)": {
        "details": "See {IERC721-safeTransferFrom}."
      },
      "safeTransferFrom(address,address,uint256,bytes)": {
        "details": "See {IERC721-safeTransferFrom}."
      },
      "setApprovalForAll(address,bool)": {
        "details": "See {IERC721-setApprovalForAll}."
      },
      "supportsInterface(bytes4)": {
        "details": "See {IERC165-supportsInterface}. Time complexity O(1), guaranteed to always use less than 30 000 gas."
      },
      "symbol()": {
        "details": "See {IERC721Metadata-symbol}."
      },
      "tokenByIndex(uint256)": {
        "details": "See {IERC721Enumerable-tokenByIndex}."
      },
      "tokenOfOwnerByIndex(address,uint256)": {
        "details": "See {IERC721Enumerable-tokenOfOwnerByIndex}."
      },
      "tokenURI(uint256)": {
        "details": "See {IERC721Metadata-tokenURI}."
      },
      "totalSupply()": {
        "details": "See {IERC721Enumerable-totalSupply}."
      },
      "transferFrom(address,address,uint256)": {
        "details": "See {IERC721-transferFrom}."
      }
    },
    "version": 1
  },
  "userdoc": {
    "kind": "user",
    "methods": {},
    "version": 1
  }
}