{
  "contractName": "ArtFundsStorage",
  "abi": [
    {
      "inputs": [],
      "stateMutability": "nonpayable",
      "type": "constructor"
    },
    {
      "anonymous": false,
      "inputs": [
        {
          "indexed": true,
          "internalType": "address",
          "name": "owner",
          "type": "address"
        },
        {
          "indexed": true,
          "internalType": "address",
          "name": "approved",
          "type": "address"
        },
        {
          "indexed": true,
          "internalType": "uint256",
          "name": "tokenId",
          "type": "uint256"
        }
      ],
      "name": "Approval",
      "type": "event"
    },
    {
      "anonymous": false,
      "inputs": [
        {
          "indexed": true,
          "internalType": "address",
          "name": "owner",
          "type": "address"
        },
        {
          "indexed": true,
          "internalType": "address",
          "name": "operator",
          "type": "address"
        },
        {
          "indexed": false,
          "internalType": "bool",
          "name": "approved",
          "type": "bool"
        }
      ],
      "name": "ApprovalForAll",
      "type": "event"
    },
    {
      "anonymous": false,
      "inputs": [
        {
          "indexed": false,
          "internalType": "uint256",
          "name": "tokenId",
          "type": "uint256"
        },
        {
          "indexed": false,
          "internalType": "string",
          "name": "imageURL",
          "type": "string"
        },
        {
          "indexed": false,
          "internalType": "string",
          "name": "name",
          "type": "string"
        },
        {
          "indexed": false,
          "internalType": "address",
          "name": "ownedBy",
          "type": "address"
        },
        {
          "indexed": false,
          "internalType": "string",
          "name": "description",
          "type": "string"
        }
      ],
      "name": "CollectionCreated",
      "type": "event"
    },
    {
      "anonymous": false,
      "inputs": [
        {
          "indexed": false,
          "internalType": "uint256",
          "name": "id",
          "type": "uint256"
        },
        {
          "indexed": false,
          "internalType": "string",
          "name": "name",
          "type": "string"
        },
        {
          "indexed": false,
          "internalType": "address",
          "name": "mintedBy",
          "type": "address"
        },
        {
          "indexed": false,
          "internalType": "address",
          "name": "currentOwner",
          "type": "address"
        },
        {
          "indexed": false,
          "internalType": "address",
          "name": "previousOwner",
          "type": "address"
        },
        {
          "indexed": false,
          "internalType": "uint256",
          "name": "price",
          "type": "uint256"
        },
        {
          "indexed": false,
          "internalType": "string",
          "name": "imageURL",
          "type": "string"
        },
        {
          "indexed": false,
          "internalType": "uint256",
          "name": "numberOfTransfers",
          "type": "uint256"
        },
        {
          "indexed": false,
          "internalType": "bool",
          "name": "forSale",
          "type": "bool"
        }
      ],
      "name": "ItemCreated",
      "type": "event"
    },
    {
      "anonymous": false,
      "inputs": [
        {
          "indexed": false,
          "internalType": "uint256",
          "name": "id",
          "type": "uint256"
        },
        {
          "indexed": false,
          "internalType": "bool",
          "name": "forSale",
          "type": "bool"
        }
      ],
      "name": "ItemForSale",
      "type": "event"
    },
    {
      "anonymous": false,
      "inputs": [
        {
          "indexed": true,
          "internalType": "address",
          "name": "from",
          "type": "address"
        },
        {
          "indexed": true,
          "internalType": "address",
          "name": "to",
          "type": "address"
        },
        {
          "indexed": true,
          "internalType": "uint256",
          "name": "tokenId",
          "type": "uint256"
        }
      ],
      "name": "Transfer",
      "type": "event"
    },
    {
      "inputs": [
        {
          "internalType": "address",
          "name": "to",
          "type": "address"
        },
        {
          "internalType": "uint256",
          "name": "tokenId",
          "type": "uint256"
        }
      ],
      "name": "approve",
      "outputs": [],
      "stateMutability": "nonpayable",
      "type": "function"
    },
    {
      "inputs": [
        {
          "internalType": "address",
          "name": "owner",
          "type": "address"
        }
      ],
      "name": "balanceOf",
      "outputs": [
        {
          "internalType": "uint256",
          "name": "",
          "type": "uint256"
        }
      ],
      "stateMutability": "view",
      "type": "function",
      "constant": true
    },
    {
      "inputs": [],
      "name": "baseURI",
      "outputs": [
        {
          "internalType": "string",
          "name": "",
          "type": "string"
        }
      ],
      "stateMutability": "view",
      "type": "function",
      "constant": true
    },
    {
      "inputs": [],
      "name": "collectionName",
      "outputs": [
        {
          "internalType": "string",
          "name": "",
          "type": "string"
        }
      ],
      "stateMutability": "view",
      "type": "function",
      "constant": true
    },
    {
      "inputs": [],
      "name": "collectionNameSymbol",
      "outputs": [
        {
          "internalType": "string",
          "name": "",
          "type": "string"
        }
      ],
      "stateMutability": "view",
      "type": "function",
      "constant": true
    },
    {
      "inputs": [
        {
          "internalType": "uint256",
          "name": "tokenId",
          "type": "uint256"
        }
      ],
      "name": "getApproved",
      "outputs": [
        {
          "internalType": "address",
          "name": "",
          "type": "address"
        }
      ],
      "stateMutability": "view",
      "type": "function",
      "constant": true
    },
    {
      "inputs": [
        {
          "internalType": "address",
          "name": "owner",
          "type": "address"
        },
        {
          "internalType": "address",
          "name": "operator",
          "type": "address"
        }
      ],
      "name": "isApprovedForAll",
      "outputs": [
        {
          "internalType": "bool",
          "name": "",
          "type": "bool"
        }
      ],
      "stateMutability": "view",
      "type": "function",
      "constant": true
    },
    {
      "inputs": [],
      "name": "name",
      "outputs": [
        {
          "internalType": "string",
          "name": "",
          "type": "string"
        }
      ],
      "stateMutability": "view",
      "type": "function",
      "constant": true
    },
    {
      "inputs": [
        {
          "internalType": "address",
          "name": "",
          "type": "address"
        },
        {
          "internalType": "uint256",
          "name": "",
          "type": "uint256"
        }
      ],
      "name": "ownerCollections",
      "outputs": [
        {
          "internalType": "uint256",
          "name": "tokenId",
          "type": "uint256"
        },
        {
          "internalType": "string",
          "name": "imageURL",
          "type": "string"
        },
        {
          "internalType": "string",
          "name": "name",
          "type": "string"
        },
        {
          "internalType": "string",
          "name": "description",
          "type": "string"
        }
      ],
      "stateMutability": "view",
      "type": "function",
      "constant": true
    },
    {
      "inputs": [
        {
          "internalType": "address",
          "name": "",
          "type": "address"
        },
        {
          "internalType": "uint256",
          "name": "",
          "type": "uint256"
        }
      ],
      "name": "ownerDigitalItems",
      "outputs": [
        {
          "internalType": "uint256",
          "name": "tokenId",
          "type": "uint256"
        },
        {
          "internalType": "string",
          "name": "name",
          "type": "string"
        },
        {
          "internalType": "address payable",
          "name": "mintedBy",
          "type": "address"
        },
        {
          "internalType": "address payable",
          "name": "currentOwner",
          "type": "address"
        },
        {
          "internalType": "address payable",
          "name": "previousOwner",
          "type": "address"
        },
        {
          "internalType": "uint256",
          "name": "price",
          "type": "uint256"
        },
        {
          "internalType": "string",
          "name": "imageURL",
          "type": "string"
        },
        {
          "internalType": "uint256",
          "name": "numberOfTransfers",
          "type": "uint256"
        },
        {
          "internalType": "bool",
          "name": "forSale",
          "type": "bool"
        }
      ],
      "stateMutability": "view",
      "type": "function",
      "constant": true
    },
    {
      "inputs": [
        {
          "internalType": "uint256",
          "name": "tokenId",
          "type": "uint256"
        }
      ],
      "name": "ownerOf",
      "outputs": [
        {
          "internalType": "address",
          "name": "",
          "type": "address"
        }
      ],
      "stateMutability": "view",
      "type": "function",
      "constant": true
    },
    {
      "inputs": [
        {
          "internalType": "address",
          "name": "from",
          "type": "address"
        },
        {
          "internalType": "address",
          "name": "to",
          "type": "address"
        },
        {
          "internalType": "uint256",
          "name": "tokenId",
          "type": "uint256"
        }
      ],
      "name": "safeTransferFrom",
      "outputs": [],
      "stateMutability": "nonpayable",
      "type": "function"
    },
    {
      "inputs": [
        {
          "internalType": "address",
          "name": "from",
          "type": "address"
        },
        {
          "internalType": "address",
          "name": "to",
          "type": "address"
        },
        {
          "internalType": "uint256",
          "name": "tokenId",
          "type": "uint256"
        },
        {
          "internalType": "bytes",
          "name": "_data",
          "type": "bytes"
        }
      ],
      "name": "safeTransferFrom",
      "outputs": [],
      "stateMutability": "nonpayable",
      "type": "function"
    },
    {
      "inputs": [
        {
          "internalType": "address",
          "name": "operator",
          "type": "address"
        },
        {
          "internalType": "bool",
          "name": "approved",
          "type": "bool"
        }
      ],
      "name": "setApprovalForAll",
      "outputs": [],
      "stateMutability": "nonpayable",
      "type": "function"
    },
    {
      "inputs": [
        {
          "internalType": "bytes4",
          "name": "interfaceId",
          "type": "bytes4"
        }
      ],
      "name": "supportsInterface",
      "outputs": [
        {
          "internalType": "bool",
          "name": "",
          "type": "bool"
        }
      ],
      "stateMutability": "view",
      "type": "function",
      "constant": true
    },
    {
      "inputs": [],
      "name": "symbol",
      "outputs": [
        {
          "internalType": "string",
          "name": "",
          "type": "string"
        }
      ],
      "stateMutability": "view",
      "type": "function",
      "constant": true
    },
    {
      "inputs": [
        {
          "internalType": "uint256",
          "name": "index",
          "type": "uint256"
        }
      ],
      "name": "tokenByIndex",
      "outputs": [
        {
          "internalType": "uint256",
          "name": "",
          "type": "uint256"
        }
      ],
      "stateMutability": "view",
      "type": "function",
      "constant": true
    },
    {
      "inputs": [
        {
          "internalType": "address",
          "name": "owner",
          "type": "address"
        },
        {
          "internalType": "uint256",
          "name": "index",
          "type": "uint256"
        }
      ],
      "name": "tokenOfOwnerByIndex",
      "outputs": [
        {
          "internalType": "uint256",
          "name": "",
          "type": "uint256"
        }
      ],
      "stateMutability": "view",
      "type": "function",
      "constant": true
    },
    {
      "inputs": [
        {
          "internalType": "uint256",
          "name": "tokenId",
          "type": "uint256"
        }
      ],
      "name": "tokenURI",
      "outputs": [
        {
          "internalType": "string",
          "name": "",
          "type": "string"
        }
      ],
      "stateMutability": "view",
      "type": "function",
      "constant": true
    },
    {
      "inputs": [],
      "name": "totalSupply",
      "outputs": [
        {
          "internalType": "uint256",
          "name": "",
          "type": "uint256"
        }
      ],
      "stateMutability": "view",
      "type": "function",
      "constant": true
    },
    {
      "inputs": [
        {
          "internalType": "address",
          "name": "from",
          "type": "address"
        },
        {
          "internalType": "address",
          "name": "to",
          "type": "address"
        },
        {
          "internalType": "uint256",
          "name": "tokenId",
          "type": "uint256"
        }
      ],
      "name": "transferFrom",
      "outputs": [],
      "stateMutability": "nonpayable",
      "type": "function"
    },
    {
      "inputs": [
        {
          "internalType": "string",
          "name": "_name",
          "type": "string"
        },
        {
          "internalType": "uint256",
          "name": "_price",
          "type": "uint256"
        },
        {
          "internalType": "string",
          "name": "_imageURL",
          "type": "string"
        },
        {
          "internalType": "uint256",
          "name": "_numberOfTransfers",
          "type": "uint256"
        },
        {
          "internalType": "bool",
          "name": "_forSale",
          "type": "bool"
        }
      ],
      "name": "mintDigitalItem",
      "outputs": [],
      "stateMutability": "nonpayable",
      "type": "function"
    },
    {
      "inputs": [
        {
          "internalType": "uint256",
          "name": "_tokenId",
          "type": "uint256"
        },
        {
          "internalType": "address",
          "name": "_owner",
          "type": "address"
        }
      ],
      "name": "getDigitalItem",
      "outputs": [
        {
          "internalType": "string",
          "name": "_name",
          "type": "string"
        },
        {
          "internalType": "address",
          "name": "_mintedBy",
          "type": "address"
        },
        {
          "internalType": "address",
          "name": "_currentOwner",
          "type": "address"
        },
        {
          "internalType": "address",
          "name": "_previousOwner",
          "type": "address"
        },
        {
          "internalType": "uint256",
          "name": "_price",
          "type": "uint256"
        },
        {
          "internalType": "string",
          "name": "_imageURL",
          "type": "string"
        },
        {
          "internalType": "uint256",
          "name": "_numberOfTransfers",
          "type": "uint256"
        },
        {
          "internalType": "bool",
          "name": "_forSale",
          "type": "bool"
        }
      ],
      "stateMutability": "view",
      "type": "function",
      "constant": true
    },
    {
      "inputs": [
        {
          "internalType": "address",
          "name": "_owner",
          "type": "address"
        }
      ],
      "name": "getDigitalItemCount",
      "outputs": [
        {
          "internalType": "uint256",
          "name": "",
          "type": "uint256"
        }
      ],
      "stateMutability": "view",
      "type": "function",
      "constant": true
    },
    {
      "inputs": [
        {
          "internalType": "address",
          "name": "_address",
          "type": "address"
        },
        {
          "internalType": "string",
          "name": "_imageURL",
          "type": "string"
        },
        {
          "internalType": "string",
          "name": "_name",
          "type": "string"
        },
        {
          "internalType": "string",
          "name": "_description",
          "type": "string"
        }
      ],
      "name": "createCollection",
      "outputs": [],
      "stateMutability": "nonpayable",
      "type": "function"
    },
    {
      "inputs": [
        {
          "internalType": "uint256",
          "name": "_tokenId",
          "type": "uint256"
        },
        {
          "internalType": "address",
          "name": "_owner",
          "type": "address"
        }
      ],
      "name": "getCollection",
      "outputs": [
        {
          "internalType": "string",
          "name": "_imageURL",
          "type": "string"
        },
        {
          "internalType": "string",
          "name": "_name",
          "type": "string"
        },
        {
          "internalType": "string",
          "name": "_description",
          "type": "string"
        }
      ],
      "stateMutability": "view",
      "type": "function",
      "constant": true
    },
    {
      "inputs": [
        {
          "internalType": "address",
          "name": "_owner",
          "type": "address"
        }
      ],
      "name": "getCollectionCount",
      "outputs": [
        {
          "internalType": "uint256",
          "name": "",
          "type": "uint256"
        }
      ],
      "stateMutability": "view",
      "type": "function",
      "constant": true
    }
  ],
  "bytecode": "0x60806040526000600c556000600e553480156200001b57600080fd5b506040518060400160405280601381526020017f41727446756e647320436f6c6c656374696f6e000000000000000000000000008152506040518060400160405280600281526020017f4342000000000000000000000000000000000000000000000000000000000000815250620000a06301ffc9a760e01b6200017260201b60201c565b8160069080519060200190620000b8929190620003c7565b508060079080519060200190620000d1929190620003c7565b50620000ea6380ac58cd60e01b6200017260201b60201c565b62000102635b5e139f60e01b6200017260201b60201c565b6200011a63780e9d6360e01b6200017260201b60201c565b50506200012c6200027b60201b60201c565b600a908051906020019062000143929190620003c7565b50620001546200032160201b60201c565b600b90805190602001906200016b929190620003c7565b506200047d565b63ffffffff60e01b817bffffffffffffffffffffffffffffffffffffffffffffffffffffffff191614156200020f576040517f08c379a000000000000000000000000000000000000000000000000000000000815260040180806020018281038252601c8152602001807f4552433136353a20696e76616c696420696e746572666163652069640000000081525060200191505060405180910390fd5b6001600080837bffffffffffffffffffffffffffffffffffffffffffffffffffffffff19167bffffffffffffffffffffffffffffffffffffffffffffffffffffffff1916815260200190815260200160002060006101000a81548160ff02191690831515021790555050565b606060068054600181600116156101000203166002900480601f016020809104026020016040519081016040528092919081815260200182805460018160011615610100020316600290048015620003175780601f10620002eb5761010080835404028352916020019162000317565b820191906000526020600020905b815481529060010190602001808311620002f957829003601f168201915b5050505050905090565b606060078054600181600116156101000203166002900480601f016020809104026020016040519081016040528092919081815260200182805460018160011615610100020316600290048015620003bd5780601f106200039157610100808354040283529160200191620003bd565b820191906000526020600020905b8154815290600101906020018083116200039f57829003601f168201915b5050505050905090565b828054600181600116156101000203166002900490600052602060002090601f016020900481019282620003ff57600085556200044b565b82601f106200041a57805160ff19168380011785556200044b565b828001600101855582156200044b579182015b828111156200044a5782518255916020019190600101906200042d565b5b5090506200045a91906200045e565b5090565b5b80821115620004795760008160009055506001016200045f565b5090565b614161806200048d6000396000f3fe608060405234801561001057600080fd5b50600436106101a95760003560e01c8063501845c6116100f95780639bdbf7e011610097578063c87b56dd11610071578063c87b56dd14610524578063d5f45a7d14610554578063e5326ab11461058c578063e985e9c5146105aa576101a9565b80639bdbf7e0146104b5578063a22cb465146104ec578063b88d4fde14610508576101a9565b80636c0360eb116100d35780636c0360eb1461042b5780636f9507f91461044957806370a082311461046757806395d89b4114610497576101a9565b8063501845c6146103af57806354515bb6146103cb5780636352211e146103fb576101a9565b806318160ddd1161016657806339b5f8301161014057806339b5f830146103145780633df174531461034757806342842e0e146103635780634f6ccce71461037f576101a9565b806318160ddd146102aa57806323b872dd146102c85780632f745c59146102e4576101a9565b806301188b3f146101ae57806301ffc9a7146101e057806306fdde031461021057806307a5b5781461022e578063081812fc1461025e578063095ea7b31461028e575b600080fd5b6101c860048036038101906101c3919061395c565b6105da565b6040516101d793929190613b00565b60405180910390f35b6101fa60048036038101906101f59190613863565b6108c0565b6040516102079190613a37565b60405180910390f35b610218610927565b6040516102259190613a52565b60405180910390f35b61024860048036038101906102439190613611565b6109c9565b6040516102559190613b4c565b60405180910390f35b61027860048036038101906102739190613933565b610a4e565b6040516102859190613a1c565b60405180910390f35b6102a860048036038101906102a39190613827565b610ae9565b005b6102b2610c2d565b6040516102bf9190613b4c565b60405180910390f35b6102e260048036038101906102dd9190613676565b610c3e565b005b6102fe60048036038101906102f99190613827565b610cb4565b60405161030b9190613b4c565b60405180910390f35b61032e60048036038101906103299190613827565b610d0f565b60405161033e9493929190613c6a565b60405180910390f35b610361600480360381019061035c919061377c565b610f24565b005b61037d60048036038101906103789190613676565b611071565b005b61039960048036038101906103949190613933565b611091565b6040516103a69190613b4c565b60405180910390f35b6103c960048036038101906103c4919061388c565b6110b4565b005b6103e560048036038101906103e09190613611565b61136e565b6040516103f29190613b4c565b60405180910390f35b61041560048036038101906104109190613933565b6113f3565b6040516104229190613a1c565b60405180910390f35b61043361142a565b6040516104409190613a52565b60405180910390f35b6104516114cc565b60405161045e9190613a52565b60405180910390f35b610481600480360381019061047c9190613611565b61156a565b60405161048e9190613b4c565b60405180910390f35b61049f61163f565b6040516104ac9190613a52565b60405180910390f35b6104cf60048036038101906104ca919061395c565b6116e1565b6040516104e3989796959493929190613a74565b60405180910390f35b61050660048036038101906105019190613740565b6119ca565b005b610522600480360381019061051d91906136c5565b611b80565b005b61053e60048036038101906105399190613933565b611bf8565b60405161054b9190613a52565b60405180910390f35b61056e60048036038101906105699190613827565b611ec9565b60405161058399989796959493929190613b67565b60405180910390f35b6105946120d1565b6040516105a19190613a52565b60405180910390f35b6105c460048036038101906105bf919061363a565b61216f565b6040516105d19190613a37565b60405180910390f35b6060806060600073ffffffffffffffffffffffffffffffffffffffff168473ffffffffffffffffffffffffffffffffffffffff16141561061957600080fd5b600085101561062757600080fd5b6000600d60008673ffffffffffffffffffffffffffffffffffffffff1673ffffffffffffffffffffffffffffffffffffffff168152602001908152602001600020805490501161067657600080fd5b6000600d60008673ffffffffffffffffffffffffffffffffffffffff1673ffffffffffffffffffffffffffffffffffffffff16815260200190815260200160002086815481106106c257fe5b90600052602060002090600402019050806001018160020182600301828054600181600116156101000203166002900480601f0160208091040260200160405190810160405280929190818152602001828054600181600116156101000203166002900480156107735780601f1061074857610100808354040283529160200191610773565b820191906000526020600020905b81548152906001019060200180831161075657829003601f168201915b50505050509250818054600181600116156101000203166002900480601f01602080910402602001604051908101604052809291908181526020018280546001816001161561010002031660029004801561080f5780601f106107e45761010080835404028352916020019161080f565b820191906000526020600020905b8154815290600101906020018083116107f257829003601f168201915b50505050509150808054600181600116156101000203166002900480601f0160208091040260200160405190810160405280929190818152602001828054600181600116156101000203166002900480156108ab5780601f10610880576101008083540402835291602001916108ab565b820191906000526020600020905b81548152906001019060200180831161088e57829003601f168201915b50505050509050935093509350509250925092565b6000806000837bffffffffffffffffffffffffffffffffffffffffffffffffffffffff19167bffffffffffffffffffffffffffffffffffffffffffffffffffffffff1916815260200190815260200160002060009054906101000a900460ff169050919050565b606060068054600181600116156101000203166002900480601f0160208091040260200160405190810160405280929190818152602001828054600181600116156101000203166002900480156109bf5780601f10610994576101008083540402835291602001916109bf565b820191906000526020600020905b8154815290600101906020018083116109a257829003601f168201915b5050505050905090565b60008073ffffffffffffffffffffffffffffffffffffffff168273ffffffffffffffffffffffffffffffffffffffff161415610a0457600080fd5b600f60008373ffffffffffffffffffffffffffffffffffffffff1673ffffffffffffffffffffffffffffffffffffffff168152602001908152602001600020805490509050919050565b6000610a5982612203565b610aae576040517f08c379a000000000000000000000000000000000000000000000000000000000815260040180806020018281038252602c815260200180614056602c913960400191505060405180910390fd5b6004600083815260200190815260200160002060009054906101000a900473ffffffffffffffffffffffffffffffffffffffff169050919050565b6000610af4826113f3565b90508073ffffffffffffffffffffffffffffffffffffffff168373ffffffffffffffffffffffffffffffffffffffff161415610b7b576040517f08c379a00000000000000000000000000000000000000000000000000000000081526004018080602001828103825260218152602001806140da6021913960400191505060405180910390fd5b8073ffffffffffffffffffffffffffffffffffffffff16610b9a612220565b73ffffffffffffffffffffffffffffffffffffffff161480610bc95750610bc881610bc3612220565b61216f565b5b610c1e576040517f08c379a0000000000000000000000000000000000000000000000000000000008152600401808060200182810382526038815260200180613fa96038913960400191505060405180910390fd5b610c288383612228565b505050565b6000610c3960026122e1565b905090565b610c4f610c49612220565b826122f6565b610ca4576040517f08c379a00000000000000000000000000000000000000000000000000000000081526004018080602001828103825260318152602001806140fb6031913960400191505060405180910390fd5b610caf8383836123ea565b505050565b6000610d0782600160008673ffffffffffffffffffffffffffffffffffffffff1673ffffffffffffffffffffffffffffffffffffffff16815260200190815260200160002061262d90919063ffffffff16565b905092915050565b600d6020528160005260406000208181548110610d2b57600080fd5b906000526020600020906004020160009150915050806000015490806001018054600181600116156101000203166002900480601f016020809104026020016040519081016040528092919081815260200182805460018160011615610100020316600290048015610dde5780601f10610db357610100808354040283529160200191610dde565b820191906000526020600020905b815481529060010190602001808311610dc157829003601f168201915b505050505090806002018054600181600116156101000203166002900480601f016020809104026020016040519081016040528092919081815260200182805460018160011615610100020316600290048015610e7c5780601f10610e5157610100808354040283529160200191610e7c565b820191906000526020600020905b815481529060010190602001808311610e5f57829003601f168201915b505050505090806003018054600181600116156101000203166002900480601f016020809104026020016040519081016040528092919081815260200182805460018160011615610100020316600290048015610f1a5780601f10610eef57610100808354040283529160200191610f1a565b820191906000526020600020905b815481529060010190602001808311610efd57829003601f168201915b5050505050905084565b600c6000815480929190600101919050555060006040518060800160405280600c548152602001858152602001848152602001838152509050600d60003373ffffffffffffffffffffffffffffffffffffffff1673ffffffffffffffffffffffffffffffffffffffff168152602001908152602001600020819080600181540180825580915050600190039060005260206000209060040201600090919091909150600082015181600001556020820151816001019080519060200190610fec929190613442565b506040820151816002019080519060200190611009929190613442565b506060820151816003019080519060200190611026929190613442565b5050507fefbd145fea57de09a0db3eea45c2b6b13a53246bff3d28eaf26c5b4b1ece83f8600c5485853386604051611062959493929190613c02565b60405180910390a15050505050565b61108c83838360405180602001604052806000815250611b80565b505050565b6000806110a883600261264790919063ffffffff16565b50905080915050919050565b600073ffffffffffffffffffffffffffffffffffffffff163373ffffffffffffffffffffffffffffffffffffffff1614156110ee57600080fd5b600e6000815480929190600101919050555061110b600e54612203565b1561111557600080fd5b61112133600e54612673565b6000604051806101200160405280600e5481526020018781526020013373ffffffffffffffffffffffffffffffffffffffff1681526020013373ffffffffffffffffffffffffffffffffffffffff1681526020013373ffffffffffffffffffffffffffffffffffffffff16815260200186815260200185815260200160008152602001600115158152509050600f60003373ffffffffffffffffffffffffffffffffffffffff1673ffffffffffffffffffffffffffffffffffffffff16815260200190815260200160002081908060018154018082558091505060019003906000526020600020906009020160009091909190915060008201518160000155602082015181600101908051906020019061123c929190613442565b5060408201518160020160006101000a81548173ffffffffffffffffffffffffffffffffffffffff021916908373ffffffffffffffffffffffffffffffffffffffff16021790555060608201518160030160006101000a81548173ffffffffffffffffffffffffffffffffffffffff021916908373ffffffffffffffffffffffffffffffffffffffff16021790555060808201518160040160006101000a81548173ffffffffffffffffffffffffffffffffffffffff021916908373ffffffffffffffffffffffffffffffffffffffff16021790555060a0820151816005015560c0820151816006019080519060200190611338929190613442565b5060e082015181600701556101008201518160080160006101000a81548160ff0219169083151502179055505050505050505050565b60008073ffffffffffffffffffffffffffffffffffffffff168273ffffffffffffffffffffffffffffffffffffffff1614156113a957600080fd5b600d60008373ffffffffffffffffffffffffffffffffffffffff1673ffffffffffffffffffffffffffffffffffffffff168152602001908152602001600020805490509050919050565b60006114238260405180606001604052806029815260200161400b6029913960026128679092919063ffffffff16565b9050919050565b606060098054600181600116156101000203166002900480601f0160208091040260200160405190810160405280929190818152602001828054600181600116156101000203166002900480156114c25780601f10611497576101008083540402835291602001916114c2565b820191906000526020600020905b8154815290600101906020018083116114a557829003601f168201915b5050505050905090565b600b8054600181600116156101000203166002900480601f0160208091040260200160405190810160405280929190818152602001828054600181600116156101000203166002900480156115625780601f1061153757610100808354040283529160200191611562565b820191906000526020600020905b81548152906001019060200180831161154557829003601f168201915b505050505081565b60008073ffffffffffffffffffffffffffffffffffffffff168273ffffffffffffffffffffffffffffffffffffffff1614156115f1576040517f08c379a000000000000000000000000000000000000000000000000000000000815260040180806020018281038252602a815260200180613fe1602a913960400191505060405180910390fd5b611638600160008473ffffffffffffffffffffffffffffffffffffffff1673ffffffffffffffffffffffffffffffffffffffff168152602001908152602001600020612886565b9050919050565b606060078054600181600116156101000203166002900480601f0160208091040260200160405190810160405280929190818152602001828054600181600116156101000203166002900480156116d75780601f106116ac576101008083540402835291602001916116d7565b820191906000526020600020905b8154815290600101906020018083116116ba57829003601f168201915b5050505050905090565b60606000806000806060600080600073ffffffffffffffffffffffffffffffffffffffff168973ffffffffffffffffffffffffffffffffffffffff16141561172857600080fd5b60008a101561173657600080fd5b6000600f60008b73ffffffffffffffffffffffffffffffffffffffff1673ffffffffffffffffffffffffffffffffffffffff168152602001908152602001600020805490501161178557600080fd5b6000600f60008b73ffffffffffffffffffffffffffffffffffffffff1673ffffffffffffffffffffffffffffffffffffffff1681526020019081526020016000208b815481106117d157fe5b90600052602060002090600902019050806001018160020160009054906101000a900473ffffffffffffffffffffffffffffffffffffffff168260030160009054906101000a900473ffffffffffffffffffffffffffffffffffffffff168360040160009054906101000a900473ffffffffffffffffffffffffffffffffffffffff1684600501548560060186600701548760080160009054906101000a900460ff16878054600181600116156101000203166002900480601f0160208091040260200160405190810160405280929190818152602001828054600181600116156101000203166002900480156119095780601f106118de57610100808354040283529160200191611909565b820191906000526020600020905b8154815290600101906020018083116118ec57829003601f168201915b50505050509750828054600181600116156101000203166002900480601f0160208091040260200160405190810160405280929190818152602001828054600181600116156101000203166002900480156119a55780601f1061197a576101008083540402835291602001916119a5565b820191906000526020600020905b81548152906001019060200180831161198857829003601f168201915b5050505050925098509850985098509850985098509850509295985092959890939650565b6119d2612220565b73ffffffffffffffffffffffffffffffffffffffff168273ffffffffffffffffffffffffffffffffffffffff161415611a73576040517f08c379a00000000000000000000000000000000000000000000000000000000081526004018080602001828103825260198152602001807f4552433732313a20617070726f766520746f2063616c6c65720000000000000081525060200191505060405180910390fd5b8060056000611a80612220565b73ffffffffffffffffffffffffffffffffffffffff1673ffffffffffffffffffffffffffffffffffffffff16815260200190815260200160002060008473ffffffffffffffffffffffffffffffffffffffff1673ffffffffffffffffffffffffffffffffffffffff16815260200190815260200160002060006101000a81548160ff0219169083151502179055508173ffffffffffffffffffffffffffffffffffffffff16611b2d612220565b73ffffffffffffffffffffffffffffffffffffffff167f17307eab39ab6107e8899845ad3d59bd9653f200f220920489ca2b5937696c318360405180821515815260200191505060405180910390a35050565b611b91611b8b612220565b836122f6565b611be6576040517f08c379a00000000000000000000000000000000000000000000000000000000081526004018080602001828103825260318152602001806140fb6031913960400191505060405180910390fd5b611bf28484848461289b565b50505050565b6060611c0382612203565b611c58576040517f08c379a000000000000000000000000000000000000000000000000000000000815260040180806020018281038252602f8152602001806140ab602f913960400191505060405180910390fd5b6000600860008481526020019081526020016000208054600181600116156101000203166002900480601f016020809104026020016040519081016040528092919081815260200182805460018160011615610100020316600290048015611d015780601f10611cd657610100808354040283529160200191611d01565b820191906000526020600020905b815481529060010190602001808311611ce457829003601f168201915b505050505090506000611d1261142a565b9050600081511415611d28578192505050611ec4565b600082511115611df95780826040516020018083805190602001908083835b60208310611d6a5780518252602082019150602081019050602083039250611d47565b6001836020036101000a03801982511681845116808217855250505050505090500182805190602001908083835b60208310611dbb5780518252602082019150602081019050602083039250611d98565b6001836020036101000a0380198251168184511680821785525050505050509050019250505060405160208183030381529060405292505050611ec4565b80611e038561290d565b6040516020018083805190602001908083835b60208310611e395780518252602082019150602081019050602083039250611e16565b6001836020036101000a03801982511681845116808217855250505050505090500182805190602001908083835b60208310611e8a5780518252602082019150602081019050602083039250611e67565b6001836020036101000a03801982511681845116808217855250505050505090500192505050604051602081830303815290604052925050505b919050565b600f6020528160005260406000208181548110611ee557600080fd5b906000526020600020906009020160009150915050806000015490806001018054600181600116156101000203166002900480601f016020809104026020016040519081016040528092919081815260200182805460018160011615610100020316600290048015611f985780601f10611f6d57610100808354040283529160200191611f98565b820191906000526020600020905b815481529060010190602001808311611f7b57829003601f168201915b5050505050908060020160009054906101000a900473ffffffffffffffffffffffffffffffffffffffff16908060030160009054906101000a900473ffffffffffffffffffffffffffffffffffffffff16908060040160009054906101000a900473ffffffffffffffffffffffffffffffffffffffff1690806005015490806006018054600181600116156101000203166002900480601f0160208091040260200160405190810160405280929190818152602001828054600181600116156101000203166002900480156120ae5780601f10612083576101008083540402835291602001916120ae565b820191906000526020600020905b81548152906001019060200180831161209157829003601f168201915b5050505050908060070154908060080160009054906101000a900460ff16905089565b600a8054600181600116156101000203166002900480601f0160208091040260200160405190810160405280929190818152602001828054600181600116156101000203166002900480156121675780601f1061213c57610100808354040283529160200191612167565b820191906000526020600020905b81548152906001019060200180831161214a57829003601f168201915b505050505081565b6000600560008473ffffffffffffffffffffffffffffffffffffffff1673ffffffffffffffffffffffffffffffffffffffff16815260200190815260200160002060008373ffffffffffffffffffffffffffffffffffffffff1673ffffffffffffffffffffffffffffffffffffffff16815260200190815260200160002060009054906101000a900460ff16905092915050565b6000612219826002612a5490919063ffffffff16565b9050919050565b600033905090565b816004600083815260200190815260200160002060006101000a81548173ffffffffffffffffffffffffffffffffffffffff021916908373ffffffffffffffffffffffffffffffffffffffff160217905550808273ffffffffffffffffffffffffffffffffffffffff1661229b836113f3565b73ffffffffffffffffffffffffffffffffffffffff167f8c5be1e5ebec7d5bd14f71427d1e84f3dd0314c0f7b2291e5b200ac8c7c3b92560405160405180910390a45050565b60006122ef82600001612a6e565b9050919050565b600061230182612203565b612356576040517f08c379a000000000000000000000000000000000000000000000000000000000815260040180806020018281038252602c815260200180613f7d602c913960400191505060405180910390fd5b6000612361836113f3565b90508073ffffffffffffffffffffffffffffffffffffffff168473ffffffffffffffffffffffffffffffffffffffff1614806123d057508373ffffffffffffffffffffffffffffffffffffffff166123b884610a4e565b73ffffffffffffffffffffffffffffffffffffffff16145b806123e157506123e0818561216f565b5b91505092915050565b8273ffffffffffffffffffffffffffffffffffffffff1661240a826113f3565b73ffffffffffffffffffffffffffffffffffffffff1614612476576040517f08c379a00000000000000000000000000000000000000000000000000000000081526004018080602001828103825260298152602001806140826029913960400191505060405180910390fd5b600073ffffffffffffffffffffffffffffffffffffffff168273ffffffffffffffffffffffffffffffffffffffff1614156124fc576040517f08c379a0000000000000000000000000000000000000000000000000000000008152600401808060200182810382526024815260200180613f336024913960400191505060405180910390fd5b612507838383612a7f565b612512600082612228565b61256381600160008673ffffffffffffffffffffffffffffffffffffffff1673ffffffffffffffffffffffffffffffffffffffff168152602001908152602001600020612a8490919063ffffffff16565b506125b581600160008573ffffffffffffffffffffffffffffffffffffffff1673ffffffffffffffffffffffffffffffffffffffff168152602001908152602001600020612a9e90919063ffffffff16565b506125cc81836002612ab89092919063ffffffff16565b50808273ffffffffffffffffffffffffffffffffffffffff168473ffffffffffffffffffffffffffffffffffffffff167fddf252ad1be2c89b69c2b068fc378daa952ba7f163c4a11628f55a4df523b3ef60405160405180910390a4505050565b600061263c8360000183612aed565b60001c905092915050565b60008060008061265a8660000186612b70565b915091508160001c8160001c9350935050509250929050565b600073ffffffffffffffffffffffffffffffffffffffff168273ffffffffffffffffffffffffffffffffffffffff161415612716576040517f08c379a00000000000000000000000000000000000000000000000000000000081526004018080602001828103825260208152602001807f4552433732313a206d696e7420746f20746865207a65726f206164647265737381525060200191505060405180910390fd5b61271f81612203565b15612792576040517f08c379a000000000000000000000000000000000000000000000000000000000815260040180806020018281038252601c8152602001807f4552433732313a20746f6b656e20616c7265616479206d696e7465640000000081525060200191505060405180910390fd5b61279e60008383612a7f565b6127ef81600160008573ffffffffffffffffffffffffffffffffffffffff1673ffffffffffffffffffffffffffffffffffffffff168152602001908152602001600020612a9e90919063ffffffff16565b5061280681836002612ab89092919063ffffffff16565b50808273ffffffffffffffffffffffffffffffffffffffff16600073ffffffffffffffffffffffffffffffffffffffff167fddf252ad1be2c89b69c2b068fc378daa952ba7f163c4a11628f55a4df523b3ef60405160405180910390a45050565b600061287a846000018460001b84612c09565b60001c90509392505050565b600061289482600001612cff565b9050919050565b6128a68484846123ea565b6128b284848484612d10565b612907576040517f08c379a0000000000000000000000000000000000000000000000000000000008152600401808060200182810382526032815260200180613f016032913960400191505060405180910390fd5b50505050565b60606000821415612955576040518060400160405280600181526020017f30000000000000000000000000000000000000000000000000000000000000008152509050612a4f565b600082905060005b6000821461297f578080600101915050600a828161297757fe5b04915061295d565b60008167ffffffffffffffff8111801561299857600080fd5b506040519080825280601f01601f1916602001820160405280156129cb5781602001600182028036833780820191505090505b50905060006001830390508593505b60008414612a4757600a84816129ec57fe5b0660300160f81b82828060019003935081518110612a0657fe5b60200101907effffffffffffffffffffffffffffffffffffffffffffffffffffffffffffff1916908160001a905350600a8481612a3f57fe5b0493506129da565b819450505050505b919050565b6000612a66836000018360001b612f29565b905092915050565b600081600001805490509050919050565b505050565b6000612a96836000018360001b612f4c565b905092915050565b6000612ab0836000018360001b613034565b905092915050565b6000612ae4846000018460001b8473ffffffffffffffffffffffffffffffffffffffff1660001b6130a4565b90509392505050565b600081836000018054905011612b4e576040517f08c379a0000000000000000000000000000000000000000000000000000000008152600401808060200182810382526022815260200180613edf6022913960400191505060405180910390fd5b826000018281548110612b5d57fe5b9060005260206000200154905092915050565b60008082846000018054905011612bd2576040517f08c379a00000000000000000000000000000000000000000000000000000000081526004018080602001828103825260228152602001806140346022913960400191505060405180910390fd5b6000846000018481548110612be357fe5b906000526020600020906002020190508060000154816001015492509250509250929050565b60008084600101600085815260200190815260200160002054905060008114158390612cd0576040517f08c379a00000000000000000000000000000000000000000000000000000000081526004018080602001828103825283818151815260200191508051906020019080838360005b83811015612c95578082015181840152602081019050612c7a565b50505050905090810190601f168015612cc25780820380516001836020036101000a031916815260200191505b509250505060405180910390fd5b50846000016001820381548110612ce357fe5b9060005260206000209060020201600101549150509392505050565b600081600001805490509050919050565b6000612d318473ffffffffffffffffffffffffffffffffffffffff16613180565b612d3e5760019050612f21565b6000612ea863150b7a0260e01b612d53612220565b888787604051602401808573ffffffffffffffffffffffffffffffffffffffff1681526020018473ffffffffffffffffffffffffffffffffffffffff16815260200183815260200180602001828103825283818151815260200191508051906020019080838360005b83811015612dd7578082015181840152602081019050612dbc565b50505050905090810190601f168015612e045780820380516001836020036101000a031916815260200191505b5095505050505050604051602081830303815290604052907bffffffffffffffffffffffffffffffffffffffffffffffffffffffff19166020820180517bffffffffffffffffffffffffffffffffffffffffffffffffffffffff8381831617835250505050604051806060016040528060328152602001613f01603291398773ffffffffffffffffffffffffffffffffffffffff166131939092919063ffffffff16565b90506000818060200190516020811015612ec157600080fd5b8101908080519060200190929190505050905063150b7a0260e01b7bffffffffffffffffffffffffffffffffffffffffffffffffffffffff1916817bffffffffffffffffffffffffffffffffffffffffffffffffffffffff191614925050505b949350505050565b600080836001016000848152602001908152602001600020541415905092915050565b600080836001016000848152602001908152602001600020549050600081146130285760006001820390506000600186600001805490500390506000866000018281548110612f9757fe5b9060005260206000200154905080876000018481548110612fb457fe5b9060005260206000200181905550600183018760010160008381526020019081526020016000208190555086600001805480612fec57fe5b6001900381819060005260206000200160009055905586600101600087815260200190815260200160002060009055600194505050505061302e565b60009150505b92915050565b600061304083836131ab565b61309957826000018290806001815401808255809150506001900390600052602060002001600090919091909150558260000180549050836001016000848152602001908152602001600020819055506001905061309e565b600090505b92915050565b600080846001016000858152602001908152602001600020549050600081141561314b57846000016040518060400160405280868152602001858152509080600181540180825580915050600190039060005260206000209060020201600090919091909150600082015181600001556020820151816001015550508460000180549050856001016000868152602001908152602001600020819055506001915050613179565b8285600001600183038154811061315e57fe5b90600052602060002090600202016001018190555060009150505b9392505050565b600080823b905060008111915050919050565b60606131a284846000856131ce565b90509392505050565b600080836001016000848152602001908152602001600020541415905092915050565b606082471015613229576040517f08c379a0000000000000000000000000000000000000000000000000000000008152600401808060200182810382526026815260200180613f576026913960400191505060405180910390fd5b61323285613180565b6132a4576040517f08c379a000000000000000000000000000000000000000000000000000000000815260040180806020018281038252601d8152602001807f416464726573733a2063616c6c20746f206e6f6e2d636f6e747261637400000081525060200191505060405180910390fd5b6000808673ffffffffffffffffffffffffffffffffffffffff1685876040518082805190602001908083835b602083106132f357805182526020820191506020810190506020830392506132d0565b6001836020036101000a03801982511681845116808217855250505050505090500191505060006040518083038185875af1925050503d8060008114613355576040519150601f19603f3d011682016040523d82523d6000602084013e61335a565b606091505b509150915061336a828286613376565b92505050949350505050565b606083156133865782905061343b565b6000835111156133995782518084602001fd5b816040517f08c379a00000000000000000000000000000000000000000000000000000000081526004018080602001828103825283818151815260200191508051906020019080838360005b838110156134005780820151818401526020810190506133e5565b50505050905090810190601f16801561342d5780820380516001836020036101000a031916815260200191505b509250505060405180910390fd5b9392505050565b828054600181600116156101000203166002900490600052602060002090601f01602090048101928261347857600085556134bf565b82601f1061349157805160ff19168380011785556134bf565b828001600101855582156134bf579182015b828111156134be5782518255916020019190600101906134a3565b5b5090506134cc91906134d0565b5090565b5b808211156134e95760008160009055506001016134d1565b5090565b60006135006134fb84613cf5565b613cc4565b90508281526020810184848401111561351857600080fd5b613523848285613e2d565b509392505050565b600061353e61353984613d25565b613cc4565b90508281526020810184848401111561355657600080fd5b613561848285613e2d565b509392505050565b60008135905061357881613e82565b92915050565b60008135905061358d81613e99565b92915050565b6000813590506135a281613eb0565b92915050565b600082601f8301126135b957600080fd5b81356135c98482602086016134ed565b91505092915050565b600082601f8301126135e357600080fd5b81356135f384826020860161352b565b91505092915050565b60008135905061360b81613ec7565b92915050565b60006020828403121561362357600080fd5b600061363184828501613569565b91505092915050565b6000806040838503121561364d57600080fd5b600061365b85828601613569565b925050602061366c85828601613569565b9150509250929050565b60008060006060848603121561368b57600080fd5b600061369986828701613569565b93505060206136aa86828701613569565b92505060406136bb868287016135fc565b9150509250925092565b600080600080608085870312156136db57600080fd5b60006136e987828801613569565b94505060206136fa87828801613569565b935050604061370b878288016135fc565b925050606085013567ffffffffffffffff81111561372857600080fd5b613734878288016135a8565b91505092959194509250565b6000806040838503121561375357600080fd5b600061376185828601613569565b92505060206137728582860161357e565b9150509250929050565b6000806000806080858703121561379257600080fd5b60006137a087828801613569565b945050602085013567ffffffffffffffff8111156137bd57600080fd5b6137c9878288016135d2565b935050604085013567ffffffffffffffff8111156137e657600080fd5b6137f2878288016135d2565b925050606085013567ffffffffffffffff81111561380f57600080fd5b61381b878288016135d2565b91505092959194509250565b6000806040838503121561383a57600080fd5b600061384885828601613569565b9250506020613859858286016135fc565b9150509250929050565b60006020828403121561387557600080fd5b600061388384828501613593565b91505092915050565b600080600080600060a086880312156138a457600080fd5b600086013567ffffffffffffffff8111156138be57600080fd5b6138ca888289016135d2565b95505060206138db888289016135fc565b945050604086013567ffffffffffffffff8111156138f857600080fd5b613904888289016135d2565b9350506060613915888289016135fc565b92505060806139268882890161357e565b9150509295509295909350565b60006020828403121561394557600080fd5b6000613953848285016135fc565b91505092915050565b6000806040838503121561396f57600080fd5b600061397d858286016135fc565b925050602061398e85828601613569565b9150509250929050565b6139a181613df7565b82525050565b6139b081613d83565b82525050565b6139bf81613d71565b82525050565b6139ce81613d95565b82525050565b60006139df82613d55565b6139e98185613d60565b93506139f9818560208601613e3c565b613a0281613e71565b840191505092915050565b613a1681613ded565b82525050565b6000602082019050613a3160008301846139b6565b92915050565b6000602082019050613a4c60008301846139c5565b92915050565b60006020820190508181036000830152613a6c81846139d4565b905092915050565b6000610100820190508181036000830152613a8f818b6139d4565b9050613a9e602083018a6139b6565b613aab60408301896139b6565b613ab860608301886139b6565b613ac56080830187613a0d565b81810360a0830152613ad781866139d4565b9050613ae660c0830185613a0d565b613af360e08301846139c5565b9998505050505050505050565b60006060820190508181036000830152613b1a81866139d4565b90508181036020830152613b2e81856139d4565b90508181036040830152613b4281846139d4565b9050949350505050565b6000602082019050613b616000830184613a0d565b92915050565b600061012082019050613b7d600083018c613a0d565b8181036020830152613b8f818b6139d4565b9050613b9e604083018a6139a7565b613bab60608301896139a7565b613bb860808301886139a7565b613bc560a0830187613a0d565b81810360c0830152613bd781866139d4565b9050613be660e0830185613a0d565b613bf46101008301846139c5565b9a9950505050505050505050565b600060a082019050613c176000830188613a0d565b8181036020830152613c2981876139d4565b90508181036040830152613c3d81866139d4565b9050613c4c6060830185613998565b8181036080830152613c5e81846139d4565b90509695505050505050565b6000608082019050613c7f6000830187613a0d565b8181036020830152613c9181866139d4565b90508181036040830152613ca581856139d4565b90508181036060830152613cb981846139d4565b905095945050505050565b6000604051905081810181811067ffffffffffffffff82111715613ceb57613cea613e6f565b5b8060405250919050565b600067ffffffffffffffff821115613d1057613d0f613e6f565b5b601f19601f8301169050602081019050919050565b600067ffffffffffffffff821115613d4057613d3f613e6f565b5b601f19601f8301169050602081019050919050565b600081519050919050565b600082825260208201905092915050565b6000613d7c82613dcd565b9050919050565b6000613d8e82613dcd565b9050919050565b60008115159050919050565b60007fffffffff0000000000000000000000000000000000000000000000000000000082169050919050565b600073ffffffffffffffffffffffffffffffffffffffff82169050919050565b6000819050919050565b6000613e0282613e09565b9050919050565b6000613e1482613e1b565b9050919050565b6000613e2682613dcd565b9050919050565b82818337600083830152505050565b60005b83811015613e5a578082015181840152602081019050613e3f565b83811115613e69576000848401525b50505050565bfe5b6000601f19601f8301169050919050565b613e8b81613d71565b8114613e9657600080fd5b50565b613ea281613d95565b8114613ead57600080fd5b50565b613eb981613da1565b8114613ec457600080fd5b50565b613ed081613ded565b8114613edb57600080fd5b5056fe456e756d657261626c655365743a20696e646578206f7574206f6620626f756e64734552433732313a207472616e7366657220746f206e6f6e20455243373231526563656976657220696d706c656d656e7465724552433732313a207472616e7366657220746f20746865207a65726f2061646472657373416464726573733a20696e73756666696369656e742062616c616e636520666f722063616c6c4552433732313a206f70657261746f7220717565727920666f72206e6f6e6578697374656e7420746f6b656e4552433732313a20617070726f76652063616c6c6572206973206e6f74206f776e6572206e6f7220617070726f76656420666f7220616c6c4552433732313a2062616c616e636520717565727920666f7220746865207a65726f20616464726573734552433732313a206f776e657220717565727920666f72206e6f6e6578697374656e7420746f6b656e456e756d657261626c654d61703a20696e646578206f7574206f6620626f756e64734552433732313a20617070726f76656420717565727920666f72206e6f6e6578697374656e7420746f6b656e4552433732313a207472616e73666572206f6620746f6b656e2074686174206973206e6f74206f776e4552433732314d657461646174613a2055524920717565727920666f72206e6f6e6578697374656e7420746f6b656e4552433732313a20617070726f76616c20746f2063757272656e74206f776e65724552433732313a207472616e736665722063616c6c6572206973206e6f74206f776e6572206e6f7220617070726f766564a2646970667358221220f589946ad315fc933e6bf61fe96d3756152afac3ff216ea9f622ee19404295ae64736f6c63430007060033",
  "immutableReferences": {},
  "source": "//import ERC721 interface\r\nimport \"./ERC721.sol\";\r\n\r\n// pragma solidity >=0.6.0 <0.8.0;\r\npragma abicoder v2;\r\n\r\n//implement\r\ncontract ArtFundsStorage is ERC721 {\r\n    // this contract's token collection name\r\n    string public collectionName;\r\n    // this contract's token symbol\r\n    string public collectionNameSymbol;\r\n\r\n    struct Collection {\r\n        uint256 tokenId;\r\n        string imageURL;\r\n        string name;\r\n        string description;\r\n        // DigitalItem[] digitalItems;\r\n        // uint256 collectionPointer;\r\n        // uint256[] digitalItemKeys;\r\n        // mapping(uint256 => uint256) digitalItemKeyPointers;\r\n    }\r\n\r\n    uint256 collectionCounter = 0;\r\n    mapping(address => Collection[]) public ownerCollections;\r\n    // mapping(address => Collection) public collectionStructs;\r\n    // uint256[] collections;\r\n\r\n    struct DigitalItem {\r\n        uint256 tokenId;\r\n        string name;\r\n        address payable mintedBy;\r\n        address payable currentOwner;\r\n        address payable previousOwner;\r\n        uint256 price;\r\n        string imageURL;\r\n        uint256 numberOfTransfers;\r\n        bool forSale;\r\n        // uint256 digitalItemPointer;\r\n        // uint256 collectionKey;\r\n    }\r\n\r\n    uint256 digitalItemCounter = 0;\r\n    mapping(address => DigitalItem[]) public ownerDigitalItems;\r\n    // mapping(address => DigitalItem) public digitalItemStructs;\r\n    // uint256[] digitalItems;\r\n\r\n    event ItemCreated(\r\n        uint256 id,\r\n        string name,\r\n        address mintedBy,\r\n        address currentOwner,\r\n        address previousOwner,\r\n        uint256 price,\r\n        string imageURL,\r\n        uint256 numberOfTransfers,\r\n        bool forSale\r\n    );\r\n\r\n    event ItemForSale(uint256 id, bool forSale);\r\n\r\n    event CollectionCreated(\r\n        uint256 tokenId,\r\n        string imageURL,\r\n        string name,\r\n        address ownedBy,\r\n        string description\r\n    );\r\n\r\n    // initialize contract while deployment with contract's collection name and token\r\n    constructor() ERC721(\"ArtFunds Collection\", \"CB\") {\r\n        collectionName = name();\r\n        collectionNameSymbol = symbol();\r\n    }\r\n\r\n    // uint256 public tokenCounter;\r\n\r\n    // function getCollectionDigitalItemsCount(uint256 collectionId)\r\n    //     public\r\n    //     constant\r\n    //     returns (uint256 digitalItemsCount)\r\n    // {\r\n    //     if (!isCollection(collectionId)) throw;\r\n    //     return collectionStructs[collectionId].digitalItemKeys.length;\r\n    // }\r\n\r\n    // function getCollectionDigitalItemsAtIndex(uint256 collectionId, uint256 row)\r\n    //     public\r\n    //     constant\r\n    //     returns (uint256 collectionKey)\r\n    // {\r\n    //     if (!isCollection(collectionId)) throw;\r\n    //     return collectionStructs[collectionId].collectionKeys[row];\r\n    // }\r\n\r\n    // function createDigitalItem(uint256 digitalItemId, uint256 collectionId)\r\n    //     onlyOwner\r\n    //     returns (bool success)\r\n    // {\r\n    //     if (!isCollection(collectionId)) throw;\r\n    //     if (isDigitalItem(digitalItemId)) throw;\r\n    //     digitalItemStructs[digitalItemId].digitalItemPointer =\r\n    //         digitalItems.push(digitalItemId) -\r\n    //         1;\r\n    //     digitalItemStructs[digitalItemId].collectionKey = collectionId;\r\n\r\n    //     collectionStructs[collectionId].digitalItemKeyPointers[digitalItemId] =\r\n    //         collectionStructs[collectionId].digitalItemKeys.push(\r\n    //             digitalItemId\r\n    //         ) -\r\n    //         1;\r\n    //     LogNewdigitalItem(msg.sender, digitalItemId, collectionId);\r\n    //     return true;\r\n    // }\r\n\r\n    // mint a new digital item\r\n    function mintDigitalItem(\r\n        string memory _name,\r\n        uint256 _price,\r\n        string memory _imageURL,\r\n        uint256 _numberOfTransfers,\r\n        bool _forSale\r\n    ) external {\r\n        // check if thic fucntion caller is not an zero address account\r\n        require(msg.sender != address(0));\r\n        // increment counter\r\n        digitalItemCounter++;\r\n        // check if a token exists with the above token id => incremented counter\r\n        require(!_exists(digitalItemCounter));\r\n\r\n        // mint the token\r\n        _mint(msg.sender, digitalItemCounter);\r\n\r\n        DigitalItem memory newDigitalItem = DigitalItem(\r\n            digitalItemCounter,\r\n            _name,\r\n            msg.sender,\r\n            msg.sender,\r\n            msg.sender,\r\n            _price,\r\n            _imageURL,\r\n            0,\r\n            true\r\n        );\r\n        ownerDigitalItems[msg.sender].push(newDigitalItem);\r\n    }\r\n\r\n    function getDigitalItem(uint256 _tokenId, address _owner)\r\n        public\r\n        view\r\n        returns (\r\n            string memory _name,\r\n            address _mintedBy,\r\n            address _currentOwner,\r\n            address _previousOwner,\r\n            uint256 _price,\r\n            string memory _imageURL,\r\n            uint256 _numberOfTransfers,\r\n            bool _forSale\r\n        )\r\n    {\r\n        require(_owner != address(0x0));\r\n        require(_tokenId >= 0);\r\n        require(ownerDigitalItems[_owner].length > 0);\r\n        DigitalItem storage digitalItem = ownerDigitalItems[_owner][_tokenId];\r\n\r\n        return (\r\n            digitalItem.name,\r\n            digitalItem.mintedBy,\r\n            digitalItem.currentOwner,\r\n            digitalItem.previousOwner,\r\n            digitalItem.price,\r\n            digitalItem.imageURL,\r\n            digitalItem.numberOfTransfers,\r\n            digitalItem.forSale\r\n        );\r\n    }\r\n\r\n    function getDigitalItemCount(address _owner) public view returns (uint256) {\r\n        require(_owner != address(0x0));\r\n        return ownerDigitalItems[_owner].length;\r\n    }\r\n\r\n    function createCollection(\r\n        address _address,\r\n        string memory _imageURL,\r\n        string memory _name,\r\n        string memory _description\r\n    ) public {\r\n        collectionCounter++;\r\n        Collection memory collection = Collection(\r\n            collectionCounter,\r\n            _imageURL,\r\n            _name,\r\n            _description\r\n        );\r\n        ownerCollections[msg.sender].push(collection);\r\n        emit CollectionCreated(\r\n            collectionCounter,\r\n            _imageURL,\r\n            _name,\r\n            msg.sender,\r\n            _description\r\n        );\r\n    }\r\n\r\n    function getCollection(uint256 _tokenId, address _owner)\r\n        public\r\n        view\r\n        returns (\r\n            string memory _imageURL,\r\n            string memory _name,\r\n            string memory _description\r\n        )\r\n    {\r\n        require(_owner != address(0x0));\r\n        require(_tokenId >= 0);\r\n        require(ownerCollections[_owner].length > 0);\r\n        Collection storage collection = ownerCollections[_owner][_tokenId];\r\n\r\n        return (collection.imageURL, collection.name, collection.description);\r\n    }\r\n\r\n    function getCollectionCount(address _owner) public view returns (uint256) {\r\n        require(_owner != address(0x0));\r\n        return ownerCollections[_owner].length;\r\n    }\r\n\r\n    // struct Order {\r\n    //     address maker;\r\n    //     address taker;\r\n    //     uint256 tokenId;\r\n    // }\r\n\r\n    // mapping(uint256 => Order) orders;\r\n\r\n    // function makeOrder(uint256 _tokenId, uint256 _price) external {\r\n    //     // validate nft\r\n    //     // ...\r\n    // }\r\n\r\n    // function takeOrder(uint256 _tokenId) external {\r\n    //     // check order exists\r\n    //     // validate funds\r\n    //     // transfer funds\r\n    //     // transfer nft\r\n    // }\r\n}\r\n",
  "sourcePath": "G:\\GitHub\\ArtFunds_DevFest\\blockchain\\contracts\\ArtFundsStorage.sol",
  "compiler": {
    "name": "solc",
    "version": "0.7.6+commit.7338295f.Emscripten.clang"
  },
  "schemaVersion": "3.4.3",
  "updatedAt": "2021-10-26T18:50:42.777Z",
  "networkType": "ethereum",
  "devdoc": {
    "kind": "dev",
    "methods": {
      "approve(address,uint256)": {
        "details": "See {IERC721-approve}."
      },
      "balanceOf(address)": {
        "details": "See {IERC721-balanceOf}."
      },
      "baseURI()": {
        "details": "Returns the base URI set via {_setBaseURI}. This will be automatically added as a prefix in {tokenURI} to each token's URI, or to the token ID if no specific URI is set for that token ID."
      },
      "getApproved(uint256)": {
        "details": "See {IERC721-getApproved}."
      },
      "isApprovedForAll(address,address)": {
        "details": "See {IERC721-isApprovedForAll}."
      },
      "name()": {
        "details": "See {IERC721Metadata-name}."
      },
      "ownerOf(uint256)": {
        "details": "See {IERC721-ownerOf}."
      },
      "safeTransferFrom(address,address,uint256)": {
        "details": "See {IERC721-safeTransferFrom}."
      },
      "safeTransferFrom(address,address,uint256,bytes)": {
        "details": "See {IERC721-safeTransferFrom}."
      },
      "setApprovalForAll(address,bool)": {
        "details": "See {IERC721-setApprovalForAll}."
      },
      "supportsInterface(bytes4)": {
        "details": "See {IERC165-supportsInterface}. Time complexity O(1), guaranteed to always use less than 30 000 gas."
      },
      "symbol()": {
        "details": "See {IERC721Metadata-symbol}."
      },
      "tokenByIndex(uint256)": {
        "details": "See {IERC721Enumerable-tokenByIndex}."
      },
      "tokenOfOwnerByIndex(address,uint256)": {
        "details": "See {IERC721Enumerable-tokenOfOwnerByIndex}."
      },
      "tokenURI(uint256)": {
        "details": "See {IERC721Metadata-tokenURI}."
      },
      "totalSupply()": {
        "details": "See {IERC721Enumerable-totalSupply}."
      },
      "transferFrom(address,address,uint256)": {
        "details": "See {IERC721-transferFrom}."
      }
    },
    "version": 1
  },
  "userdoc": {
    "kind": "user",
    "methods": {},
    "version": 1
  }
}