{
  "contractName": "ArtFundsStorage",
  "abi": [
    {
      "inputs": [],
      "stateMutability": "nonpayable",
      "type": "constructor"
    },
    {
      "anonymous": false,
      "inputs": [
        {
          "indexed": true,
          "internalType": "address",
          "name": "owner",
          "type": "address"
        },
        {
          "indexed": true,
          "internalType": "address",
          "name": "approved",
          "type": "address"
        },
        {
          "indexed": true,
          "internalType": "uint256",
          "name": "tokenId",
          "type": "uint256"
        }
      ],
      "name": "Approval",
      "type": "event"
    },
    {
      "anonymous": false,
      "inputs": [
        {
          "indexed": true,
          "internalType": "address",
          "name": "owner",
          "type": "address"
        },
        {
          "indexed": true,
          "internalType": "address",
          "name": "operator",
          "type": "address"
        },
        {
          "indexed": false,
          "internalType": "bool",
          "name": "approved",
          "type": "bool"
        }
      ],
      "name": "ApprovalForAll",
      "type": "event"
    },
    {
      "anonymous": false,
      "inputs": [
        {
          "indexed": false,
          "internalType": "uint256",
          "name": "tokenId",
          "type": "uint256"
        },
        {
          "indexed": false,
          "internalType": "string",
          "name": "imageURL",
          "type": "string"
        },
        {
          "indexed": false,
          "internalType": "string",
          "name": "name",
          "type": "string"
        },
        {
          "indexed": false,
          "internalType": "address",
          "name": "ownedBy",
          "type": "address"
        },
        {
          "indexed": false,
          "internalType": "string",
          "name": "description",
          "type": "string"
        }
      ],
      "name": "CollectionCreated",
      "type": "event"
    },
    {
      "anonymous": false,
      "inputs": [
        {
          "indexed": false,
          "internalType": "uint256",
          "name": "id",
          "type": "uint256"
        },
        {
          "indexed": false,
          "internalType": "string",
          "name": "name",
          "type": "string"
        },
        {
          "indexed": false,
          "internalType": "address",
          "name": "mintedBy",
          "type": "address"
        },
        {
          "indexed": false,
          "internalType": "address",
          "name": "currentOwner",
          "type": "address"
        },
        {
          "indexed": false,
          "internalType": "address",
          "name": "previousOwner",
          "type": "address"
        },
        {
          "indexed": false,
          "internalType": "uint256",
          "name": "price",
          "type": "uint256"
        },
        {
          "indexed": false,
          "internalType": "string",
          "name": "imageURL",
          "type": "string"
        },
        {
          "indexed": false,
          "internalType": "uint256",
          "name": "numberOfTransfers",
          "type": "uint256"
        },
        {
          "indexed": false,
          "internalType": "bool",
          "name": "forSale",
          "type": "bool"
        }
      ],
      "name": "ItemCreated",
      "type": "event"
    },
    {
      "anonymous": false,
      "inputs": [
        {
          "indexed": false,
          "internalType": "uint256",
          "name": "id",
          "type": "uint256"
        },
        {
          "indexed": false,
          "internalType": "bool",
          "name": "forSale",
          "type": "bool"
        }
      ],
      "name": "ItemForSale",
      "type": "event"
    },
    {
      "anonymous": false,
      "inputs": [
        {
          "indexed": true,
          "internalType": "address",
          "name": "from",
          "type": "address"
        },
        {
          "indexed": true,
          "internalType": "address",
          "name": "to",
          "type": "address"
        },
        {
          "indexed": true,
          "internalType": "uint256",
          "name": "tokenId",
          "type": "uint256"
        }
      ],
      "name": "Transfer",
      "type": "event"
    },
    {
      "inputs": [
        {
          "internalType": "address",
          "name": "to",
          "type": "address"
        },
        {
          "internalType": "uint256",
          "name": "tokenId",
          "type": "uint256"
        }
      ],
      "name": "approve",
      "outputs": [],
      "stateMutability": "nonpayable",
      "type": "function"
    },
    {
      "inputs": [
        {
          "internalType": "address",
          "name": "owner",
          "type": "address"
        }
      ],
      "name": "balanceOf",
      "outputs": [
        {
          "internalType": "uint256",
          "name": "",
          "type": "uint256"
        }
      ],
      "stateMutability": "view",
      "type": "function"
    },
    {
      "inputs": [],
      "name": "baseURI",
      "outputs": [
        {
          "internalType": "string",
          "name": "",
          "type": "string"
        }
      ],
      "stateMutability": "view",
      "type": "function"
    },
    {
      "inputs": [],
      "name": "collectionCounter",
      "outputs": [
        {
          "internalType": "uint256",
          "name": "",
          "type": "uint256"
        }
      ],
      "stateMutability": "view",
      "type": "function"
    },
    {
      "inputs": [],
      "name": "collectionName",
      "outputs": [
        {
          "internalType": "string",
          "name": "",
          "type": "string"
        }
      ],
      "stateMutability": "view",
      "type": "function"
    },
    {
      "inputs": [],
      "name": "collectionNameSymbol",
      "outputs": [
        {
          "internalType": "string",
          "name": "",
          "type": "string"
        }
      ],
      "stateMutability": "view",
      "type": "function"
    },
    {
      "inputs": [
        {
          "internalType": "uint256",
          "name": "tokenId",
          "type": "uint256"
        }
      ],
      "name": "getApproved",
      "outputs": [
        {
          "internalType": "address",
          "name": "",
          "type": "address"
        }
      ],
      "stateMutability": "view",
      "type": "function"
    },
    {
      "inputs": [
        {
          "internalType": "address",
          "name": "owner",
          "type": "address"
        },
        {
          "internalType": "address",
          "name": "operator",
          "type": "address"
        }
      ],
      "name": "isApprovedForAll",
      "outputs": [
        {
          "internalType": "bool",
          "name": "",
          "type": "bool"
        }
      ],
      "stateMutability": "view",
      "type": "function"
    },
    {
      "inputs": [],
      "name": "name",
      "outputs": [
        {
          "internalType": "string",
          "name": "",
          "type": "string"
        }
      ],
      "stateMutability": "view",
      "type": "function"
    },
    {
      "inputs": [
        {
          "internalType": "address",
          "name": "",
          "type": "address"
        },
        {
          "internalType": "uint256",
          "name": "",
          "type": "uint256"
        }
      ],
      "name": "ownerCollections",
      "outputs": [
        {
          "internalType": "uint256",
          "name": "tokenId",
          "type": "uint256"
        },
        {
          "internalType": "string",
          "name": "imageURL",
          "type": "string"
        },
        {
          "internalType": "string",
          "name": "name",
          "type": "string"
        },
        {
          "internalType": "string",
          "name": "description",
          "type": "string"
        },
        {
          "internalType": "uint8",
          "name": "listSize",
          "type": "uint8"
        }
      ],
      "stateMutability": "view",
      "type": "function"
    },
    {
      "inputs": [
        {
          "internalType": "address",
          "name": "",
          "type": "address"
        },
        {
          "internalType": "uint256",
          "name": "",
          "type": "uint256"
        }
      ],
      "name": "ownerDigitalItems",
      "outputs": [
        {
          "internalType": "uint256",
          "name": "tokenId",
          "type": "uint256"
        },
        {
          "internalType": "string",
          "name": "name",
          "type": "string"
        },
        {
          "internalType": "address payable",
          "name": "mintedBy",
          "type": "address"
        },
        {
          "internalType": "address payable",
          "name": "currentOwner",
          "type": "address"
        },
        {
          "internalType": "address payable",
          "name": "previousOwner",
          "type": "address"
        },
        {
          "internalType": "uint256",
          "name": "price",
          "type": "uint256"
        },
        {
          "internalType": "string",
          "name": "imageURL",
          "type": "string"
        },
        {
          "internalType": "uint256",
          "name": "numberOfTransfers",
          "type": "uint256"
        },
        {
          "internalType": "bool",
          "name": "forSale",
          "type": "bool"
        }
      ],
      "stateMutability": "view",
      "type": "function"
    },
    {
      "inputs": [
        {
          "internalType": "uint256",
          "name": "tokenId",
          "type": "uint256"
        }
      ],
      "name": "ownerOf",
      "outputs": [
        {
          "internalType": "address",
          "name": "",
          "type": "address"
        }
      ],
      "stateMutability": "view",
      "type": "function"
    },
    {
      "inputs": [
        {
          "internalType": "address",
          "name": "from",
          "type": "address"
        },
        {
          "internalType": "address",
          "name": "to",
          "type": "address"
        },
        {
          "internalType": "uint256",
          "name": "tokenId",
          "type": "uint256"
        }
      ],
      "name": "safeTransferFrom",
      "outputs": [],
      "stateMutability": "nonpayable",
      "type": "function"
    },
    {
      "inputs": [
        {
          "internalType": "address",
          "name": "from",
          "type": "address"
        },
        {
          "internalType": "address",
          "name": "to",
          "type": "address"
        },
        {
          "internalType": "uint256",
          "name": "tokenId",
          "type": "uint256"
        },
        {
          "internalType": "bytes",
          "name": "_data",
          "type": "bytes"
        }
      ],
      "name": "safeTransferFrom",
      "outputs": [],
      "stateMutability": "nonpayable",
      "type": "function"
    },
    {
      "inputs": [
        {
          "internalType": "address",
          "name": "operator",
          "type": "address"
        },
        {
          "internalType": "bool",
          "name": "approved",
          "type": "bool"
        }
      ],
      "name": "setApprovalForAll",
      "outputs": [],
      "stateMutability": "nonpayable",
      "type": "function"
    },
    {
      "inputs": [
        {
          "internalType": "bytes4",
          "name": "interfaceId",
          "type": "bytes4"
        }
      ],
      "name": "supportsInterface",
      "outputs": [
        {
          "internalType": "bool",
          "name": "",
          "type": "bool"
        }
      ],
      "stateMutability": "view",
      "type": "function"
    },
    {
      "inputs": [],
      "name": "symbol",
      "outputs": [
        {
          "internalType": "string",
          "name": "",
          "type": "string"
        }
      ],
      "stateMutability": "view",
      "type": "function"
    },
    {
      "inputs": [
        {
          "internalType": "uint256",
          "name": "index",
          "type": "uint256"
        }
      ],
      "name": "tokenByIndex",
      "outputs": [
        {
          "internalType": "uint256",
          "name": "",
          "type": "uint256"
        }
      ],
      "stateMutability": "view",
      "type": "function"
    },
    {
      "inputs": [
        {
          "internalType": "address",
          "name": "owner",
          "type": "address"
        },
        {
          "internalType": "uint256",
          "name": "index",
          "type": "uint256"
        }
      ],
      "name": "tokenOfOwnerByIndex",
      "outputs": [
        {
          "internalType": "uint256",
          "name": "",
          "type": "uint256"
        }
      ],
      "stateMutability": "view",
      "type": "function"
    },
    {
      "inputs": [
        {
          "internalType": "uint256",
          "name": "tokenId",
          "type": "uint256"
        }
      ],
      "name": "tokenURI",
      "outputs": [
        {
          "internalType": "string",
          "name": "",
          "type": "string"
        }
      ],
      "stateMutability": "view",
      "type": "function"
    },
    {
      "inputs": [],
      "name": "totalSupply",
      "outputs": [
        {
          "internalType": "uint256",
          "name": "",
          "type": "uint256"
        }
      ],
      "stateMutability": "view",
      "type": "function"
    },
    {
      "inputs": [
        {
          "internalType": "address",
          "name": "from",
          "type": "address"
        },
        {
          "internalType": "address",
          "name": "to",
          "type": "address"
        },
        {
          "internalType": "uint256",
          "name": "tokenId",
          "type": "uint256"
        }
      ],
      "name": "transferFrom",
      "outputs": [],
      "stateMutability": "nonpayable",
      "type": "function"
    },
    {
      "inputs": [
        {
          "internalType": "string",
          "name": "_name",
          "type": "string"
        },
        {
          "internalType": "uint256",
          "name": "_price",
          "type": "uint256"
        },
        {
          "internalType": "string",
          "name": "_imageURL",
          "type": "string"
        },
        {
          "internalType": "uint256",
          "name": "_numberOfTransfers",
          "type": "uint256"
        },
        {
          "internalType": "bool",
          "name": "_forSale",
          "type": "bool"
        }
      ],
      "name": "mintDigitalItem",
      "outputs": [],
      "stateMutability": "nonpayable",
      "type": "function"
    },
    {
      "inputs": [
        {
          "internalType": "uint256",
          "name": "_tokenId",
          "type": "uint256"
        },
        {
          "internalType": "address",
          "name": "_owner",
          "type": "address"
        }
      ],
      "name": "getDigitalItem",
      "outputs": [
        {
          "internalType": "string",
          "name": "_name",
          "type": "string"
        },
        {
          "internalType": "address",
          "name": "_mintedBy",
          "type": "address"
        },
        {
          "internalType": "address",
          "name": "_currentOwner",
          "type": "address"
        },
        {
          "internalType": "address",
          "name": "_previousOwner",
          "type": "address"
        },
        {
          "internalType": "uint256",
          "name": "_price",
          "type": "uint256"
        },
        {
          "internalType": "string",
          "name": "_imageURL",
          "type": "string"
        },
        {
          "internalType": "uint256",
          "name": "_numberOfTransfers",
          "type": "uint256"
        },
        {
          "internalType": "bool",
          "name": "_forSale",
          "type": "bool"
        }
      ],
      "stateMutability": "view",
      "type": "function"
    },
    {
      "inputs": [
        {
          "internalType": "address",
          "name": "_owner",
          "type": "address"
        }
      ],
      "name": "getDigitalItemCount",
      "outputs": [
        {
          "internalType": "uint256",
          "name": "",
          "type": "uint256"
        }
      ],
      "stateMutability": "view",
      "type": "function"
    },
    {
      "inputs": [
        {
          "internalType": "string",
          "name": "_imageURL",
          "type": "string"
        },
        {
          "internalType": "string",
          "name": "_name",
          "type": "string"
        },
        {
          "internalType": "string",
          "name": "_description",
          "type": "string"
        }
      ],
      "name": "createCollection",
      "outputs": [],
      "stateMutability": "nonpayable",
      "type": "function"
    },
    {
      "inputs": [
        {
          "internalType": "uint256",
          "name": "_tokenId",
          "type": "uint256"
        },
        {
          "internalType": "address",
          "name": "_owner",
          "type": "address"
        }
      ],
      "name": "getCollection",
      "outputs": [
        {
          "internalType": "string",
          "name": "_imageURL",
          "type": "string"
        },
        {
          "internalType": "string",
          "name": "_name",
          "type": "string"
        },
        {
          "internalType": "string",
          "name": "_description",
          "type": "string"
        }
      ],
      "stateMutability": "view",
      "type": "function"
    },
    {
      "inputs": [
        {
          "internalType": "address",
          "name": "_owner",
          "type": "address"
        }
      ],
      "name": "getCollectionCount",
      "outputs": [
        {
          "internalType": "uint256",
          "name": "count",
          "type": "uint256"
        }
      ],
      "stateMutability": "view",
      "type": "function"
    }
  ],
  "bytecode": "0x60806040526000600e553480156200001657600080fd5b506040518060400160405280601381526020017f41727446756e647320436f6c6c656374696f6e000000000000000000000000008152506040518060400160405280600281526020017f43420000000000000000000000000000000000000000000000000000000000008152506200009b6301ffc9a760e01b6200016d60201b60201c565b8160069080519060200190620000b3929190620003c2565b508060079080519060200190620000cc929190620003c2565b50620000e56380ac58cd60e01b6200016d60201b60201c565b620000fd635b5e139f60e01b6200016d60201b60201c565b6200011563780e9d6360e01b6200016d60201b60201c565b5050620001276200027660201b60201c565b600a90805190602001906200013e929190620003c2565b506200014f6200031c60201b60201c565b600b908051906020019062000166929190620003c2565b5062000478565b63ffffffff60e01b817bffffffffffffffffffffffffffffffffffffffffffffffffffffffff191614156200020a576040517f08c379a000000000000000000000000000000000000000000000000000000000815260040180806020018281038252601c8152602001807f4552433136353a20696e76616c696420696e746572666163652069640000000081525060200191505060405180910390fd5b6001600080837bffffffffffffffffffffffffffffffffffffffffffffffffffffffff19167bffffffffffffffffffffffffffffffffffffffffffffffffffffffff1916815260200190815260200160002060006101000a81548160ff02191690831515021790555050565b606060068054600181600116156101000203166002900480601f016020809104026020016040519081016040528092919081815260200182805460018160011615610100020316600290048015620003125780601f10620002e65761010080835404028352916020019162000312565b820191906000526020600020905b815481529060010190602001808311620002f457829003601f168201915b5050505050905090565b606060078054600181600116156101000203166002900480601f016020809104026020016040519081016040528092919081815260200182805460018160011615610100020316600290048015620003b85780601f106200038c57610100808354040283529160200191620003b8565b820191906000526020600020905b8154815290600101906020018083116200039a57829003601f168201915b5050505050905090565b828054600181600116156101000203166002900490600052602060002090601f016020900481019282620003fa576000855562000446565b82601f106200041557805160ff191683800117855562000446565b8280016001018555821562000446579182015b828111156200044557825182559160200191906001019062000428565b5b50905062000455919062000459565b5090565b5b80821115620004745760008160009055506001016200045a565b5090565b61479080620004886000396000f3fe608060405234801561001057600080fd5b50600436106101c45760003560e01c806354515bb6116100f9578063a22cb46511610097578063d5f45a7d11610071578063d5f45a7d14611058578063e5326ab114611200578063e985e9c514611283578063ece86c21146112fd576101c4565b8063a22cb46514610e5c578063b88d4fde14610eac578063c87b56dd14610fb1576101c4565b80636f9507f9116100d35780636f9507f914610b5d57806370a0823114610be057806395d89b4114610c385780639bdbf7e014610cbb576101c4565b806354515bb614610a2a5780636352211e14610a825780636c0360eb14610ada576101c4565b806323b872dd1161016657806342842e0e1161014057806342842e0e146107ea5780634f6ccce714610858578063501845c61461089a5780635187a82d14610a0c576101c4565b806323b872dd1461056a5780632f745c59146105d857806339b5f8301461063a576101c4565b806307a5b578116101a257806307a5b5781461044e578063081812fc146104a6578063095ea7b3146104fe57806318160ddd1461054c576101c4565b806301188b3f146101c957806301ffc9a71461036857806306fdde03146103cb575b600080fd5b610215600480360360408110156101df57600080fd5b8101908080359060200190929190803573ffffffffffffffffffffffffffffffffffffffff1690602001909291905050506114e6565b60405180806020018060200180602001848103845287818151815260200191508051906020019080838360005b8381101561025d578082015181840152602081019050610242565b50505050905090810190601f16801561028a5780820380516001836020036101000a031916815260200191505b50848103835286818151815260200191508051906020019080838360005b838110156102c35780820151818401526020810190506102a8565b50505050905090810190601f1680156102f05780820380516001836020036101000a031916815260200191505b50848103825285818151815260200191508051906020019080838360005b8381101561032957808201518184015260208101905061030e565b50505050905090810190601f1680156103565780820380516001836020036101000a031916815260200191505b50965050505050505060405180910390f35b6103b36004803603602081101561037e57600080fd5b8101908080357bffffffffffffffffffffffffffffffffffffffffffffffffffffffff191690602001909291905050506117cc565b60405180821515815260200191505060405180910390f35b6103d3611833565b6040518080602001828103825283818151815260200191508051906020019080838360005b838110156104135780820151818401526020810190506103f8565b50505050905090810190601f1680156104405780820380516001836020036101000a031916815260200191505b509250505060405180910390f35b6104906004803603602081101561046457600080fd5b81019080803573ffffffffffffffffffffffffffffffffffffffff1690602001909291905050506118d5565b6040518082815260200191505060405180910390f35b6104d2600480360360208110156104bc57600080fd5b810190808035906020019092919050505061195a565b604051808273ffffffffffffffffffffffffffffffffffffffff16815260200191505060405180910390f35b61054a6004803603604081101561051457600080fd5b81019080803573ffffffffffffffffffffffffffffffffffffffff169060200190929190803590602001909291905050506119f5565b005b610554611b39565b6040518082815260200191505060405180910390f35b6105d66004803603606081101561058057600080fd5b81019080803573ffffffffffffffffffffffffffffffffffffffff169060200190929190803573ffffffffffffffffffffffffffffffffffffffff16906020019092919080359060200190929190505050611b4a565b005b610624600480360360408110156105ee57600080fd5b81019080803573ffffffffffffffffffffffffffffffffffffffff16906020019092919080359060200190929190505050611bc0565b6040518082815260200191505060405180910390f35b6106866004803603604081101561065057600080fd5b81019080803573ffffffffffffffffffffffffffffffffffffffff16906020019092919080359060200190929190505050611c1b565b604051808681526020018060200180602001806020018560ff168152602001848103845288818151815260200191508051906020019080838360005b838110156106dd5780820151818401526020810190506106c2565b50505050905090810190601f16801561070a5780820380516001836020036101000a031916815260200191505b50848103835287818151815260200191508051906020019080838360005b83811015610743578082015181840152602081019050610728565b50505050905090810190601f1680156107705780820380516001836020036101000a031916815260200191505b50848103825286818151815260200191508051906020019080838360005b838110156107a957808201518184015260208101905061078e565b50505050905090810190601f1680156107d65780820380516001836020036101000a031916815260200191505b509850505050505050505060405180910390f35b6108566004803603606081101561080057600080fd5b81019080803573ffffffffffffffffffffffffffffffffffffffff169060200190929190803573ffffffffffffffffffffffffffffffffffffffff16906020019092919080359060200190929190505050611e43565b005b6108846004803603602081101561086e57600080fd5b8101908080359060200190929190505050611e63565b6040518082815260200191505060405180910390f35b610a0a600480360360a08110156108b057600080fd5b81019080803590602001906401000000008111156108cd57600080fd5b8201836020820111156108df57600080fd5b8035906020019184600183028401116401000000008311171561090157600080fd5b91908080601f016020809104026020016040519081016040528093929190818152602001838380828437600081840152601f19601f820116905080830192505050505050509192919290803590602001909291908035906020019064010000000081111561096e57600080fd5b82018360208201111561098057600080fd5b803590602001918460018302840111640100000000831117156109a257600080fd5b91908080601f016020809104026020016040519081016040528093929190818152602001838380828437600081840152601f19601f82011690508083019250505050505050919291929080359060200190929190803515159060200190929190505050611e86565b005b610a14612140565b6040518082815260200191505060405180910390f35b610a6c60048036036020811015610a4057600080fd5b81019080803573ffffffffffffffffffffffffffffffffffffffff169060200190929190505050612146565b6040518082815260200191505060405180910390f35b610aae60048036036020811015610a9857600080fd5b810190808035906020019092919050505061218b565b604051808273ffffffffffffffffffffffffffffffffffffffff16815260200191505060405180910390f35b610ae26121c2565b6040518080602001828103825283818151815260200191508051906020019080838360005b83811015610b22578082015181840152602081019050610b07565b50505050905090810190601f168015610b4f5780820380516001836020036101000a031916815260200191505b509250505060405180910390f35b610b65612264565b6040518080602001828103825283818151815260200191508051906020019080838360005b83811015610ba5578082015181840152602081019050610b8a565b50505050905090810190601f168015610bd25780820380516001836020036101000a031916815260200191505b509250505060405180910390f35b610c2260048036036020811015610bf657600080fd5b81019080803573ffffffffffffffffffffffffffffffffffffffff169060200190929190505050612302565b6040518082815260200191505060405180910390f35b610c406123d7565b6040518080602001828103825283818151815260200191508051906020019080838360005b83811015610c80578082015181840152602081019050610c65565b50505050905090810190601f168015610cad5780820380516001836020036101000a031916815260200191505b509250505060405180910390f35b610d0760048036036040811015610cd157600080fd5b8101908080359060200190929190803573ffffffffffffffffffffffffffffffffffffffff169060200190929190505050612479565b60405180806020018973ffffffffffffffffffffffffffffffffffffffff1681526020018873ffffffffffffffffffffffffffffffffffffffff1681526020018773ffffffffffffffffffffffffffffffffffffffff16815260200186815260200180602001858152602001841515815260200183810383528b818151815260200191508051906020019080838360005b83811015610db3578082015181840152602081019050610d98565b50505050905090810190601f168015610de05780820380516001836020036101000a031916815260200191505b50838103825286818151815260200191508051906020019080838360005b83811015610e19578082015181840152602081019050610dfe565b50505050905090810190601f168015610e465780820380516001836020036101000a031916815260200191505b509a505050505050505050505060405180910390f35b610eaa60048036036040811015610e7257600080fd5b81019080803573ffffffffffffffffffffffffffffffffffffffff169060200190929190803515159060200190929190505050612762565b005b610faf60048036036080811015610ec257600080fd5b81019080803573ffffffffffffffffffffffffffffffffffffffff169060200190929190803573ffffffffffffffffffffffffffffffffffffffff1690602001909291908035906020019092919080359060200190640100000000811115610f2957600080fd5b820183602082011115610f3b57600080fd5b80359060200191846001830284011164010000000083111715610f5d57600080fd5b91908080601f016020809104026020016040519081016040528093929190818152602001838380828437600081840152601f19601f820116905080830192505050505050509192919290505050612918565b005b610fdd60048036036020811015610fc757600080fd5b8101908080359060200190929190505050612990565b6040518080602001828103825283818151815260200191508051906020019080838360005b8381101561101d578082015181840152602081019050611002565b50505050905090810190601f16801561104a5780820380516001836020036101000a031916815260200191505b509250505060405180910390f35b6110a46004803603604081101561106e57600080fd5b81019080803573ffffffffffffffffffffffffffffffffffffffff16906020019092919080359060200190929190505050612c61565b604051808a8152602001806020018973ffffffffffffffffffffffffffffffffffffffff1681526020018873ffffffffffffffffffffffffffffffffffffffff1681526020018773ffffffffffffffffffffffffffffffffffffffff16815260200186815260200180602001858152602001841515815260200183810383528b818151815260200191508051906020019080838360005b8381101561115657808201518184015260208101905061113b565b50505050905090810190601f1680156111835780820380516001836020036101000a031916815260200191505b50838103825286818151815260200191508051906020019080838360005b838110156111bc5780820151818401526020810190506111a1565b50505050905090810190601f1680156111e95780820380516001836020036101000a031916815260200191505b509b50505050505050505050505060405180910390f35b611208612e69565b6040518080602001828103825283818151815260200191508051906020019080838360005b8381101561124857808201518184015260208101905061122d565b50505050905090810190601f1680156112755780820380516001836020036101000a031916815260200191505b509250505060405180910390f35b6112e56004803603604081101561129957600080fd5b81019080803573ffffffffffffffffffffffffffffffffffffffff169060200190929190803573ffffffffffffffffffffffffffffffffffffffff169060200190929190505050612f07565b60405180821515815260200191505060405180910390f35b6114e46004803603606081101561131357600080fd5b810190808035906020019064010000000081111561133057600080fd5b82018360208201111561134257600080fd5b8035906020019184600183028401116401000000008311171561136457600080fd5b91908080601f016020809104026020016040519081016040528093929190818152602001838380828437600081840152601f19601f820116905080830192505050505050509192919290803590602001906401000000008111156113c757600080fd5b8201836020820111156113d957600080fd5b803590602001918460018302840111640100000000831117156113fb57600080fd5b91908080601f016020809104026020016040519081016040528093929190818152602001838380828437600081840152601f19601f8201169050808301925050505050505091929192908035906020019064010000000081111561145e57600080fd5b82018360208201111561147057600080fd5b8035906020019184600183028401116401000000008311171561149257600080fd5b91908080601f016020809104026020016040519081016040528093929190818152602001838380828437600081840152601f19601f820116905080830192505050505050509192919290505050612f9b565b005b6060806060600073ffffffffffffffffffffffffffffffffffffffff168473ffffffffffffffffffffffffffffffffffffffff16141561152557600080fd5b600085101561153357600080fd5b6000600d60008673ffffffffffffffffffffffffffffffffffffffff1673ffffffffffffffffffffffffffffffffffffffff168152602001908152602001600020805490501161158257600080fd5b6000600d60008673ffffffffffffffffffffffffffffffffffffffff1673ffffffffffffffffffffffffffffffffffffffff16815260200190815260200160002086815481106115ce57fe5b90600052602060002090600602019050806001018160020182600301828054600181600116156101000203166002900480601f01602080910402602001604051908101604052809291908181526020018280546001816001161561010002031660029004801561167f5780601f106116545761010080835404028352916020019161167f565b820191906000526020600020905b81548152906001019060200180831161166257829003601f168201915b50505050509250818054600181600116156101000203166002900480601f01602080910402602001604051908101604052809291908181526020018280546001816001161561010002031660029004801561171b5780601f106116f05761010080835404028352916020019161171b565b820191906000526020600020905b8154815290600101906020018083116116fe57829003601f168201915b50505050509150808054600181600116156101000203166002900480601f0160208091040260200160405190810160405280929190818152602001828054600181600116156101000203166002900480156117b75780601f1061178c576101008083540402835291602001916117b7565b820191906000526020600020905b81548152906001019060200180831161179a57829003601f168201915b50505050509050935093509350509250925092565b6000806000837bffffffffffffffffffffffffffffffffffffffffffffffffffffffff19167bffffffffffffffffffffffffffffffffffffffffffffffffffffffff1916815260200190815260200160002060009054906101000a900460ff169050919050565b606060068054600181600116156101000203166002900480601f0160208091040260200160405190810160405280929190818152602001828054600181600116156101000203166002900480156118cb5780601f106118a0576101008083540402835291602001916118cb565b820191906000526020600020905b8154815290600101906020018083116118ae57829003601f168201915b5050505050905090565b60008073ffffffffffffffffffffffffffffffffffffffff168273ffffffffffffffffffffffffffffffffffffffff16141561191057600080fd5b600f60008373ffffffffffffffffffffffffffffffffffffffff1673ffffffffffffffffffffffffffffffffffffffff168152602001908152602001600020805490509050919050565b600061196582613223565b6119ba576040517f08c379a000000000000000000000000000000000000000000000000000000000815260040180806020018281038252602c815260200180614685602c913960400191505060405180910390fd5b6004600083815260200190815260200160002060009054906101000a900473ffffffffffffffffffffffffffffffffffffffff169050919050565b6000611a008261218b565b90508073ffffffffffffffffffffffffffffffffffffffff168373ffffffffffffffffffffffffffffffffffffffff161415611a87576040517f08c379a00000000000000000000000000000000000000000000000000000000081526004018080602001828103825260218152602001806147096021913960400191505060405180910390fd5b8073ffffffffffffffffffffffffffffffffffffffff16611aa6613240565b73ffffffffffffffffffffffffffffffffffffffff161480611ad55750611ad481611acf613240565b612f07565b5b611b2a576040517f08c379a00000000000000000000000000000000000000000000000000000000081526004018080602001828103825260388152602001806145d86038913960400191505060405180910390fd5b611b348383613248565b505050565b6000611b456002613301565b905090565b611b5b611b55613240565b82613316565b611bb0576040517f08c379a000000000000000000000000000000000000000000000000000000000815260040180806020018281038252603181526020018061472a6031913960400191505060405180910390fd5b611bbb83838361340a565b505050565b6000611c1382600160008673ffffffffffffffffffffffffffffffffffffffff1673ffffffffffffffffffffffffffffffffffffffff16815260200190815260200160002061364d90919063ffffffff16565b905092915050565b600d6020528160005260406000208181548110611c3757600080fd5b906000526020600020906006020160009150915050806000015490806001018054600181600116156101000203166002900480601f016020809104026020016040519081016040528092919081815260200182805460018160011615610100020316600290048015611cea5780601f10611cbf57610100808354040283529160200191611cea565b820191906000526020600020905b815481529060010190602001808311611ccd57829003601f168201915b505050505090806002018054600181600116156101000203166002900480601f016020809104026020016040519081016040528092919081815260200182805460018160011615610100020316600290048015611d885780601f10611d5d57610100808354040283529160200191611d88565b820191906000526020600020905b815481529060010190602001808311611d6b57829003601f168201915b505050505090806003018054600181600116156101000203166002900480601f016020809104026020016040519081016040528092919081815260200182805460018160011615610100020316600290048015611e265780601f10611dfb57610100808354040283529160200191611e26565b820191906000526020600020905b815481529060010190602001808311611e0957829003601f168201915b5050505050908060050160009054906101000a900460ff16905085565b611e5e83838360405180602001604052806000815250612918565b505050565b600080611e7a83600261366790919063ffffffff16565b50905080915050919050565b600073ffffffffffffffffffffffffffffffffffffffff163373ffffffffffffffffffffffffffffffffffffffff161415611ec057600080fd5b600e60008154809291906001019190505550611edd600e54613223565b15611ee757600080fd5b611ef333600e54613693565b6000604051806101200160405280600e5481526020018781526020013373ffffffffffffffffffffffffffffffffffffffff1681526020013373ffffffffffffffffffffffffffffffffffffffff1681526020013373ffffffffffffffffffffffffffffffffffffffff16815260200186815260200185815260200160008152602001600115158152509050600f60003373ffffffffffffffffffffffffffffffffffffffff1673ffffffffffffffffffffffffffffffffffffffff16815260200190815260200160002081908060018154018082558091505060019003906000526020600020906009020160009091909190915060008201518160000155602082015181600101908051906020019061200e929190614462565b5060408201518160020160006101000a81548173ffffffffffffffffffffffffffffffffffffffff021916908373ffffffffffffffffffffffffffffffffffffffff16021790555060608201518160030160006101000a81548173ffffffffffffffffffffffffffffffffffffffff021916908373ffffffffffffffffffffffffffffffffffffffff16021790555060808201518160040160006101000a81548173ffffffffffffffffffffffffffffffffffffffff021916908373ffffffffffffffffffffffffffffffffffffffff16021790555060a0820151816005015560c082015181600601908051906020019061210a929190614462565b5060e082015181600701556101008201518160080160006101000a81548160ff0219169083151502179055505050505050505050565b600c5481565b60008073ffffffffffffffffffffffffffffffffffffffff168273ffffffffffffffffffffffffffffffffffffffff16141561218157600080fd5b600c549050919050565b60006121bb8260405180606001604052806029815260200161463a6029913960026138879092919063ffffffff16565b9050919050565b606060098054600181600116156101000203166002900480601f01602080910402602001604051908101604052809291908181526020018280546001816001161561010002031660029004801561225a5780601f1061222f5761010080835404028352916020019161225a565b820191906000526020600020905b81548152906001019060200180831161223d57829003601f168201915b5050505050905090565b600b8054600181600116156101000203166002900480601f0160208091040260200160405190810160405280929190818152602001828054600181600116156101000203166002900480156122fa5780601f106122cf576101008083540402835291602001916122fa565b820191906000526020600020905b8154815290600101906020018083116122dd57829003601f168201915b505050505081565b60008073ffffffffffffffffffffffffffffffffffffffff168273ffffffffffffffffffffffffffffffffffffffff161415612389576040517f08c379a000000000000000000000000000000000000000000000000000000000815260040180806020018281038252602a815260200180614610602a913960400191505060405180910390fd5b6123d0600160008473ffffffffffffffffffffffffffffffffffffffff1673ffffffffffffffffffffffffffffffffffffffff1681526020019081526020016000206138a6565b9050919050565b606060078054600181600116156101000203166002900480601f01602080910402602001604051908101604052809291908181526020018280546001816001161561010002031660029004801561246f5780601f106124445761010080835404028352916020019161246f565b820191906000526020600020905b81548152906001019060200180831161245257829003601f168201915b5050505050905090565b60606000806000806060600080600073ffffffffffffffffffffffffffffffffffffffff168973ffffffffffffffffffffffffffffffffffffffff1614156124c057600080fd5b60008a10156124ce57600080fd5b6000600f60008b73ffffffffffffffffffffffffffffffffffffffff1673ffffffffffffffffffffffffffffffffffffffff168152602001908152602001600020805490501161251d57600080fd5b6000600f60008b73ffffffffffffffffffffffffffffffffffffffff1673ffffffffffffffffffffffffffffffffffffffff1681526020019081526020016000208b8154811061256957fe5b90600052602060002090600902019050806001018160020160009054906101000a900473ffffffffffffffffffffffffffffffffffffffff168260030160009054906101000a900473ffffffffffffffffffffffffffffffffffffffff168360040160009054906101000a900473ffffffffffffffffffffffffffffffffffffffff1684600501548560060186600701548760080160009054906101000a900460ff16878054600181600116156101000203166002900480601f0160208091040260200160405190810160405280929190818152602001828054600181600116156101000203166002900480156126a15780601f10612676576101008083540402835291602001916126a1565b820191906000526020600020905b81548152906001019060200180831161268457829003601f168201915b50505050509750828054600181600116156101000203166002900480601f01602080910402602001604051908101604052809291908181526020018280546001816001161561010002031660029004801561273d5780601f106127125761010080835404028352916020019161273d565b820191906000526020600020905b81548152906001019060200180831161272057829003601f168201915b5050505050925098509850985098509850985098509850509295985092959890939650565b61276a613240565b73ffffffffffffffffffffffffffffffffffffffff168273ffffffffffffffffffffffffffffffffffffffff16141561280b576040517f08c379a00000000000000000000000000000000000000000000000000000000081526004018080602001828103825260198152602001807f4552433732313a20617070726f766520746f2063616c6c65720000000000000081525060200191505060405180910390fd5b8060056000612818613240565b73ffffffffffffffffffffffffffffffffffffffff1673ffffffffffffffffffffffffffffffffffffffff16815260200190815260200160002060008473ffffffffffffffffffffffffffffffffffffffff1673ffffffffffffffffffffffffffffffffffffffff16815260200190815260200160002060006101000a81548160ff0219169083151502179055508173ffffffffffffffffffffffffffffffffffffffff166128c5613240565b73ffffffffffffffffffffffffffffffffffffffff167f17307eab39ab6107e8899845ad3d59bd9653f200f220920489ca2b5937696c318360405180821515815260200191505060405180910390a35050565b612929612923613240565b83613316565b61297e576040517f08c379a000000000000000000000000000000000000000000000000000000000815260040180806020018281038252603181526020018061472a6031913960400191505060405180910390fd5b61298a848484846138bb565b50505050565b606061299b82613223565b6129f0576040517f08c379a000000000000000000000000000000000000000000000000000000000815260040180806020018281038252602f8152602001806146da602f913960400191505060405180910390fd5b6000600860008481526020019081526020016000208054600181600116156101000203166002900480601f016020809104026020016040519081016040528092919081815260200182805460018160011615610100020316600290048015612a995780601f10612a6e57610100808354040283529160200191612a99565b820191906000526020600020905b815481529060010190602001808311612a7c57829003601f168201915b505050505090506000612aaa6121c2565b9050600081511415612ac0578192505050612c5c565b600082511115612b915780826040516020018083805190602001908083835b60208310612b025780518252602082019150602081019050602083039250612adf565b6001836020036101000a03801982511681845116808217855250505050505090500182805190602001908083835b60208310612b535780518252602082019150602081019050602083039250612b30565b6001836020036101000a0380198251168184511680821785525050505050509050019250505060405160208183030381529060405292505050612c5c565b80612b9b8561392d565b6040516020018083805190602001908083835b60208310612bd15780518252602082019150602081019050602083039250612bae565b6001836020036101000a03801982511681845116808217855250505050505090500182805190602001908083835b60208310612c225780518252602082019150602081019050602083039250612bff565b6001836020036101000a03801982511681845116808217855250505050505090500192505050604051602081830303815290604052925050505b919050565b600f6020528160005260406000208181548110612c7d57600080fd5b906000526020600020906009020160009150915050806000015490806001018054600181600116156101000203166002900480601f016020809104026020016040519081016040528092919081815260200182805460018160011615610100020316600290048015612d305780601f10612d0557610100808354040283529160200191612d30565b820191906000526020600020905b815481529060010190602001808311612d1357829003601f168201915b5050505050908060020160009054906101000a900473ffffffffffffffffffffffffffffffffffffffff16908060030160009054906101000a900473ffffffffffffffffffffffffffffffffffffffff16908060040160009054906101000a900473ffffffffffffffffffffffffffffffffffffffff1690806005015490806006018054600181600116156101000203166002900480601f016020809104026020016040519081016040528092919081815260200182805460018160011615610100020316600290048015612e465780601f10612e1b57610100808354040283529160200191612e46565b820191906000526020600020905b815481529060010190602001808311612e2957829003601f168201915b5050505050908060070154908060080160009054906101000a900460ff16905089565b600a8054600181600116156101000203166002900480601f016020809104026020016040519081016040528092919081815260200182805460018160011615610100020316600290048015612eff5780601f10612ed457610100808354040283529160200191612eff565b820191906000526020600020905b815481529060010190602001808311612ee257829003601f168201915b505050505081565b6000600560008473ffffffffffffffffffffffffffffffffffffffff1673ffffffffffffffffffffffffffffffffffffffff16815260200190815260200160002060008373ffffffffffffffffffffffffffffffffffffffff1673ffffffffffffffffffffffffffffffffffffffff16815260200190815260200160002060009054906101000a900460ff16905092915050565b600c600081548092919060010191905055506000600d60003373ffffffffffffffffffffffffffffffffffffffff1673ffffffffffffffffffffffffffffffffffffffff168152602001908152602001600020600c5481548110612ffb57fe5b90600052602060002090600602019050600c5481600001819055508381600101908051906020019061302e929190614462565b5082816002019080519060200190613047929190614462565b5081816003019080519060200190613060929190614462565b5060008160050160006101000a81548160ff021916908360ff1602179055507fefbd145fea57de09a0db3eea45c2b6b13a53246bff3d28eaf26c5b4b1ece83f8600c54858533866040518086815260200180602001806020018573ffffffffffffffffffffffffffffffffffffffff16815260200180602001848103845288818151815260200191508051906020019080838360005b838110156131115780820151818401526020810190506130f6565b50505050905090810190601f16801561313e5780820380516001836020036101000a031916815260200191505b50848103835287818151815260200191508051906020019080838360005b8381101561317757808201518184015260208101905061315c565b50505050905090810190601f1680156131a45780820380516001836020036101000a031916815260200191505b50848103825285818151815260200191508051906020019080838360005b838110156131dd5780820151818401526020810190506131c2565b50505050905090810190601f16801561320a5780820380516001836020036101000a031916815260200191505b509850505050505050505060405180910390a150505050565b6000613239826002613a7490919063ffffffff16565b9050919050565b600033905090565b816004600083815260200190815260200160002060006101000a81548173ffffffffffffffffffffffffffffffffffffffff021916908373ffffffffffffffffffffffffffffffffffffffff160217905550808273ffffffffffffffffffffffffffffffffffffffff166132bb8361218b565b73ffffffffffffffffffffffffffffffffffffffff167f8c5be1e5ebec7d5bd14f71427d1e84f3dd0314c0f7b2291e5b200ac8c7c3b92560405160405180910390a45050565b600061330f82600001613a8e565b9050919050565b600061332182613223565b613376576040517f08c379a000000000000000000000000000000000000000000000000000000000815260040180806020018281038252602c8152602001806145ac602c913960400191505060405180910390fd5b60006133818361218b565b90508073ffffffffffffffffffffffffffffffffffffffff168473ffffffffffffffffffffffffffffffffffffffff1614806133f057508373ffffffffffffffffffffffffffffffffffffffff166133d88461195a565b73ffffffffffffffffffffffffffffffffffffffff16145b8061340157506134008185612f07565b5b91505092915050565b8273ffffffffffffffffffffffffffffffffffffffff1661342a8261218b565b73ffffffffffffffffffffffffffffffffffffffff1614613496576040517f08c379a00000000000000000000000000000000000000000000000000000000081526004018080602001828103825260298152602001806146b16029913960400191505060405180910390fd5b600073ffffffffffffffffffffffffffffffffffffffff168273ffffffffffffffffffffffffffffffffffffffff16141561351c576040517f08c379a00000000000000000000000000000000000000000000000000000000081526004018080602001828103825260248152602001806145626024913960400191505060405180910390fd5b613527838383613a9f565b613532600082613248565b61358381600160008673ffffffffffffffffffffffffffffffffffffffff1673ffffffffffffffffffffffffffffffffffffffff168152602001908152602001600020613aa490919063ffffffff16565b506135d581600160008573ffffffffffffffffffffffffffffffffffffffff1673ffffffffffffffffffffffffffffffffffffffff168152602001908152602001600020613abe90919063ffffffff16565b506135ec81836002613ad89092919063ffffffff16565b50808273ffffffffffffffffffffffffffffffffffffffff168473ffffffffffffffffffffffffffffffffffffffff167fddf252ad1be2c89b69c2b068fc378daa952ba7f163c4a11628f55a4df523b3ef60405160405180910390a4505050565b600061365c8360000183613b0d565b60001c905092915050565b60008060008061367a8660000186613b90565b915091508160001c8160001c9350935050509250929050565b600073ffffffffffffffffffffffffffffffffffffffff168273ffffffffffffffffffffffffffffffffffffffff161415613736576040517f08c379a00000000000000000000000000000000000000000000000000000000081526004018080602001828103825260208152602001807f4552433732313a206d696e7420746f20746865207a65726f206164647265737381525060200191505060405180910390fd5b61373f81613223565b156137b2576040517f08c379a000000000000000000000000000000000000000000000000000000000815260040180806020018281038252601c8152602001807f4552433732313a20746f6b656e20616c7265616479206d696e7465640000000081525060200191505060405180910390fd5b6137be60008383613a9f565b61380f81600160008573ffffffffffffffffffffffffffffffffffffffff1673ffffffffffffffffffffffffffffffffffffffff168152602001908152602001600020613abe90919063ffffffff16565b5061382681836002613ad89092919063ffffffff16565b50808273ffffffffffffffffffffffffffffffffffffffff16600073ffffffffffffffffffffffffffffffffffffffff167fddf252ad1be2c89b69c2b068fc378daa952ba7f163c4a11628f55a4df523b3ef60405160405180910390a45050565b600061389a846000018460001b84613c29565b60001c90509392505050565b60006138b482600001613d1f565b9050919050565b6138c684848461340a565b6138d284848484613d30565b613927576040517f08c379a00000000000000000000000000000000000000000000000000000000081526004018080602001828103825260328152602001806145306032913960400191505060405180910390fd5b50505050565b60606000821415613975576040518060400160405280600181526020017f30000000000000000000000000000000000000000000000000000000000000008152509050613a6f565b600082905060005b6000821461399f578080600101915050600a828161399757fe5b04915061397d565b60008167ffffffffffffffff811180156139b857600080fd5b506040519080825280601f01601f1916602001820160405280156139eb5781602001600182028036833780820191505090505b50905060006001830390508593505b60008414613a6757600a8481613a0c57fe5b0660300160f81b82828060019003935081518110613a2657fe5b60200101907effffffffffffffffffffffffffffffffffffffffffffffffffffffffffffff1916908160001a905350600a8481613a5f57fe5b0493506139fa565b819450505050505b919050565b6000613a86836000018360001b613f49565b905092915050565b600081600001805490509050919050565b505050565b6000613ab6836000018360001b613f6c565b905092915050565b6000613ad0836000018360001b614054565b905092915050565b6000613b04846000018460001b8473ffffffffffffffffffffffffffffffffffffffff1660001b6140c4565b90509392505050565b600081836000018054905011613b6e576040517f08c379a000000000000000000000000000000000000000000000000000000000815260040180806020018281038252602281526020018061450e6022913960400191505060405180910390fd5b826000018281548110613b7d57fe5b9060005260206000200154905092915050565b60008082846000018054905011613bf2576040517f08c379a00000000000000000000000000000000000000000000000000000000081526004018080602001828103825260228152602001806146636022913960400191505060405180910390fd5b6000846000018481548110613c0357fe5b906000526020600020906002020190508060000154816001015492509250509250929050565b60008084600101600085815260200190815260200160002054905060008114158390613cf0576040517f08c379a00000000000000000000000000000000000000000000000000000000081526004018080602001828103825283818151815260200191508051906020019080838360005b83811015613cb5578082015181840152602081019050613c9a565b50505050905090810190601f168015613ce25780820380516001836020036101000a031916815260200191505b509250505060405180910390fd5b50846000016001820381548110613d0357fe5b9060005260206000209060020201600101549150509392505050565b600081600001805490509050919050565b6000613d518473ffffffffffffffffffffffffffffffffffffffff166141a0565b613d5e5760019050613f41565b6000613ec863150b7a0260e01b613d73613240565b888787604051602401808573ffffffffffffffffffffffffffffffffffffffff1681526020018473ffffffffffffffffffffffffffffffffffffffff16815260200183815260200180602001828103825283818151815260200191508051906020019080838360005b83811015613df7578082015181840152602081019050613ddc565b50505050905090810190601f168015613e245780820380516001836020036101000a031916815260200191505b5095505050505050604051602081830303815290604052907bffffffffffffffffffffffffffffffffffffffffffffffffffffffff19166020820180517bffffffffffffffffffffffffffffffffffffffffffffffffffffffff8381831617835250505050604051806060016040528060328152602001614530603291398773ffffffffffffffffffffffffffffffffffffffff166141b39092919063ffffffff16565b90506000818060200190516020811015613ee157600080fd5b8101908080519060200190929190505050905063150b7a0260e01b7bffffffffffffffffffffffffffffffffffffffffffffffffffffffff1916817bffffffffffffffffffffffffffffffffffffffffffffffffffffffff191614925050505b949350505050565b600080836001016000848152602001908152602001600020541415905092915050565b600080836001016000848152602001908152602001600020549050600081146140485760006001820390506000600186600001805490500390506000866000018281548110613fb757fe5b9060005260206000200154905080876000018481548110613fd457fe5b906000526020600020018190555060018301876001016000838152602001908152602001600020819055508660000180548061400c57fe5b6001900381819060005260206000200160009055905586600101600087815260200190815260200160002060009055600194505050505061404e565b60009150505b92915050565b600061406083836141cb565b6140b95782600001829080600181540180825580915050600190039060005260206000200160009091909190915055826000018054905083600101600084815260200190815260200160002081905550600190506140be565b600090505b92915050565b600080846001016000858152602001908152602001600020549050600081141561416b57846000016040518060400160405280868152602001858152509080600181540180825580915050600190039060005260206000209060020201600090919091909150600082015181600001556020820151816001015550508460000180549050856001016000868152602001908152602001600020819055506001915050614199565b8285600001600183038154811061417e57fe5b90600052602060002090600202016001018190555060009150505b9392505050565b600080823b905060008111915050919050565b60606141c284846000856141ee565b90509392505050565b600080836001016000848152602001908152602001600020541415905092915050565b606082471015614249576040517f08c379a00000000000000000000000000000000000000000000000000000000081526004018080602001828103825260268152602001806145866026913960400191505060405180910390fd5b614252856141a0565b6142c4576040517f08c379a000000000000000000000000000000000000000000000000000000000815260040180806020018281038252601d8152602001807f416464726573733a2063616c6c20746f206e6f6e2d636f6e747261637400000081525060200191505060405180910390fd5b6000808673ffffffffffffffffffffffffffffffffffffffff1685876040518082805190602001908083835b6020831061431357805182526020820191506020810190506020830392506142f0565b6001836020036101000a03801982511681845116808217855250505050505090500191505060006040518083038185875af1925050503d8060008114614375576040519150601f19603f3d011682016040523d82523d6000602084013e61437a565b606091505b509150915061438a828286614396565b92505050949350505050565b606083156143a65782905061445b565b6000835111156143b95782518084602001fd5b816040517f08c379a00000000000000000000000000000000000000000000000000000000081526004018080602001828103825283818151815260200191508051906020019080838360005b83811015614420578082015181840152602081019050614405565b50505050905090810190601f16801561444d5780820380516001836020036101000a031916815260200191505b509250505060405180910390fd5b9392505050565b828054600181600116156101000203166002900490600052602060002090601f01602090048101928261449857600085556144df565b82601f106144b157805160ff19168380011785556144df565b828001600101855582156144df579182015b828111156144de5782518255916020019190600101906144c3565b5b5090506144ec91906144f0565b5090565b5b808211156145095760008160009055506001016144f1565b509056fe456e756d657261626c655365743a20696e646578206f7574206f6620626f756e64734552433732313a207472616e7366657220746f206e6f6e20455243373231526563656976657220696d706c656d656e7465724552433732313a207472616e7366657220746f20746865207a65726f2061646472657373416464726573733a20696e73756666696369656e742062616c616e636520666f722063616c6c4552433732313a206f70657261746f7220717565727920666f72206e6f6e6578697374656e7420746f6b656e4552433732313a20617070726f76652063616c6c6572206973206e6f74206f776e6572206e6f7220617070726f76656420666f7220616c6c4552433732313a2062616c616e636520717565727920666f7220746865207a65726f20616464726573734552433732313a206f776e657220717565727920666f72206e6f6e6578697374656e7420746f6b656e456e756d657261626c654d61703a20696e646578206f7574206f6620626f756e64734552433732313a20617070726f76656420717565727920666f72206e6f6e6578697374656e7420746f6b656e4552433732313a207472616e73666572206f6620746f6b656e2074686174206973206e6f74206f776e4552433732314d657461646174613a2055524920717565727920666f72206e6f6e6578697374656e7420746f6b656e4552433732313a20617070726f76616c20746f2063757272656e74206f776e65724552433732313a207472616e736665722063616c6c6572206973206e6f74206f776e6572206e6f7220617070726f766564a26469706673582212206ebd79abeb17cfcc48bc422db0192b661cd08b835d4ddee9658051e2e631e6bd64736f6c63430007060033",
  "immutableReferences": {},
  "source": "//import ERC721 interface\r\nimport \"./ERC721.sol\";\r\n\r\npragma solidity >=0.6.0 <0.8.0;\r\n\r\n//implement\r\ncontract ArtFundsStorage is ERC721 {\r\n    // this contract's token collection name\r\n    string public collectionName;\r\n    // this contract's token symbol\r\n    string public collectionNameSymbol;\r\n\r\n    struct Collection {\r\n        uint256 tokenId;\r\n        string imageURL;\r\n        string name;\r\n        string description;\r\n        // DigitalItem[] digitalItems;\r\n        // uint256 collectionPointer;\r\n        // uint256[] digitalItemKeys;\r\n        mapping(uint256 => DigitalItem) listDigital;\r\n        uint8 listSize;\r\n    }\r\n\r\n    uint256 public collectionCounter;\r\n    mapping(address => Collection[]) public ownerCollections;\r\n    // mapping(address => Collection) public collectionStructs;\r\n    // uint256[] collections;\r\n\r\n    struct DigitalItem {\r\n        uint256 tokenId;\r\n        string name;\r\n        address payable mintedBy;\r\n        address payable currentOwner;\r\n        address payable previousOwner;\r\n        uint256 price;\r\n        string imageURL;\r\n        uint256 numberOfTransfers;\r\n        bool forSale;\r\n        // uint256 digitalItemPointer;\r\n        // uint256 collectionKey;\r\n    }\r\n\r\n    uint256 digitalItemCounter = 0;\r\n    mapping(address => DigitalItem[]) public ownerDigitalItems;\r\n    // mapping(address => DigitalItem) public digitalItemStructs;\r\n    // uint256[] digitalItems;\r\n\r\n    event ItemCreated(\r\n        uint256 id,\r\n        string name,\r\n        address mintedBy,\r\n        address currentOwner,\r\n        address previousOwner,\r\n        uint256 price,\r\n        string imageURL,\r\n        uint256 numberOfTransfers,\r\n        bool forSale\r\n    );\r\n\r\n    event ItemForSale(uint256 id, bool forSale);\r\n\r\n    event CollectionCreated(\r\n        uint256 tokenId,\r\n        string imageURL,\r\n        string name,\r\n        address ownedBy,\r\n        string description\r\n    );\r\n\r\n    // initialize contract while deployment with contract's collection name and token\r\n    constructor() ERC721(\"ArtFunds Collection\", \"CB\") {\r\n        collectionName = name();\r\n        collectionNameSymbol = symbol();\r\n    }\r\n\r\n    // uint256 public tokenCounter;\r\n\r\n    // function getCollectionDigitalItemsCount(uint256 collectionId)\r\n    //     public\r\n    //     constant\r\n    //     returns (uint256 digitalItemsCount)\r\n    // {\r\n    //     if (!isCollection(collectionId)) throw;\r\n    //     return collectionStructs[collectionId].digitalItemKeys.length;\r\n    // }\r\n\r\n    // function getCollectionDigitalItemsAtIndex(uint256 collectionId, uint256 row)\r\n    //     public\r\n    //     constant\r\n    //     returns (uint256 collectionKey)\r\n    // {\r\n    //     if (!isCollection(collectionId)) throw;\r\n    //     return collectionStructs[collectionId].collectionKeys[row];\r\n    // }\r\n\r\n    // function createDigitalItem(uint256 digitalItemId, uint256 collectionId)\r\n    //     onlyOwner\r\n    //     returns (bool success)\r\n    // {\r\n    //     if (!isCollection(collectionId)) throw;\r\n    //     if (isDigitalItem(digitalItemId)) throw;\r\n    //     digitalItemStructs[digitalItemId].digitalItemPointer =\r\n    //         digitalItems.push(digitalItemId) -\r\n    //         1;\r\n    //     digitalItemStructs[digitalItemId].collectionKey = collectionId;\r\n\r\n    //     collectionStructs[collectionId].digitalItemKeyPointers[digitalItemId] =\r\n    //         collectionStructs[collectionId].digitalItemKeys.push(\r\n    //             digitalItemId\r\n    //         ) -\r\n    //         1;\r\n    //     LogNewdigitalItem(msg.sender, digitalItemId, collectionId);\r\n    //     return true;\r\n    // }\r\n\r\n    // mint a new digital item\r\n    function mintDigitalItem(\r\n        string memory _name,\r\n        uint256 _price,\r\n        string memory _imageURL,\r\n        uint256 _numberOfTransfers,\r\n        bool _forSale\r\n    ) external {\r\n        // check if thic fucntion caller is not an zero address account\r\n        require(msg.sender != address(0));\r\n        // increment counter\r\n        digitalItemCounter++;\r\n        // check if a token exists with the above token id => incremented counter\r\n        require(!_exists(digitalItemCounter));\r\n\r\n        // mint the token\r\n        _mint(msg.sender, digitalItemCounter);\r\n\r\n        DigitalItem memory newDigitalItem = DigitalItem(\r\n            digitalItemCounter,\r\n            _name,\r\n            msg.sender,\r\n            msg.sender,\r\n            msg.sender,\r\n            _price,\r\n            _imageURL,\r\n            0,\r\n            true\r\n        );\r\n        ownerDigitalItems[msg.sender].push(newDigitalItem);\r\n    }\r\n\r\n    function getDigitalItem(uint256 _tokenId, address _owner)\r\n        public\r\n        view\r\n        returns (\r\n            string memory _name,\r\n            address _mintedBy,\r\n            address _currentOwner,\r\n            address _previousOwner,\r\n            uint256 _price,\r\n            string memory _imageURL,\r\n            uint256 _numberOfTransfers,\r\n            bool _forSale\r\n        )\r\n    {\r\n        require(_owner != address(0x0));\r\n        require(_tokenId >= 0);\r\n        require(ownerDigitalItems[_owner].length > 0);\r\n        DigitalItem storage digitalItem = ownerDigitalItems[_owner][_tokenId];\r\n\r\n        return (\r\n            digitalItem.name,\r\n            digitalItem.mintedBy,\r\n            digitalItem.currentOwner,\r\n            digitalItem.previousOwner,\r\n            digitalItem.price,\r\n            digitalItem.imageURL,\r\n            digitalItem.numberOfTransfers,\r\n            digitalItem.forSale\r\n        );\r\n    }\r\n\r\n    function getDigitalItemCount(address _owner) public view returns (uint256) {\r\n        require(_owner != address(0x0));\r\n        return ownerDigitalItems[_owner].length;\r\n    }\r\n\r\n    //This function to create collection from address\r\n    function createCollection(\r\n        string memory _imageURL,\r\n        string memory _name,\r\n        string memory _description\r\n    ) public {\r\n        collectionCounter++;\r\n\r\n        // DigitalItem[] memory temp;\r\n\r\n        Collection storage collection = ownerCollections[msg.sender][collectionCounter];\r\n        collection.tokenId = collectionCounter;\r\n        collection.imageURL = _imageURL;\r\n        collection.name = _name;\r\n        collection.description = _description;\r\n        collection.listSize = 0;\r\n        // Collection(\r\n        //     collectionCounter,\r\n        //     _imageURL,\r\n        //     _name,\r\n        //     _description\r\n        // );\r\n\r\n        // ownerCollections[msg.sender].push(collection);\r\n        \r\n        emit CollectionCreated(\r\n          collectionCounter,\r\n          _imageURL,\r\n          _name,\r\n          msg.sender,\r\n          _description\r\n        );\r\n    }\r\n\r\n    function getCollection(uint256 _tokenId, address _owner)\r\n        public\r\n        view\r\n        returns (\r\n            string memory _imageURL,\r\n            string memory _name,\r\n            string memory _description\r\n        )\r\n    {\r\n        require(_owner != address(0x0));\r\n        require(_tokenId >= 0);\r\n        require(ownerCollections[_owner].length > 0);\r\n        Collection storage collection = ownerCollections[_owner][_tokenId];\r\n\r\n        return (collection.imageURL, collection.name, collection.description);\r\n    }\r\n\r\n    function getCollectionCount(address _owner) public view returns (uint256 count) {\r\n        require(_owner != address(0x0));\r\n        return (collectionCounter);\r\n        // return ownerCollections[_owner].length;\r\n    }\r\n\r\n    // struct Order {\r\n    //     address maker;\r\n    //     address taker;\r\n    //     uint256 tokenId;\r\n    // }\r\n\r\n    // mapping(uint256 => Order) orders;\r\n\r\n    // function makeOrder(uint256 _tokenId, uint256 _price) external {\r\n    //     // validate nft\r\n    //     // ...\r\n    // }\r\n\r\n    // function takeOrder(uint256 _tokenId) external {\r\n    //     // check order exists\r\n    //     // validate funds\r\n    //     // transfer funds\r\n    //     // transfer nft\r\n    // }\r\n}\r\n",
  "sourcePath": "E:\\DSC\\DevFest\\ArtFunds\\ArtFunds_DevFest2021\\blockchain\\contracts\\ArtFundsStorage.sol",
  "compiler": {
    "name": "solc",
    "version": "0.7.6+commit.7338295f.Emscripten.clang"
  },
  "schemaVersion": "3.4.3",
  "updatedAt": "2021-10-28T03:08:03.762Z",
  "devdoc": {
    "kind": "dev",
    "methods": {
      "approve(address,uint256)": {
        "details": "See {IERC721-approve}."
      },
      "balanceOf(address)": {
        "details": "See {IERC721-balanceOf}."
      },
      "baseURI()": {
        "details": "Returns the base URI set via {_setBaseURI}. This will be automatically added as a prefix in {tokenURI} to each token's URI, or to the token ID if no specific URI is set for that token ID."
      },
      "getApproved(uint256)": {
        "details": "See {IERC721-getApproved}."
      },
      "isApprovedForAll(address,address)": {
        "details": "See {IERC721-isApprovedForAll}."
      },
      "name()": {
        "details": "See {IERC721Metadata-name}."
      },
      "ownerOf(uint256)": {
        "details": "See {IERC721-ownerOf}."
      },
      "safeTransferFrom(address,address,uint256)": {
        "details": "See {IERC721-safeTransferFrom}."
      },
      "safeTransferFrom(address,address,uint256,bytes)": {
        "details": "See {IERC721-safeTransferFrom}."
      },
      "setApprovalForAll(address,bool)": {
        "details": "See {IERC721-setApprovalForAll}."
      },
      "supportsInterface(bytes4)": {
        "details": "See {IERC165-supportsInterface}. Time complexity O(1), guaranteed to always use less than 30 000 gas."
      },
      "symbol()": {
        "details": "See {IERC721Metadata-symbol}."
      },
      "tokenByIndex(uint256)": {
        "details": "See {IERC721Enumerable-tokenByIndex}."
      },
      "tokenOfOwnerByIndex(address,uint256)": {
        "details": "See {IERC721Enumerable-tokenOfOwnerByIndex}."
      },
      "tokenURI(uint256)": {
        "details": "See {IERC721Metadata-tokenURI}."
      },
      "totalSupply()": {
        "details": "See {IERC721Enumerable-totalSupply}."
      },
      "transferFrom(address,address,uint256)": {
        "details": "See {IERC721-transferFrom}."
      }
    },
    "version": 1
  },
  "userdoc": {
    "kind": "user",
    "methods": {},
    "version": 1
  }
}