{
  "contractName": "ArtFundsStorage",
  "abi": [
    {
      "inputs": [],
      "stateMutability": "nonpayable",
      "type": "constructor"
    },
    {
      "anonymous": false,
      "inputs": [
        {
          "indexed": true,
          "internalType": "address",
          "name": "owner",
          "type": "address"
        },
        {
          "indexed": true,
          "internalType": "address",
          "name": "approved",
          "type": "address"
        },
        {
          "indexed": true,
          "internalType": "uint256",
          "name": "tokenId",
          "type": "uint256"
        }
      ],
      "name": "Approval",
      "type": "event"
    },
    {
      "anonymous": false,
      "inputs": [
        {
          "indexed": true,
          "internalType": "address",
          "name": "owner",
          "type": "address"
        },
        {
          "indexed": true,
          "internalType": "address",
          "name": "operator",
          "type": "address"
        },
        {
          "indexed": false,
          "internalType": "bool",
          "name": "approved",
          "type": "bool"
        }
      ],
      "name": "ApprovalForAll",
      "type": "event"
    },
    {
      "anonymous": false,
      "inputs": [
        {
          "indexed": false,
          "internalType": "uint256",
          "name": "tokenId",
          "type": "uint256"
        },
        {
          "indexed": false,
          "internalType": "string",
          "name": "imageURL",
          "type": "string"
        },
        {
          "indexed": false,
          "internalType": "string",
          "name": "name",
          "type": "string"
        },
        {
          "indexed": false,
          "internalType": "address",
          "name": "ownedBy",
          "type": "address"
        },
        {
          "indexed": false,
          "internalType": "string",
          "name": "description",
          "type": "string"
        }
      ],
      "name": "CollectionCreated",
      "type": "event"
    },
    {
      "anonymous": false,
      "inputs": [
        {
          "indexed": false,
          "internalType": "uint256",
          "name": "id",
          "type": "uint256"
        },
        {
          "indexed": false,
          "internalType": "string",
          "name": "name",
          "type": "string"
        },
        {
          "indexed": false,
          "internalType": "address",
          "name": "mintedBy",
          "type": "address"
        },
        {
          "indexed": false,
          "internalType": "address",
          "name": "currentOwner",
          "type": "address"
        },
        {
          "indexed": false,
          "internalType": "address",
          "name": "previousOwner",
          "type": "address"
        },
        {
          "indexed": false,
          "internalType": "uint256",
          "name": "price",
          "type": "uint256"
        },
        {
          "indexed": false,
          "internalType": "string",
          "name": "imageURL",
          "type": "string"
        },
        {
          "indexed": false,
          "internalType": "uint256",
          "name": "numberOfTransfers",
          "type": "uint256"
        },
        {
          "indexed": false,
          "internalType": "bool",
          "name": "forSale",
          "type": "bool"
        }
      ],
      "name": "ItemCreated",
      "type": "event"
    },
    {
      "anonymous": false,
      "inputs": [
        {
          "indexed": false,
          "internalType": "uint256",
          "name": "id",
          "type": "uint256"
        },
        {
          "indexed": false,
          "internalType": "bool",
          "name": "forSale",
          "type": "bool"
        }
      ],
      "name": "ItemForSale",
      "type": "event"
    },
    {
      "anonymous": false,
      "inputs": [
        {
          "indexed": true,
          "internalType": "address",
          "name": "from",
          "type": "address"
        },
        {
          "indexed": true,
          "internalType": "address",
          "name": "to",
          "type": "address"
        },
        {
          "indexed": true,
          "internalType": "uint256",
          "name": "tokenId",
          "type": "uint256"
        }
      ],
      "name": "Transfer",
      "type": "event"
    },
    {
      "inputs": [
        {
          "internalType": "address",
          "name": "to",
          "type": "address"
        },
        {
          "internalType": "uint256",
          "name": "tokenId",
          "type": "uint256"
        }
      ],
      "name": "approve",
      "outputs": [],
      "stateMutability": "nonpayable",
      "type": "function"
    },
    {
      "inputs": [
        {
          "internalType": "address",
          "name": "owner",
          "type": "address"
        }
      ],
      "name": "balanceOf",
      "outputs": [
        {
          "internalType": "uint256",
          "name": "",
          "type": "uint256"
        }
      ],
      "stateMutability": "view",
      "type": "function",
      "constant": true
    },
    {
      "inputs": [],
      "name": "baseURI",
      "outputs": [
        {
          "internalType": "string",
          "name": "",
          "type": "string"
        }
      ],
      "stateMutability": "view",
      "type": "function",
      "constant": true
    },
    {
      "inputs": [],
      "name": "collectionName",
      "outputs": [
        {
          "internalType": "string",
          "name": "",
          "type": "string"
        }
      ],
      "stateMutability": "view",
      "type": "function",
      "constant": true
    },
    {
      "inputs": [],
      "name": "collectionNameSymbol",
      "outputs": [
        {
          "internalType": "string",
          "name": "",
          "type": "string"
        }
      ],
      "stateMutability": "view",
      "type": "function",
      "constant": true
    },
    {
      "inputs": [
        {
          "internalType": "uint256",
          "name": "tokenId",
          "type": "uint256"
        }
      ],
      "name": "getApproved",
      "outputs": [
        {
          "internalType": "address",
          "name": "",
          "type": "address"
        }
      ],
      "stateMutability": "view",
      "type": "function",
      "constant": true
    },
    {
      "inputs": [
        {
          "internalType": "address",
          "name": "owner",
          "type": "address"
        },
        {
          "internalType": "address",
          "name": "operator",
          "type": "address"
        }
      ],
      "name": "isApprovedForAll",
      "outputs": [
        {
          "internalType": "bool",
          "name": "",
          "type": "bool"
        }
      ],
      "stateMutability": "view",
      "type": "function",
      "constant": true
    },
    {
      "inputs": [],
      "name": "name",
      "outputs": [
        {
          "internalType": "string",
          "name": "",
          "type": "string"
        }
      ],
      "stateMutability": "view",
      "type": "function",
      "constant": true
    },
    {
      "inputs": [
        {
          "internalType": "address",
          "name": "",
          "type": "address"
        },
        {
          "internalType": "uint256",
          "name": "",
          "type": "uint256"
        }
      ],
      "name": "ownerCollections",
      "outputs": [
        {
          "internalType": "uint256",
          "name": "tokenId",
          "type": "uint256"
        },
        {
          "internalType": "string",
          "name": "imageURL",
          "type": "string"
        },
        {
          "internalType": "string",
          "name": "name",
          "type": "string"
        },
        {
          "internalType": "string",
          "name": "description",
          "type": "string"
        },
        {
          "internalType": "uint8",
          "name": "listSize",
          "type": "uint8"
        }
      ],
      "stateMutability": "view",
      "type": "function",
      "constant": true
    },
    {
      "inputs": [
        {
          "internalType": "address",
          "name": "",
          "type": "address"
        },
        {
          "internalType": "uint256",
          "name": "",
          "type": "uint256"
        }
      ],
      "name": "ownerDigitalItems",
      "outputs": [
        {
          "internalType": "uint256",
          "name": "tokenId",
          "type": "uint256"
        },
        {
          "internalType": "string",
          "name": "name",
          "type": "string"
        },
        {
          "internalType": "address payable",
          "name": "mintedBy",
          "type": "address"
        },
        {
          "internalType": "address payable",
          "name": "currentOwner",
          "type": "address"
        },
        {
          "internalType": "address payable",
          "name": "previousOwner",
          "type": "address"
        },
        {
          "internalType": "uint256",
          "name": "price",
          "type": "uint256"
        },
        {
          "internalType": "string",
          "name": "imageURL",
          "type": "string"
        },
        {
          "internalType": "uint256",
          "name": "numberOfTransfers",
          "type": "uint256"
        },
        {
          "internalType": "bool",
          "name": "forSale",
          "type": "bool"
        }
      ],
      "stateMutability": "view",
      "type": "function",
      "constant": true
    },
    {
      "inputs": [
        {
          "internalType": "uint256",
          "name": "tokenId",
          "type": "uint256"
        }
      ],
      "name": "ownerOf",
      "outputs": [
        {
          "internalType": "address",
          "name": "",
          "type": "address"
        }
      ],
      "stateMutability": "view",
      "type": "function",
      "constant": true
    },
    {
      "inputs": [
        {
          "internalType": "address",
          "name": "from",
          "type": "address"
        },
        {
          "internalType": "address",
          "name": "to",
          "type": "address"
        },
        {
          "internalType": "uint256",
          "name": "tokenId",
          "type": "uint256"
        }
      ],
      "name": "safeTransferFrom",
      "outputs": [],
      "stateMutability": "nonpayable",
      "type": "function"
    },
    {
      "inputs": [
        {
          "internalType": "address",
          "name": "from",
          "type": "address"
        },
        {
          "internalType": "address",
          "name": "to",
          "type": "address"
        },
        {
          "internalType": "uint256",
          "name": "tokenId",
          "type": "uint256"
        },
        {
          "internalType": "bytes",
          "name": "_data",
          "type": "bytes"
        }
      ],
      "name": "safeTransferFrom",
      "outputs": [],
      "stateMutability": "nonpayable",
      "type": "function"
    },
    {
      "inputs": [
        {
          "internalType": "address",
          "name": "operator",
          "type": "address"
        },
        {
          "internalType": "bool",
          "name": "approved",
          "type": "bool"
        }
      ],
      "name": "setApprovalForAll",
      "outputs": [],
      "stateMutability": "nonpayable",
      "type": "function"
    },
    {
      "inputs": [
        {
          "internalType": "bytes4",
          "name": "interfaceId",
          "type": "bytes4"
        }
      ],
      "name": "supportsInterface",
      "outputs": [
        {
          "internalType": "bool",
          "name": "",
          "type": "bool"
        }
      ],
      "stateMutability": "view",
      "type": "function",
      "constant": true
    },
    {
      "inputs": [],
      "name": "symbol",
      "outputs": [
        {
          "internalType": "string",
          "name": "",
          "type": "string"
        }
      ],
      "stateMutability": "view",
      "type": "function",
      "constant": true
    },
    {
      "inputs": [
        {
          "internalType": "uint256",
          "name": "index",
          "type": "uint256"
        }
      ],
      "name": "tokenByIndex",
      "outputs": [
        {
          "internalType": "uint256",
          "name": "",
          "type": "uint256"
        }
      ],
      "stateMutability": "view",
      "type": "function",
      "constant": true
    },
    {
      "inputs": [
        {
          "internalType": "address",
          "name": "owner",
          "type": "address"
        },
        {
          "internalType": "uint256",
          "name": "index",
          "type": "uint256"
        }
      ],
      "name": "tokenOfOwnerByIndex",
      "outputs": [
        {
          "internalType": "uint256",
          "name": "",
          "type": "uint256"
        }
      ],
      "stateMutability": "view",
      "type": "function",
      "constant": true
    },
    {
      "inputs": [
        {
          "internalType": "uint256",
          "name": "tokenId",
          "type": "uint256"
        }
      ],
      "name": "tokenURI",
      "outputs": [
        {
          "internalType": "string",
          "name": "",
          "type": "string"
        }
      ],
      "stateMutability": "view",
      "type": "function",
      "constant": true
    },
    {
      "inputs": [],
      "name": "totalSupply",
      "outputs": [
        {
          "internalType": "uint256",
          "name": "",
          "type": "uint256"
        }
      ],
      "stateMutability": "view",
      "type": "function",
      "constant": true
    },
    {
      "inputs": [
        {
          "internalType": "address",
          "name": "from",
          "type": "address"
        },
        {
          "internalType": "address",
          "name": "to",
          "type": "address"
        },
        {
          "internalType": "uint256",
          "name": "tokenId",
          "type": "uint256"
        }
      ],
      "name": "transferFrom",
      "outputs": [],
      "stateMutability": "nonpayable",
      "type": "function"
    },
    {
      "inputs": [
        {
          "internalType": "string",
          "name": "_name",
          "type": "string"
        },
        {
          "internalType": "uint256",
          "name": "_price",
          "type": "uint256"
        },
        {
          "internalType": "string",
          "name": "_imageURL",
          "type": "string"
        },
        {
          "internalType": "uint256",
          "name": "_numberOfTransfers",
          "type": "uint256"
        },
        {
          "internalType": "bool",
          "name": "_forSale",
          "type": "bool"
        }
      ],
      "name": "mintDigitalItem",
      "outputs": [],
      "stateMutability": "nonpayable",
      "type": "function"
    },
    {
      "inputs": [
        {
          "internalType": "uint256",
          "name": "_tokenId",
          "type": "uint256"
        },
        {
          "internalType": "address",
          "name": "_owner",
          "type": "address"
        }
      ],
      "name": "getDigitalItem",
      "outputs": [
        {
          "internalType": "string",
          "name": "_name",
          "type": "string"
        },
        {
          "internalType": "address",
          "name": "_mintedBy",
          "type": "address"
        },
        {
          "internalType": "address",
          "name": "_currentOwner",
          "type": "address"
        },
        {
          "internalType": "address",
          "name": "_previousOwner",
          "type": "address"
        },
        {
          "internalType": "uint256",
          "name": "_price",
          "type": "uint256"
        },
        {
          "internalType": "string",
          "name": "_imageURL",
          "type": "string"
        },
        {
          "internalType": "uint256",
          "name": "_numberOfTransfers",
          "type": "uint256"
        },
        {
          "internalType": "bool",
          "name": "_forSale",
          "type": "bool"
        }
      ],
      "stateMutability": "view",
      "type": "function",
      "constant": true
    },
    {
      "inputs": [
        {
          "internalType": "address",
          "name": "_owner",
          "type": "address"
        }
      ],
      "name": "getDigitalItemCount",
      "outputs": [
        {
          "internalType": "uint256",
          "name": "",
          "type": "uint256"
        }
      ],
      "stateMutability": "view",
      "type": "function",
      "constant": true
    },
    {
      "inputs": [
        {
          "internalType": "string",
          "name": "_imageURL",
          "type": "string"
        },
        {
          "internalType": "string",
          "name": "_name",
          "type": "string"
        },
        {
          "internalType": "string",
          "name": "_description",
          "type": "string"
        }
      ],
      "name": "createCollection",
      "outputs": [],
      "stateMutability": "nonpayable",
      "type": "function"
    },
    {
      "inputs": [
        {
          "internalType": "uint256",
          "name": "_tokenId",
          "type": "uint256"
        },
        {
          "internalType": "address",
          "name": "_owner",
          "type": "address"
        }
      ],
      "name": "getCollection",
      "outputs": [
        {
          "internalType": "string",
          "name": "_imageURL",
          "type": "string"
        },
        {
          "internalType": "string",
          "name": "_name",
          "type": "string"
        },
        {
          "internalType": "string",
          "name": "_description",
          "type": "string"
        }
      ],
      "stateMutability": "view",
      "type": "function",
      "constant": true
    },
    {
      "inputs": [
        {
          "internalType": "address",
          "name": "_owner",
          "type": "address"
        }
      ],
      "name": "getCollectionCount",
      "outputs": [
        {
          "internalType": "uint256",
          "name": "",
          "type": "uint256"
        }
      ],
      "stateMutability": "view",
      "type": "function",
      "constant": true
    }
  ],
  "bytecode": "0x60806040526000600c556000600e553480156200001b57600080fd5b506040518060400160405280601381526020017f41727446756e647320436f6c6c656374696f6e000000000000000000000000008152506040518060400160405280600281526020017f4342000000000000000000000000000000000000000000000000000000000000815250620000a06301ffc9a760e01b6200017260201b60201c565b8160069080519060200190620000b8929190620003c7565b508060079080519060200190620000d1929190620003c7565b50620000ea6380ac58cd60e01b6200017260201b60201c565b62000102635b5e139f60e01b6200017260201b60201c565b6200011a63780e9d6360e01b6200017260201b60201c565b50506200012c6200027b60201b60201c565b600a908051906020019062000143929190620003c7565b50620001546200032160201b60201c565b600b90805190602001906200016b929190620003c7565b506200047d565b63ffffffff60e01b817bffffffffffffffffffffffffffffffffffffffffffffffffffffffff191614156200020f576040517f08c379a000000000000000000000000000000000000000000000000000000000815260040180806020018281038252601c8152602001807f4552433136353a20696e76616c696420696e746572666163652069640000000081525060200191505060405180910390fd5b6001600080837bffffffffffffffffffffffffffffffffffffffffffffffffffffffff19167bffffffffffffffffffffffffffffffffffffffffffffffffffffffff1916815260200190815260200160002060006101000a81548160ff02191690831515021790555050565b606060068054600181600116156101000203166002900480601f016020809104026020016040519081016040528092919081815260200182805460018160011615610100020316600290048015620003175780601f10620002eb5761010080835404028352916020019162000317565b820191906000526020600020905b815481529060010190602001808311620002f957829003601f168201915b5050505050905090565b606060078054600181600116156101000203166002900480601f016020809104026020016040519081016040528092919081815260200182805460018160011615610100020316600290048015620003bd5780601f106200039157610100808354040283529160200191620003bd565b820191906000526020600020905b8154815290600101906020018083116200039f57829003601f168201915b5050505050905090565b828054600181600116156101000203166002900490600052602060002090601f016020900481019282620003ff57600085556200044b565b82601f106200041a57805160ff19168380011785556200044b565b828001600101855582156200044b579182015b828111156200044a5782518255916020019190600101906200042d565b5b5090506200045a91906200045e565b5090565b5b80821115620004795760008160009055506001016200045f565b5090565b614791806200048d6000396000f3fe608060405234801561001057600080fd5b50600436106101a95760003560e01c806354515bb6116100f9578063a22cb46511610097578063d5f45a7d11610071578063d5f45a7d1461101f578063e5326ab1146111c7578063e985e9c51461124a578063ece86c21146112c4576101a9565b8063a22cb46514610e23578063b88d4fde14610e73578063c87b56dd14610f78576101a9565b80636f9507f9116100d35780636f9507f914610b2457806370a0823114610ba757806395d89b4114610bff5780639bdbf7e014610c82576101a9565b806354515bb6146109f15780636352211e14610a495780636c0360eb14610aa1576101a9565b806318160ddd1161016657806339b5f8301161014057806339b5f8301461061f57806342842e0e146107cf5780634f6ccce71461083d578063501845c61461087f576101a9565b806318160ddd1461053157806323b872dd1461054f5780632f745c59146105bd576101a9565b806301188b3f146101ae57806301ffc9a71461034d57806306fdde03146103b057806307a5b57814610433578063081812fc1461048b578063095ea7b3146104e3575b600080fd5b6101fa600480360360408110156101c457600080fd5b8101908080359060200190929190803573ffffffffffffffffffffffffffffffffffffffff1690602001909291905050506114ad565b60405180806020018060200180602001848103845287818151815260200191508051906020019080838360005b83811015610242578082015181840152602081019050610227565b50505050905090810190601f16801561026f5780820380516001836020036101000a031916815260200191505b50848103835286818151815260200191508051906020019080838360005b838110156102a857808201518184015260208101905061028d565b50505050905090810190601f1680156102d55780820380516001836020036101000a031916815260200191505b50848103825285818151815260200191508051906020019080838360005b8381101561030e5780820151818401526020810190506102f3565b50505050905090810190601f16801561033b5780820380516001836020036101000a031916815260200191505b50965050505050505060405180910390f35b6103986004803603602081101561036357600080fd5b8101908080357bffffffffffffffffffffffffffffffffffffffffffffffffffffffff19169060200190929190505050611793565b60405180821515815260200191505060405180910390f35b6103b86117fa565b6040518080602001828103825283818151815260200191508051906020019080838360005b838110156103f85780820151818401526020810190506103dd565b50505050905090810190601f1680156104255780820380516001836020036101000a031916815260200191505b509250505060405180910390f35b6104756004803603602081101561044957600080fd5b81019080803573ffffffffffffffffffffffffffffffffffffffff16906020019092919050505061189c565b6040518082815260200191505060405180910390f35b6104b7600480360360208110156104a157600080fd5b8101908080359060200190929190505050611921565b604051808273ffffffffffffffffffffffffffffffffffffffff16815260200191505060405180910390f35b61052f600480360360408110156104f957600080fd5b81019080803573ffffffffffffffffffffffffffffffffffffffff169060200190929190803590602001909291905050506119bc565b005b610539611b00565b6040518082815260200191505060405180910390f35b6105bb6004803603606081101561056557600080fd5b81019080803573ffffffffffffffffffffffffffffffffffffffff169060200190929190803573ffffffffffffffffffffffffffffffffffffffff16906020019092919080359060200190929190505050611b11565b005b610609600480360360408110156105d357600080fd5b81019080803573ffffffffffffffffffffffffffffffffffffffff16906020019092919080359060200190929190505050611b87565b6040518082815260200191505060405180910390f35b61066b6004803603604081101561063557600080fd5b81019080803573ffffffffffffffffffffffffffffffffffffffff16906020019092919080359060200190929190505050611be2565b604051808681526020018060200180602001806020018560ff168152602001848103845288818151815260200191508051906020019080838360005b838110156106c25780820151818401526020810190506106a7565b50505050905090810190601f1680156106ef5780820380516001836020036101000a031916815260200191505b50848103835287818151815260200191508051906020019080838360005b8381101561072857808201518184015260208101905061070d565b50505050905090810190601f1680156107555780820380516001836020036101000a031916815260200191505b50848103825286818151815260200191508051906020019080838360005b8381101561078e578082015181840152602081019050610773565b50505050905090810190601f1680156107bb5780820380516001836020036101000a031916815260200191505b509850505050505050505060405180910390f35b61083b600480360360608110156107e557600080fd5b81019080803573ffffffffffffffffffffffffffffffffffffffff169060200190929190803573ffffffffffffffffffffffffffffffffffffffff16906020019092919080359060200190929190505050611e0a565b005b6108696004803603602081101561085357600080fd5b8101908080359060200190929190505050611e2a565b6040518082815260200191505060405180910390f35b6109ef600480360360a081101561089557600080fd5b81019080803590602001906401000000008111156108b257600080fd5b8201836020820111156108c457600080fd5b803590602001918460018302840111640100000000831117156108e657600080fd5b91908080601f016020809104026020016040519081016040528093929190818152602001838380828437600081840152601f19601f820116905080830192505050505050509192919290803590602001909291908035906020019064010000000081111561095357600080fd5b82018360208201111561096557600080fd5b8035906020019184600183028401116401000000008311171561098757600080fd5b91908080601f016020809104026020016040519081016040528093929190818152602001838380828437600081840152601f19601f82011690508083019250505050505050919291929080359060200190929190803515159060200190929190505050611e4d565b005b610a3360048036036020811015610a0757600080fd5b81019080803573ffffffffffffffffffffffffffffffffffffffff169060200190929190505050612107565b6040518082815260200191505060405180910390f35b610a7560048036036020811015610a5f57600080fd5b810190808035906020019092919050505061218c565b604051808273ffffffffffffffffffffffffffffffffffffffff16815260200191505060405180910390f35b610aa96121c3565b6040518080602001828103825283818151815260200191508051906020019080838360005b83811015610ae9578082015181840152602081019050610ace565b50505050905090810190601f168015610b165780820380516001836020036101000a031916815260200191505b509250505060405180910390f35b610b2c612265565b6040518080602001828103825283818151815260200191508051906020019080838360005b83811015610b6c578082015181840152602081019050610b51565b50505050905090810190601f168015610b995780820380516001836020036101000a031916815260200191505b509250505060405180910390f35b610be960048036036020811015610bbd57600080fd5b81019080803573ffffffffffffffffffffffffffffffffffffffff169060200190929190505050612303565b6040518082815260200191505060405180910390f35b610c076123d8565b6040518080602001828103825283818151815260200191508051906020019080838360005b83811015610c47578082015181840152602081019050610c2c565b50505050905090810190601f168015610c745780820380516001836020036101000a031916815260200191505b509250505060405180910390f35b610cce60048036036040811015610c9857600080fd5b8101908080359060200190929190803573ffffffffffffffffffffffffffffffffffffffff16906020019092919050505061247a565b60405180806020018973ffffffffffffffffffffffffffffffffffffffff1681526020018873ffffffffffffffffffffffffffffffffffffffff1681526020018773ffffffffffffffffffffffffffffffffffffffff16815260200186815260200180602001858152602001841515815260200183810383528b818151815260200191508051906020019080838360005b83811015610d7a578082015181840152602081019050610d5f565b50505050905090810190601f168015610da75780820380516001836020036101000a031916815260200191505b50838103825286818151815260200191508051906020019080838360005b83811015610de0578082015181840152602081019050610dc5565b50505050905090810190601f168015610e0d5780820380516001836020036101000a031916815260200191505b509a505050505050505050505060405180910390f35b610e7160048036036040811015610e3957600080fd5b81019080803573ffffffffffffffffffffffffffffffffffffffff169060200190929190803515159060200190929190505050612763565b005b610f7660048036036080811015610e8957600080fd5b81019080803573ffffffffffffffffffffffffffffffffffffffff169060200190929190803573ffffffffffffffffffffffffffffffffffffffff1690602001909291908035906020019092919080359060200190640100000000811115610ef057600080fd5b820183602082011115610f0257600080fd5b80359060200191846001830284011164010000000083111715610f2457600080fd5b91908080601f016020809104026020016040519081016040528093929190818152602001838380828437600081840152601f19601f820116905080830192505050505050509192919290505050612919565b005b610fa460048036036020811015610f8e57600080fd5b8101908080359060200190929190505050612991565b6040518080602001828103825283818151815260200191508051906020019080838360005b83811015610fe4578082015181840152602081019050610fc9565b50505050905090810190601f1680156110115780820380516001836020036101000a031916815260200191505b509250505060405180910390f35b61106b6004803603604081101561103557600080fd5b81019080803573ffffffffffffffffffffffffffffffffffffffff16906020019092919080359060200190929190505050612c62565b604051808a8152602001806020018973ffffffffffffffffffffffffffffffffffffffff1681526020018873ffffffffffffffffffffffffffffffffffffffff1681526020018773ffffffffffffffffffffffffffffffffffffffff16815260200186815260200180602001858152602001841515815260200183810383528b818151815260200191508051906020019080838360005b8381101561111d578082015181840152602081019050611102565b50505050905090810190601f16801561114a5780820380516001836020036101000a031916815260200191505b50838103825286818151815260200191508051906020019080838360005b83811015611183578082015181840152602081019050611168565b50505050905090810190601f1680156111b05780820380516001836020036101000a031916815260200191505b509b50505050505050505050505060405180910390f35b6111cf612e6a565b6040518080602001828103825283818151815260200191508051906020019080838360005b8381101561120f5780820151818401526020810190506111f4565b50505050905090810190601f16801561123c5780820380516001836020036101000a031916815260200191505b509250505060405180910390f35b6112ac6004803603604081101561126057600080fd5b81019080803573ffffffffffffffffffffffffffffffffffffffff169060200190929190803573ffffffffffffffffffffffffffffffffffffffff169060200190929190505050612f08565b60405180821515815260200191505060405180910390f35b6114ab600480360360608110156112da57600080fd5b81019080803590602001906401000000008111156112f757600080fd5b82018360208201111561130957600080fd5b8035906020019184600183028401116401000000008311171561132b57600080fd5b91908080601f016020809104026020016040519081016040528093929190818152602001838380828437600081840152601f19601f8201169050808301925050505050505091929192908035906020019064010000000081111561138e57600080fd5b8201836020820111156113a057600080fd5b803590602001918460018302840111640100000000831117156113c257600080fd5b91908080601f016020809104026020016040519081016040528093929190818152602001838380828437600081840152601f19601f8201169050808301925050505050505091929192908035906020019064010000000081111561142557600080fd5b82018360208201111561143757600080fd5b8035906020019184600183028401116401000000008311171561145957600080fd5b91908080601f016020809104026020016040519081016040528093929190818152602001838380828437600081840152601f19601f820116905080830192505050505050509192919290505050612f9c565b005b6060806060600073ffffffffffffffffffffffffffffffffffffffff168473ffffffffffffffffffffffffffffffffffffffff1614156114ec57600080fd5b60008510156114fa57600080fd5b6000600d60008673ffffffffffffffffffffffffffffffffffffffff1673ffffffffffffffffffffffffffffffffffffffff168152602001908152602001600020805490501161154957600080fd5b6000600d60008673ffffffffffffffffffffffffffffffffffffffff1673ffffffffffffffffffffffffffffffffffffffff168152602001908152602001600020868154811061159557fe5b90600052602060002090600602019050806001018160020182600301828054600181600116156101000203166002900480601f0160208091040260200160405190810160405280929190818152602001828054600181600116156101000203166002900480156116465780601f1061161b57610100808354040283529160200191611646565b820191906000526020600020905b81548152906001019060200180831161162957829003601f168201915b50505050509250818054600181600116156101000203166002900480601f0160208091040260200160405190810160405280929190818152602001828054600181600116156101000203166002900480156116e25780601f106116b7576101008083540402835291602001916116e2565b820191906000526020600020905b8154815290600101906020018083116116c557829003601f168201915b50505050509150808054600181600116156101000203166002900480601f01602080910402602001604051908101604052809291908181526020018280546001816001161561010002031660029004801561177e5780601f106117535761010080835404028352916020019161177e565b820191906000526020600020905b81548152906001019060200180831161176157829003601f168201915b50505050509050935093509350509250925092565b6000806000837bffffffffffffffffffffffffffffffffffffffffffffffffffffffff19167bffffffffffffffffffffffffffffffffffffffffffffffffffffffff1916815260200190815260200160002060009054906101000a900460ff169050919050565b606060068054600181600116156101000203166002900480601f0160208091040260200160405190810160405280929190818152602001828054600181600116156101000203166002900480156118925780601f1061186757610100808354040283529160200191611892565b820191906000526020600020905b81548152906001019060200180831161187557829003601f168201915b5050505050905090565b60008073ffffffffffffffffffffffffffffffffffffffff168273ffffffffffffffffffffffffffffffffffffffff1614156118d757600080fd5b600f60008373ffffffffffffffffffffffffffffffffffffffff1673ffffffffffffffffffffffffffffffffffffffff168152602001908152602001600020805490509050919050565b600061192c82613224565b611981576040517f08c379a000000000000000000000000000000000000000000000000000000000815260040180806020018281038252602c815260200180614686602c913960400191505060405180910390fd5b6004600083815260200190815260200160002060009054906101000a900473ffffffffffffffffffffffffffffffffffffffff169050919050565b60006119c78261218c565b90508073ffffffffffffffffffffffffffffffffffffffff168373ffffffffffffffffffffffffffffffffffffffff161415611a4e576040517f08c379a000000000000000000000000000000000000000000000000000000000815260040180806020018281038252602181526020018061470a6021913960400191505060405180910390fd5b8073ffffffffffffffffffffffffffffffffffffffff16611a6d613241565b73ffffffffffffffffffffffffffffffffffffffff161480611a9c5750611a9b81611a96613241565b612f08565b5b611af1576040517f08c379a00000000000000000000000000000000000000000000000000000000081526004018080602001828103825260388152602001806145d96038913960400191505060405180910390fd5b611afb8383613249565b505050565b6000611b0c6002613302565b905090565b611b22611b1c613241565b82613317565b611b77576040517f08c379a000000000000000000000000000000000000000000000000000000000815260040180806020018281038252603181526020018061472b6031913960400191505060405180910390fd5b611b8283838361340b565b505050565b6000611bda82600160008673ffffffffffffffffffffffffffffffffffffffff1673ffffffffffffffffffffffffffffffffffffffff16815260200190815260200160002061364e90919063ffffffff16565b905092915050565b600d6020528160005260406000208181548110611bfe57600080fd5b906000526020600020906006020160009150915050806000015490806001018054600181600116156101000203166002900480601f016020809104026020016040519081016040528092919081815260200182805460018160011615610100020316600290048015611cb15780601f10611c8657610100808354040283529160200191611cb1565b820191906000526020600020905b815481529060010190602001808311611c9457829003601f168201915b505050505090806002018054600181600116156101000203166002900480601f016020809104026020016040519081016040528092919081815260200182805460018160011615610100020316600290048015611d4f5780601f10611d2457610100808354040283529160200191611d4f565b820191906000526020600020905b815481529060010190602001808311611d3257829003601f168201915b505050505090806003018054600181600116156101000203166002900480601f016020809104026020016040519081016040528092919081815260200182805460018160011615610100020316600290048015611ded5780601f10611dc257610100808354040283529160200191611ded565b820191906000526020600020905b815481529060010190602001808311611dd057829003601f168201915b5050505050908060050160009054906101000a900460ff16905085565b611e2583838360405180602001604052806000815250612919565b505050565b600080611e4183600261366890919063ffffffff16565b50905080915050919050565b600073ffffffffffffffffffffffffffffffffffffffff163373ffffffffffffffffffffffffffffffffffffffff161415611e8757600080fd5b600e60008154809291906001019190505550611ea4600e54613224565b15611eae57600080fd5b611eba33600e54613694565b6000604051806101200160405280600e5481526020018781526020013373ffffffffffffffffffffffffffffffffffffffff1681526020013373ffffffffffffffffffffffffffffffffffffffff1681526020013373ffffffffffffffffffffffffffffffffffffffff16815260200186815260200185815260200160008152602001600115158152509050600f60003373ffffffffffffffffffffffffffffffffffffffff1673ffffffffffffffffffffffffffffffffffffffff168152602001908152602001600020819080600181540180825580915050600190039060005260206000209060090201600090919091909150600082015181600001556020820151816001019080519060200190611fd5929190614463565b5060408201518160020160006101000a81548173ffffffffffffffffffffffffffffffffffffffff021916908373ffffffffffffffffffffffffffffffffffffffff16021790555060608201518160030160006101000a81548173ffffffffffffffffffffffffffffffffffffffff021916908373ffffffffffffffffffffffffffffffffffffffff16021790555060808201518160040160006101000a81548173ffffffffffffffffffffffffffffffffffffffff021916908373ffffffffffffffffffffffffffffffffffffffff16021790555060a0820151816005015560c08201518160060190805190602001906120d1929190614463565b5060e082015181600701556101008201518160080160006101000a81548160ff0219169083151502179055505050505050505050565b60008073ffffffffffffffffffffffffffffffffffffffff168273ffffffffffffffffffffffffffffffffffffffff16141561214257600080fd5b600d60008373ffffffffffffffffffffffffffffffffffffffff1673ffffffffffffffffffffffffffffffffffffffff168152602001908152602001600020805490509050919050565b60006121bc8260405180606001604052806029815260200161463b6029913960026138889092919063ffffffff16565b9050919050565b606060098054600181600116156101000203166002900480601f01602080910402602001604051908101604052809291908181526020018280546001816001161561010002031660029004801561225b5780601f106122305761010080835404028352916020019161225b565b820191906000526020600020905b81548152906001019060200180831161223e57829003601f168201915b5050505050905090565b600b8054600181600116156101000203166002900480601f0160208091040260200160405190810160405280929190818152602001828054600181600116156101000203166002900480156122fb5780601f106122d0576101008083540402835291602001916122fb565b820191906000526020600020905b8154815290600101906020018083116122de57829003601f168201915b505050505081565b60008073ffffffffffffffffffffffffffffffffffffffff168273ffffffffffffffffffffffffffffffffffffffff16141561238a576040517f08c379a000000000000000000000000000000000000000000000000000000000815260040180806020018281038252602a815260200180614611602a913960400191505060405180910390fd5b6123d1600160008473ffffffffffffffffffffffffffffffffffffffff1673ffffffffffffffffffffffffffffffffffffffff1681526020019081526020016000206138a7565b9050919050565b606060078054600181600116156101000203166002900480601f0160208091040260200160405190810160405280929190818152602001828054600181600116156101000203166002900480156124705780601f1061244557610100808354040283529160200191612470565b820191906000526020600020905b81548152906001019060200180831161245357829003601f168201915b5050505050905090565b60606000806000806060600080600073ffffffffffffffffffffffffffffffffffffffff168973ffffffffffffffffffffffffffffffffffffffff1614156124c157600080fd5b60008a10156124cf57600080fd5b6000600f60008b73ffffffffffffffffffffffffffffffffffffffff1673ffffffffffffffffffffffffffffffffffffffff168152602001908152602001600020805490501161251e57600080fd5b6000600f60008b73ffffffffffffffffffffffffffffffffffffffff1673ffffffffffffffffffffffffffffffffffffffff1681526020019081526020016000208b8154811061256a57fe5b90600052602060002090600902019050806001018160020160009054906101000a900473ffffffffffffffffffffffffffffffffffffffff168260030160009054906101000a900473ffffffffffffffffffffffffffffffffffffffff168360040160009054906101000a900473ffffffffffffffffffffffffffffffffffffffff1684600501548560060186600701548760080160009054906101000a900460ff16878054600181600116156101000203166002900480601f0160208091040260200160405190810160405280929190818152602001828054600181600116156101000203166002900480156126a25780601f10612677576101008083540402835291602001916126a2565b820191906000526020600020905b81548152906001019060200180831161268557829003601f168201915b50505050509750828054600181600116156101000203166002900480601f01602080910402602001604051908101604052809291908181526020018280546001816001161561010002031660029004801561273e5780601f106127135761010080835404028352916020019161273e565b820191906000526020600020905b81548152906001019060200180831161272157829003601f168201915b5050505050925098509850985098509850985098509850509295985092959890939650565b61276b613241565b73ffffffffffffffffffffffffffffffffffffffff168273ffffffffffffffffffffffffffffffffffffffff16141561280c576040517f08c379a00000000000000000000000000000000000000000000000000000000081526004018080602001828103825260198152602001807f4552433732313a20617070726f766520746f2063616c6c65720000000000000081525060200191505060405180910390fd5b8060056000612819613241565b73ffffffffffffffffffffffffffffffffffffffff1673ffffffffffffffffffffffffffffffffffffffff16815260200190815260200160002060008473ffffffffffffffffffffffffffffffffffffffff1673ffffffffffffffffffffffffffffffffffffffff16815260200190815260200160002060006101000a81548160ff0219169083151502179055508173ffffffffffffffffffffffffffffffffffffffff166128c6613241565b73ffffffffffffffffffffffffffffffffffffffff167f17307eab39ab6107e8899845ad3d59bd9653f200f220920489ca2b5937696c318360405180821515815260200191505060405180910390a35050565b61292a612924613241565b83613317565b61297f576040517f08c379a000000000000000000000000000000000000000000000000000000000815260040180806020018281038252603181526020018061472b6031913960400191505060405180910390fd5b61298b848484846138bc565b50505050565b606061299c82613224565b6129f1576040517f08c379a000000000000000000000000000000000000000000000000000000000815260040180806020018281038252602f8152602001806146db602f913960400191505060405180910390fd5b6000600860008481526020019081526020016000208054600181600116156101000203166002900480601f016020809104026020016040519081016040528092919081815260200182805460018160011615610100020316600290048015612a9a5780601f10612a6f57610100808354040283529160200191612a9a565b820191906000526020600020905b815481529060010190602001808311612a7d57829003601f168201915b505050505090506000612aab6121c3565b9050600081511415612ac1578192505050612c5d565b600082511115612b925780826040516020018083805190602001908083835b60208310612b035780518252602082019150602081019050602083039250612ae0565b6001836020036101000a03801982511681845116808217855250505050505090500182805190602001908083835b60208310612b545780518252602082019150602081019050602083039250612b31565b6001836020036101000a0380198251168184511680821785525050505050509050019250505060405160208183030381529060405292505050612c5d565b80612b9c8561392e565b6040516020018083805190602001908083835b60208310612bd25780518252602082019150602081019050602083039250612baf565b6001836020036101000a03801982511681845116808217855250505050505090500182805190602001908083835b60208310612c235780518252602082019150602081019050602083039250612c00565b6001836020036101000a03801982511681845116808217855250505050505090500192505050604051602081830303815290604052925050505b919050565b600f6020528160005260406000208181548110612c7e57600080fd5b906000526020600020906009020160009150915050806000015490806001018054600181600116156101000203166002900480601f016020809104026020016040519081016040528092919081815260200182805460018160011615610100020316600290048015612d315780601f10612d0657610100808354040283529160200191612d31565b820191906000526020600020905b815481529060010190602001808311612d1457829003601f168201915b5050505050908060020160009054906101000a900473ffffffffffffffffffffffffffffffffffffffff16908060030160009054906101000a900473ffffffffffffffffffffffffffffffffffffffff16908060040160009054906101000a900473ffffffffffffffffffffffffffffffffffffffff1690806005015490806006018054600181600116156101000203166002900480601f016020809104026020016040519081016040528092919081815260200182805460018160011615610100020316600290048015612e475780601f10612e1c57610100808354040283529160200191612e47565b820191906000526020600020905b815481529060010190602001808311612e2a57829003601f168201915b5050505050908060070154908060080160009054906101000a900460ff16905089565b600a8054600181600116156101000203166002900480601f016020809104026020016040519081016040528092919081815260200182805460018160011615610100020316600290048015612f005780601f10612ed557610100808354040283529160200191612f00565b820191906000526020600020905b815481529060010190602001808311612ee357829003601f168201915b505050505081565b6000600560008473ffffffffffffffffffffffffffffffffffffffff1673ffffffffffffffffffffffffffffffffffffffff16815260200190815260200160002060008373ffffffffffffffffffffffffffffffffffffffff1673ffffffffffffffffffffffffffffffffffffffff16815260200190815260200160002060009054906101000a900460ff16905092915050565b600c600081548092919060010191905055506000600d60003373ffffffffffffffffffffffffffffffffffffffff1673ffffffffffffffffffffffffffffffffffffffff168152602001908152602001600020600c5481548110612ffc57fe5b90600052602060002090600602019050600c5481600001819055508381600101908051906020019061302f929190614463565b5082816002019080519060200190613048929190614463565b5081816003019080519060200190613061929190614463565b5060008160050160006101000a81548160ff021916908360ff1602179055507fefbd145fea57de09a0db3eea45c2b6b13a53246bff3d28eaf26c5b4b1ece83f8600c54858533866040518086815260200180602001806020018573ffffffffffffffffffffffffffffffffffffffff16815260200180602001848103845288818151815260200191508051906020019080838360005b838110156131125780820151818401526020810190506130f7565b50505050905090810190601f16801561313f5780820380516001836020036101000a031916815260200191505b50848103835287818151815260200191508051906020019080838360005b8381101561317857808201518184015260208101905061315d565b50505050905090810190601f1680156131a55780820380516001836020036101000a031916815260200191505b50848103825285818151815260200191508051906020019080838360005b838110156131de5780820151818401526020810190506131c3565b50505050905090810190601f16801561320b5780820380516001836020036101000a031916815260200191505b509850505050505050505060405180910390a150505050565b600061323a826002613a7590919063ffffffff16565b9050919050565b600033905090565b816004600083815260200190815260200160002060006101000a81548173ffffffffffffffffffffffffffffffffffffffff021916908373ffffffffffffffffffffffffffffffffffffffff160217905550808273ffffffffffffffffffffffffffffffffffffffff166132bc8361218c565b73ffffffffffffffffffffffffffffffffffffffff167f8c5be1e5ebec7d5bd14f71427d1e84f3dd0314c0f7b2291e5b200ac8c7c3b92560405160405180910390a45050565b600061331082600001613a8f565b9050919050565b600061332282613224565b613377576040517f08c379a000000000000000000000000000000000000000000000000000000000815260040180806020018281038252602c8152602001806145ad602c913960400191505060405180910390fd5b60006133828361218c565b90508073ffffffffffffffffffffffffffffffffffffffff168473ffffffffffffffffffffffffffffffffffffffff1614806133f157508373ffffffffffffffffffffffffffffffffffffffff166133d984611921565b73ffffffffffffffffffffffffffffffffffffffff16145b8061340257506134018185612f08565b5b91505092915050565b8273ffffffffffffffffffffffffffffffffffffffff1661342b8261218c565b73ffffffffffffffffffffffffffffffffffffffff1614613497576040517f08c379a00000000000000000000000000000000000000000000000000000000081526004018080602001828103825260298152602001806146b26029913960400191505060405180910390fd5b600073ffffffffffffffffffffffffffffffffffffffff168273ffffffffffffffffffffffffffffffffffffffff16141561351d576040517f08c379a00000000000000000000000000000000000000000000000000000000081526004018080602001828103825260248152602001806145636024913960400191505060405180910390fd5b613528838383613aa0565b613533600082613249565b61358481600160008673ffffffffffffffffffffffffffffffffffffffff1673ffffffffffffffffffffffffffffffffffffffff168152602001908152602001600020613aa590919063ffffffff16565b506135d681600160008573ffffffffffffffffffffffffffffffffffffffff1673ffffffffffffffffffffffffffffffffffffffff168152602001908152602001600020613abf90919063ffffffff16565b506135ed81836002613ad99092919063ffffffff16565b50808273ffffffffffffffffffffffffffffffffffffffff168473ffffffffffffffffffffffffffffffffffffffff167fddf252ad1be2c89b69c2b068fc378daa952ba7f163c4a11628f55a4df523b3ef60405160405180910390a4505050565b600061365d8360000183613b0e565b60001c905092915050565b60008060008061367b8660000186613b91565b915091508160001c8160001c9350935050509250929050565b600073ffffffffffffffffffffffffffffffffffffffff168273ffffffffffffffffffffffffffffffffffffffff161415613737576040517f08c379a00000000000000000000000000000000000000000000000000000000081526004018080602001828103825260208152602001807f4552433732313a206d696e7420746f20746865207a65726f206164647265737381525060200191505060405180910390fd5b61374081613224565b156137b3576040517f08c379a000000000000000000000000000000000000000000000000000000000815260040180806020018281038252601c8152602001807f4552433732313a20746f6b656e20616c7265616479206d696e7465640000000081525060200191505060405180910390fd5b6137bf60008383613aa0565b61381081600160008573ffffffffffffffffffffffffffffffffffffffff1673ffffffffffffffffffffffffffffffffffffffff168152602001908152602001600020613abf90919063ffffffff16565b5061382781836002613ad99092919063ffffffff16565b50808273ffffffffffffffffffffffffffffffffffffffff16600073ffffffffffffffffffffffffffffffffffffffff167fddf252ad1be2c89b69c2b068fc378daa952ba7f163c4a11628f55a4df523b3ef60405160405180910390a45050565b600061389b846000018460001b84613c2a565b60001c90509392505050565b60006138b582600001613d20565b9050919050565b6138c784848461340b565b6138d384848484613d31565b613928576040517f08c379a00000000000000000000000000000000000000000000000000000000081526004018080602001828103825260328152602001806145316032913960400191505060405180910390fd5b50505050565b60606000821415613976576040518060400160405280600181526020017f30000000000000000000000000000000000000000000000000000000000000008152509050613a70565b600082905060005b600082146139a0578080600101915050600a828161399857fe5b04915061397e565b60008167ffffffffffffffff811180156139b957600080fd5b506040519080825280601f01601f1916602001820160405280156139ec5781602001600182028036833780820191505090505b50905060006001830390508593505b60008414613a6857600a8481613a0d57fe5b0660300160f81b82828060019003935081518110613a2757fe5b60200101907effffffffffffffffffffffffffffffffffffffffffffffffffffffffffffff1916908160001a905350600a8481613a6057fe5b0493506139fb565b819450505050505b919050565b6000613a87836000018360001b613f4a565b905092915050565b600081600001805490509050919050565b505050565b6000613ab7836000018360001b613f6d565b905092915050565b6000613ad1836000018360001b614055565b905092915050565b6000613b05846000018460001b8473ffffffffffffffffffffffffffffffffffffffff1660001b6140c5565b90509392505050565b600081836000018054905011613b6f576040517f08c379a000000000000000000000000000000000000000000000000000000000815260040180806020018281038252602281526020018061450f6022913960400191505060405180910390fd5b826000018281548110613b7e57fe5b9060005260206000200154905092915050565b60008082846000018054905011613bf3576040517f08c379a00000000000000000000000000000000000000000000000000000000081526004018080602001828103825260228152602001806146646022913960400191505060405180910390fd5b6000846000018481548110613c0457fe5b906000526020600020906002020190508060000154816001015492509250509250929050565b60008084600101600085815260200190815260200160002054905060008114158390613cf1576040517f08c379a00000000000000000000000000000000000000000000000000000000081526004018080602001828103825283818151815260200191508051906020019080838360005b83811015613cb6578082015181840152602081019050613c9b565b50505050905090810190601f168015613ce35780820380516001836020036101000a031916815260200191505b509250505060405180910390fd5b50846000016001820381548110613d0457fe5b9060005260206000209060020201600101549150509392505050565b600081600001805490509050919050565b6000613d528473ffffffffffffffffffffffffffffffffffffffff166141a1565b613d5f5760019050613f42565b6000613ec963150b7a0260e01b613d74613241565b888787604051602401808573ffffffffffffffffffffffffffffffffffffffff1681526020018473ffffffffffffffffffffffffffffffffffffffff16815260200183815260200180602001828103825283818151815260200191508051906020019080838360005b83811015613df8578082015181840152602081019050613ddd565b50505050905090810190601f168015613e255780820380516001836020036101000a031916815260200191505b5095505050505050604051602081830303815290604052907bffffffffffffffffffffffffffffffffffffffffffffffffffffffff19166020820180517bffffffffffffffffffffffffffffffffffffffffffffffffffffffff8381831617835250505050604051806060016040528060328152602001614531603291398773ffffffffffffffffffffffffffffffffffffffff166141b49092919063ffffffff16565b90506000818060200190516020811015613ee257600080fd5b8101908080519060200190929190505050905063150b7a0260e01b7bffffffffffffffffffffffffffffffffffffffffffffffffffffffff1916817bffffffffffffffffffffffffffffffffffffffffffffffffffffffff191614925050505b949350505050565b600080836001016000848152602001908152602001600020541415905092915050565b600080836001016000848152602001908152602001600020549050600081146140495760006001820390506000600186600001805490500390506000866000018281548110613fb857fe5b9060005260206000200154905080876000018481548110613fd557fe5b906000526020600020018190555060018301876001016000838152602001908152602001600020819055508660000180548061400d57fe5b6001900381819060005260206000200160009055905586600101600087815260200190815260200160002060009055600194505050505061404f565b60009150505b92915050565b600061406183836141cc565b6140ba5782600001829080600181540180825580915050600190039060005260206000200160009091909190915055826000018054905083600101600084815260200190815260200160002081905550600190506140bf565b600090505b92915050565b600080846001016000858152602001908152602001600020549050600081141561416c5784600001604051806040016040528086815260200185815250908060018154018082558091505060019003906000526020600020906002020160009091909190915060008201518160000155602082015181600101555050846000018054905085600101600086815260200190815260200160002081905550600191505061419a565b8285600001600183038154811061417f57fe5b90600052602060002090600202016001018190555060009150505b9392505050565b600080823b905060008111915050919050565b60606141c384846000856141ef565b90509392505050565b600080836001016000848152602001908152602001600020541415905092915050565b60608247101561424a576040517f08c379a00000000000000000000000000000000000000000000000000000000081526004018080602001828103825260268152602001806145876026913960400191505060405180910390fd5b614253856141a1565b6142c5576040517f08c379a000000000000000000000000000000000000000000000000000000000815260040180806020018281038252601d8152602001807f416464726573733a2063616c6c20746f206e6f6e2d636f6e747261637400000081525060200191505060405180910390fd5b6000808673ffffffffffffffffffffffffffffffffffffffff1685876040518082805190602001908083835b6020831061431457805182526020820191506020810190506020830392506142f1565b6001836020036101000a03801982511681845116808217855250505050505090500191505060006040518083038185875af1925050503d8060008114614376576040519150601f19603f3d011682016040523d82523d6000602084013e61437b565b606091505b509150915061438b828286614397565b92505050949350505050565b606083156143a75782905061445c565b6000835111156143ba5782518084602001fd5b816040517f08c379a00000000000000000000000000000000000000000000000000000000081526004018080602001828103825283818151815260200191508051906020019080838360005b83811015614421578082015181840152602081019050614406565b50505050905090810190601f16801561444e5780820380516001836020036101000a031916815260200191505b509250505060405180910390fd5b9392505050565b828054600181600116156101000203166002900490600052602060002090601f01602090048101928261449957600085556144e0565b82601f106144b257805160ff19168380011785556144e0565b828001600101855582156144e0579182015b828111156144df5782518255916020019190600101906144c4565b5b5090506144ed91906144f1565b5090565b5b8082111561450a5760008160009055506001016144f2565b509056fe456e756d657261626c655365743a20696e646578206f7574206f6620626f756e64734552433732313a207472616e7366657220746f206e6f6e20455243373231526563656976657220696d706c656d656e7465724552433732313a207472616e7366657220746f20746865207a65726f2061646472657373416464726573733a20696e73756666696369656e742062616c616e636520666f722063616c6c4552433732313a206f70657261746f7220717565727920666f72206e6f6e6578697374656e7420746f6b656e4552433732313a20617070726f76652063616c6c6572206973206e6f74206f776e6572206e6f7220617070726f76656420666f7220616c6c4552433732313a2062616c616e636520717565727920666f7220746865207a65726f20616464726573734552433732313a206f776e657220717565727920666f72206e6f6e6578697374656e7420746f6b656e456e756d657261626c654d61703a20696e646578206f7574206f6620626f756e64734552433732313a20617070726f76656420717565727920666f72206e6f6e6578697374656e7420746f6b656e4552433732313a207472616e73666572206f6620746f6b656e2074686174206973206e6f74206f776e4552433732314d657461646174613a2055524920717565727920666f72206e6f6e6578697374656e7420746f6b656e4552433732313a20617070726f76616c20746f2063757272656e74206f776e65724552433732313a207472616e736665722063616c6c6572206973206e6f74206f776e6572206e6f7220617070726f766564a264697066735822122079fa03e3eaa8d82544da4d80cf23bc7ddd5b853e5c41a464fb05580bff8a17ec64736f6c63430007060033",
  "immutableReferences": {},
  "source": "//import ERC721 interface\r\nimport \"./ERC721.sol\";\r\n\r\npragma solidity >=0.6.0 <0.8.0;\r\n\r\n//implement\r\ncontract ArtFundsStorage is ERC721 {\r\n    // this contract's token collection name\r\n    string public collectionName;\r\n    // this contract's token symbol\r\n    string public collectionNameSymbol;\r\n\r\n    struct Collection {\r\n        uint256 tokenId;\r\n        string imageURL;\r\n        string name;\r\n        string description;\r\n        // DigitalItem[] digitalItems;\r\n        // uint256 collectionPointer;\r\n        // uint256[] digitalItemKeys;\r\n        mapping(uint256 => DigitalItem) listDigital;\r\n        uint8 listSize;\r\n    }\r\n\r\n    uint256 collectionCounter = 0;\r\n    mapping(address => Collection[]) public ownerCollections;\r\n    // mapping(address => Collection) public collectionStructs;\r\n    // uint256[] collections;\r\n\r\n    struct DigitalItem {\r\n        uint256 tokenId;\r\n        string name;\r\n        address payable mintedBy;\r\n        address payable currentOwner;\r\n        address payable previousOwner;\r\n        uint256 price;\r\n        string imageURL;\r\n        uint256 numberOfTransfers;\r\n        bool forSale;\r\n        // uint256 digitalItemPointer;\r\n        // uint256 collectionKey;\r\n    }\r\n\r\n    uint256 digitalItemCounter = 0;\r\n    mapping(address => DigitalItem[]) public ownerDigitalItems;\r\n    // mapping(address => DigitalItem) public digitalItemStructs;\r\n    // uint256[] digitalItems;\r\n\r\n    event ItemCreated(\r\n        uint256 id,\r\n        string name,\r\n        address mintedBy,\r\n        address currentOwner,\r\n        address previousOwner,\r\n        uint256 price,\r\n        string imageURL,\r\n        uint256 numberOfTransfers,\r\n        bool forSale\r\n    );\r\n\r\n    event ItemForSale(uint256 id, bool forSale);\r\n\r\n    event CollectionCreated(\r\n        uint256 tokenId,\r\n        string imageURL,\r\n        string name,\r\n        address ownedBy,\r\n        string description\r\n    );\r\n\r\n    // initialize contract while deployment with contract's collection name and token\r\n    constructor() ERC721(\"ArtFunds Collection\", \"CB\") {\r\n        collectionName = name();\r\n        collectionNameSymbol = symbol();\r\n    }\r\n\r\n    // uint256 public tokenCounter;\r\n\r\n    // function getCollectionDigitalItemsCount(uint256 collectionId)\r\n    //     public\r\n    //     constant\r\n    //     returns (uint256 digitalItemsCount)\r\n    // {\r\n    //     if (!isCollection(collectionId)) throw;\r\n    //     return collectionStructs[collectionId].digitalItemKeys.length;\r\n    // }\r\n\r\n    // function getCollectionDigitalItemsAtIndex(uint256 collectionId, uint256 row)\r\n    //     public\r\n    //     constant\r\n    //     returns (uint256 collectionKey)\r\n    // {\r\n    //     if (!isCollection(collectionId)) throw;\r\n    //     return collectionStructs[collectionId].collectionKeys[row];\r\n    // }\r\n\r\n    // function createDigitalItem(uint256 digitalItemId, uint256 collectionId)\r\n    //     onlyOwner\r\n    //     returns (bool success)\r\n    // {\r\n    //     if (!isCollection(collectionId)) throw;\r\n    //     if (isDigitalItem(digitalItemId)) throw;\r\n    //     digitalItemStructs[digitalItemId].digitalItemPointer =\r\n    //         digitalItems.push(digitalItemId) -\r\n    //         1;\r\n    //     digitalItemStructs[digitalItemId].collectionKey = collectionId;\r\n\r\n    //     collectionStructs[collectionId].digitalItemKeyPointers[digitalItemId] =\r\n    //         collectionStructs[collectionId].digitalItemKeys.push(\r\n    //             digitalItemId\r\n    //         ) -\r\n    //         1;\r\n    //     LogNewdigitalItem(msg.sender, digitalItemId, collectionId);\r\n    //     return true;\r\n    // }\r\n\r\n    // mint a new digital item\r\n    function mintDigitalItem(\r\n        string memory _name,\r\n        uint256 _price,\r\n        string memory _imageURL,\r\n        uint256 _numberOfTransfers,\r\n        bool _forSale\r\n    ) external {\r\n        // check if thic fucntion caller is not an zero address account\r\n        require(msg.sender != address(0));\r\n        // increment counter\r\n        digitalItemCounter++;\r\n        // check if a token exists with the above token id => incremented counter\r\n        require(!_exists(digitalItemCounter));\r\n\r\n        // mint the token\r\n        _mint(msg.sender, digitalItemCounter);\r\n\r\n        DigitalItem memory newDigitalItem = DigitalItem(\r\n            digitalItemCounter,\r\n            _name,\r\n            msg.sender,\r\n            msg.sender,\r\n            msg.sender,\r\n            _price,\r\n            _imageURL,\r\n            0,\r\n            true\r\n        );\r\n        ownerDigitalItems[msg.sender].push(newDigitalItem);\r\n    }\r\n\r\n    function getDigitalItem(uint256 _tokenId, address _owner)\r\n        public\r\n        view\r\n        returns (\r\n            string memory _name,\r\n            address _mintedBy,\r\n            address _currentOwner,\r\n            address _previousOwner,\r\n            uint256 _price,\r\n            string memory _imageURL,\r\n            uint256 _numberOfTransfers,\r\n            bool _forSale\r\n        )\r\n    {\r\n        require(_owner != address(0x0));\r\n        require(_tokenId >= 0);\r\n        require(ownerDigitalItems[_owner].length > 0);\r\n        DigitalItem storage digitalItem = ownerDigitalItems[_owner][_tokenId];\r\n\r\n        return (\r\n            digitalItem.name,\r\n            digitalItem.mintedBy,\r\n            digitalItem.currentOwner,\r\n            digitalItem.previousOwner,\r\n            digitalItem.price,\r\n            digitalItem.imageURL,\r\n            digitalItem.numberOfTransfers,\r\n            digitalItem.forSale\r\n        );\r\n    }\r\n\r\n    function getDigitalItemCount(address _owner) public view returns (uint256) {\r\n        require(_owner != address(0x0));\r\n        return ownerDigitalItems[_owner].length;\r\n    }\r\n\r\n    //This function to create collection from address\r\n    function createCollection(\r\n        string memory _imageURL,\r\n        string memory _name,\r\n        string memory _description\r\n    ) public {\r\n        collectionCounter++;\r\n\r\n        // DigitalItem[] memory temp;\r\n\r\n        Collection storage collection = ownerCollections[msg.sender][collectionCounter];\r\n        collection.tokenId = collectionCounter;\r\n        collection.imageURL = _imageURL;\r\n        collection.name = _name;\r\n        collection.description = _description;\r\n        collection.listSize = 0;\r\n        // Collection(\r\n        //     collectionCounter,\r\n        //     _imageURL,\r\n        //     _name,\r\n        //     _description\r\n        // );\r\n\r\n        // ownerCollections[msg.sender].push(collection);\r\n        \r\n        emit CollectionCreated(\r\n          collectionCounter,\r\n          _imageURL,\r\n          _name,\r\n          msg.sender,\r\n          _description\r\n        );\r\n    }\r\n\r\n    function getCollection(uint256 _tokenId, address _owner)\r\n        public\r\n        view\r\n        returns (\r\n            string memory _imageURL,\r\n            string memory _name,\r\n            string memory _description\r\n        )\r\n    {\r\n        require(_owner != address(0x0));\r\n        require(_tokenId >= 0);\r\n        require(ownerCollections[_owner].length > 0);\r\n        Collection storage collection = ownerCollections[_owner][_tokenId];\r\n\r\n        return (collection.imageURL, collection.name, collection.description);\r\n    }\r\n\r\n    function getCollectionCount(address _owner) public view returns (uint256) {\r\n        require(_owner != address(0x0));\r\n        return ownerCollections[_owner].length;\r\n    }\r\n\r\n    // struct Order {\r\n    //     address maker;\r\n    //     address taker;\r\n    //     uint256 tokenId;\r\n    // }\r\n\r\n    // mapping(uint256 => Order) orders;\r\n\r\n    // function makeOrder(uint256 _tokenId, uint256 _price) external {\r\n    //     // validate nft\r\n    //     // ...\r\n    // }\r\n\r\n    // function takeOrder(uint256 _tokenId) external {\r\n    //     // check order exists\r\n    //     // validate funds\r\n    //     // transfer funds\r\n    //     // transfer nft\r\n    // }\r\n}\r\n",
  "sourcePath": "E:\\DSC\\DevFest\\ArtFunds\\ArtFunds_DevFest2021\\blockchain\\contracts\\ArtFundsStorage.sol",
  "compiler": {
    "name": "solc",
    "version": "0.7.6+commit.7338295f.Emscripten.clang"
  },
  "schemaVersion": "3.4.3",
  "updatedAt": "2021-10-27T14:08:55.498Z",
  "networkType": "ethereum",
  "devdoc": {
    "kind": "dev",
    "methods": {
      "approve(address,uint256)": {
        "details": "See {IERC721-approve}."
      },
      "balanceOf(address)": {
        "details": "See {IERC721-balanceOf}."
      },
      "baseURI()": {
        "details": "Returns the base URI set via {_setBaseURI}. This will be automatically added as a prefix in {tokenURI} to each token's URI, or to the token ID if no specific URI is set for that token ID."
      },
      "getApproved(uint256)": {
        "details": "See {IERC721-getApproved}."
      },
      "isApprovedForAll(address,address)": {
        "details": "See {IERC721-isApprovedForAll}."
      },
      "name()": {
        "details": "See {IERC721Metadata-name}."
      },
      "ownerOf(uint256)": {
        "details": "See {IERC721-ownerOf}."
      },
      "safeTransferFrom(address,address,uint256)": {
        "details": "See {IERC721-safeTransferFrom}."
      },
      "safeTransferFrom(address,address,uint256,bytes)": {
        "details": "See {IERC721-safeTransferFrom}."
      },
      "setApprovalForAll(address,bool)": {
        "details": "See {IERC721-setApprovalForAll}."
      },
      "supportsInterface(bytes4)": {
        "details": "See {IERC165-supportsInterface}. Time complexity O(1), guaranteed to always use less than 30 000 gas."
      },
      "symbol()": {
        "details": "See {IERC721Metadata-symbol}."
      },
      "tokenByIndex(uint256)": {
        "details": "See {IERC721Enumerable-tokenByIndex}."
      },
      "tokenOfOwnerByIndex(address,uint256)": {
        "details": "See {IERC721Enumerable-tokenOfOwnerByIndex}."
      },
      "tokenURI(uint256)": {
        "details": "See {IERC721Metadata-tokenURI}."
      },
      "totalSupply()": {
        "details": "See {IERC721Enumerable-totalSupply}."
      },
      "transferFrom(address,address,uint256)": {
        "details": "See {IERC721-transferFrom}."
      }
    },
    "version": 1
  },
  "userdoc": {
    "kind": "user",
    "methods": {},
    "version": 1
  }
}