{
  "contractName": "ArtFundsStorage",
  "abi": [
    {
      "inputs": [],
      "stateMutability": "nonpayable",
      "type": "constructor"
    },
    {
      "anonymous": false,
      "inputs": [
        {
          "indexed": true,
          "internalType": "address",
          "name": "owner",
          "type": "address"
        },
        {
          "indexed": true,
          "internalType": "address",
          "name": "approved",
          "type": "address"
        },
        {
          "indexed": true,
          "internalType": "uint256",
          "name": "tokenId",
          "type": "uint256"
        }
      ],
      "name": "Approval",
      "type": "event"
    },
    {
      "anonymous": false,
      "inputs": [
        {
          "indexed": true,
          "internalType": "address",
          "name": "owner",
          "type": "address"
        },
        {
          "indexed": true,
          "internalType": "address",
          "name": "operator",
          "type": "address"
        },
        {
          "indexed": false,
          "internalType": "bool",
          "name": "approved",
          "type": "bool"
        }
      ],
      "name": "ApprovalForAll",
      "type": "event"
    },
    {
      "anonymous": false,
      "inputs": [
        {
          "indexed": false,
          "internalType": "uint256",
          "name": "tokenId",
          "type": "uint256"
        },
        {
          "indexed": false,
          "internalType": "string",
          "name": "imageURL",
          "type": "string"
        },
        {
          "indexed": false,
          "internalType": "string",
          "name": "name",
          "type": "string"
        },
        {
          "indexed": false,
          "internalType": "address",
          "name": "ownedBy",
          "type": "address"
        },
        {
          "indexed": false,
          "internalType": "string",
          "name": "description",
          "type": "string"
        }
      ],
      "name": "CollectionCreated",
      "type": "event"
    },
    {
      "anonymous": false,
      "inputs": [
        {
          "indexed": false,
          "internalType": "uint256",
          "name": "id",
          "type": "uint256"
        },
        {
          "indexed": false,
          "internalType": "string",
          "name": "name",
          "type": "string"
        },
        {
          "indexed": false,
          "internalType": "address",
          "name": "mintedBy",
          "type": "address"
        },
        {
          "indexed": false,
          "internalType": "address",
          "name": "currentOwner",
          "type": "address"
        },
        {
          "indexed": false,
          "internalType": "address",
          "name": "previousOwner",
          "type": "address"
        },
        {
          "indexed": false,
          "internalType": "uint256",
          "name": "price",
          "type": "uint256"
        },
        {
          "indexed": false,
          "internalType": "string",
          "name": "imageURL",
          "type": "string"
        },
        {
          "indexed": false,
          "internalType": "uint256",
          "name": "numberOfTransfers",
          "type": "uint256"
        },
        {
          "indexed": false,
          "internalType": "bool",
          "name": "forSale",
          "type": "bool"
        }
      ],
      "name": "ItemCreated",
      "type": "event"
    },
    {
      "anonymous": false,
      "inputs": [
        {
          "indexed": false,
          "internalType": "uint256",
          "name": "id",
          "type": "uint256"
        },
        {
          "indexed": false,
          "internalType": "bool",
          "name": "forSale",
          "type": "bool"
        }
      ],
      "name": "ItemForSale",
      "type": "event"
    },
    {
      "anonymous": false,
      "inputs": [
        {
          "indexed": true,
          "internalType": "address",
          "name": "from",
          "type": "address"
        },
        {
          "indexed": true,
          "internalType": "address",
          "name": "to",
          "type": "address"
        },
        {
          "indexed": true,
          "internalType": "uint256",
          "name": "tokenId",
          "type": "uint256"
        }
      ],
      "name": "Transfer",
      "type": "event"
    },
    {
      "inputs": [
        {
          "internalType": "address",
          "name": "to",
          "type": "address"
        },
        {
          "internalType": "uint256",
          "name": "tokenId",
          "type": "uint256"
        }
      ],
      "name": "approve",
      "outputs": [],
      "stateMutability": "nonpayable",
      "type": "function"
    },
    {
      "inputs": [
        {
          "internalType": "address",
          "name": "owner",
          "type": "address"
        }
      ],
      "name": "balanceOf",
      "outputs": [
        {
          "internalType": "uint256",
          "name": "",
          "type": "uint256"
        }
      ],
      "stateMutability": "view",
      "type": "function",
      "constant": true
    },
    {
      "inputs": [],
      "name": "baseURI",
      "outputs": [
        {
          "internalType": "string",
          "name": "",
          "type": "string"
        }
      ],
      "stateMutability": "view",
      "type": "function",
      "constant": true
    },
    {
      "inputs": [],
      "name": "collectionCounter",
      "outputs": [
        {
          "internalType": "uint256",
          "name": "",
          "type": "uint256"
        }
      ],
      "stateMutability": "view",
      "type": "function",
      "constant": true
    },
    {
      "inputs": [],
      "name": "collectionName",
      "outputs": [
        {
          "internalType": "string",
          "name": "",
          "type": "string"
        }
      ],
      "stateMutability": "view",
      "type": "function",
      "constant": true
    },
    {
      "inputs": [],
      "name": "collectionNameSymbol",
      "outputs": [
        {
          "internalType": "string",
          "name": "",
          "type": "string"
        }
      ],
      "stateMutability": "view",
      "type": "function",
      "constant": true
    },
    {
      "inputs": [
        {
          "internalType": "uint256",
          "name": "tokenId",
          "type": "uint256"
        }
      ],
      "name": "getApproved",
      "outputs": [
        {
          "internalType": "address",
          "name": "",
          "type": "address"
        }
      ],
      "stateMutability": "view",
      "type": "function",
      "constant": true
    },
    {
      "inputs": [
        {
          "internalType": "address",
          "name": "owner",
          "type": "address"
        },
        {
          "internalType": "address",
          "name": "operator",
          "type": "address"
        }
      ],
      "name": "isApprovedForAll",
      "outputs": [
        {
          "internalType": "bool",
          "name": "",
          "type": "bool"
        }
      ],
      "stateMutability": "view",
      "type": "function",
      "constant": true
    },
    {
      "inputs": [],
      "name": "name",
      "outputs": [
        {
          "internalType": "string",
          "name": "",
          "type": "string"
        }
      ],
      "stateMutability": "view",
      "type": "function",
      "constant": true
    },
    {
      "inputs": [
        {
          "internalType": "address",
          "name": "",
          "type": "address"
        },
        {
          "internalType": "uint256",
          "name": "",
          "type": "uint256"
        }
      ],
      "name": "ownerCollections",
      "outputs": [
        {
          "internalType": "uint256",
          "name": "tokenId",
          "type": "uint256"
        },
        {
          "internalType": "string",
          "name": "imageURL",
          "type": "string"
        },
        {
          "internalType": "string",
          "name": "name",
          "type": "string"
        },
        {
          "internalType": "string",
          "name": "description",
          "type": "string"
        }
      ],
      "stateMutability": "view",
      "type": "function",
      "constant": true
    },
    {
      "inputs": [
        {
          "internalType": "address",
          "name": "",
          "type": "address"
        },
        {
          "internalType": "uint256",
          "name": "",
          "type": "uint256"
        }
      ],
      "name": "ownerDigitalItems",
      "outputs": [
        {
          "internalType": "uint256",
          "name": "tokenId",
          "type": "uint256"
        },
        {
          "internalType": "uint256",
          "name": "collectionID",
          "type": "uint256"
        },
        {
          "internalType": "string",
          "name": "name",
          "type": "string"
        },
        {
          "internalType": "address payable",
          "name": "mintedBy",
          "type": "address"
        },
        {
          "internalType": "address payable",
          "name": "currentOwner",
          "type": "address"
        },
        {
          "internalType": "address payable",
          "name": "previousOwner",
          "type": "address"
        },
        {
          "internalType": "uint256",
          "name": "price",
          "type": "uint256"
        },
        {
          "internalType": "string",
          "name": "imageURL",
          "type": "string"
        },
        {
          "internalType": "uint256",
          "name": "numberOfTransfers",
          "type": "uint256"
        },
        {
          "internalType": "bool",
          "name": "forSale",
          "type": "bool"
        }
      ],
      "stateMutability": "view",
      "type": "function",
      "constant": true
    },
    {
      "inputs": [
        {
          "internalType": "uint256",
          "name": "tokenId",
          "type": "uint256"
        }
      ],
      "name": "ownerOf",
      "outputs": [
        {
          "internalType": "address",
          "name": "",
          "type": "address"
        }
      ],
      "stateMutability": "view",
      "type": "function",
      "constant": true
    },
    {
      "inputs": [
        {
          "internalType": "address",
          "name": "from",
          "type": "address"
        },
        {
          "internalType": "address",
          "name": "to",
          "type": "address"
        },
        {
          "internalType": "uint256",
          "name": "tokenId",
          "type": "uint256"
        }
      ],
      "name": "safeTransferFrom",
      "outputs": [],
      "stateMutability": "nonpayable",
      "type": "function"
    },
    {
      "inputs": [
        {
          "internalType": "address",
          "name": "from",
          "type": "address"
        },
        {
          "internalType": "address",
          "name": "to",
          "type": "address"
        },
        {
          "internalType": "uint256",
          "name": "tokenId",
          "type": "uint256"
        },
        {
          "internalType": "bytes",
          "name": "_data",
          "type": "bytes"
        }
      ],
      "name": "safeTransferFrom",
      "outputs": [],
      "stateMutability": "nonpayable",
      "type": "function"
    },
    {
      "inputs": [
        {
          "internalType": "address",
          "name": "operator",
          "type": "address"
        },
        {
          "internalType": "bool",
          "name": "approved",
          "type": "bool"
        }
      ],
      "name": "setApprovalForAll",
      "outputs": [],
      "stateMutability": "nonpayable",
      "type": "function"
    },
    {
      "inputs": [
        {
          "internalType": "bytes4",
          "name": "interfaceId",
          "type": "bytes4"
        }
      ],
      "name": "supportsInterface",
      "outputs": [
        {
          "internalType": "bool",
          "name": "",
          "type": "bool"
        }
      ],
      "stateMutability": "view",
      "type": "function",
      "constant": true
    },
    {
      "inputs": [],
      "name": "symbol",
      "outputs": [
        {
          "internalType": "string",
          "name": "",
          "type": "string"
        }
      ],
      "stateMutability": "view",
      "type": "function",
      "constant": true
    },
    {
      "inputs": [
        {
          "internalType": "uint256",
          "name": "index",
          "type": "uint256"
        }
      ],
      "name": "tokenByIndex",
      "outputs": [
        {
          "internalType": "uint256",
          "name": "",
          "type": "uint256"
        }
      ],
      "stateMutability": "view",
      "type": "function",
      "constant": true
    },
    {
      "inputs": [
        {
          "internalType": "address",
          "name": "owner",
          "type": "address"
        },
        {
          "internalType": "uint256",
          "name": "index",
          "type": "uint256"
        }
      ],
      "name": "tokenOfOwnerByIndex",
      "outputs": [
        {
          "internalType": "uint256",
          "name": "",
          "type": "uint256"
        }
      ],
      "stateMutability": "view",
      "type": "function",
      "constant": true
    },
    {
      "inputs": [
        {
          "internalType": "uint256",
          "name": "tokenId",
          "type": "uint256"
        }
      ],
      "name": "tokenURI",
      "outputs": [
        {
          "internalType": "string",
          "name": "",
          "type": "string"
        }
      ],
      "stateMutability": "view",
      "type": "function",
      "constant": true
    },
    {
      "inputs": [],
      "name": "totalSupply",
      "outputs": [
        {
          "internalType": "uint256",
          "name": "",
          "type": "uint256"
        }
      ],
      "stateMutability": "view",
      "type": "function",
      "constant": true
    },
    {
      "inputs": [
        {
          "internalType": "address",
          "name": "from",
          "type": "address"
        },
        {
          "internalType": "address",
          "name": "to",
          "type": "address"
        },
        {
          "internalType": "uint256",
          "name": "tokenId",
          "type": "uint256"
        }
      ],
      "name": "transferFrom",
      "outputs": [],
      "stateMutability": "nonpayable",
      "type": "function"
    },
    {
      "inputs": [
        {
          "internalType": "string",
          "name": "_imageURL",
          "type": "string"
        },
        {
          "internalType": "string",
          "name": "_name",
          "type": "string"
        },
        {
          "internalType": "string",
          "name": "_description",
          "type": "string"
        }
      ],
      "name": "createCollection",
      "outputs": [
        {
          "internalType": "bool",
          "name": "success",
          "type": "bool"
        }
      ],
      "stateMutability": "nonpayable",
      "type": "function"
    },
    {
      "inputs": [
        {
          "internalType": "uint256",
          "name": "_tokenId",
          "type": "uint256"
        },
        {
          "internalType": "address",
          "name": "_owner",
          "type": "address"
        }
      ],
      "name": "getCollection",
      "outputs": [
        {
          "internalType": "string",
          "name": "_imageURL",
          "type": "string"
        },
        {
          "internalType": "string",
          "name": "_name",
          "type": "string"
        },
        {
          "internalType": "string",
          "name": "_description",
          "type": "string"
        }
      ],
      "stateMutability": "view",
      "type": "function",
      "constant": true
    },
    {
      "inputs": [
        {
          "internalType": "address",
          "name": "_owner",
          "type": "address"
        }
      ],
      "name": "getCollectionCount",
      "outputs": [
        {
          "internalType": "uint256",
          "name": "count",
          "type": "uint256"
        }
      ],
      "stateMutability": "view",
      "type": "function",
      "constant": true
    }
  ],
  "bytecode": "0x60806040526000600c556000600e553480156200001b57600080fd5b506040518060400160405280601381526020017f41727446756e647320436f6c6c656374696f6e000000000000000000000000008152506040518060400160405280600281526020017f4342000000000000000000000000000000000000000000000000000000000000815250620000a06301ffc9a760e01b6200017260201b60201c565b8160069080519060200190620000b8929190620003c7565b508060079080519060200190620000d1929190620003c7565b50620000ea6380ac58cd60e01b6200017260201b60201c565b62000102635b5e139f60e01b6200017260201b60201c565b6200011a63780e9d6360e01b6200017260201b60201c565b50506200012c6200027b60201b60201c565b600a908051906020019062000143929190620003c7565b50620001546200032160201b60201c565b600b90805190602001906200016b929190620003c7565b506200047d565b63ffffffff60e01b817bffffffffffffffffffffffffffffffffffffffffffffffffffffffff191614156200020f576040517f08c379a000000000000000000000000000000000000000000000000000000000815260040180806020018281038252601c8152602001807f4552433136353a20696e76616c696420696e746572666163652069640000000081525060200191505060405180910390fd5b6001600080837bffffffffffffffffffffffffffffffffffffffffffffffffffffffff19167bffffffffffffffffffffffffffffffffffffffffffffffffffffffff1916815260200190815260200160002060006101000a81548160ff02191690831515021790555050565b606060068054600181600116156101000203166002900480601f016020809104026020016040519081016040528092919081815260200182805460018160011615610100020316600290048015620003175780601f10620002eb5761010080835404028352916020019162000317565b820191906000526020600020905b815481529060010190602001808311620002f957829003601f168201915b5050505050905090565b606060078054600181600116156101000203166002900480601f016020809104026020016040519081016040528092919081815260200182805460018160011615610100020316600290048015620003bd5780601f106200039157610100808354040283529160200191620003bd565b820191906000526020600020905b8154815290600101906020018083116200039f57829003601f168201915b5050505050905090565b828054600181600116156101000203166002900490600052602060002090601f016020900481019282620003ff57600085556200044b565b82601f106200041a57805160ff19168380011785556200044b565b828001600101855582156200044b579182015b828111156200044a5782518255916020019190600101906200042d565b5b5090506200045a91906200045e565b5090565b5b80821115620004795760008160009055506001016200045f565b5090565b61375a806200048d6000396000f3fe608060405234801561001057600080fd5b50600436106101735760003560e01c806354515bb6116100de578063a22cb46511610097578063d5f45a7d11610071578063d5f45a7d1461049d578063e5326ab1146104d6578063e985e9c5146104f4578063ece86c211461052457610173565b8063a22cb46514610435578063b88d4fde14610451578063c87b56dd1461046d57610173565b806354515bb61461034b5780636352211e1461037b5780636c0360eb146103ab5780636f9507f9146103c957806370a08231146103e757806395d89b411461041757610173565b806323b872dd1161013057806323b872dd146102625780632f745c591461027e57806339b5f830146102ae57806342842e0e146102e15780634f6ccce7146102fd5780635187a82d1461032d57610173565b806301188b3f1461017857806301ffc9a7146101aa57806306fdde03146101da578063081812fc146101f8578063095ea7b31461022857806318160ddd14610244575b600080fd5b610192600480360381019061018d9190612fd2565b610554565b6040516101a1939291906130ea565b60405180910390f35b6101c460048036038101906101bf9190612ee9565b61083a565b6040516101d191906130ad565b60405180910390f35b6101e26108a1565b6040516101ef91906130c8565b60405180910390f35b610212600480360381019061020d9190612fa9565b610943565b60405161021f9190613092565b60405180910390f35b610242600480360381019061023d9190612ead565b6109de565b005b61024c610b22565b6040516102599190613136565b60405180910390f35b61027c60048036038101906102779190612da7565b610b33565b005b61029860048036038101906102939190612ead565b610ba9565b6040516102a59190613136565b60405180910390f35b6102c860048036038101906102c39190612ead565b610c04565b6040516102d894939291906131b9565b60405180910390f35b6102fb60048036038101906102f69190612da7565b610e19565b005b61031760048036038101906103129190612fa9565b610e39565b6040516103249190613136565b60405180910390f35b610335610e5c565b6040516103429190613136565b60405180910390f35b61036560048036038101906103609190612d42565b610e62565b6040516103729190613136565b60405180910390f35b61039560048036038101906103909190612fa9565b610ea7565b6040516103a29190613092565b60405180910390f35b6103b3610ede565b6040516103c091906130c8565b60405180910390f35b6103d1610f80565b6040516103de91906130c8565b60405180910390f35b61040160048036038101906103fc9190612d42565b61101e565b60405161040e9190613136565b60405180910390f35b61041f6110f3565b60405161042c91906130c8565b60405180910390f35b61044f600480360381019061044a9190612e71565b611195565b005b61046b60048036038101906104669190612df6565b61134b565b005b61048760048036038101906104829190612fa9565b6113c3565b60405161049491906130c8565b60405180910390f35b6104b760048036038101906104b29190612ead565b611694565b6040516104cd9a99989796959493929190613213565b60405180910390f35b6104de6118a2565b6040516104eb91906130c8565b60405180910390f35b61050e60048036038101906105099190612d6b565b611940565b60405161051b91906130ad565b60405180910390f35b61053e60048036038101906105399190612f12565b6119d4565b60405161054b91906130ad565b60405180910390f35b6060806060600073ffffffffffffffffffffffffffffffffffffffff168473ffffffffffffffffffffffffffffffffffffffff16141561059357600080fd5b60008510156105a157600080fd5b6000600d60008673ffffffffffffffffffffffffffffffffffffffff1673ffffffffffffffffffffffffffffffffffffffff16815260200190815260200160002080549050116105f057600080fd5b6000600d60008673ffffffffffffffffffffffffffffffffffffffff1673ffffffffffffffffffffffffffffffffffffffff168152602001908152602001600020868154811061063c57fe5b90600052602060002090600402019050806001018160020182600301828054600181600116156101000203166002900480601f0160208091040260200160405190810160405280929190818152602001828054600181600116156101000203166002900480156106ed5780601f106106c2576101008083540402835291602001916106ed565b820191906000526020600020905b8154815290600101906020018083116106d057829003601f168201915b50505050509250818054600181600116156101000203166002900480601f0160208091040260200160405190810160405280929190818152602001828054600181600116156101000203166002900480156107895780601f1061075e57610100808354040283529160200191610789565b820191906000526020600020905b81548152906001019060200180831161076c57829003601f168201915b50505050509150808054600181600116156101000203166002900480601f0160208091040260200160405190810160405280929190818152602001828054600181600116156101000203166002900480156108255780601f106107fa57610100808354040283529160200191610825565b820191906000526020600020905b81548152906001019060200180831161080857829003601f168201915b50505050509050935093509350509250925092565b6000806000837bffffffffffffffffffffffffffffffffffffffffffffffffffffffff19167bffffffffffffffffffffffffffffffffffffffffffffffffffffffff1916815260200190815260200160002060009054906101000a900460ff169050919050565b606060068054600181600116156101000203166002900480601f0160208091040260200160405190810160405280929190818152602001828054600181600116156101000203166002900480156109395780601f1061090e57610100808354040283529160200191610939565b820191906000526020600020905b81548152906001019060200180831161091c57829003601f168201915b5050505050905090565b600061094e82611b28565b6109a3576040517f08c379a000000000000000000000000000000000000000000000000000000000815260040180806020018281038252602c81526020018061364f602c913960400191505060405180910390fd5b6004600083815260200190815260200160002060009054906101000a900473ffffffffffffffffffffffffffffffffffffffff169050919050565b60006109e982610ea7565b90508073ffffffffffffffffffffffffffffffffffffffff168373ffffffffffffffffffffffffffffffffffffffff161415610a70576040517f08c379a00000000000000000000000000000000000000000000000000000000081526004018080602001828103825260218152602001806136d36021913960400191505060405180910390fd5b8073ffffffffffffffffffffffffffffffffffffffff16610a8f611b45565b73ffffffffffffffffffffffffffffffffffffffff161480610abe5750610abd81610ab8611b45565b611940565b5b610b13576040517f08c379a00000000000000000000000000000000000000000000000000000000081526004018080602001828103825260388152602001806135a26038913960400191505060405180910390fd5b610b1d8383611b4d565b505050565b6000610b2e6002611c06565b905090565b610b44610b3e611b45565b82611c1b565b610b99576040517f08c379a00000000000000000000000000000000000000000000000000000000081526004018080602001828103825260318152602001806136f46031913960400191505060405180910390fd5b610ba4838383611d0f565b505050565b6000610bfc82600160008673ffffffffffffffffffffffffffffffffffffffff1673ffffffffffffffffffffffffffffffffffffffff168152602001908152602001600020611f5290919063ffffffff16565b905092915050565b600d6020528160005260406000208181548110610c2057600080fd5b906000526020600020906004020160009150915050806000015490806001018054600181600116156101000203166002900480601f016020809104026020016040519081016040528092919081815260200182805460018160011615610100020316600290048015610cd35780601f10610ca857610100808354040283529160200191610cd3565b820191906000526020600020905b815481529060010190602001808311610cb657829003601f168201915b505050505090806002018054600181600116156101000203166002900480601f016020809104026020016040519081016040528092919081815260200182805460018160011615610100020316600290048015610d715780601f10610d4657610100808354040283529160200191610d71565b820191906000526020600020905b815481529060010190602001808311610d5457829003601f168201915b505050505090806003018054600181600116156101000203166002900480601f016020809104026020016040519081016040528092919081815260200182805460018160011615610100020316600290048015610e0f5780601f10610de457610100808354040283529160200191610e0f565b820191906000526020600020905b815481529060010190602001808311610df257829003601f168201915b5050505050905084565b610e348383836040518060200160405280600081525061134b565b505050565b600080610e50836002611f6c90919063ffffffff16565b50905080915050919050565b600c5481565b60008073ffffffffffffffffffffffffffffffffffffffff168273ffffffffffffffffffffffffffffffffffffffff161415610e9d57600080fd5b600c549050919050565b6000610ed782604051806060016040528060298152602001613604602991396002611f989092919063ffffffff16565b9050919050565b606060098054600181600116156101000203166002900480601f016020809104026020016040519081016040528092919081815260200182805460018160011615610100020316600290048015610f765780601f10610f4b57610100808354040283529160200191610f76565b820191906000526020600020905b815481529060010190602001808311610f5957829003601f168201915b5050505050905090565b600b8054600181600116156101000203166002900480601f0160208091040260200160405190810160405280929190818152602001828054600181600116156101000203166002900480156110165780601f10610feb57610100808354040283529160200191611016565b820191906000526020600020905b815481529060010190602001808311610ff957829003601f168201915b505050505081565b60008073ffffffffffffffffffffffffffffffffffffffff168273ffffffffffffffffffffffffffffffffffffffff1614156110a5576040517f08c379a000000000000000000000000000000000000000000000000000000000815260040180806020018281038252602a8152602001806135da602a913960400191505060405180910390fd5b6110ec600160008473ffffffffffffffffffffffffffffffffffffffff1673ffffffffffffffffffffffffffffffffffffffff168152602001908152602001600020611fb7565b9050919050565b606060078054600181600116156101000203166002900480601f01602080910402602001604051908101604052809291908181526020018280546001816001161561010002031660029004801561118b5780601f106111605761010080835404028352916020019161118b565b820191906000526020600020905b81548152906001019060200180831161116e57829003601f168201915b5050505050905090565b61119d611b45565b73ffffffffffffffffffffffffffffffffffffffff168273ffffffffffffffffffffffffffffffffffffffff16141561123e576040517f08c379a00000000000000000000000000000000000000000000000000000000081526004018080602001828103825260198152602001807f4552433732313a20617070726f766520746f2063616c6c65720000000000000081525060200191505060405180910390fd5b806005600061124b611b45565b73ffffffffffffffffffffffffffffffffffffffff1673ffffffffffffffffffffffffffffffffffffffff16815260200190815260200160002060008473ffffffffffffffffffffffffffffffffffffffff1673ffffffffffffffffffffffffffffffffffffffff16815260200190815260200160002060006101000a81548160ff0219169083151502179055508173ffffffffffffffffffffffffffffffffffffffff166112f8611b45565b73ffffffffffffffffffffffffffffffffffffffff167f17307eab39ab6107e8899845ad3d59bd9653f200f220920489ca2b5937696c318360405180821515815260200191505060405180910390a35050565b61135c611356611b45565b83611c1b565b6113b1576040517f08c379a00000000000000000000000000000000000000000000000000000000081526004018080602001828103825260318152602001806136f46031913960400191505060405180910390fd5b6113bd84848484611fcc565b50505050565b60606113ce82611b28565b611423576040517f08c379a000000000000000000000000000000000000000000000000000000000815260040180806020018281038252602f8152602001806136a4602f913960400191505060405180910390fd5b6000600860008481526020019081526020016000208054600181600116156101000203166002900480601f0160208091040260200160405190810160405280929190818152602001828054600181600116156101000203166002900480156114cc5780601f106114a1576101008083540402835291602001916114cc565b820191906000526020600020905b8154815290600101906020018083116114af57829003601f168201915b5050505050905060006114dd610ede565b90506000815114156114f357819250505061168f565b6000825111156115c45780826040516020018083805190602001908083835b602083106115355780518252602082019150602081019050602083039250611512565b6001836020036101000a03801982511681845116808217855250505050505090500182805190602001908083835b602083106115865780518252602082019150602081019050602083039250611563565b6001836020036101000a038019825116818451168082178552505050505050905001925050506040516020818303038152906040529250505061168f565b806115ce8561203e565b6040516020018083805190602001908083835b6020831061160457805182526020820191506020810190506020830392506115e1565b6001836020036101000a03801982511681845116808217855250505050505090500182805190602001908083835b602083106116555780518252602082019150602081019050602083039250611632565b6001836020036101000a03801982511681845116808217855250505050505090500192505050604051602081830303815290604052925050505b919050565b600f60205281600052604060002081815481106116b057600080fd5b90600052602060002090600a020160009150915050806000015490806001015490806002018054600181600116156101000203166002900480601f0160208091040260200160405190810160405280929190818152602001828054600181600116156101000203166002900480156117695780601f1061173e57610100808354040283529160200191611769565b820191906000526020600020905b81548152906001019060200180831161174c57829003601f168201915b5050505050908060030160009054906101000a900473ffffffffffffffffffffffffffffffffffffffff16908060040160009054906101000a900473ffffffffffffffffffffffffffffffffffffffff16908060050160009054906101000a900473ffffffffffffffffffffffffffffffffffffffff1690806006015490806007018054600181600116156101000203166002900480601f01602080910402602001604051908101604052809291908181526020018280546001816001161561010002031660029004801561187f5780601f106118545761010080835404028352916020019161187f565b820191906000526020600020905b81548152906001019060200180831161186257829003601f168201915b5050505050908060080154908060090160009054906101000a900460ff1690508a565b600a8054600181600116156101000203166002900480601f0160208091040260200160405190810160405280929190818152602001828054600181600116156101000203166002900480156119385780601f1061190d57610100808354040283529160200191611938565b820191906000526020600020905b81548152906001019060200180831161191b57829003601f168201915b505050505081565b6000600560008473ffffffffffffffffffffffffffffffffffffffff1673ffffffffffffffffffffffffffffffffffffffff16815260200190815260200160002060008373ffffffffffffffffffffffffffffffffffffffff1673ffffffffffffffffffffffffffffffffffffffff16815260200190815260200160002060009054906101000a900460ff16905092915050565b6000600c6000815480929190600101919050555060006040518060800160405280600c548152602001868152602001858152602001848152509050600d60003373ffffffffffffffffffffffffffffffffffffffff1673ffffffffffffffffffffffffffffffffffffffff168152602001908152602001600020819080600181540180825580915050600190039060005260206000209060040201600090919091909150600082015181600001556020820151816001019080519060200190611a9e929190612b73565b506040820151816002019080519060200190611abb929190612b73565b506060820151816003019080519060200190611ad8929190612b73565b5050507fefbd145fea57de09a0db3eea45c2b6b13a53246bff3d28eaf26c5b4b1ece83f8600c5486863387604051611b14959493929190613151565b60405180910390a160019150509392505050565b6000611b3e82600261218590919063ffffffff16565b9050919050565b600033905090565b816004600083815260200190815260200160002060006101000a81548173ffffffffffffffffffffffffffffffffffffffff021916908373ffffffffffffffffffffffffffffffffffffffff160217905550808273ffffffffffffffffffffffffffffffffffffffff16611bc083610ea7565b73ffffffffffffffffffffffffffffffffffffffff167f8c5be1e5ebec7d5bd14f71427d1e84f3dd0314c0f7b2291e5b200ac8c7c3b92560405160405180910390a45050565b6000611c148260000161219f565b9050919050565b6000611c2682611b28565b611c7b576040517f08c379a000000000000000000000000000000000000000000000000000000000815260040180806020018281038252602c815260200180613576602c913960400191505060405180910390fd5b6000611c8683610ea7565b90508073ffffffffffffffffffffffffffffffffffffffff168473ffffffffffffffffffffffffffffffffffffffff161480611cf557508373ffffffffffffffffffffffffffffffffffffffff16611cdd84610943565b73ffffffffffffffffffffffffffffffffffffffff16145b80611d065750611d058185611940565b5b91505092915050565b8273ffffffffffffffffffffffffffffffffffffffff16611d2f82610ea7565b73ffffffffffffffffffffffffffffffffffffffff1614611d9b576040517f08c379a000000000000000000000000000000000000000000000000000000000815260040180806020018281038252602981526020018061367b6029913960400191505060405180910390fd5b600073ffffffffffffffffffffffffffffffffffffffff168273ffffffffffffffffffffffffffffffffffffffff161415611e21576040517f08c379a000000000000000000000000000000000000000000000000000000000815260040180806020018281038252602481526020018061352c6024913960400191505060405180910390fd5b611e2c8383836121b0565b611e37600082611b4d565b611e8881600160008673ffffffffffffffffffffffffffffffffffffffff1673ffffffffffffffffffffffffffffffffffffffff1681526020019081526020016000206121b590919063ffffffff16565b50611eda81600160008573ffffffffffffffffffffffffffffffffffffffff1673ffffffffffffffffffffffffffffffffffffffff1681526020019081526020016000206121cf90919063ffffffff16565b50611ef1818360026121e99092919063ffffffff16565b50808273ffffffffffffffffffffffffffffffffffffffff168473ffffffffffffffffffffffffffffffffffffffff167fddf252ad1be2c89b69c2b068fc378daa952ba7f163c4a11628f55a4df523b3ef60405160405180910390a4505050565b6000611f61836000018361221e565b60001c905092915050565b600080600080611f7f86600001866122a1565b915091508160001c8160001c9350935050509250929050565b6000611fab846000018460001b8461233a565b60001c90509392505050565b6000611fc582600001612430565b9050919050565b611fd7848484611d0f565b611fe384848484612441565b612038576040517f08c379a00000000000000000000000000000000000000000000000000000000081526004018080602001828103825260328152602001806134fa6032913960400191505060405180910390fd5b50505050565b60606000821415612086576040518060400160405280600181526020017f30000000000000000000000000000000000000000000000000000000000000008152509050612180565b600082905060005b600082146120b0578080600101915050600a82816120a857fe5b04915061208e565b60008167ffffffffffffffff811180156120c957600080fd5b506040519080825280601f01601f1916602001820160405280156120fc5781602001600182028036833780820191505090505b50905060006001830390508593505b6000841461217857600a848161211d57fe5b0660300160f81b8282806001900393508151811061213757fe5b60200101907effffffffffffffffffffffffffffffffffffffffffffffffffffffffffffff1916908160001a905350600a848161217057fe5b04935061210b565b819450505050505b919050565b6000612197836000018360001b61265a565b905092915050565b600081600001805490509050919050565b505050565b60006121c7836000018360001b61267d565b905092915050565b60006121e1836000018360001b612765565b905092915050565b6000612215846000018460001b8473ffffffffffffffffffffffffffffffffffffffff1660001b6127d5565b90509392505050565b60008183600001805490501161227f576040517f08c379a00000000000000000000000000000000000000000000000000000000081526004018080602001828103825260228152602001806134d86022913960400191505060405180910390fd5b82600001828154811061228e57fe5b9060005260206000200154905092915050565b60008082846000018054905011612303576040517f08c379a000000000000000000000000000000000000000000000000000000000815260040180806020018281038252602281526020018061362d6022913960400191505060405180910390fd5b600084600001848154811061231457fe5b906000526020600020906002020190508060000154816001015492509250509250929050565b60008084600101600085815260200190815260200160002054905060008114158390612401576040517f08c379a00000000000000000000000000000000000000000000000000000000081526004018080602001828103825283818151815260200191508051906020019080838360005b838110156123c65780820151818401526020810190506123ab565b50505050905090810190601f1680156123f35780820380516001836020036101000a031916815260200191505b509250505060405180910390fd5b5084600001600182038154811061241457fe5b9060005260206000209060020201600101549150509392505050565b600081600001805490509050919050565b60006124628473ffffffffffffffffffffffffffffffffffffffff166128b1565b61246f5760019050612652565b60006125d963150b7a0260e01b612484611b45565b888787604051602401808573ffffffffffffffffffffffffffffffffffffffff1681526020018473ffffffffffffffffffffffffffffffffffffffff16815260200183815260200180602001828103825283818151815260200191508051906020019080838360005b838110156125085780820151818401526020810190506124ed565b50505050905090810190601f1680156125355780820380516001836020036101000a031916815260200191505b5095505050505050604051602081830303815290604052907bffffffffffffffffffffffffffffffffffffffffffffffffffffffff19166020820180517bffffffffffffffffffffffffffffffffffffffffffffffffffffffff83818316178352505050506040518060600160405280603281526020016134fa603291398773ffffffffffffffffffffffffffffffffffffffff166128c49092919063ffffffff16565b905060008180602001905160208110156125f257600080fd5b8101908080519060200190929190505050905063150b7a0260e01b7bffffffffffffffffffffffffffffffffffffffffffffffffffffffff1916817bffffffffffffffffffffffffffffffffffffffffffffffffffffffff191614925050505b949350505050565b600080836001016000848152602001908152602001600020541415905092915050565b6000808360010160008481526020019081526020016000205490506000811461275957600060018203905060006001866000018054905003905060008660000182815481106126c857fe5b90600052602060002001549050808760000184815481106126e557fe5b906000526020600020018190555060018301876001016000838152602001908152602001600020819055508660000180548061271d57fe5b6001900381819060005260206000200160009055905586600101600087815260200190815260200160002060009055600194505050505061275f565b60009150505b92915050565b600061277183836128dc565b6127ca5782600001829080600181540180825580915050600190039060005260206000200160009091909190915055826000018054905083600101600084815260200190815260200160002081905550600190506127cf565b600090505b92915050565b600080846001016000858152602001908152602001600020549050600081141561287c578460000160405180604001604052808681526020018581525090806001815401808255809150506001900390600052602060002090600202016000909190919091506000820151816000015560208201518160010155505084600001805490508560010160008681526020019081526020016000208190555060019150506128aa565b8285600001600183038154811061288f57fe5b90600052602060002090600202016001018190555060009150505b9392505050565b600080823b905060008111915050919050565b60606128d384846000856128ff565b90509392505050565b600080836001016000848152602001908152602001600020541415905092915050565b60608247101561295a576040517f08c379a00000000000000000000000000000000000000000000000000000000081526004018080602001828103825260268152602001806135506026913960400191505060405180910390fd5b612963856128b1565b6129d5576040517f08c379a000000000000000000000000000000000000000000000000000000000815260040180806020018281038252601d8152602001807f416464726573733a2063616c6c20746f206e6f6e2d636f6e747261637400000081525060200191505060405180910390fd5b6000808673ffffffffffffffffffffffffffffffffffffffff1685876040518082805190602001908083835b60208310612a245780518252602082019150602081019050602083039250612a01565b6001836020036101000a03801982511681845116808217855250505050505090500191505060006040518083038185875af1925050503d8060008114612a86576040519150601f19603f3d011682016040523d82523d6000602084013e612a8b565b606091505b5091509150612a9b828286612aa7565b92505050949350505050565b60608315612ab757829050612b6c565b600083511115612aca5782518084602001fd5b816040517f08c379a00000000000000000000000000000000000000000000000000000000081526004018080602001828103825283818151815260200191508051906020019080838360005b83811015612b31578082015181840152602081019050612b16565b50505050905090810190601f168015612b5e5780820380516001836020036101000a031916815260200191505b509250505060405180910390fd5b9392505050565b828054600181600116156101000203166002900490600052602060002090601f016020900481019282612ba95760008555612bf0565b82601f10612bc257805160ff1916838001178555612bf0565b82800160010185558215612bf0579182015b82811115612bef578251825591602001919060010190612bd4565b5b509050612bfd9190612c01565b5090565b5b80821115612c1a576000816000905550600101612c02565b5090565b6000612c31612c2c846132ee565b6132bd565b905082815260208101848484011115612c4957600080fd5b612c54848285613426565b509392505050565b6000612c6f612c6a8461331e565b6132bd565b905082815260208101848484011115612c8757600080fd5b612c92848285613426565b509392505050565b600081359050612ca98161347b565b92915050565b600081359050612cbe81613492565b92915050565b600081359050612cd3816134a9565b92915050565b600082601f830112612cea57600080fd5b8135612cfa848260208601612c1e565b91505092915050565b600082601f830112612d1457600080fd5b8135612d24848260208601612c5c565b91505092915050565b600081359050612d3c816134c0565b92915050565b600060208284031215612d5457600080fd5b6000612d6284828501612c9a565b91505092915050565b60008060408385031215612d7e57600080fd5b6000612d8c85828601612c9a565b9250506020612d9d85828601612c9a565b9150509250929050565b600080600060608486031215612dbc57600080fd5b6000612dca86828701612c9a565b9350506020612ddb86828701612c9a565b9250506040612dec86828701612d2d565b9150509250925092565b60008060008060808587031215612e0c57600080fd5b6000612e1a87828801612c9a565b9450506020612e2b87828801612c9a565b9350506040612e3c87828801612d2d565b925050606085013567ffffffffffffffff811115612e5957600080fd5b612e6587828801612cd9565b91505092959194509250565b60008060408385031215612e8457600080fd5b6000612e9285828601612c9a565b9250506020612ea385828601612caf565b9150509250929050565b60008060408385031215612ec057600080fd5b6000612ece85828601612c9a565b9250506020612edf85828601612d2d565b9150509250929050565b600060208284031215612efb57600080fd5b6000612f0984828501612cc4565b91505092915050565b600080600060608486031215612f2757600080fd5b600084013567ffffffffffffffff811115612f4157600080fd5b612f4d86828701612d03565b935050602084013567ffffffffffffffff811115612f6a57600080fd5b612f7686828701612d03565b925050604084013567ffffffffffffffff811115612f9357600080fd5b612f9f86828701612d03565b9150509250925092565b600060208284031215612fbb57600080fd5b6000612fc984828501612d2d565b91505092915050565b60008060408385031215612fe557600080fd5b6000612ff385828601612d2d565b925050602061300485828601612c9a565b9150509250929050565b613017816133f0565b82525050565b6130268161337c565b82525050565b6130358161336a565b82525050565b6130448161338e565b82525050565b60006130558261334e565b61305f8185613359565b935061306f818560208601613435565b6130788161346a565b840191505092915050565b61308c816133e6565b82525050565b60006020820190506130a7600083018461302c565b92915050565b60006020820190506130c2600083018461303b565b92915050565b600060208201905081810360008301526130e2818461304a565b905092915050565b60006060820190508181036000830152613104818661304a565b90508181036020830152613118818561304a565b9050818103604083015261312c818461304a565b9050949350505050565b600060208201905061314b6000830184613083565b92915050565b600060a0820190506131666000830188613083565b8181036020830152613178818761304a565b9050818103604083015261318c818661304a565b905061319b606083018561300e565b81810360808301526131ad818461304a565b90509695505050505050565b60006080820190506131ce6000830187613083565b81810360208301526131e0818661304a565b905081810360408301526131f4818561304a565b90508181036060830152613208818461304a565b905095945050505050565b600061014082019050613229600083018d613083565b613236602083018c613083565b8181036040830152613248818b61304a565b9050613257606083018a61301d565b613264608083018961301d565b61327160a083018861301d565b61327e60c0830187613083565b81810360e0830152613290818661304a565b90506132a0610100830185613083565b6132ae61012083018461303b565b9b9a5050505050505050505050565b6000604051905081810181811067ffffffffffffffff821117156132e4576132e3613468565b5b8060405250919050565b600067ffffffffffffffff82111561330957613308613468565b5b601f19601f8301169050602081019050919050565b600067ffffffffffffffff82111561333957613338613468565b5b601f19601f8301169050602081019050919050565b600081519050919050565b600082825260208201905092915050565b6000613375826133c6565b9050919050565b6000613387826133c6565b9050919050565b60008115159050919050565b60007fffffffff0000000000000000000000000000000000000000000000000000000082169050919050565b600073ffffffffffffffffffffffffffffffffffffffff82169050919050565b6000819050919050565b60006133fb82613402565b9050919050565b600061340d82613414565b9050919050565b600061341f826133c6565b9050919050565b82818337600083830152505050565b60005b83811015613453578082015181840152602081019050613438565b83811115613462576000848401525b50505050565bfe5b6000601f19601f8301169050919050565b6134848161336a565b811461348f57600080fd5b50565b61349b8161338e565b81146134a657600080fd5b50565b6134b28161339a565b81146134bd57600080fd5b50565b6134c9816133e6565b81146134d457600080fd5b5056fe456e756d657261626c655365743a20696e646578206f7574206f6620626f756e64734552433732313a207472616e7366657220746f206e6f6e20455243373231526563656976657220696d706c656d656e7465724552433732313a207472616e7366657220746f20746865207a65726f2061646472657373416464726573733a20696e73756666696369656e742062616c616e636520666f722063616c6c4552433732313a206f70657261746f7220717565727920666f72206e6f6e6578697374656e7420746f6b656e4552433732313a20617070726f76652063616c6c6572206973206e6f74206f776e6572206e6f7220617070726f76656420666f7220616c6c4552433732313a2062616c616e636520717565727920666f7220746865207a65726f20616464726573734552433732313a206f776e657220717565727920666f72206e6f6e6578697374656e7420746f6b656e456e756d657261626c654d61703a20696e646578206f7574206f6620626f756e64734552433732313a20617070726f76656420717565727920666f72206e6f6e6578697374656e7420746f6b656e4552433732313a207472616e73666572206f6620746f6b656e2074686174206973206e6f74206f776e4552433732314d657461646174613a2055524920717565727920666f72206e6f6e6578697374656e7420746f6b656e4552433732313a20617070726f76616c20746f2063757272656e74206f776e65724552433732313a207472616e736665722063616c6c6572206973206e6f74206f776e6572206e6f7220617070726f766564a2646970667358221220171c7195784607eb3f0e5aef69455596c67eb6b6908de2156f80c44eac0f0aec64736f6c63430007060033",
  "immutableReferences": {},
  "source": "//import ERC721 interface\r\nimport \"./ERC721.sol\";\r\n\r\npragma abicoder v2;\r\npragma solidity >=0.6.0 <0.8.0;\r\n\r\n//implement\r\ncontract ArtFundsStorage is ERC721 {\r\n    // this contract's token collection name\r\n    string public collectionName;\r\n    // this contract's token symbol\r\n    string public collectionNameSymbol;\r\n\r\n    struct Collection {\r\n        uint256 tokenId;\r\n        string imageURL;\r\n        string name;\r\n        string description;\r\n    }\r\n\r\n    uint256 public collectionCounter = 0;\r\n    mapping(address => Collection[]) public ownerCollections;\r\n    // uint256[] collections;\r\n\r\n    struct DigitalItem {\r\n        uint256 tokenId;\r\n        uint256 collectionID;\r\n        string name;\r\n        address payable mintedBy;\r\n        address payable currentOwner;\r\n        address payable previousOwner;\r\n        uint256 price;\r\n        string imageURL;\r\n        uint256 numberOfTransfers;\r\n        bool forSale;\r\n    }\r\n\r\n    uint256 digitalItemCounter = 0;\r\n    mapping(address => DigitalItem[]) public ownerDigitalItems;\r\n    // uint256[] digitalItems;\r\n\r\n    event ItemCreated(\r\n        uint256 id,\r\n        string name,\r\n        address mintedBy,\r\n        address currentOwner,\r\n        address previousOwner,\r\n        uint256 price,\r\n        string imageURL,\r\n        uint256 numberOfTransfers,\r\n        bool forSale\r\n    );\r\n\r\n    event ItemForSale(uint256 id, bool forSale);\r\n\r\n    event CollectionCreated(\r\n        uint256 tokenId,\r\n        string imageURL,\r\n        string name,\r\n        address ownedBy,\r\n        string description\r\n    );\r\n\r\n    // initialize contract while deployment with contract's collection name and token\r\n    constructor() ERC721(\"ArtFunds Collection\", \"CB\") {\r\n        collectionName = name();\r\n        collectionNameSymbol = symbol();\r\n    }\r\n\r\n    // mint a new digital item\r\n    // function mintDigitalItem(\r\n    //     string memory _name,\r\n    //     uint256 _price,\r\n    //     string memory _imageURL,\r\n    //     uint256 _numberOfTransfers,\r\n    //     bool _forSale\r\n    // ) external {\r\n    //     // check if thic fucntion caller is not an zero address account\r\n    //     require(msg.sender != address(0));\r\n    //     // increment counter\r\n    //     digitalItemCounter++;\r\n    //     // check if a token exists with the above token id => incremented counter\r\n    //     require(!_exists(digitalItemCounter));\r\n\r\n    //     // mint the token\r\n    //     _mint(msg.sender, digitalItemCounter);\r\n\r\n    //     DigitalItem memory newDigitalItem = DigitalItem(\r\n    //         digitalItemCounter,\r\n    //         _name,\r\n    //         msg.sender,\r\n    //         msg.sender,\r\n    //         msg.sender,\r\n    //         _price,\r\n    //         _imageURL,\r\n    //         0,\r\n    //         true\r\n    //     );\r\n    //     ownerDigitalItems[msg.sender].push(newDigitalItem);\r\n    // }\r\n\r\n    // function updateCurrentOwnerDigitalItem(\r\n    //     address _owner,\r\n    //     address payable _newOwner,\r\n    //     uint256 _tokenId\r\n    // ) public returns (bool success) {\r\n    //     require(_owner != address(0x0));\r\n    //     require(_newOwner != address(0x0));\r\n    //     require(_tokenId >= 0);\r\n    //     DigitalItem storage digitalItem = ownerDigitalItems[_owner][_tokenId];\r\n    //     digitalItem.previousOwner = digitalItem.currentOwner;\r\n    //     digitalItem.currentOwner = _newOwner;\r\n    //     return true;\r\n    // }\r\n\r\n    // function updateInfoBasicDigitalItem(\r\n    //     address _owner,\r\n    //     uint256 _tokenId,\r\n    //     string memory _name,\r\n    //     uint256 _price,\r\n    //     string memory _imageURL,\r\n    //     uint256 _numberOfTransfers,\r\n    //     bool _forSale\r\n    // ) public returns (bool success) {\r\n    //     require(_owner != address(0x0));\r\n    //     require(_tokenId >= 0);\r\n    //     require(ownerDigitalItems[_owner].length > 0);\r\n    //     DigitalItem storage digitalItem = ownerDigitalItems[_owner][_tokenId];\r\n    //     digitalItem.imageURL = _imageURL;\r\n    //     digitalItem.name = _name;\r\n    //     digitalItem.price = _price;\r\n    //     digitalItem.forSale = _forSale;\r\n    //     digitalItem.numberOfTransfers = _numberOfTransfers;\r\n    //     return true;\r\n    // }\r\n\r\n    // function getDigitalItem(uint256 _tokenId, address _owner)\r\n    //     public\r\n    //     view\r\n    //     returns (\r\n    //         string memory _name,\r\n    //         address _mintedBy,\r\n    //         address _currentOwner,\r\n    //         address _previousOwner,\r\n    //         uint256 _price,\r\n    //         string memory _imageURL,\r\n    //         uint256 _numberOfTransfers,\r\n    //         bool _forSale\r\n    //     )\r\n    // {\r\n    //     require(_owner != address(0x0));\r\n    //     require(_tokenId >= 0);\r\n    //     require(ownerDigitalItems[_owner].length > 0);\r\n    //     DigitalItem storage digitalItem = ownerDigitalItems[_owner][_tokenId];\r\n\r\n    //     return (\r\n    //         digitalItem.name,\r\n    //         digitalItem.mintedBy,\r\n    //         digitalItem.currentOwner,\r\n    //         digitalItem.previousOwner,\r\n    //         digitalItem.price,\r\n    //         digitalItem.imageURL,\r\n    //         digitalItem.numberOfTransfers,\r\n    //         digitalItem.forSale\r\n    //     );\r\n    // }\r\n\r\n    // function getDigitalItemCount(address _owner) public view returns (uint256) {\r\n    //     require(_owner != address(0x0));\r\n    //     return ownerDigitalItems[_owner].length;\r\n    // }\r\n\r\n    //This function to create collection from address\r\n    function createCollection(\r\n        string memory _imageURL,\r\n        string memory _name,\r\n        string memory _description\r\n    ) public returns (bool success) {\r\n        collectionCounter++;\r\n        Collection memory collection = Collection(\r\n            collectionCounter,\r\n            _imageURL,\r\n            _name,\r\n            _description\r\n        );\r\n        // ownerDigitalItems[msg.sender].push(newDigitalItem);\r\n        // collection.tokenId = collectionCounter;\r\n        // collection.imageURL = _imageURL;\r\n        // collection.name = _name;\r\n        // collection.description = _description;\r\n        // collection.listSize = 0;\r\n        ownerCollections[msg.sender].push(collection);\r\n        // ownerCollections[msg.sender].push(collection);\r\n\r\n        emit CollectionCreated(\r\n            collectionCounter,\r\n            _imageURL,\r\n            _name,\r\n            msg.sender,\r\n            _description\r\n        );\r\n        return true;\r\n    }\r\n\r\n    // function getCollections(address _owner)\r\n    //     public\r\n    //     view\r\n    //     returns (Collection[] memory)\r\n    // {\r\n    //     require(_owner != address(0x0));\r\n    //     require(ownerCollections[_owner].length > 0);\r\n    //     return ownerCollections[_owner];\r\n    // }\r\n\r\n    function getCollection(uint256 _tokenId, address _owner)\r\n        public\r\n        view\r\n        returns (\r\n            string memory _imageURL,\r\n            string memory _name,\r\n            string memory _description\r\n        )\r\n    {\r\n        require(_owner != address(0x0));\r\n        require(_tokenId >= 0);\r\n        require(ownerCollections[_owner].length > 0);\r\n        Collection storage collection = ownerCollections[_owner][_tokenId];\r\n\r\n        return (collection.imageURL, collection.name, collection.description);\r\n    }\r\n\r\n    // function updateCollection(\r\n    //     uint256 _tokenId,\r\n    //     string memory _imageURL,\r\n    //     string memory _name,\r\n    //     string memory _description,\r\n    //     address _owner\r\n    // ) public returns (bool success) {\r\n    //     require(_owner != address(0x0));\r\n    //     require(_tokenId >= 0);\r\n    //     require(ownerCollections[_owner].length > 0);\r\n    //     Collection storage collection = ownerCollections[_owner][_tokenId];\r\n    //     collection.imageURL = _imageURL;\r\n    //     collection.name = _name;\r\n    //     collection.description = _description;\r\n    //     return true;\r\n    // }\r\n\r\n    // function deleteCollection(address _owner, uint256 _tokenId)\r\n    //     public\r\n    //     returns (bool success)\r\n    // {\r\n    //     require(_owner != address(0x0));\r\n    //     require(_tokenId >= 0);\r\n    //     require(ownerCollections[_owner].length > 0);\r\n    //     // uint256 rowToDelete = ownerCollections[_owner][_tokenId].index;\r\n    //     delete ownerCollections[_owner][_tokenId];\r\n    //     collectionCounter--;\r\n    //     return true;\r\n    // }\r\n\r\n    function getCollectionCount(address _owner)\r\n        public\r\n        view\r\n        returns (uint256 count)\r\n    {\r\n        require(_owner != address(0x0));\r\n        return (collectionCounter);\r\n        // return ownerCollections[_owner].length;\r\n    }\r\n\r\n    struct Order {\r\n        address maker;\r\n        address taker;\r\n        uint256 tokenId;\r\n    }\r\n\r\n    // mapping(uint256 => Order) orders;\r\n\r\n    // function makeOrder(uint256 _tokenId, uint256 _price) external {\r\n    //     // validate nft\r\n    //     // ...\r\n    // }\r\n\r\n    // function takeOrder(uint256 _tokenId) external {\r\n    //     // check order exists\r\n    //     // validate funds\r\n    //     // transfer funds\r\n    //     // transfer nft\r\n    // }\r\n}\r\n",
  "sourcePath": "G:\\GitHub\\ArtFunds_DevFest\\blockchain\\contracts\\ArtFundsStorage.sol",
  "compiler": {
    "name": "solc",
    "version": "0.7.6+commit.7338295f.Emscripten.clang"
  },
  "schemaVersion": "3.4.3",
  "updatedAt": "2021-10-28T07:40:51.877Z",
  "networkType": "ethereum",
  "devdoc": {
    "kind": "dev",
    "methods": {
      "approve(address,uint256)": {
        "details": "See {IERC721-approve}."
      },
      "balanceOf(address)": {
        "details": "See {IERC721-balanceOf}."
      },
      "baseURI()": {
        "details": "Returns the base URI set via {_setBaseURI}. This will be automatically added as a prefix in {tokenURI} to each token's URI, or to the token ID if no specific URI is set for that token ID."
      },
      "getApproved(uint256)": {
        "details": "See {IERC721-getApproved}."
      },
      "isApprovedForAll(address,address)": {
        "details": "See {IERC721-isApprovedForAll}."
      },
      "name()": {
        "details": "See {IERC721Metadata-name}."
      },
      "ownerOf(uint256)": {
        "details": "See {IERC721-ownerOf}."
      },
      "safeTransferFrom(address,address,uint256)": {
        "details": "See {IERC721-safeTransferFrom}."
      },
      "safeTransferFrom(address,address,uint256,bytes)": {
        "details": "See {IERC721-safeTransferFrom}."
      },
      "setApprovalForAll(address,bool)": {
        "details": "See {IERC721-setApprovalForAll}."
      },
      "supportsInterface(bytes4)": {
        "details": "See {IERC165-supportsInterface}. Time complexity O(1), guaranteed to always use less than 30 000 gas."
      },
      "symbol()": {
        "details": "See {IERC721Metadata-symbol}."
      },
      "tokenByIndex(uint256)": {
        "details": "See {IERC721Enumerable-tokenByIndex}."
      },
      "tokenOfOwnerByIndex(address,uint256)": {
        "details": "See {IERC721Enumerable-tokenOfOwnerByIndex}."
      },
      "tokenURI(uint256)": {
        "details": "See {IERC721Metadata-tokenURI}."
      },
      "totalSupply()": {
        "details": "See {IERC721Enumerable-totalSupply}."
      },
      "transferFrom(address,address,uint256)": {
        "details": "See {IERC721-transferFrom}."
      }
    },
    "version": 1
  },
  "userdoc": {
    "kind": "user",
    "methods": {},
    "version": 1
  }
}