{
  "contractName": "ArtFundsStorage",
  "abi": [
    {
      "inputs": [],
      "stateMutability": "nonpayable",
      "type": "constructor"
    },
    {
      "anonymous": false,
      "inputs": [
        {
          "indexed": true,
          "internalType": "address",
          "name": "owner",
          "type": "address"
        },
        {
          "indexed": true,
          "internalType": "address",
          "name": "approved",
          "type": "address"
        },
        {
          "indexed": true,
          "internalType": "uint256",
          "name": "tokenId",
          "type": "uint256"
        }
      ],
      "name": "Approval",
      "type": "event"
    },
    {
      "anonymous": false,
      "inputs": [
        {
          "indexed": true,
          "internalType": "address",
          "name": "owner",
          "type": "address"
        },
        {
          "indexed": true,
          "internalType": "address",
          "name": "operator",
          "type": "address"
        },
        {
          "indexed": false,
          "internalType": "bool",
          "name": "approved",
          "type": "bool"
        }
      ],
      "name": "ApprovalForAll",
      "type": "event"
    },
    {
      "anonymous": false,
      "inputs": [
        {
          "indexed": false,
          "internalType": "uint256",
          "name": "tokenId",
          "type": "uint256"
        },
        {
          "indexed": false,
          "internalType": "string",
          "name": "imageURL",
          "type": "string"
        },
        {
          "indexed": false,
          "internalType": "string",
          "name": "name",
          "type": "string"
        },
        {
          "indexed": false,
          "internalType": "address",
          "name": "ownedBy",
          "type": "address"
        },
        {
          "indexed": false,
          "internalType": "string",
          "name": "description",
          "type": "string"
        }
      ],
      "name": "CollectionCreated",
      "type": "event"
    },
    {
      "anonymous": false,
      "inputs": [
        {
          "indexed": false,
          "internalType": "uint256",
          "name": "id",
          "type": "uint256"
        },
        {
          "indexed": false,
          "internalType": "string",
          "name": "name",
          "type": "string"
        },
        {
          "indexed": false,
          "internalType": "address",
          "name": "mintedBy",
          "type": "address"
        },
        {
          "indexed": false,
          "internalType": "address",
          "name": "currentOwner",
          "type": "address"
        },
        {
          "indexed": false,
          "internalType": "address",
          "name": "previousOwner",
          "type": "address"
        },
        {
          "indexed": false,
          "internalType": "uint256",
          "name": "price",
          "type": "uint256"
        },
        {
          "indexed": false,
          "internalType": "string",
          "name": "imageURL",
          "type": "string"
        },
        {
          "indexed": false,
          "internalType": "uint256",
          "name": "numberOfTransfers",
          "type": "uint256"
        },
        {
          "indexed": false,
          "internalType": "bool",
          "name": "forSale",
          "type": "bool"
        }
      ],
      "name": "ItemCreated",
      "type": "event"
    },
    {
      "anonymous": false,
      "inputs": [
        {
          "indexed": false,
          "internalType": "uint256",
          "name": "id",
          "type": "uint256"
        },
        {
          "indexed": false,
          "internalType": "bool",
          "name": "forSale",
          "type": "bool"
        }
      ],
      "name": "ItemForSale",
      "type": "event"
    },
    {
      "anonymous": false,
      "inputs": [
        {
          "indexed": true,
          "internalType": "address",
          "name": "from",
          "type": "address"
        },
        {
          "indexed": true,
          "internalType": "address",
          "name": "to",
          "type": "address"
        },
        {
          "indexed": true,
          "internalType": "uint256",
          "name": "tokenId",
          "type": "uint256"
        }
      ],
      "name": "Transfer",
      "type": "event"
    },
    {
      "inputs": [
        {
          "internalType": "address",
          "name": "to",
          "type": "address"
        },
        {
          "internalType": "uint256",
          "name": "tokenId",
          "type": "uint256"
        }
      ],
      "name": "approve",
      "outputs": [],
      "stateMutability": "nonpayable",
      "type": "function"
    },
    {
      "inputs": [
        {
          "internalType": "address",
          "name": "owner",
          "type": "address"
        }
      ],
      "name": "balanceOf",
      "outputs": [
        {
          "internalType": "uint256",
          "name": "",
          "type": "uint256"
        }
      ],
      "stateMutability": "view",
      "type": "function",
      "constant": true
    },
    {
      "inputs": [],
      "name": "baseURI",
      "outputs": [
        {
          "internalType": "string",
          "name": "",
          "type": "string"
        }
      ],
      "stateMutability": "view",
      "type": "function",
      "constant": true
    },
    {
      "inputs": [],
      "name": "collectionName",
      "outputs": [
        {
          "internalType": "string",
          "name": "",
          "type": "string"
        }
      ],
      "stateMutability": "view",
      "type": "function",
      "constant": true
    },
    {
      "inputs": [],
      "name": "collectionNameSymbol",
      "outputs": [
        {
          "internalType": "string",
          "name": "",
          "type": "string"
        }
      ],
      "stateMutability": "view",
      "type": "function",
      "constant": true
    },
    {
      "inputs": [
        {
          "internalType": "uint256",
          "name": "tokenId",
          "type": "uint256"
        }
      ],
      "name": "getApproved",
      "outputs": [
        {
          "internalType": "address",
          "name": "",
          "type": "address"
        }
      ],
      "stateMutability": "view",
      "type": "function",
      "constant": true
    },
    {
      "inputs": [
        {
          "internalType": "address",
          "name": "owner",
          "type": "address"
        },
        {
          "internalType": "address",
          "name": "operator",
          "type": "address"
        }
      ],
      "name": "isApprovedForAll",
      "outputs": [
        {
          "internalType": "bool",
          "name": "",
          "type": "bool"
        }
      ],
      "stateMutability": "view",
      "type": "function",
      "constant": true
    },
    {
      "inputs": [],
      "name": "name",
      "outputs": [
        {
          "internalType": "string",
          "name": "",
          "type": "string"
        }
      ],
      "stateMutability": "view",
      "type": "function",
      "constant": true
    },
    {
      "inputs": [
        {
          "internalType": "address",
          "name": "",
          "type": "address"
        },
        {
          "internalType": "uint256",
          "name": "",
          "type": "uint256"
        }
      ],
      "name": "ownerCollections",
      "outputs": [
        {
          "internalType": "uint256",
          "name": "tokenId",
          "type": "uint256"
        },
        {
          "internalType": "string",
          "name": "imageURL",
          "type": "string"
        },
        {
          "internalType": "string",
          "name": "name",
          "type": "string"
        },
        {
          "internalType": "string",
          "name": "description",
          "type": "string"
        },
        {
          "internalType": "uint8",
          "name": "listSize",
          "type": "uint8"
        }
      ],
      "stateMutability": "view",
      "type": "function",
      "constant": true
    },
    {
      "inputs": [
        {
          "internalType": "address",
          "name": "",
          "type": "address"
        },
        {
          "internalType": "uint256",
          "name": "",
          "type": "uint256"
        }
      ],
      "name": "ownerDigitalItems",
      "outputs": [
        {
          "internalType": "uint256",
          "name": "tokenId",
          "type": "uint256"
        },
        {
          "internalType": "string",
          "name": "name",
          "type": "string"
        },
        {
          "internalType": "address payable",
          "name": "mintedBy",
          "type": "address"
        },
        {
          "internalType": "address payable",
          "name": "currentOwner",
          "type": "address"
        },
        {
          "internalType": "address payable",
          "name": "previousOwner",
          "type": "address"
        },
        {
          "internalType": "uint256",
          "name": "price",
          "type": "uint256"
        },
        {
          "internalType": "string",
          "name": "imageURL",
          "type": "string"
        },
        {
          "internalType": "uint256",
          "name": "numberOfTransfers",
          "type": "uint256"
        },
        {
          "internalType": "bool",
          "name": "forSale",
          "type": "bool"
        }
      ],
      "stateMutability": "view",
      "type": "function",
      "constant": true
    },
    {
      "inputs": [
        {
          "internalType": "uint256",
          "name": "tokenId",
          "type": "uint256"
        }
      ],
      "name": "ownerOf",
      "outputs": [
        {
          "internalType": "address",
          "name": "",
          "type": "address"
        }
      ],
      "stateMutability": "view",
      "type": "function",
      "constant": true
    },
    {
      "inputs": [
        {
          "internalType": "address",
          "name": "from",
          "type": "address"
        },
        {
          "internalType": "address",
          "name": "to",
          "type": "address"
        },
        {
          "internalType": "uint256",
          "name": "tokenId",
          "type": "uint256"
        }
      ],
      "name": "safeTransferFrom",
      "outputs": [],
      "stateMutability": "nonpayable",
      "type": "function"
    },
    {
      "inputs": [
        {
          "internalType": "address",
          "name": "from",
          "type": "address"
        },
        {
          "internalType": "address",
          "name": "to",
          "type": "address"
        },
        {
          "internalType": "uint256",
          "name": "tokenId",
          "type": "uint256"
        },
        {
          "internalType": "bytes",
          "name": "_data",
          "type": "bytes"
        }
      ],
      "name": "safeTransferFrom",
      "outputs": [],
      "stateMutability": "nonpayable",
      "type": "function"
    },
    {
      "inputs": [
        {
          "internalType": "address",
          "name": "operator",
          "type": "address"
        },
        {
          "internalType": "bool",
          "name": "approved",
          "type": "bool"
        }
      ],
      "name": "setApprovalForAll",
      "outputs": [],
      "stateMutability": "nonpayable",
      "type": "function"
    },
    {
      "inputs": [
        {
          "internalType": "bytes4",
          "name": "interfaceId",
          "type": "bytes4"
        }
      ],
      "name": "supportsInterface",
      "outputs": [
        {
          "internalType": "bool",
          "name": "",
          "type": "bool"
        }
      ],
      "stateMutability": "view",
      "type": "function",
      "constant": true
    },
    {
      "inputs": [],
      "name": "symbol",
      "outputs": [
        {
          "internalType": "string",
          "name": "",
          "type": "string"
        }
      ],
      "stateMutability": "view",
      "type": "function",
      "constant": true
    },
    {
      "inputs": [
        {
          "internalType": "uint256",
          "name": "index",
          "type": "uint256"
        }
      ],
      "name": "tokenByIndex",
      "outputs": [
        {
          "internalType": "uint256",
          "name": "",
          "type": "uint256"
        }
      ],
      "stateMutability": "view",
      "type": "function",
      "constant": true
    },
    {
      "inputs": [
        {
          "internalType": "address",
          "name": "owner",
          "type": "address"
        },
        {
          "internalType": "uint256",
          "name": "index",
          "type": "uint256"
        }
      ],
      "name": "tokenOfOwnerByIndex",
      "outputs": [
        {
          "internalType": "uint256",
          "name": "",
          "type": "uint256"
        }
      ],
      "stateMutability": "view",
      "type": "function",
      "constant": true
    },
    {
      "inputs": [
        {
          "internalType": "uint256",
          "name": "tokenId",
          "type": "uint256"
        }
      ],
      "name": "tokenURI",
      "outputs": [
        {
          "internalType": "string",
          "name": "",
          "type": "string"
        }
      ],
      "stateMutability": "view",
      "type": "function",
      "constant": true
    },
    {
      "inputs": [],
      "name": "totalSupply",
      "outputs": [
        {
          "internalType": "uint256",
          "name": "",
          "type": "uint256"
        }
      ],
      "stateMutability": "view",
      "type": "function",
      "constant": true
    },
    {
      "inputs": [
        {
          "internalType": "address",
          "name": "from",
          "type": "address"
        },
        {
          "internalType": "address",
          "name": "to",
          "type": "address"
        },
        {
          "internalType": "uint256",
          "name": "tokenId",
          "type": "uint256"
        }
      ],
      "name": "transferFrom",
      "outputs": [],
      "stateMutability": "nonpayable",
      "type": "function"
    },
    {
      "inputs": [
        {
          "internalType": "string",
          "name": "_name",
          "type": "string"
        },
        {
          "internalType": "uint256",
          "name": "_price",
          "type": "uint256"
        },
        {
          "internalType": "string",
          "name": "_imageURL",
          "type": "string"
        },
        {
          "internalType": "uint256",
          "name": "_numberOfTransfers",
          "type": "uint256"
        },
        {
          "internalType": "bool",
          "name": "_forSale",
          "type": "bool"
        }
      ],
      "name": "mintDigitalItem",
      "outputs": [],
      "stateMutability": "nonpayable",
      "type": "function"
    },
    {
      "inputs": [
        {
          "internalType": "address",
          "name": "_owner",
          "type": "address"
        },
        {
          "internalType": "address payable",
          "name": "_newOwner",
          "type": "address"
        },
        {
          "internalType": "uint256",
          "name": "_tokenId",
          "type": "uint256"
        }
      ],
      "name": "updateCurrentOwnerDigitalItem",
      "outputs": [
        {
          "internalType": "bool",
          "name": "success",
          "type": "bool"
        }
      ],
      "stateMutability": "nonpayable",
      "type": "function"
    },
    {
      "inputs": [
        {
          "internalType": "address",
          "name": "_owner",
          "type": "address"
        },
        {
          "internalType": "uint256",
          "name": "_tokenId",
          "type": "uint256"
        },
        {
          "internalType": "string",
          "name": "_name",
          "type": "string"
        },
        {
          "internalType": "uint256",
          "name": "_price",
          "type": "uint256"
        },
        {
          "internalType": "string",
          "name": "_imageURL",
          "type": "string"
        },
        {
          "internalType": "uint256",
          "name": "_numberOfTransfers",
          "type": "uint256"
        },
        {
          "internalType": "bool",
          "name": "_forSale",
          "type": "bool"
        }
      ],
      "name": "updateInfoBasicDigitalItem",
      "outputs": [
        {
          "internalType": "bool",
          "name": "success",
          "type": "bool"
        }
      ],
      "stateMutability": "nonpayable",
      "type": "function"
    },
    {
      "inputs": [
        {
          "internalType": "uint256",
          "name": "_tokenId",
          "type": "uint256"
        },
        {
          "internalType": "address",
          "name": "_owner",
          "type": "address"
        }
      ],
      "name": "getDigitalItem",
      "outputs": [
        {
          "internalType": "string",
          "name": "_name",
          "type": "string"
        },
        {
          "internalType": "address",
          "name": "_mintedBy",
          "type": "address"
        },
        {
          "internalType": "address",
          "name": "_currentOwner",
          "type": "address"
        },
        {
          "internalType": "address",
          "name": "_previousOwner",
          "type": "address"
        },
        {
          "internalType": "uint256",
          "name": "_price",
          "type": "uint256"
        },
        {
          "internalType": "string",
          "name": "_imageURL",
          "type": "string"
        },
        {
          "internalType": "uint256",
          "name": "_numberOfTransfers",
          "type": "uint256"
        },
        {
          "internalType": "bool",
          "name": "_forSale",
          "type": "bool"
        }
      ],
      "stateMutability": "view",
      "type": "function",
      "constant": true
    },
    {
      "inputs": [
        {
          "internalType": "address",
          "name": "_owner",
          "type": "address"
        }
      ],
      "name": "getDigitalItemCount",
      "outputs": [
        {
          "internalType": "uint256",
          "name": "",
          "type": "uint256"
        }
      ],
      "stateMutability": "view",
      "type": "function",
      "constant": true
    },
    {
      "inputs": [
        {
          "internalType": "string",
          "name": "_imageURL",
          "type": "string"
        },
        {
          "internalType": "string",
          "name": "_name",
          "type": "string"
        },
        {
          "internalType": "string",
          "name": "_description",
          "type": "string"
        }
      ],
      "name": "createCollection",
      "outputs": [
        {
          "internalType": "bool",
          "name": "success",
          "type": "bool"
        }
      ],
      "stateMutability": "nonpayable",
      "type": "function"
    },
    {
      "inputs": [
        {
          "internalType": "uint256",
          "name": "_tokenId",
          "type": "uint256"
        },
        {
          "internalType": "address",
          "name": "_owner",
          "type": "address"
        }
      ],
      "name": "getCollection",
      "outputs": [
        {
          "internalType": "string",
          "name": "_imageURL",
          "type": "string"
        },
        {
          "internalType": "string",
          "name": "_name",
          "type": "string"
        },
        {
          "internalType": "string",
          "name": "_description",
          "type": "string"
        }
      ],
      "stateMutability": "view",
      "type": "function",
      "constant": true
    },
    {
      "inputs": [
        {
          "internalType": "uint256",
          "name": "_tokenId",
          "type": "uint256"
        },
        {
          "internalType": "string",
          "name": "_imageURL",
          "type": "string"
        },
        {
          "internalType": "string",
          "name": "_name",
          "type": "string"
        },
        {
          "internalType": "string",
          "name": "_description",
          "type": "string"
        },
        {
          "internalType": "address",
          "name": "_owner",
          "type": "address"
        }
      ],
      "name": "updateCollection",
      "outputs": [
        {
          "internalType": "bool",
          "name": "success",
          "type": "bool"
        }
      ],
      "stateMutability": "nonpayable",
      "type": "function"
    },
    {
      "inputs": [
        {
          "internalType": "address",
          "name": "_owner",
          "type": "address"
        },
        {
          "internalType": "uint256",
          "name": "_tokenId",
          "type": "uint256"
        }
      ],
      "name": "deleteCollection",
      "outputs": [
        {
          "internalType": "bool",
          "name": "success",
          "type": "bool"
        }
      ],
      "stateMutability": "nonpayable",
      "type": "function"
    },
    {
      "inputs": [
        {
          "internalType": "address",
          "name": "_owner",
          "type": "address"
        }
      ],
      "name": "getCollectionCount",
      "outputs": [
        {
          "internalType": "uint256",
          "name": "",
          "type": "uint256"
        }
      ],
      "stateMutability": "view",
      "type": "function",
      "constant": true
    }
  ],
  "bytecode": "0x60806040526000600c556000600e553480156200001b57600080fd5b506040518060400160405280601381526020017f41727446756e647320436f6c6c656374696f6e000000000000000000000000008152506040518060400160405280600281526020017f4342000000000000000000000000000000000000000000000000000000000000815250620000a06301ffc9a760e01b6200017260201b60201c565b8160069080519060200190620000b8929190620003c7565b508060079080519060200190620000d1929190620003c7565b50620000ea6380ac58cd60e01b6200017260201b60201c565b62000102635b5e139f60e01b6200017260201b60201c565b6200011a63780e9d6360e01b6200017260201b60201c565b50506200012c6200027b60201b60201c565b600a908051906020019062000143929190620003c7565b50620001546200032160201b60201c565b600b90805190602001906200016b929190620003c7565b506200047d565b63ffffffff60e01b817bffffffffffffffffffffffffffffffffffffffffffffffffffffffff191614156200020f576040517f08c379a000000000000000000000000000000000000000000000000000000000815260040180806020018281038252601c8152602001807f4552433136353a20696e76616c696420696e746572666163652069640000000081525060200191505060405180910390fd5b6001600080837bffffffffffffffffffffffffffffffffffffffffffffffffffffffff19167bffffffffffffffffffffffffffffffffffffffffffffffffffffffff1916815260200190815260200160002060006101000a81548160ff02191690831515021790555050565b606060068054600181600116156101000203166002900480601f016020809104026020016040519081016040528092919081815260200182805460018160011615610100020316600290048015620003175780601f10620002eb5761010080835404028352916020019162000317565b820191906000526020600020905b815481529060010190602001808311620002f957829003601f168201915b5050505050905090565b606060078054600181600116156101000203166002900480601f016020809104026020016040519081016040528092919081815260200182805460018160011615610100020316600290048015620003bd5780601f106200039157610100808354040283529160200191620003bd565b820191906000526020600020905b8154815290600101906020018083116200039f57829003601f168201915b5050505050905090565b828054600181600116156101000203166002900490600052602060002090601f016020900481019282620003ff57600085556200044b565b82601f106200041a57805160ff19168380011785556200044b565b828001600101855582156200044b579182015b828111156200044a5782518255916020019190600101906200042d565b5b5090506200045a91906200045e565b5090565b5b80821115620004795760008160009055506001016200045f565b5090565b614a73806200048d6000396000f3fe608060405234801561001057600080fd5b50600436106101e55760003560e01c80636352211e1161010f578063b88d4fde116100a2578063e5e4d79c11610071578063e5e4d79c1461062b578063e985e9c51461065b578063ebdc07e81461068b578063ece86c21146106bb576101e5565b8063b88d4fde14610589578063c87b56dd146105a5578063d5f45a7d146105d5578063e5326ab11461060d576101e5565b8063816e5f3a116100de578063816e5f3a146104e857806395d89b41146105185780639bdbf7e014610536578063a22cb4651461056d576101e5565b80636352211e1461044c5780636c0360eb1461047c5780636f9507f91461049a57806370a08231146104b8576101e5565b806323b872dd1161018757806342842e0e1161015657806342842e0e146103b45780634f6ccce7146103d0578063501845c61461040057806354515bb61461041c576101e5565b806323b872dd146103045780632588e01c146103205780632f745c591461035057806339b5f83014610380576101e5565b806307a5b578116101c357806307a5b5781461026a578063081812fc1461029a578063095ea7b3146102ca57806318160ddd146102e6576101e5565b806301188b3f146101ea57806301ffc9a71461021c57806306fdde031461024c575b600080fd5b61020460048036038101906101ff919061416e565b6106eb565b604051610213939291906143e0565b60405180910390f35b61023660048036038101906102319190613fde565b6109d1565b6040516102439190614317565b60405180910390f35b610254610a38565b6040516102619190614332565b60405180910390f35b610284600480360381019061027f9190613d1a565b610ada565b604051610291919061442c565b60405180910390f35b6102b460048036038101906102af9190614145565b610b5f565b6040516102c191906142fc565b60405180910390f35b6102e460048036038101906102df9190613ed4565b610bfa565b005b6102ee610d3e565b6040516102fb919061442c565b60405180910390f35b61031e60048036038101906103199190613dce565b610d4f565b005b61033a60048036038101906103359190613d7f565b610dc5565b6040516103479190614317565b60405180910390f35b61036a60048036038101906103659190613ed4565b610f5a565b604051610377919061442c565b60405180910390f35b61039a60048036038101906103959190613ed4565b610fb5565b6040516103ab95949392919061454a565b60405180910390f35b6103ce60048036038101906103c99190613dce565b6111dd565b005b6103ea60048036038101906103e59190614145565b6111fd565b6040516103f7919061442c565b60405180910390f35b61041a6004803603810190610415919061409e565b611220565b005b61043660048036038101906104319190613d1a565b6114da565b604051610443919061442c565b60405180910390f35b61046660048036038101906104619190614145565b61155f565b60405161047391906142fc565b60405180910390f35b610484611596565b6040516104919190614332565b60405180910390f35b6104a2611638565b6040516104af9190614332565b60405180910390f35b6104d260048036038101906104cd9190613d1a565b6116d6565b6040516104df919061442c565b60405180910390f35b61050260048036038101906104fd9190613ed4565b6117ab565b60405161050f9190614317565b60405180910390f35b610520611907565b60405161052d9190614332565b60405180910390f35b610550600480360381019061054b919061416e565b6119a9565b604051610564989796959493929190614354565b60405180910390f35b61058760048036038101906105829190613e98565b611c92565b005b6105a3600480360381019061059e9190613e1d565b611e48565b005b6105bf60048036038101906105ba9190614145565b611ec0565b6040516105cc9190614332565b60405180910390f35b6105ef60048036038101906105ea9190613ed4565b612191565b60405161060499989796959493929190614447565b60405180910390f35b610615612399565b6040516106229190614332565b60405180910390f35b610645600480360381019061064091906141aa565b612437565b6040516106529190614317565b60405180910390f35b61067560048036038101906106709190613d43565b612584565b6040516106829190614317565b60405180910390f35b6106a560048036038101906106a09190613f10565b612618565b6040516106b29190614317565b60405180910390f35b6106d560048036038101906106d09190614007565b61277c565b6040516106e29190614317565b60405180910390f35b6060806060600073ffffffffffffffffffffffffffffffffffffffff168473ffffffffffffffffffffffffffffffffffffffff16141561072a57600080fd5b600085101561073857600080fd5b6000600d60008673ffffffffffffffffffffffffffffffffffffffff1673ffffffffffffffffffffffffffffffffffffffff168152602001908152602001600020805490501161078757600080fd5b6000600d60008673ffffffffffffffffffffffffffffffffffffffff1673ffffffffffffffffffffffffffffffffffffffff16815260200190815260200160002086815481106107d357fe5b90600052602060002090600602019050806001018160020182600301828054600181600116156101000203166002900480601f0160208091040260200160405190810160405280929190818152602001828054600181600116156101000203166002900480156108845780601f1061085957610100808354040283529160200191610884565b820191906000526020600020905b81548152906001019060200180831161086757829003601f168201915b50505050509250818054600181600116156101000203166002900480601f0160208091040260200160405190810160405280929190818152602001828054600181600116156101000203166002900480156109205780601f106108f557610100808354040283529160200191610920565b820191906000526020600020905b81548152906001019060200180831161090357829003601f168201915b50505050509150808054600181600116156101000203166002900480601f0160208091040260200160405190810160405280929190818152602001828054600181600116156101000203166002900480156109bc5780601f10610991576101008083540402835291602001916109bc565b820191906000526020600020905b81548152906001019060200180831161099f57829003601f168201915b50505050509050935093509350509250925092565b6000806000837bffffffffffffffffffffffffffffffffffffffffffffffffffffffff19167bffffffffffffffffffffffffffffffffffffffffffffffffffffffff1916815260200190815260200160002060009054906101000a900460ff169050919050565b606060068054600181600116156101000203166002900480601f016020809104026020016040519081016040528092919081815260200182805460018160011615610100020316600290048015610ad05780601f10610aa557610100808354040283529160200191610ad0565b820191906000526020600020905b815481529060010190602001808311610ab357829003601f168201915b5050505050905090565b60008073ffffffffffffffffffffffffffffffffffffffff168273ffffffffffffffffffffffffffffffffffffffff161415610b1557600080fd5b600f60008373ffffffffffffffffffffffffffffffffffffffff1673ffffffffffffffffffffffffffffffffffffffff168152602001908152602001600020805490509050919050565b6000610b6a826128af565b610bbf576040517f08c379a000000000000000000000000000000000000000000000000000000000815260040180806020018281038252602c815260200180614968602c913960400191505060405180910390fd5b6004600083815260200190815260200160002060009054906101000a900473ffffffffffffffffffffffffffffffffffffffff169050919050565b6000610c058261155f565b90508073ffffffffffffffffffffffffffffffffffffffff168373ffffffffffffffffffffffffffffffffffffffff161415610c8c576040517f08c379a00000000000000000000000000000000000000000000000000000000081526004018080602001828103825260218152602001806149ec6021913960400191505060405180910390fd5b8073ffffffffffffffffffffffffffffffffffffffff16610cab6128cc565b73ffffffffffffffffffffffffffffffffffffffff161480610cda5750610cd981610cd46128cc565b612584565b5b610d2f576040517f08c379a00000000000000000000000000000000000000000000000000000000081526004018080602001828103825260388152602001806148bb6038913960400191505060405180910390fd5b610d3983836128d4565b505050565b6000610d4a600261298d565b905090565b610d60610d5a6128cc565b826129a2565b610db5576040517f08c379a0000000000000000000000000000000000000000000000000000000008152600401808060200182810382526031815260200180614a0d6031913960400191505060405180910390fd5b610dc0838383612a96565b505050565b60008073ffffffffffffffffffffffffffffffffffffffff168473ffffffffffffffffffffffffffffffffffffffff161415610e0057600080fd5b600073ffffffffffffffffffffffffffffffffffffffff168373ffffffffffffffffffffffffffffffffffffffff161415610e3a57600080fd5b6000821015610e4857600080fd5b6000600f60008673ffffffffffffffffffffffffffffffffffffffff1673ffffffffffffffffffffffffffffffffffffffff1681526020019081526020016000208381548110610e9457fe5b906000526020600020906009020190508060030160009054906101000a900473ffffffffffffffffffffffffffffffffffffffff168160040160006101000a81548173ffffffffffffffffffffffffffffffffffffffff021916908373ffffffffffffffffffffffffffffffffffffffff160217905550838160030160006101000a81548173ffffffffffffffffffffffffffffffffffffffff021916908373ffffffffffffffffffffffffffffffffffffffff16021790555060019150509392505050565b6000610fad82600160008673ffffffffffffffffffffffffffffffffffffffff1673ffffffffffffffffffffffffffffffffffffffff168152602001908152602001600020612cd990919063ffffffff16565b905092915050565b600d6020528160005260406000208181548110610fd157600080fd5b906000526020600020906006020160009150915050806000015490806001018054600181600116156101000203166002900480601f0160208091040260200160405190810160405280929190818152602001828054600181600116156101000203166002900480156110845780601f1061105957610100808354040283529160200191611084565b820191906000526020600020905b81548152906001019060200180831161106757829003601f168201915b505050505090806002018054600181600116156101000203166002900480601f0160208091040260200160405190810160405280929190818152602001828054600181600116156101000203166002900480156111225780601f106110f757610100808354040283529160200191611122565b820191906000526020600020905b81548152906001019060200180831161110557829003601f168201915b505050505090806003018054600181600116156101000203166002900480601f0160208091040260200160405190810160405280929190818152602001828054600181600116156101000203166002900480156111c05780601f10611195576101008083540402835291602001916111c0565b820191906000526020600020905b8154815290600101906020018083116111a357829003601f168201915b5050505050908060050160009054906101000a900460ff16905085565b6111f883838360405180602001604052806000815250611e48565b505050565b600080611214836002612cf390919063ffffffff16565b50905080915050919050565b600073ffffffffffffffffffffffffffffffffffffffff163373ffffffffffffffffffffffffffffffffffffffff16141561125a57600080fd5b600e60008154809291906001019190505550611277600e546128af565b1561128157600080fd5b61128d33600e54612d1f565b6000604051806101200160405280600e5481526020018781526020013373ffffffffffffffffffffffffffffffffffffffff1681526020013373ffffffffffffffffffffffffffffffffffffffff1681526020013373ffffffffffffffffffffffffffffffffffffffff16815260200186815260200185815260200160008152602001600115158152509050600f60003373ffffffffffffffffffffffffffffffffffffffff1673ffffffffffffffffffffffffffffffffffffffff1681526020019081526020016000208190806001815401808255809150506001900390600052602060002090600902016000909190919091506000820151816000015560208201518160010190805190602001906113a8929190613aee565b5060408201518160020160006101000a81548173ffffffffffffffffffffffffffffffffffffffff021916908373ffffffffffffffffffffffffffffffffffffffff16021790555060608201518160030160006101000a81548173ffffffffffffffffffffffffffffffffffffffff021916908373ffffffffffffffffffffffffffffffffffffffff16021790555060808201518160040160006101000a81548173ffffffffffffffffffffffffffffffffffffffff021916908373ffffffffffffffffffffffffffffffffffffffff16021790555060a0820151816005015560c08201518160060190805190602001906114a4929190613aee565b5060e082015181600701556101008201518160080160006101000a81548160ff0219169083151502179055505050505050505050565b60008073ffffffffffffffffffffffffffffffffffffffff168273ffffffffffffffffffffffffffffffffffffffff16141561151557600080fd5b600d60008373ffffffffffffffffffffffffffffffffffffffff1673ffffffffffffffffffffffffffffffffffffffff168152602001908152602001600020805490509050919050565b600061158f8260405180606001604052806029815260200161491d602991396002612f139092919063ffffffff16565b9050919050565b606060098054600181600116156101000203166002900480601f01602080910402602001604051908101604052809291908181526020018280546001816001161561010002031660029004801561162e5780601f106116035761010080835404028352916020019161162e565b820191906000526020600020905b81548152906001019060200180831161161157829003601f168201915b5050505050905090565b600b8054600181600116156101000203166002900480601f0160208091040260200160405190810160405280929190818152602001828054600181600116156101000203166002900480156116ce5780601f106116a3576101008083540402835291602001916116ce565b820191906000526020600020905b8154815290600101906020018083116116b157829003601f168201915b505050505081565b60008073ffffffffffffffffffffffffffffffffffffffff168273ffffffffffffffffffffffffffffffffffffffff16141561175d576040517f08c379a000000000000000000000000000000000000000000000000000000000815260040180806020018281038252602a8152602001806148f3602a913960400191505060405180910390fd5b6117a4600160008473ffffffffffffffffffffffffffffffffffffffff1673ffffffffffffffffffffffffffffffffffffffff168152602001908152602001600020612f32565b9050919050565b60008073ffffffffffffffffffffffffffffffffffffffff168373ffffffffffffffffffffffffffffffffffffffff1614156117e657600080fd5b60008210156117f457600080fd5b6000600d60008573ffffffffffffffffffffffffffffffffffffffff1673ffffffffffffffffffffffffffffffffffffffff168152602001908152602001600020805490501161184357600080fd5b600d60008473ffffffffffffffffffffffffffffffffffffffff1673ffffffffffffffffffffffffffffffffffffffff168152602001908152602001600020828154811061188d57fe5b90600052602060002090600602016000808201600090556001820160006118b49190613b7c565b6002820160006118c49190613b7c565b6003820160006118d49190613b7c565b6005820160006101000a81549060ff02191690555050600c60008154809291906001900391905055506001905092915050565b606060078054600181600116156101000203166002900480601f01602080910402602001604051908101604052809291908181526020018280546001816001161561010002031660029004801561199f5780601f106119745761010080835404028352916020019161199f565b820191906000526020600020905b81548152906001019060200180831161198257829003601f168201915b5050505050905090565b60606000806000806060600080600073ffffffffffffffffffffffffffffffffffffffff168973ffffffffffffffffffffffffffffffffffffffff1614156119f057600080fd5b60008a10156119fe57600080fd5b6000600f60008b73ffffffffffffffffffffffffffffffffffffffff1673ffffffffffffffffffffffffffffffffffffffff1681526020019081526020016000208054905011611a4d57600080fd5b6000600f60008b73ffffffffffffffffffffffffffffffffffffffff1673ffffffffffffffffffffffffffffffffffffffff1681526020019081526020016000208b81548110611a9957fe5b90600052602060002090600902019050806001018160020160009054906101000a900473ffffffffffffffffffffffffffffffffffffffff168260030160009054906101000a900473ffffffffffffffffffffffffffffffffffffffff168360040160009054906101000a900473ffffffffffffffffffffffffffffffffffffffff1684600501548560060186600701548760080160009054906101000a900460ff16878054600181600116156101000203166002900480601f016020809104026020016040519081016040528092919081815260200182805460018160011615610100020316600290048015611bd15780601f10611ba657610100808354040283529160200191611bd1565b820191906000526020600020905b815481529060010190602001808311611bb457829003601f168201915b50505050509750828054600181600116156101000203166002900480601f016020809104026020016040519081016040528092919081815260200182805460018160011615610100020316600290048015611c6d5780601f10611c4257610100808354040283529160200191611c6d565b820191906000526020600020905b815481529060010190602001808311611c5057829003601f168201915b5050505050925098509850985098509850985098509850509295985092959890939650565b611c9a6128cc565b73ffffffffffffffffffffffffffffffffffffffff168273ffffffffffffffffffffffffffffffffffffffff161415611d3b576040517f08c379a00000000000000000000000000000000000000000000000000000000081526004018080602001828103825260198152602001807f4552433732313a20617070726f766520746f2063616c6c65720000000000000081525060200191505060405180910390fd5b8060056000611d486128cc565b73ffffffffffffffffffffffffffffffffffffffff1673ffffffffffffffffffffffffffffffffffffffff16815260200190815260200160002060008473ffffffffffffffffffffffffffffffffffffffff1673ffffffffffffffffffffffffffffffffffffffff16815260200190815260200160002060006101000a81548160ff0219169083151502179055508173ffffffffffffffffffffffffffffffffffffffff16611df56128cc565b73ffffffffffffffffffffffffffffffffffffffff167f17307eab39ab6107e8899845ad3d59bd9653f200f220920489ca2b5937696c318360405180821515815260200191505060405180910390a35050565b611e59611e536128cc565b836129a2565b611eae576040517f08c379a0000000000000000000000000000000000000000000000000000000008152600401808060200182810382526031815260200180614a0d6031913960400191505060405180910390fd5b611eba84848484612f47565b50505050565b6060611ecb826128af565b611f20576040517f08c379a000000000000000000000000000000000000000000000000000000000815260040180806020018281038252602f8152602001806149bd602f913960400191505060405180910390fd5b6000600860008481526020019081526020016000208054600181600116156101000203166002900480601f016020809104026020016040519081016040528092919081815260200182805460018160011615610100020316600290048015611fc95780601f10611f9e57610100808354040283529160200191611fc9565b820191906000526020600020905b815481529060010190602001808311611fac57829003601f168201915b505050505090506000611fda611596565b9050600081511415611ff057819250505061218c565b6000825111156120c15780826040516020018083805190602001908083835b60208310612032578051825260208201915060208101905060208303925061200f565b6001836020036101000a03801982511681845116808217855250505050505090500182805190602001908083835b602083106120835780518252602082019150602081019050602083039250612060565b6001836020036101000a038019825116818451168082178552505050505050905001925050506040516020818303038152906040529250505061218c565b806120cb85612fb9565b6040516020018083805190602001908083835b6020831061210157805182526020820191506020810190506020830392506120de565b6001836020036101000a03801982511681845116808217855250505050505090500182805190602001908083835b60208310612152578051825260208201915060208101905060208303925061212f565b6001836020036101000a03801982511681845116808217855250505050505090500192505050604051602081830303815290604052925050505b919050565b600f60205281600052604060002081815481106121ad57600080fd5b906000526020600020906009020160009150915050806000015490806001018054600181600116156101000203166002900480601f0160208091040260200160405190810160405280929190818152602001828054600181600116156101000203166002900480156122605780601f1061223557610100808354040283529160200191612260565b820191906000526020600020905b81548152906001019060200180831161224357829003601f168201915b5050505050908060020160009054906101000a900473ffffffffffffffffffffffffffffffffffffffff16908060030160009054906101000a900473ffffffffffffffffffffffffffffffffffffffff16908060040160009054906101000a900473ffffffffffffffffffffffffffffffffffffffff1690806005015490806006018054600181600116156101000203166002900480601f0160208091040260200160405190810160405280929190818152602001828054600181600116156101000203166002900480156123765780601f1061234b57610100808354040283529160200191612376565b820191906000526020600020905b81548152906001019060200180831161235957829003601f168201915b5050505050908060070154908060080160009054906101000a900460ff16905089565b600a8054600181600116156101000203166002900480601f01602080910402602001604051908101604052809291908181526020018280546001816001161561010002031660029004801561242f5780601f106124045761010080835404028352916020019161242f565b820191906000526020600020905b81548152906001019060200180831161241257829003601f168201915b505050505081565b60008073ffffffffffffffffffffffffffffffffffffffff168273ffffffffffffffffffffffffffffffffffffffff16141561247257600080fd5b600086101561248057600080fd5b6000600d60008473ffffffffffffffffffffffffffffffffffffffff1673ffffffffffffffffffffffffffffffffffffffff16815260200190815260200160002080549050116124cf57600080fd5b6000600d60008473ffffffffffffffffffffffffffffffffffffffff1673ffffffffffffffffffffffffffffffffffffffff168152602001908152602001600020878154811061251b57fe5b9060005260206000209060060201905085816001019080519060200190612543929190613aee565b508481600201908051906020019061255c929190613aee565b5083816003019080519060200190612575929190613aee565b50600191505095945050505050565b6000600560008473ffffffffffffffffffffffffffffffffffffffff1673ffffffffffffffffffffffffffffffffffffffff16815260200190815260200160002060008373ffffffffffffffffffffffffffffffffffffffff1673ffffffffffffffffffffffffffffffffffffffff16815260200190815260200160002060009054906101000a900460ff16905092915050565b60008073ffffffffffffffffffffffffffffffffffffffff168873ffffffffffffffffffffffffffffffffffffffff16141561265357600080fd5b600087101561266157600080fd5b6000600f60008a73ffffffffffffffffffffffffffffffffffffffff1673ffffffffffffffffffffffffffffffffffffffff16815260200190815260200160002080549050116126b057600080fd5b6000600f60008a73ffffffffffffffffffffffffffffffffffffffff1673ffffffffffffffffffffffffffffffffffffffff16815260200190815260200160002088815481106126fc57fe5b9060005260206000209060090201905084816006019080519060200190612724929190613aee565b508681600101908051906020019061273d929190613aee565b50858160050181905550828160080160006101000a81548160ff0219169083151502179055508381600701819055506001915050979650505050505050565b6000600c600081548092919060010191905055506000600d60003373ffffffffffffffffffffffffffffffffffffffff1673ffffffffffffffffffffffffffffffffffffffff168152602001908152602001600020600c54815481106127de57fe5b90600052602060002090600602019050600c54816000018190555084816001019080519060200190612811929190613aee565b508381600201908051906020019061282a929190613aee565b5082816003019080519060200190612843929190613aee565b5060008160050160006101000a81548160ff021916908360ff1602179055507fefbd145fea57de09a0db3eea45c2b6b13a53246bff3d28eaf26c5b4b1ece83f8600c548686338760405161289b9594939291906144e2565b60405180910390a160019150509392505050565b60006128c582600261310090919063ffffffff16565b9050919050565b600033905090565b816004600083815260200190815260200160002060006101000a81548173ffffffffffffffffffffffffffffffffffffffff021916908373ffffffffffffffffffffffffffffffffffffffff160217905550808273ffffffffffffffffffffffffffffffffffffffff166129478361155f565b73ffffffffffffffffffffffffffffffffffffffff167f8c5be1e5ebec7d5bd14f71427d1e84f3dd0314c0f7b2291e5b200ac8c7c3b92560405160405180910390a45050565b600061299b8260000161311a565b9050919050565b60006129ad826128af565b612a02576040517f08c379a000000000000000000000000000000000000000000000000000000000815260040180806020018281038252602c81526020018061488f602c913960400191505060405180910390fd5b6000612a0d8361155f565b90508073ffffffffffffffffffffffffffffffffffffffff168473ffffffffffffffffffffffffffffffffffffffff161480612a7c57508373ffffffffffffffffffffffffffffffffffffffff16612a6484610b5f565b73ffffffffffffffffffffffffffffffffffffffff16145b80612a8d5750612a8c8185612584565b5b91505092915050565b8273ffffffffffffffffffffffffffffffffffffffff16612ab68261155f565b73ffffffffffffffffffffffffffffffffffffffff1614612b22576040517f08c379a00000000000000000000000000000000000000000000000000000000081526004018080602001828103825260298152602001806149946029913960400191505060405180910390fd5b600073ffffffffffffffffffffffffffffffffffffffff168273ffffffffffffffffffffffffffffffffffffffff161415612ba8576040517f08c379a00000000000000000000000000000000000000000000000000000000081526004018080602001828103825260248152602001806148456024913960400191505060405180910390fd5b612bb383838361312b565b612bbe6000826128d4565b612c0f81600160008673ffffffffffffffffffffffffffffffffffffffff1673ffffffffffffffffffffffffffffffffffffffff16815260200190815260200160002061313090919063ffffffff16565b50612c6181600160008573ffffffffffffffffffffffffffffffffffffffff1673ffffffffffffffffffffffffffffffffffffffff16815260200190815260200160002061314a90919063ffffffff16565b50612c78818360026131649092919063ffffffff16565b50808273ffffffffffffffffffffffffffffffffffffffff168473ffffffffffffffffffffffffffffffffffffffff167fddf252ad1be2c89b69c2b068fc378daa952ba7f163c4a11628f55a4df523b3ef60405160405180910390a4505050565b6000612ce88360000183613199565b60001c905092915050565b600080600080612d06866000018661321c565b915091508160001c8160001c9350935050509250929050565b600073ffffffffffffffffffffffffffffffffffffffff168273ffffffffffffffffffffffffffffffffffffffff161415612dc2576040517f08c379a00000000000000000000000000000000000000000000000000000000081526004018080602001828103825260208152602001807f4552433732313a206d696e7420746f20746865207a65726f206164647265737381525060200191505060405180910390fd5b612dcb816128af565b15612e3e576040517f08c379a000000000000000000000000000000000000000000000000000000000815260040180806020018281038252601c8152602001807f4552433732313a20746f6b656e20616c7265616479206d696e7465640000000081525060200191505060405180910390fd5b612e4a6000838361312b565b612e9b81600160008573ffffffffffffffffffffffffffffffffffffffff1673ffffffffffffffffffffffffffffffffffffffff16815260200190815260200160002061314a90919063ffffffff16565b50612eb2818360026131649092919063ffffffff16565b50808273ffffffffffffffffffffffffffffffffffffffff16600073ffffffffffffffffffffffffffffffffffffffff167fddf252ad1be2c89b69c2b068fc378daa952ba7f163c4a11628f55a4df523b3ef60405160405180910390a45050565b6000612f26846000018460001b846132b5565b60001c90509392505050565b6000612f40826000016133ab565b9050919050565b612f52848484612a96565b612f5e848484846133bc565b612fb3576040517f08c379a00000000000000000000000000000000000000000000000000000000081526004018080602001828103825260328152602001806148136032913960400191505060405180910390fd5b50505050565b60606000821415613001576040518060400160405280600181526020017f300000000000000000000000000000000000000000000000000000000000000081525090506130fb565b600082905060005b6000821461302b578080600101915050600a828161302357fe5b049150613009565b60008167ffffffffffffffff8111801561304457600080fd5b506040519080825280601f01601f1916602001820160405280156130775781602001600182028036833780820191505090505b50905060006001830390508593505b600084146130f357600a848161309857fe5b0660300160f81b828280600190039350815181106130b257fe5b60200101907effffffffffffffffffffffffffffffffffffffffffffffffffffffffffffff1916908160001a905350600a84816130eb57fe5b049350613086565b819450505050505b919050565b6000613112836000018360001b6135d5565b905092915050565b600081600001805490509050919050565b505050565b6000613142836000018360001b6135f8565b905092915050565b600061315c836000018360001b6136e0565b905092915050565b6000613190846000018460001b8473ffffffffffffffffffffffffffffffffffffffff1660001b613750565b90509392505050565b6000818360000180549050116131fa576040517f08c379a00000000000000000000000000000000000000000000000000000000081526004018080602001828103825260228152602001806147f16022913960400191505060405180910390fd5b82600001828154811061320957fe5b9060005260206000200154905092915050565b6000808284600001805490501161327e576040517f08c379a00000000000000000000000000000000000000000000000000000000081526004018080602001828103825260228152602001806149466022913960400191505060405180910390fd5b600084600001848154811061328f57fe5b906000526020600020906002020190508060000154816001015492509250509250929050565b6000808460010160008581526020019081526020016000205490506000811415839061337c576040517f08c379a00000000000000000000000000000000000000000000000000000000081526004018080602001828103825283818151815260200191508051906020019080838360005b83811015613341578082015181840152602081019050613326565b50505050905090810190601f16801561336e5780820380516001836020036101000a031916815260200191505b509250505060405180910390fd5b5084600001600182038154811061338f57fe5b9060005260206000209060020201600101549150509392505050565b600081600001805490509050919050565b60006133dd8473ffffffffffffffffffffffffffffffffffffffff1661382c565b6133ea57600190506135cd565b600061355463150b7a0260e01b6133ff6128cc565b888787604051602401808573ffffffffffffffffffffffffffffffffffffffff1681526020018473ffffffffffffffffffffffffffffffffffffffff16815260200183815260200180602001828103825283818151815260200191508051906020019080838360005b83811015613483578082015181840152602081019050613468565b50505050905090810190601f1680156134b05780820380516001836020036101000a031916815260200191505b5095505050505050604051602081830303815290604052907bffffffffffffffffffffffffffffffffffffffffffffffffffffffff19166020820180517bffffffffffffffffffffffffffffffffffffffffffffffffffffffff8381831617835250505050604051806060016040528060328152602001614813603291398773ffffffffffffffffffffffffffffffffffffffff1661383f9092919063ffffffff16565b9050600081806020019051602081101561356d57600080fd5b8101908080519060200190929190505050905063150b7a0260e01b7bffffffffffffffffffffffffffffffffffffffffffffffffffffffff1916817bffffffffffffffffffffffffffffffffffffffffffffffffffffffff191614925050505b949350505050565b600080836001016000848152602001908152602001600020541415905092915050565b600080836001016000848152602001908152602001600020549050600081146136d4576000600182039050600060018660000180549050039050600086600001828154811061364357fe5b906000526020600020015490508087600001848154811061366057fe5b906000526020600020018190555060018301876001016000838152602001908152602001600020819055508660000180548061369857fe5b600190038181906000526020600020016000905590558660010160008781526020019081526020016000206000905560019450505050506136da565b60009150505b92915050565b60006136ec8383613857565b61374557826000018290806001815401808255809150506001900390600052602060002001600090919091909150558260000180549050836001016000848152602001908152602001600020819055506001905061374a565b600090505b92915050565b60008084600101600085815260200190815260200160002054905060008114156137f757846000016040518060400160405280868152602001858152509080600181540180825580915050600190039060005260206000209060020201600090919091909150600082015181600001556020820151816001015550508460000180549050856001016000868152602001908152602001600020819055506001915050613825565b8285600001600183038154811061380a57fe5b90600052602060002090600202016001018190555060009150505b9392505050565b600080823b905060008111915050919050565b606061384e848460008561387a565b90509392505050565b600080836001016000848152602001908152602001600020541415905092915050565b6060824710156138d5576040517f08c379a00000000000000000000000000000000000000000000000000000000081526004018080602001828103825260268152602001806148696026913960400191505060405180910390fd5b6138de8561382c565b613950576040517f08c379a000000000000000000000000000000000000000000000000000000000815260040180806020018281038252601d8152602001807f416464726573733a2063616c6c20746f206e6f6e2d636f6e747261637400000081525060200191505060405180910390fd5b6000808673ffffffffffffffffffffffffffffffffffffffff1685876040518082805190602001908083835b6020831061399f578051825260208201915060208101905060208303925061397c565b6001836020036101000a03801982511681845116808217855250505050505090500191505060006040518083038185875af1925050503d8060008114613a01576040519150601f19603f3d011682016040523d82523d6000602084013e613a06565b606091505b5091509150613a16828286613a22565b92505050949350505050565b60608315613a3257829050613ae7565b600083511115613a455782518084602001fd5b816040517f08c379a00000000000000000000000000000000000000000000000000000000081526004018080602001828103825283818151815260200191508051906020019080838360005b83811015613aac578082015181840152602081019050613a91565b50505050905090810190601f168015613ad95780820380516001836020036101000a031916815260200191505b509250505060405180910390fd5b9392505050565b828054600181600116156101000203166002900490600052602060002090601f016020900481019282613b245760008555613b6b565b82601f10613b3d57805160ff1916838001178555613b6b565b82800160010185558215613b6b579182015b82811115613b6a578251825591602001919060010190613b4f565b5b509050613b789190613bc4565b5090565b50805460018160011615610100020316600290046000825580601f10613ba25750613bc1565b601f016020900490600052602060002090810190613bc09190613bc4565b5b50565b5b80821115613bdd576000816000905550600101613bc5565b5090565b6000613bf4613bef846145e3565b6145b2565b905082815260208101848484011115613c0c57600080fd5b613c17848285614728565b509392505050565b6000613c32613c2d84614613565b6145b2565b905082815260208101848484011115613c4a57600080fd5b613c55848285614728565b509392505050565b600081359050613c6c8161477d565b92915050565b600081359050613c8181614794565b92915050565b600081359050613c96816147ab565b92915050565b600081359050613cab816147c2565b92915050565b600082601f830112613cc257600080fd5b8135613cd2848260208601613be1565b91505092915050565b600082601f830112613cec57600080fd5b8135613cfc848260208601613c1f565b91505092915050565b600081359050613d14816147d9565b92915050565b600060208284031215613d2c57600080fd5b6000613d3a84828501613c5d565b91505092915050565b60008060408385031215613d5657600080fd5b6000613d6485828601613c5d565b9250506020613d7585828601613c5d565b9150509250929050565b600080600060608486031215613d9457600080fd5b6000613da286828701613c5d565b9350506020613db386828701613c72565b9250506040613dc486828701613d05565b9150509250925092565b600080600060608486031215613de357600080fd5b6000613df186828701613c5d565b9350506020613e0286828701613c5d565b9250506040613e1386828701613d05565b9150509250925092565b60008060008060808587031215613e3357600080fd5b6000613e4187828801613c5d565b9450506020613e5287828801613c5d565b9350506040613e6387828801613d05565b925050606085013567ffffffffffffffff811115613e8057600080fd5b613e8c87828801613cb1565b91505092959194509250565b60008060408385031215613eab57600080fd5b6000613eb985828601613c5d565b9250506020613eca85828601613c87565b9150509250929050565b60008060408385031215613ee757600080fd5b6000613ef585828601613c5d565b9250506020613f0685828601613d05565b9150509250929050565b600080600080600080600060e0888a031215613f2b57600080fd5b6000613f398a828b01613c5d565b9750506020613f4a8a828b01613d05565b965050604088013567ffffffffffffffff811115613f6757600080fd5b613f738a828b01613cdb565b9550506060613f848a828b01613d05565b945050608088013567ffffffffffffffff811115613fa157600080fd5b613fad8a828b01613cdb565b93505060a0613fbe8a828b01613d05565b92505060c0613fcf8a828b01613c87565b91505092959891949750929550565b600060208284031215613ff057600080fd5b6000613ffe84828501613c9c565b91505092915050565b60008060006060848603121561401c57600080fd5b600084013567ffffffffffffffff81111561403657600080fd5b61404286828701613cdb565b935050602084013567ffffffffffffffff81111561405f57600080fd5b61406b86828701613cdb565b925050604084013567ffffffffffffffff81111561408857600080fd5b61409486828701613cdb565b9150509250925092565b600080600080600060a086880312156140b657600080fd5b600086013567ffffffffffffffff8111156140d057600080fd5b6140dc88828901613cdb565b95505060206140ed88828901613d05565b945050604086013567ffffffffffffffff81111561410a57600080fd5b61411688828901613cdb565b935050606061412788828901613d05565b925050608061413888828901613c87565b9150509295509295909350565b60006020828403121561415757600080fd5b600061416584828501613d05565b91505092915050565b6000806040838503121561418157600080fd5b600061418f85828601613d05565b92505060206141a085828601613c5d565b9150509250929050565b600080600080600060a086880312156141c257600080fd5b60006141d088828901613d05565b955050602086013567ffffffffffffffff8111156141ed57600080fd5b6141f988828901613cdb565b945050604086013567ffffffffffffffff81111561421657600080fd5b61422288828901613cdb565b935050606086013567ffffffffffffffff81111561423f57600080fd5b61424b88828901613cdb565b925050608061425c88828901613c5d565b9150509295509295909350565b614272816146f2565b82525050565b61428181614671565b82525050565b6142908161465f565b82525050565b61429f81614683565b82525050565b60006142b082614643565b6142ba818561464e565b93506142ca818560208601614737565b6142d38161476c565b840191505092915050565b6142e7816146db565b82525050565b6142f6816146e5565b82525050565b60006020820190506143116000830184614287565b92915050565b600060208201905061432c6000830184614296565b92915050565b6000602082019050818103600083015261434c81846142a5565b905092915050565b600061010082019050818103600083015261436f818b6142a5565b905061437e602083018a614287565b61438b6040830189614287565b6143986060830188614287565b6143a560808301876142de565b81810360a08301526143b781866142a5565b90506143c660c08301856142de565b6143d360e0830184614296565b9998505050505050505050565b600060608201905081810360008301526143fa81866142a5565b9050818103602083015261440e81856142a5565b9050818103604083015261442281846142a5565b9050949350505050565b600060208201905061444160008301846142de565b92915050565b60006101208201905061445d600083018c6142de565b818103602083015261446f818b6142a5565b905061447e604083018a614278565b61448b6060830189614278565b6144986080830188614278565b6144a560a08301876142de565b81810360c08301526144b781866142a5565b90506144c660e08301856142de565b6144d4610100830184614296565b9a9950505050505050505050565b600060a0820190506144f760008301886142de565b818103602083015261450981876142a5565b9050818103604083015261451d81866142a5565b905061452c6060830185614269565b818103608083015261453e81846142a5565b90509695505050505050565b600060a08201905061455f60008301886142de565b818103602083015261457181876142a5565b9050818103604083015261458581866142a5565b9050818103606083015261459981856142a5565b90506145a860808301846142ed565b9695505050505050565b6000604051905081810181811067ffffffffffffffff821117156145d9576145d861476a565b5b8060405250919050565b600067ffffffffffffffff8211156145fe576145fd61476a565b5b601f19601f8301169050602081019050919050565b600067ffffffffffffffff82111561462e5761462d61476a565b5b601f19601f8301169050602081019050919050565b600081519050919050565b600082825260208201905092915050565b600061466a826146bb565b9050919050565b600061467c826146bb565b9050919050565b60008115159050919050565b60007fffffffff0000000000000000000000000000000000000000000000000000000082169050919050565b600073ffffffffffffffffffffffffffffffffffffffff82169050919050565b6000819050919050565b600060ff82169050919050565b60006146fd82614704565b9050919050565b600061470f82614716565b9050919050565b6000614721826146bb565b9050919050565b82818337600083830152505050565b60005b8381101561475557808201518184015260208101905061473a565b83811115614764576000848401525b50505050565bfe5b6000601f19601f8301169050919050565b6147868161465f565b811461479157600080fd5b50565b61479d81614671565b81146147a857600080fd5b50565b6147b481614683565b81146147bf57600080fd5b50565b6147cb8161468f565b81146147d657600080fd5b50565b6147e2816146db565b81146147ed57600080fd5b5056fe456e756d657261626c655365743a20696e646578206f7574206f6620626f756e64734552433732313a207472616e7366657220746f206e6f6e20455243373231526563656976657220696d706c656d656e7465724552433732313a207472616e7366657220746f20746865207a65726f2061646472657373416464726573733a20696e73756666696369656e742062616c616e636520666f722063616c6c4552433732313a206f70657261746f7220717565727920666f72206e6f6e6578697374656e7420746f6b656e4552433732313a20617070726f76652063616c6c6572206973206e6f74206f776e6572206e6f7220617070726f76656420666f7220616c6c4552433732313a2062616c616e636520717565727920666f7220746865207a65726f20616464726573734552433732313a206f776e657220717565727920666f72206e6f6e6578697374656e7420746f6b656e456e756d657261626c654d61703a20696e646578206f7574206f6620626f756e64734552433732313a20617070726f76656420717565727920666f72206e6f6e6578697374656e7420746f6b656e4552433732313a207472616e73666572206f6620746f6b656e2074686174206973206e6f74206f776e4552433732314d657461646174613a2055524920717565727920666f72206e6f6e6578697374656e7420746f6b656e4552433732313a20617070726f76616c20746f2063757272656e74206f776e65724552433732313a207472616e736665722063616c6c6572206973206e6f74206f776e6572206e6f7220617070726f766564a2646970667358221220ba27720919c30d3387900152743fc5679bfb98f10204d50e7aec9efcb82a140464736f6c63430007060033",
  "immutableReferences": {},
  "source": "//import ERC721 interface\r\nimport \"./ERC721.sol\";\r\n\r\npragma abicoder v2;\r\npragma solidity >=0.6.0 <0.8.0;\r\n\r\n//implement\r\ncontract ArtFundsStorage is ERC721 {\r\n    // this contract's token collection name\r\n    string public collectionName;\r\n    // this contract's token symbol\r\n    string public collectionNameSymbol;\r\n\r\n    struct Collection {\r\n        uint256 tokenId;\r\n        string imageURL;\r\n        string name;\r\n        string description;\r\n        mapping(uint256 => DigitalItem) listDigital;\r\n        uint8 listSize;\r\n    }\r\n\r\n    uint256 collectionCounter = 0;\r\n    mapping(address => Collection[]) public ownerCollections;\r\n    // uint256[] collections;\r\n\r\n    struct DigitalItem {\r\n        uint256 tokenId;\r\n        string name;\r\n        address payable mintedBy;\r\n        address payable currentOwner;\r\n        address payable previousOwner;\r\n        uint256 price;\r\n        string imageURL;\r\n        uint256 numberOfTransfers;\r\n        bool forSale;\r\n    }\r\n\r\n    uint256 digitalItemCounter = 0;\r\n    mapping(address => DigitalItem[]) public ownerDigitalItems;\r\n    // uint256[] digitalItems;\r\n\r\n    event ItemCreated(\r\n        uint256 id,\r\n        string name,\r\n        address mintedBy,\r\n        address currentOwner,\r\n        address previousOwner,\r\n        uint256 price,\r\n        string imageURL,\r\n        uint256 numberOfTransfers,\r\n        bool forSale\r\n    );\r\n\r\n    event ItemForSale(uint256 id, bool forSale);\r\n\r\n    event CollectionCreated(\r\n        uint256 tokenId,\r\n        string imageURL,\r\n        string name,\r\n        address ownedBy,\r\n        string description\r\n    );\r\n\r\n    // initialize contract while deployment with contract's collection name and token\r\n    constructor() ERC721(\"ArtFunds Collection\", \"CB\") {\r\n        collectionName = name();\r\n        collectionNameSymbol = symbol();\r\n    }\r\n\r\n    // mint a new digital item\r\n    function mintDigitalItem(\r\n        string memory _name,\r\n        uint256 _price,\r\n        string memory _imageURL,\r\n        uint256 _numberOfTransfers,\r\n        bool _forSale\r\n    ) external {\r\n        // check if thic fucntion caller is not an zero address account\r\n        require(msg.sender != address(0));\r\n        // increment counter\r\n        digitalItemCounter++;\r\n        // check if a token exists with the above token id => incremented counter\r\n        require(!_exists(digitalItemCounter));\r\n\r\n        // mint the token\r\n        _mint(msg.sender, digitalItemCounter);\r\n\r\n        DigitalItem memory newDigitalItem = DigitalItem(\r\n            digitalItemCounter,\r\n            _name,\r\n            msg.sender,\r\n            msg.sender,\r\n            msg.sender,\r\n            _price,\r\n            _imageURL,\r\n            0,\r\n            true\r\n        );\r\n        ownerDigitalItems[msg.sender].push(newDigitalItem);\r\n    }\r\n\r\n    function updateCurrentOwnerDigitalItem(\r\n        address _owner,\r\n        address payable _newOwner,\r\n        uint256 _tokenId\r\n    ) public returns (bool success) {\r\n        require(_owner != address(0x0));\r\n        require(_newOwner != address(0x0));\r\n        require(_tokenId >= 0);\r\n        DigitalItem storage digitalItem = ownerDigitalItems[_owner][_tokenId];\r\n        digitalItem.previousOwner = digitalItem.currentOwner;\r\n        digitalItem.currentOwner = _newOwner;\r\n        return true;\r\n    }\r\n\r\n    function updateInfoBasicDigitalItem(\r\n        address _owner,\r\n        uint256 _tokenId,\r\n        string memory _name,\r\n        uint256 _price,\r\n        string memory _imageURL,\r\n        uint256 _numberOfTransfers,\r\n        bool _forSale\r\n    ) public returns (bool success) {\r\n        require(_owner != address(0x0));\r\n        require(_tokenId >= 0);\r\n        require(ownerDigitalItems[_owner].length > 0);\r\n        DigitalItem storage digitalItem = ownerDigitalItems[_owner][_tokenId];\r\n        digitalItem.imageURL = _imageURL;\r\n        digitalItem.name = _name;\r\n        digitalItem.price = _price;\r\n        digitalItem.forSale = _forSale;\r\n        digitalItem.numberOfTransfers = _numberOfTransfers;\r\n        return true;\r\n    }\r\n\r\n    function getDigitalItem(uint256 _tokenId, address _owner)\r\n        public\r\n        view\r\n        returns (\r\n            string memory _name,\r\n            address _mintedBy,\r\n            address _currentOwner,\r\n            address _previousOwner,\r\n            uint256 _price,\r\n            string memory _imageURL,\r\n            uint256 _numberOfTransfers,\r\n            bool _forSale\r\n        )\r\n    {\r\n        require(_owner != address(0x0));\r\n        require(_tokenId >= 0);\r\n        require(ownerDigitalItems[_owner].length > 0);\r\n        DigitalItem storage digitalItem = ownerDigitalItems[_owner][_tokenId];\r\n\r\n        return (\r\n            digitalItem.name,\r\n            digitalItem.mintedBy,\r\n            digitalItem.currentOwner,\r\n            digitalItem.previousOwner,\r\n            digitalItem.price,\r\n            digitalItem.imageURL,\r\n            digitalItem.numberOfTransfers,\r\n            digitalItem.forSale\r\n        );\r\n    }\r\n\r\n    function getDigitalItemCount(address _owner) public view returns (uint256) {\r\n        require(_owner != address(0x0));\r\n        return ownerDigitalItems[_owner].length;\r\n    }\r\n\r\n    //This function to create collection from address\r\n    function createCollection(\r\n        string memory _imageURL,\r\n        string memory _name,\r\n        string memory _description\r\n    ) public returns (bool success) {\r\n        collectionCounter++;\r\n        Collection storage collection = ownerCollections[msg.sender][\r\n            collectionCounter\r\n        ];\r\n        collection.tokenId = collectionCounter;\r\n        collection.imageURL = _imageURL;\r\n        collection.name = _name;\r\n        collection.description = _description;\r\n        collection.listSize = 0;\r\n\r\n        // ownerCollections[msg.sender].push(collection);\r\n\r\n        emit CollectionCreated(\r\n            collectionCounter,\r\n            _imageURL,\r\n            _name,\r\n            msg.sender,\r\n            _description\r\n        );\r\n        return true;\r\n    }\r\n\r\n    // function getCollections(address _owner)\r\n    //     public\r\n    //     view\r\n    //     returns (Collection[] memory)\r\n    // {\r\n    //     require(_owner != address(0x0));\r\n    //     require(ownerCollections[_owner].length > 0);\r\n    //     return ownerCollections[_owner];\r\n    // }\r\n\r\n    function getCollection(uint256 _tokenId, address _owner)\r\n        public\r\n        view\r\n        returns (\r\n            string memory _imageURL,\r\n            string memory _name,\r\n            string memory _description\r\n        )\r\n    {\r\n        require(_owner != address(0x0));\r\n        require(_tokenId >= 0);\r\n        require(ownerCollections[_owner].length > 0);\r\n        Collection storage collection = ownerCollections[_owner][_tokenId];\r\n\r\n        return (collection.imageURL, collection.name, collection.description);\r\n    }\r\n\r\n    function updateCollection(\r\n        uint256 _tokenId,\r\n        string memory _imageURL,\r\n        string memory _name,\r\n        string memory _description,\r\n        address _owner\r\n    ) public returns (bool success) {\r\n        require(_owner != address(0x0));\r\n        require(_tokenId >= 0);\r\n        require(ownerCollections[_owner].length > 0);\r\n        Collection storage collection = ownerCollections[_owner][_tokenId];\r\n        collection.imageURL = _imageURL;\r\n        collection.name = _name;\r\n        collection.description = _description;\r\n        return true;\r\n    }\r\n\r\n    function deleteCollection(address _owner, uint256 _tokenId)\r\n        public\r\n        returns (bool success)\r\n    {\r\n        require(_owner != address(0x0));\r\n        require(_tokenId >= 0);\r\n        require(ownerCollections[_owner].length > 0);\r\n        // uint256 rowToDelete = ownerCollections[_owner][_tokenId].index;\r\n        delete ownerCollections[_owner][_tokenId];\r\n        collectionCounter--;\r\n        return true;\r\n    }\r\n\r\n    function getCollectionCount(address _owner) public view returns (uint256) {\r\n        require(_owner != address(0x0));\r\n        return ownerCollections[_owner].length;\r\n    }\r\n\r\n    // struct Order {\r\n    //     address maker;\r\n    //     address taker;\r\n    //     uint256 tokenId;\r\n    // }\r\n\r\n    // mapping(uint256 => Order) orders;\r\n\r\n    // function makeOrder(uint256 _tokenId, uint256 _price) external {\r\n    //     // validate nft\r\n    //     // ...\r\n    // }\r\n\r\n    // function takeOrder(uint256 _tokenId) external {\r\n    //     // check order exists\r\n    //     // validate funds\r\n    //     // transfer funds\r\n    //     // transfer nft\r\n    // }\r\n}\r\n",
  "sourcePath": "G:\\GitHub\\ArtFunds_DevFest\\blockchain\\contracts\\ArtFundsStorage.sol",
  "compiler": {
    "name": "solc",
    "version": "0.7.6+commit.7338295f.Emscripten.clang"
  },
  "schemaVersion": "3.4.3",
  "updatedAt": "2021-10-27T15:56:57.245Z",
  "networkType": "ethereum",
  "devdoc": {
    "kind": "dev",
    "methods": {
      "approve(address,uint256)": {
        "details": "See {IERC721-approve}."
      },
      "balanceOf(address)": {
        "details": "See {IERC721-balanceOf}."
      },
      "baseURI()": {
        "details": "Returns the base URI set via {_setBaseURI}. This will be automatically added as a prefix in {tokenURI} to each token's URI, or to the token ID if no specific URI is set for that token ID."
      },
      "getApproved(uint256)": {
        "details": "See {IERC721-getApproved}."
      },
      "isApprovedForAll(address,address)": {
        "details": "See {IERC721-isApprovedForAll}."
      },
      "name()": {
        "details": "See {IERC721Metadata-name}."
      },
      "ownerOf(uint256)": {
        "details": "See {IERC721-ownerOf}."
      },
      "safeTransferFrom(address,address,uint256)": {
        "details": "See {IERC721-safeTransferFrom}."
      },
      "safeTransferFrom(address,address,uint256,bytes)": {
        "details": "See {IERC721-safeTransferFrom}."
      },
      "setApprovalForAll(address,bool)": {
        "details": "See {IERC721-setApprovalForAll}."
      },
      "supportsInterface(bytes4)": {
        "details": "See {IERC165-supportsInterface}. Time complexity O(1), guaranteed to always use less than 30 000 gas."
      },
      "symbol()": {
        "details": "See {IERC721Metadata-symbol}."
      },
      "tokenByIndex(uint256)": {
        "details": "See {IERC721Enumerable-tokenByIndex}."
      },
      "tokenOfOwnerByIndex(address,uint256)": {
        "details": "See {IERC721Enumerable-tokenOfOwnerByIndex}."
      },
      "tokenURI(uint256)": {
        "details": "See {IERC721Metadata-tokenURI}."
      },
      "totalSupply()": {
        "details": "See {IERC721Enumerable-totalSupply}."
      },
      "transferFrom(address,address,uint256)": {
        "details": "See {IERC721-transferFrom}."
      }
    },
    "version": 1
  },
  "userdoc": {
    "kind": "user",
    "methods": {},
    "version": 1
  }
}