{
  "contractName": "ArtFundsStorage",
  "abi": [
    {
      "inputs": [],
      "stateMutability": "nonpayable",
      "type": "constructor"
    },
    {
      "anonymous": false,
      "inputs": [
        {
          "indexed": true,
          "internalType": "address",
          "name": "owner",
          "type": "address"
        },
        {
          "indexed": true,
          "internalType": "address",
          "name": "approved",
          "type": "address"
        },
        {
          "indexed": true,
          "internalType": "uint256",
          "name": "tokenId",
          "type": "uint256"
        }
      ],
      "name": "Approval",
      "type": "event"
    },
    {
      "anonymous": false,
      "inputs": [
        {
          "indexed": true,
          "internalType": "address",
          "name": "owner",
          "type": "address"
        },
        {
          "indexed": true,
          "internalType": "address",
          "name": "operator",
          "type": "address"
        },
        {
          "indexed": false,
          "internalType": "bool",
          "name": "approved",
          "type": "bool"
        }
      ],
      "name": "ApprovalForAll",
      "type": "event"
    },
    {
      "anonymous": false,
      "inputs": [
        {
          "indexed": false,
          "internalType": "uint256",
          "name": "tokenId",
          "type": "uint256"
        },
        {
          "indexed": false,
          "internalType": "string",
          "name": "imageURL",
          "type": "string"
        },
        {
          "indexed": false,
          "internalType": "string",
          "name": "name",
          "type": "string"
        },
        {
          "indexed": false,
          "internalType": "address",
          "name": "ownedBy",
          "type": "address"
        },
        {
          "indexed": false,
          "internalType": "string",
          "name": "description",
          "type": "string"
        }
      ],
      "name": "CollectionCreated",
      "type": "event"
    },
    {
      "anonymous": false,
      "inputs": [
        {
          "indexed": false,
          "internalType": "uint256",
          "name": "id",
          "type": "uint256"
        },
        {
          "indexed": false,
          "internalType": "uint256",
          "name": "belongByColID",
          "type": "uint256"
        },
        {
          "indexed": false,
          "internalType": "string",
          "name": "name",
          "type": "string"
        },
        {
          "indexed": false,
          "internalType": "address",
          "name": "mintedBy",
          "type": "address"
        },
        {
          "indexed": false,
          "internalType": "address",
          "name": "currentOwner",
          "type": "address"
        },
        {
          "indexed": false,
          "internalType": "address",
          "name": "previousOwner",
          "type": "address"
        },
        {
          "indexed": false,
          "internalType": "uint256",
          "name": "price",
          "type": "uint256"
        },
        {
          "indexed": false,
          "internalType": "string",
          "name": "imageURL",
          "type": "string"
        },
        {
          "indexed": false,
          "internalType": "uint256",
          "name": "numberOfTransfers",
          "type": "uint256"
        },
        {
          "indexed": false,
          "internalType": "bool",
          "name": "forSale",
          "type": "bool"
        }
      ],
      "name": "ItemCreated",
      "type": "event"
    },
    {
      "anonymous": false,
      "inputs": [
        {
          "indexed": false,
          "internalType": "uint256",
          "name": "id",
          "type": "uint256"
        },
        {
          "indexed": false,
          "internalType": "bool",
          "name": "forSale",
          "type": "bool"
        }
      ],
      "name": "ItemForSale",
      "type": "event"
    },
    {
      "anonymous": false,
      "inputs": [
        {
          "indexed": true,
          "internalType": "address",
          "name": "from",
          "type": "address"
        },
        {
          "indexed": true,
          "internalType": "address",
          "name": "to",
          "type": "address"
        },
        {
          "indexed": true,
          "internalType": "uint256",
          "name": "tokenId",
          "type": "uint256"
        }
      ],
      "name": "Transfer",
      "type": "event"
    },
    {
      "inputs": [
        {
          "internalType": "address",
          "name": "to",
          "type": "address"
        },
        {
          "internalType": "uint256",
          "name": "tokenId",
          "type": "uint256"
        }
      ],
      "name": "approve",
      "outputs": [],
      "stateMutability": "nonpayable",
      "type": "function"
    },
    {
      "inputs": [
        {
          "internalType": "address",
          "name": "owner",
          "type": "address"
        }
      ],
      "name": "balanceOf",
      "outputs": [
        {
          "internalType": "uint256",
          "name": "",
          "type": "uint256"
        }
      ],
      "stateMutability": "view",
      "type": "function",
      "constant": true
    },
    {
      "inputs": [],
      "name": "baseURI",
      "outputs": [
        {
          "internalType": "string",
          "name": "",
          "type": "string"
        }
      ],
      "stateMutability": "view",
      "type": "function",
      "constant": true
    },
    {
      "inputs": [],
      "name": "collectionCounter",
      "outputs": [
        {
          "internalType": "uint256",
          "name": "",
          "type": "uint256"
        }
      ],
      "stateMutability": "view",
      "type": "function",
      "constant": true
    },
    {
      "inputs": [],
      "name": "collectionName",
      "outputs": [
        {
          "internalType": "string",
          "name": "",
          "type": "string"
        }
      ],
      "stateMutability": "view",
      "type": "function",
      "constant": true
    },
    {
      "inputs": [],
      "name": "collectionNameSymbol",
      "outputs": [
        {
          "internalType": "string",
          "name": "",
          "type": "string"
        }
      ],
      "stateMutability": "view",
      "type": "function",
      "constant": true
    },
    {
      "inputs": [],
      "name": "digitalItemCounter",
      "outputs": [
        {
          "internalType": "uint256",
          "name": "",
          "type": "uint256"
        }
      ],
      "stateMutability": "view",
      "type": "function",
      "constant": true
    },
    {
      "inputs": [
        {
          "internalType": "uint256",
          "name": "tokenId",
          "type": "uint256"
        }
      ],
      "name": "getApproved",
      "outputs": [
        {
          "internalType": "address",
          "name": "",
          "type": "address"
        }
      ],
      "stateMutability": "view",
      "type": "function",
      "constant": true
    },
    {
      "inputs": [
        {
          "internalType": "address",
          "name": "owner",
          "type": "address"
        },
        {
          "internalType": "address",
          "name": "operator",
          "type": "address"
        }
      ],
      "name": "isApprovedForAll",
      "outputs": [
        {
          "internalType": "bool",
          "name": "",
          "type": "bool"
        }
      ],
      "stateMutability": "view",
      "type": "function",
      "constant": true
    },
    {
      "inputs": [],
      "name": "name",
      "outputs": [
        {
          "internalType": "string",
          "name": "",
          "type": "string"
        }
      ],
      "stateMutability": "view",
      "type": "function",
      "constant": true
    },
    {
      "inputs": [
        {
          "internalType": "address",
          "name": "",
          "type": "address"
        },
        {
          "internalType": "uint256",
          "name": "",
          "type": "uint256"
        }
      ],
      "name": "ownerCollections",
      "outputs": [
        {
          "internalType": "uint256",
          "name": "tokenId",
          "type": "uint256"
        },
        {
          "internalType": "string",
          "name": "imageURL",
          "type": "string"
        },
        {
          "internalType": "string",
          "name": "name",
          "type": "string"
        },
        {
          "internalType": "string",
          "name": "description",
          "type": "string"
        }
      ],
      "stateMutability": "view",
      "type": "function",
      "constant": true
    },
    {
      "inputs": [
        {
          "internalType": "address",
          "name": "",
          "type": "address"
        },
        {
          "internalType": "uint256",
          "name": "",
          "type": "uint256"
        }
      ],
      "name": "ownerDigitalItems",
      "outputs": [
        {
          "internalType": "uint256",
          "name": "tokenId",
          "type": "uint256"
        },
        {
          "internalType": "uint256",
          "name": "collectionID",
          "type": "uint256"
        },
        {
          "internalType": "string",
          "name": "name",
          "type": "string"
        },
        {
          "internalType": "uint256",
          "name": "price",
          "type": "uint256"
        },
        {
          "internalType": "string",
          "name": "itemURL",
          "type": "string"
        },
        {
          "internalType": "address payable",
          "name": "currentOwner",
          "type": "address"
        },
        {
          "internalType": "uint256",
          "name": "numberOfTransfers",
          "type": "uint256"
        },
        {
          "internalType": "bool",
          "name": "forSale",
          "type": "bool"
        }
      ],
      "stateMutability": "view",
      "type": "function",
      "constant": true
    },
    {
      "inputs": [
        {
          "internalType": "uint256",
          "name": "tokenId",
          "type": "uint256"
        }
      ],
      "name": "ownerOf",
      "outputs": [
        {
          "internalType": "address",
          "name": "",
          "type": "address"
        }
      ],
      "stateMutability": "view",
      "type": "function",
      "constant": true
    },
    {
      "inputs": [
        {
          "internalType": "address",
          "name": "from",
          "type": "address"
        },
        {
          "internalType": "address",
          "name": "to",
          "type": "address"
        },
        {
          "internalType": "uint256",
          "name": "tokenId",
          "type": "uint256"
        }
      ],
      "name": "safeTransferFrom",
      "outputs": [],
      "stateMutability": "nonpayable",
      "type": "function"
    },
    {
      "inputs": [
        {
          "internalType": "address",
          "name": "from",
          "type": "address"
        },
        {
          "internalType": "address",
          "name": "to",
          "type": "address"
        },
        {
          "internalType": "uint256",
          "name": "tokenId",
          "type": "uint256"
        },
        {
          "internalType": "bytes",
          "name": "_data",
          "type": "bytes"
        }
      ],
      "name": "safeTransferFrom",
      "outputs": [],
      "stateMutability": "nonpayable",
      "type": "function"
    },
    {
      "inputs": [
        {
          "internalType": "address",
          "name": "operator",
          "type": "address"
        },
        {
          "internalType": "bool",
          "name": "approved",
          "type": "bool"
        }
      ],
      "name": "setApprovalForAll",
      "outputs": [],
      "stateMutability": "nonpayable",
      "type": "function"
    },
    {
      "inputs": [
        {
          "internalType": "bytes4",
          "name": "interfaceId",
          "type": "bytes4"
        }
      ],
      "name": "supportsInterface",
      "outputs": [
        {
          "internalType": "bool",
          "name": "",
          "type": "bool"
        }
      ],
      "stateMutability": "view",
      "type": "function",
      "constant": true
    },
    {
      "inputs": [],
      "name": "symbol",
      "outputs": [
        {
          "internalType": "string",
          "name": "",
          "type": "string"
        }
      ],
      "stateMutability": "view",
      "type": "function",
      "constant": true
    },
    {
      "inputs": [
        {
          "internalType": "uint256",
          "name": "index",
          "type": "uint256"
        }
      ],
      "name": "tokenByIndex",
      "outputs": [
        {
          "internalType": "uint256",
          "name": "",
          "type": "uint256"
        }
      ],
      "stateMutability": "view",
      "type": "function",
      "constant": true
    },
    {
      "inputs": [
        {
          "internalType": "address",
          "name": "owner",
          "type": "address"
        },
        {
          "internalType": "uint256",
          "name": "index",
          "type": "uint256"
        }
      ],
      "name": "tokenOfOwnerByIndex",
      "outputs": [
        {
          "internalType": "uint256",
          "name": "",
          "type": "uint256"
        }
      ],
      "stateMutability": "view",
      "type": "function",
      "constant": true
    },
    {
      "inputs": [
        {
          "internalType": "uint256",
          "name": "tokenId",
          "type": "uint256"
        }
      ],
      "name": "tokenURI",
      "outputs": [
        {
          "internalType": "string",
          "name": "",
          "type": "string"
        }
      ],
      "stateMutability": "view",
      "type": "function",
      "constant": true
    },
    {
      "inputs": [],
      "name": "totalSupply",
      "outputs": [
        {
          "internalType": "uint256",
          "name": "",
          "type": "uint256"
        }
      ],
      "stateMutability": "view",
      "type": "function",
      "constant": true
    },
    {
      "inputs": [
        {
          "internalType": "address",
          "name": "from",
          "type": "address"
        },
        {
          "internalType": "address",
          "name": "to",
          "type": "address"
        },
        {
          "internalType": "uint256",
          "name": "tokenId",
          "type": "uint256"
        }
      ],
      "name": "transferFrom",
      "outputs": [],
      "stateMutability": "nonpayable",
      "type": "function"
    },
    {
      "inputs": [
        {
          "internalType": "uint256",
          "name": "_collectionID",
          "type": "uint256"
        },
        {
          "internalType": "string",
          "name": "_name",
          "type": "string"
        },
        {
          "internalType": "uint256",
          "name": "_price",
          "type": "uint256"
        },
        {
          "internalType": "string",
          "name": "_itemURL",
          "type": "string"
        },
        {
          "internalType": "bool",
          "name": "_forSale",
          "type": "bool"
        }
      ],
      "name": "mintDigitalItem",
      "outputs": [],
      "stateMutability": "nonpayable",
      "type": "function"
    },
    {
      "inputs": [
        {
          "internalType": "uint256",
          "name": "_itemID",
          "type": "uint256"
        },
        {
          "internalType": "address",
          "name": "_owner",
          "type": "address"
        }
      ],
      "name": "getDigitalItem",
      "outputs": [
        {
          "internalType": "uint256",
          "name": "_tokenId",
          "type": "uint256"
        },
        {
          "internalType": "uint256",
          "name": "_collectionID",
          "type": "uint256"
        },
        {
          "internalType": "string",
          "name": "_name",
          "type": "string"
        },
        {
          "internalType": "uint256",
          "name": "_price",
          "type": "uint256"
        },
        {
          "internalType": "string",
          "name": "_itemURL",
          "type": "string"
        },
        {
          "internalType": "uint256",
          "name": "numberOfTransfers",
          "type": "uint256"
        },
        {
          "internalType": "bool",
          "name": "_forSale",
          "type": "bool"
        }
      ],
      "stateMutability": "view",
      "type": "function",
      "constant": true
    },
    {
      "inputs": [
        {
          "internalType": "address",
          "name": "_owner",
          "type": "address"
        }
      ],
      "name": "getDigitalItemCount",
      "outputs": [
        {
          "internalType": "uint256",
          "name": "count",
          "type": "uint256"
        }
      ],
      "stateMutability": "view",
      "type": "function",
      "constant": true
    },
    {
      "inputs": [
        {
          "internalType": "string",
          "name": "_imageURL",
          "type": "string"
        },
        {
          "internalType": "string",
          "name": "_name",
          "type": "string"
        },
        {
          "internalType": "string",
          "name": "_description",
          "type": "string"
        }
      ],
      "name": "createCollection",
      "outputs": [
        {
          "internalType": "bool",
          "name": "success",
          "type": "bool"
        }
      ],
      "stateMutability": "nonpayable",
      "type": "function"
    },
    {
      "inputs": [
        {
          "internalType": "uint256",
          "name": "_tokenId",
          "type": "uint256"
        },
        {
          "internalType": "address",
          "name": "_owner",
          "type": "address"
        }
      ],
      "name": "getCollection",
      "outputs": [
        {
          "internalType": "uint256",
          "name": "_id",
          "type": "uint256"
        },
        {
          "internalType": "string",
          "name": "_imageURL",
          "type": "string"
        },
        {
          "internalType": "string",
          "name": "_name",
          "type": "string"
        },
        {
          "internalType": "string",
          "name": "_description",
          "type": "string"
        }
      ],
      "stateMutability": "view",
      "type": "function",
      "constant": true
    },
    {
      "inputs": [
        {
          "internalType": "address",
          "name": "_owner",
          "type": "address"
        }
      ],
      "name": "getCollectionCount",
      "outputs": [
        {
          "internalType": "uint256",
          "name": "count",
          "type": "uint256"
        }
      ],
      "stateMutability": "view",
      "type": "function",
      "constant": true
    },
    {
      "inputs": [
        {
          "internalType": "address",
          "name": "_owner",
          "type": "address"
        }
      ],
      "name": "getDigitalItemOwnerCount",
      "outputs": [
        {
          "internalType": "uint256",
          "name": "count",
          "type": "uint256"
        }
      ],
      "stateMutability": "view",
      "type": "function",
      "constant": true
    }
  ],
  "bytecode": "0x60806040523480156200001157600080fd5b506040518060400160405280601381526020017f41727446756e647320436f6c6c656374696f6e000000000000000000000000008152506040518060400160405280600281526020017f4342000000000000000000000000000000000000000000000000000000000000815250620000966301ffc9a760e01b6200016860201b60201c565b8160069080519060200190620000ae929190620003bd565b508060079080519060200190620000c7929190620003bd565b50620000e06380ac58cd60e01b6200016860201b60201c565b620000f8635b5e139f60e01b6200016860201b60201c565b6200011063780e9d6360e01b6200016860201b60201c565b5050620001226200027160201b60201c565b600a908051906020019062000139929190620003bd565b506200014a6200031760201b60201c565b600b908051906020019062000161929190620003bd565b5062000473565b63ffffffff60e01b817bffffffffffffffffffffffffffffffffffffffffffffffffffffffff1916141562000205576040517f08c379a000000000000000000000000000000000000000000000000000000000815260040180806020018281038252601c8152602001807f4552433136353a20696e76616c696420696e746572666163652069640000000081525060200191505060405180910390fd5b6001600080837bffffffffffffffffffffffffffffffffffffffffffffffffffffffff19167bffffffffffffffffffffffffffffffffffffffffffffffffffffffff1916815260200190815260200160002060006101000a81548160ff02191690831515021790555050565b606060068054600181600116156101000203166002900480601f0160208091040260200160405190810160405280929190818152602001828054600181600116156101000203166002900480156200030d5780601f10620002e1576101008083540402835291602001916200030d565b820191906000526020600020905b815481529060010190602001808311620002ef57829003601f168201915b5050505050905090565b606060078054600181600116156101000203166002900480601f016020809104026020016040519081016040528092919081815260200182805460018160011615610100020316600290048015620003b35780601f106200038757610100808354040283529160200191620003b3565b820191906000526020600020905b8154815290600101906020018083116200039557829003601f168201915b5050505050905090565b828054600181600116156101000203166002900490600052602060002090601f016020900481019282620003f5576000855562000441565b82601f106200041057805160ff191683800117855562000441565b8280016001018555821562000441579182015b828111156200044057825182559160200191906001019062000423565b5b50905062000450919062000454565b5090565b5b808211156200046f57600081600090555060010162000455565b5090565b61419180620004836000396000f3fe608060405234801561001057600080fd5b50600436106101da5760003560e01c80636352211e116101045780639bdbf7e0116100a2578063d5f45a7d11610071578063d5f45a7d146105d5578063e5326ab11461060c578063e985e9c51461062a578063ece86c211461065a576101da565b80639bdbf7e014610537578063a22cb4651461056d578063b88d4fde14610589578063c87b56dd146105a5576101da565b80636f9507f9116100de5780636f9507f91461049b57806370a08231146104b9578063849a33ce146104e957806395d89b4114610519576101da565b80636352211e146104315780636a3a852e146104615780636c0360eb1461047d576101da565b806323b872dd1161017c57806342842e0e1161014b57806342842e0e146103975780634f6ccce7146103b35780635187a82d146103e357806354515bb614610401576101da565b806323b872dd146102fa5780632f745c5914610316578063371913261461034657806339b5f83014610364576101da565b806307a5b578116101b857806307a5b57814610260578063081812fc14610290578063095ea7b3146102c057806318160ddd146102dc576101da565b806301188b3f146101df57806301ffc9a71461021257806306fdde0314610242575b600080fd5b6101f960048036038101906101f49190613923565b61068a565b6040516102099493929190613b65565b60405180910390f35b61022c6004803603810190610227919061383a565b61090e565b6040516102399190613aa5565b60405180910390f35b61024a610975565b6040516102579190613ac0565b60405180910390f35b61027a60048036038101906102759190613693565b610a17565b6040516102879190613ae2565b60405180910390f35b6102aa60048036038101906102a591906138fa565b610a9c565b6040516102b79190613a8a565b60405180910390f35b6102da60048036038101906102d591906137fe565b610b37565b005b6102e4610c7b565b6040516102f19190613ae2565b60405180910390f35b610314600480360381019061030f91906136f8565b610c8c565b005b610330600480360381019061032b91906137fe565b610d02565b60405161033d9190613ae2565b60405180910390f35b61034e610d5d565b60405161035b9190613ae2565b60405180910390f35b61037e600480360381019061037991906137fe565b610d63565b60405161038e9493929190613b65565b60405180910390f35b6103b160048036038101906103ac91906136f8565b610f78565b005b6103cd60048036038101906103c891906138fa565b610f98565b6040516103da9190613ae2565b60405180910390f35b6103eb610fbb565b6040516103f89190613ae2565b60405180910390f35b61041b60048036038101906104169190613693565b610fc1565b6040516104289190613ae2565b60405180910390f35b61044b600480360381019061044691906138fa565b611046565b6040516104589190613a8a565b60405180910390f35b61047b6004803603810190610476919061395f565b61107d565b005b61048561128b565b6040516104929190613ac0565b60405180910390f35b6104a361132d565b6040516104b09190613ac0565b60405180910390f35b6104d360048036038101906104ce9190613693565b6113cb565b6040516104e09190613ae2565b60405180910390f35b61050360048036038101906104fe9190613693565b6114a0565b6040516105109190613ae2565b60405180910390f35b6105216114ec565b60405161052e9190613ac0565b60405180910390f35b610551600480360381019061054c9190613923565b61158e565b6040516105649796959493929190613c4b565b60405180910390f35b610587600480360381019061058291906137c2565b6118b4565b005b6105a3600480360381019061059e9190613747565b611a6a565b005b6105bf60048036038101906105ba91906138fa565b611ae2565b6040516105cc9190613ac0565b60405180910390f35b6105ef60048036038101906105ea91906137fe565b611db3565b604051610603989796959493929190613bbf565b60405180910390f35b610614611f75565b6040516106219190613ac0565b60405180910390f35b610644600480360381019061063f91906136bc565b612013565b6040516106519190613aa5565b60405180910390f35b610674600480360381019061066f9190613863565b6120a7565b6040516106819190613aa5565b60405180910390f35b600060608060606000600d60008773ffffffffffffffffffffffffffffffffffffffff1673ffffffffffffffffffffffffffffffffffffffff16815260200190815260200160002087815481106106dd57fe5b906000526020600020906004020160405180608001604052908160008201548152602001600182018054600181600116156101000203166002900480601f0160208091040260200160405190810160405280929190818152602001828054600181600116156101000203166002900480156107995780601f1061076e57610100808354040283529160200191610799565b820191906000526020600020905b81548152906001019060200180831161077c57829003601f168201915b50505050508152602001600282018054600181600116156101000203166002900480601f01602080910402602001604051908101604052809291908181526020018280546001816001161561010002031660029004801561083b5780601f106108105761010080835404028352916020019161083b565b820191906000526020600020905b81548152906001019060200180831161081e57829003601f168201915b50505050508152602001600382018054600181600116156101000203166002900480601f0160208091040260200160405190810160405280929190818152602001828054600181600116156101000203166002900480156108dd5780601f106108b2576101008083540402835291602001916108dd565b820191906000526020600020905b8154815290600101906020018083116108c057829003601f168201915b5050505050815250509050806000015181602001518260400151836060015194509450945094505092959194509250565b6000806000837bffffffffffffffffffffffffffffffffffffffffffffffffffffffff19167bffffffffffffffffffffffffffffffffffffffffffffffffffffffff1916815260200190815260200160002060009054906101000a900460ff169050919050565b606060068054600181600116156101000203166002900480601f016020809104026020016040519081016040528092919081815260200182805460018160011615610100020316600290048015610a0d5780601f106109e257610100808354040283529160200191610a0d565b820191906000526020600020905b8154815290600101906020018083116109f057829003601f168201915b5050505050905090565b60008073ffffffffffffffffffffffffffffffffffffffff168273ffffffffffffffffffffffffffffffffffffffff161415610a5257600080fd5b600f60008373ffffffffffffffffffffffffffffffffffffffff1673ffffffffffffffffffffffffffffffffffffffff168152602001908152602001600020805490509050919050565b6000610aa7826121fb565b610afc576040517f08c379a000000000000000000000000000000000000000000000000000000000815260040180806020018281038252602c81526020018061405a602c913960400191505060405180910390fd5b6004600083815260200190815260200160002060009054906101000a900473ffffffffffffffffffffffffffffffffffffffff169050919050565b6000610b4282611046565b90508073ffffffffffffffffffffffffffffffffffffffff168373ffffffffffffffffffffffffffffffffffffffff161415610bc9576040517f08c379a000000000000000000000000000000000000000000000000000000000815260040180806020018281038252602181526020018061410a6021913960400191505060405180910390fd5b8073ffffffffffffffffffffffffffffffffffffffff16610be8612218565b73ffffffffffffffffffffffffffffffffffffffff161480610c175750610c1681610c11612218565b612013565b5b610c6c576040517f08c379a0000000000000000000000000000000000000000000000000000000008152600401808060200182810382526038815260200180613fad6038913960400191505060405180910390fd5b610c768383612220565b505050565b6000610c8760026122d9565b905090565b610c9d610c97612218565b826122ee565b610cf2576040517f08c379a000000000000000000000000000000000000000000000000000000000815260040180806020018281038252603181526020018061412b6031913960400191505060405180910390fd5b610cfd8383836123e2565b505050565b6000610d5582600160008673ffffffffffffffffffffffffffffffffffffffff1673ffffffffffffffffffffffffffffffffffffffff16815260200190815260200160002061262590919063ffffffff16565b905092915050565b600e5481565b600d6020528160005260406000208181548110610d7f57600080fd5b906000526020600020906004020160009150915050806000015490806001018054600181600116156101000203166002900480601f016020809104026020016040519081016040528092919081815260200182805460018160011615610100020316600290048015610e325780601f10610e0757610100808354040283529160200191610e32565b820191906000526020600020905b815481529060010190602001808311610e1557829003601f168201915b505050505090806002018054600181600116156101000203166002900480601f016020809104026020016040519081016040528092919081815260200182805460018160011615610100020316600290048015610ed05780601f10610ea557610100808354040283529160200191610ed0565b820191906000526020600020905b815481529060010190602001808311610eb357829003601f168201915b505050505090806003018054600181600116156101000203166002900480601f016020809104026020016040519081016040528092919081815260200182805460018160011615610100020316600290048015610f6e5780601f10610f4357610100808354040283529160200191610f6e565b820191906000526020600020905b815481529060010190602001808311610f5157829003601f168201915b5050505050905084565b610f9383838360405180602001604052806000815250611a6a565b505050565b600080610faf83600261263f90919063ffffffff16565b50905080915050919050565b600c5481565b60008073ffffffffffffffffffffffffffffffffffffffff168273ffffffffffffffffffffffffffffffffffffffff161415610ffc57600080fd5b600d60008373ffffffffffffffffffffffffffffffffffffffff1673ffffffffffffffffffffffffffffffffffffffff168152602001908152602001600020805490509050919050565b60006110768260405180606001604052806029815260200161400f60299139600261266b9092919063ffffffff16565b9050919050565b600073ffffffffffffffffffffffffffffffffffffffff163373ffffffffffffffffffffffffffffffffffffffff1614156110b757600080fd5b600e600081548092919060010191905055506110d4600e546121fb565b156110de57600080fd5b6110ea33600e5461268a565b6110f6600e548361287e565b6000604051806101000160405280600e5481526020018781526020018681526020018581526020018481526020013373ffffffffffffffffffffffffffffffffffffffff168152602001600081526020018315158152509050600f60003373ffffffffffffffffffffffffffffffffffffffff1673ffffffffffffffffffffffffffffffffffffffff168152602001908152602001600020819080600181540180825580915050600190039060005260206000209060080201600090919091909150600082015181600001556020820151816001015560408201518160020190805190602001906111e89291906134c4565b5060608201518160030155608082015181600401908051906020019061120f9291906134c4565b5060a08201518160050160006101000a81548173ffffffffffffffffffffffffffffffffffffffff021916908373ffffffffffffffffffffffffffffffffffffffff16021790555060c0820151816006015560e08201518160070160006101000a81548160ff0219169083151502179055505050505050505050565b606060098054600181600116156101000203166002900480601f0160208091040260200160405190810160405280929190818152602001828054600181600116156101000203166002900480156113235780601f106112f857610100808354040283529160200191611323565b820191906000526020600020905b81548152906001019060200180831161130657829003601f168201915b5050505050905090565b600b8054600181600116156101000203166002900480601f0160208091040260200160405190810160405280929190818152602001828054600181600116156101000203166002900480156113c35780601f10611398576101008083540402835291602001916113c3565b820191906000526020600020905b8154815290600101906020018083116113a657829003601f168201915b505050505081565b60008073ffffffffffffffffffffffffffffffffffffffff168273ffffffffffffffffffffffffffffffffffffffff161415611452576040517f08c379a000000000000000000000000000000000000000000000000000000000815260040180806020018281038252602a815260200180613fe5602a913960400191505060405180910390fd5b611499600160008473ffffffffffffffffffffffffffffffffffffffff1673ffffffffffffffffffffffffffffffffffffffff168152602001908152602001600020612908565b9050919050565b6000600f60008373ffffffffffffffffffffffffffffffffffffffff1673ffffffffffffffffffffffffffffffffffffffff168152602001908152602001600020805490509050919050565b606060078054600181600116156101000203166002900480601f0160208091040260200160405190810160405280929190818152602001828054600181600116156101000203166002900480156115845780601f1061155957610100808354040283529160200191611584565b820191906000526020600020905b81548152906001019060200180831161156757829003601f168201915b5050505050905090565b600080606060006060600080600073ffffffffffffffffffffffffffffffffffffffff168873ffffffffffffffffffffffffffffffffffffffff1614156115d457600080fd5b60008610156115e257600080fd5b6000600f60008a73ffffffffffffffffffffffffffffffffffffffff1673ffffffffffffffffffffffffffffffffffffffff168152602001908152602001600020805490501161163157600080fd5b6000600f60008a73ffffffffffffffffffffffffffffffffffffffff1673ffffffffffffffffffffffffffffffffffffffff1681526020019081526020016000208a8154811061167d57fe5b9060005260206000209060080201604051806101000160405290816000820154815260200160018201548152602001600282018054600181600116156101000203166002900480601f0160208091040260200160405190810160405280929190818152602001828054600181600116156101000203166002900480156117445780601f1061171957610100808354040283529160200191611744565b820191906000526020600020905b81548152906001019060200180831161172757829003601f168201915b5050505050815260200160038201548152602001600482018054600181600116156101000203166002900480601f0160208091040260200160405190810160405280929190818152602001828054600181600116156101000203166002900480156117f05780601f106117c5576101008083540402835291602001916117f0565b820191906000526020600020905b8154815290600101906020018083116117d357829003601f168201915b505050505081526020016005820160009054906101000a900473ffffffffffffffffffffffffffffffffffffffff1673ffffffffffffffffffffffffffffffffffffffff1673ffffffffffffffffffffffffffffffffffffffff168152602001600682015481526020016007820160009054906101000a900460ff1615151515815250509050806000015181602001518260400151836060015184608001518560c001518660e0015197509750975097509750975097505092959891949750929550565b6118bc612218565b73ffffffffffffffffffffffffffffffffffffffff168273ffffffffffffffffffffffffffffffffffffffff16141561195d576040517f08c379a00000000000000000000000000000000000000000000000000000000081526004018080602001828103825260198152602001807f4552433732313a20617070726f766520746f2063616c6c65720000000000000081525060200191505060405180910390fd5b806005600061196a612218565b73ffffffffffffffffffffffffffffffffffffffff1673ffffffffffffffffffffffffffffffffffffffff16815260200190815260200160002060008473ffffffffffffffffffffffffffffffffffffffff1673ffffffffffffffffffffffffffffffffffffffff16815260200190815260200160002060006101000a81548160ff0219169083151502179055508173ffffffffffffffffffffffffffffffffffffffff16611a17612218565b73ffffffffffffffffffffffffffffffffffffffff167f17307eab39ab6107e8899845ad3d59bd9653f200f220920489ca2b5937696c318360405180821515815260200191505060405180910390a35050565b611a7b611a75612218565b836122ee565b611ad0576040517f08c379a000000000000000000000000000000000000000000000000000000000815260040180806020018281038252603181526020018061412b6031913960400191505060405180910390fd5b611adc8484848461291d565b50505050565b6060611aed826121fb565b611b42576040517f08c379a000000000000000000000000000000000000000000000000000000000815260040180806020018281038252602f8152602001806140db602f913960400191505060405180910390fd5b6000600860008481526020019081526020016000208054600181600116156101000203166002900480601f016020809104026020016040519081016040528092919081815260200182805460018160011615610100020316600290048015611beb5780601f10611bc057610100808354040283529160200191611beb565b820191906000526020600020905b815481529060010190602001808311611bce57829003601f168201915b505050505090506000611bfc61128b565b9050600081511415611c12578192505050611dae565b600082511115611ce35780826040516020018083805190602001908083835b60208310611c545780518252602082019150602081019050602083039250611c31565b6001836020036101000a03801982511681845116808217855250505050505090500182805190602001908083835b60208310611ca55780518252602082019150602081019050602083039250611c82565b6001836020036101000a0380198251168184511680821785525050505050509050019250505060405160208183030381529060405292505050611dae565b80611ced8561298f565b6040516020018083805190602001908083835b60208310611d235780518252602082019150602081019050602083039250611d00565b6001836020036101000a03801982511681845116808217855250505050505090500182805190602001908083835b60208310611d745780518252602082019150602081019050602083039250611d51565b6001836020036101000a03801982511681845116808217855250505050505090500192505050604051602081830303815290604052925050505b919050565b600f6020528160005260406000208181548110611dcf57600080fd5b906000526020600020906008020160009150915050806000015490806001015490806002018054600181600116156101000203166002900480601f016020809104026020016040519081016040528092919081815260200182805460018160011615610100020316600290048015611e885780601f10611e5d57610100808354040283529160200191611e88565b820191906000526020600020905b815481529060010190602001808311611e6b57829003601f168201915b505050505090806003015490806004018054600181600116156101000203166002900480601f016020809104026020016040519081016040528092919081815260200182805460018160011615610100020316600290048015611f2c5780601f10611f0157610100808354040283529160200191611f2c565b820191906000526020600020905b815481529060010190602001808311611f0f57829003601f168201915b5050505050908060050160009054906101000a900473ffffffffffffffffffffffffffffffffffffffff16908060060154908060070160009054906101000a900460ff16905088565b600a8054600181600116156101000203166002900480601f01602080910402602001604051908101604052809291908181526020018280546001816001161561010002031660029004801561200b5780601f10611fe05761010080835404028352916020019161200b565b820191906000526020600020905b815481529060010190602001808311611fee57829003601f168201915b505050505081565b6000600560008473ffffffffffffffffffffffffffffffffffffffff1673ffffffffffffffffffffffffffffffffffffffff16815260200190815260200160002060008373ffffffffffffffffffffffffffffffffffffffff1673ffffffffffffffffffffffffffffffffffffffff16815260200190815260200160002060009054906101000a900460ff16905092915050565b6000600c6000815480929190600101919050555060006040518060800160405280600c548152602001868152602001858152602001848152509050600d60003373ffffffffffffffffffffffffffffffffffffffff1673ffffffffffffffffffffffffffffffffffffffff1681526020019081526020016000208190806001815401808255809150506001900390600052602060002090600402016000909190919091506000820151816000015560208201518160010190805190602001906121719291906134c4565b50604082015181600201908051906020019061218e9291906134c4565b5060608201518160030190805190602001906121ab9291906134c4565b5050507fefbd145fea57de09a0db3eea45c2b6b13a53246bff3d28eaf26c5b4b1ece83f8600c54868633876040516121e7959493929190613afd565b60405180910390a160019150509392505050565b6000612211826002612ad690919063ffffffff16565b9050919050565b600033905090565b816004600083815260200190815260200160002060006101000a81548173ffffffffffffffffffffffffffffffffffffffff021916908373ffffffffffffffffffffffffffffffffffffffff160217905550808273ffffffffffffffffffffffffffffffffffffffff1661229383611046565b73ffffffffffffffffffffffffffffffffffffffff167f8c5be1e5ebec7d5bd14f71427d1e84f3dd0314c0f7b2291e5b200ac8c7c3b92560405160405180910390a45050565b60006122e782600001612af0565b9050919050565b60006122f9826121fb565b61234e576040517f08c379a000000000000000000000000000000000000000000000000000000000815260040180806020018281038252602c815260200180613f81602c913960400191505060405180910390fd5b600061235983611046565b90508073ffffffffffffffffffffffffffffffffffffffff168473ffffffffffffffffffffffffffffffffffffffff1614806123c857508373ffffffffffffffffffffffffffffffffffffffff166123b084610a9c565b73ffffffffffffffffffffffffffffffffffffffff16145b806123d957506123d88185612013565b5b91505092915050565b8273ffffffffffffffffffffffffffffffffffffffff1661240282611046565b73ffffffffffffffffffffffffffffffffffffffff161461246e576040517f08c379a00000000000000000000000000000000000000000000000000000000081526004018080602001828103825260298152602001806140b26029913960400191505060405180910390fd5b600073ffffffffffffffffffffffffffffffffffffffff168273ffffffffffffffffffffffffffffffffffffffff1614156124f4576040517f08c379a0000000000000000000000000000000000000000000000000000000008152600401808060200182810382526024815260200180613f376024913960400191505060405180910390fd5b6124ff838383612b01565b61250a600082612220565b61255b81600160008673ffffffffffffffffffffffffffffffffffffffff1673ffffffffffffffffffffffffffffffffffffffff168152602001908152602001600020612b0690919063ffffffff16565b506125ad81600160008573ffffffffffffffffffffffffffffffffffffffff1673ffffffffffffffffffffffffffffffffffffffff168152602001908152602001600020612b2090919063ffffffff16565b506125c481836002612b3a9092919063ffffffff16565b50808273ffffffffffffffffffffffffffffffffffffffff168473ffffffffffffffffffffffffffffffffffffffff167fddf252ad1be2c89b69c2b068fc378daa952ba7f163c4a11628f55a4df523b3ef60405160405180910390a4505050565b60006126348360000183612b6f565b60001c905092915050565b6000806000806126528660000186612bf2565b915091508160001c8160001c9350935050509250929050565b600061267e846000018460001b84612c8b565b60001c90509392505050565b600073ffffffffffffffffffffffffffffffffffffffff168273ffffffffffffffffffffffffffffffffffffffff16141561272d576040517f08c379a00000000000000000000000000000000000000000000000000000000081526004018080602001828103825260208152602001807f4552433732313a206d696e7420746f20746865207a65726f206164647265737381525060200191505060405180910390fd5b612736816121fb565b156127a9576040517f08c379a000000000000000000000000000000000000000000000000000000000815260040180806020018281038252601c8152602001807f4552433732313a20746f6b656e20616c7265616479206d696e7465640000000081525060200191505060405180910390fd5b6127b560008383612b01565b61280681600160008573ffffffffffffffffffffffffffffffffffffffff1673ffffffffffffffffffffffffffffffffffffffff168152602001908152602001600020612b2090919063ffffffff16565b5061281d81836002612b3a9092919063ffffffff16565b50808273ffffffffffffffffffffffffffffffffffffffff16600073ffffffffffffffffffffffffffffffffffffffff167fddf252ad1be2c89b69c2b068fc378daa952ba7f163c4a11628f55a4df523b3ef60405160405180910390a45050565b612887826121fb565b6128dc576040517f08c379a000000000000000000000000000000000000000000000000000000000815260040180806020018281038252602c815260200180614086602c913960400191505060405180910390fd5b806008600084815260200190815260200160002090805190602001906129039291906134c4565b505050565b600061291682600001612d81565b9050919050565b6129288484846123e2565b61293484848484612d92565b612989576040517f08c379a0000000000000000000000000000000000000000000000000000000008152600401808060200182810382526032815260200180613f056032913960400191505060405180910390fd5b50505050565b606060008214156129d7576040518060400160405280600181526020017f30000000000000000000000000000000000000000000000000000000000000008152509050612ad1565b600082905060005b60008214612a01578080600101915050600a82816129f957fe5b0491506129df565b60008167ffffffffffffffff81118015612a1a57600080fd5b506040519080825280601f01601f191660200182016040528015612a4d5781602001600182028036833780820191505090505b50905060006001830390508593505b60008414612ac957600a8481612a6e57fe5b0660300160f81b82828060019003935081518110612a8857fe5b60200101907effffffffffffffffffffffffffffffffffffffffffffffffffffffffffffff1916908160001a905350600a8481612ac157fe5b049350612a5c565b819450505050505b919050565b6000612ae8836000018360001b612fab565b905092915050565b600081600001805490509050919050565b505050565b6000612b18836000018360001b612fce565b905092915050565b6000612b32836000018360001b6130b6565b905092915050565b6000612b66846000018460001b8473ffffffffffffffffffffffffffffffffffffffff1660001b613126565b90509392505050565b600081836000018054905011612bd0576040517f08c379a0000000000000000000000000000000000000000000000000000000008152600401808060200182810382526022815260200180613ee36022913960400191505060405180910390fd5b826000018281548110612bdf57fe5b9060005260206000200154905092915050565b60008082846000018054905011612c54576040517f08c379a00000000000000000000000000000000000000000000000000000000081526004018080602001828103825260228152602001806140386022913960400191505060405180910390fd5b6000846000018481548110612c6557fe5b906000526020600020906002020190508060000154816001015492509250509250929050565b60008084600101600085815260200190815260200160002054905060008114158390612d52576040517f08c379a00000000000000000000000000000000000000000000000000000000081526004018080602001828103825283818151815260200191508051906020019080838360005b83811015612d17578082015181840152602081019050612cfc565b50505050905090810190601f168015612d445780820380516001836020036101000a031916815260200191505b509250505060405180910390fd5b50846000016001820381548110612d6557fe5b9060005260206000209060020201600101549150509392505050565b600081600001805490509050919050565b6000612db38473ffffffffffffffffffffffffffffffffffffffff16613202565b612dc05760019050612fa3565b6000612f2a63150b7a0260e01b612dd5612218565b888787604051602401808573ffffffffffffffffffffffffffffffffffffffff1681526020018473ffffffffffffffffffffffffffffffffffffffff16815260200183815260200180602001828103825283818151815260200191508051906020019080838360005b83811015612e59578082015181840152602081019050612e3e565b50505050905090810190601f168015612e865780820380516001836020036101000a031916815260200191505b5095505050505050604051602081830303815290604052907bffffffffffffffffffffffffffffffffffffffffffffffffffffffff19166020820180517bffffffffffffffffffffffffffffffffffffffffffffffffffffffff8381831617835250505050604051806060016040528060328152602001613f05603291398773ffffffffffffffffffffffffffffffffffffffff166132159092919063ffffffff16565b90506000818060200190516020811015612f4357600080fd5b8101908080519060200190929190505050905063150b7a0260e01b7bffffffffffffffffffffffffffffffffffffffffffffffffffffffff1916817bffffffffffffffffffffffffffffffffffffffffffffffffffffffff191614925050505b949350505050565b600080836001016000848152602001908152602001600020541415905092915050565b600080836001016000848152602001908152602001600020549050600081146130aa576000600182039050600060018660000180549050039050600086600001828154811061301957fe5b906000526020600020015490508087600001848154811061303657fe5b906000526020600020018190555060018301876001016000838152602001908152602001600020819055508660000180548061306e57fe5b600190038181906000526020600020016000905590558660010160008781526020019081526020016000206000905560019450505050506130b0565b60009150505b92915050565b60006130c2838361322d565b61311b578260000182908060018154018082558091505060019003906000526020600020016000909190919091505582600001805490508360010160008481526020019081526020016000208190555060019050613120565b600090505b92915050565b60008084600101600085815260200190815260200160002054905060008114156131cd578460000160405180604001604052808681526020018581525090806001815401808255809150506001900390600052602060002090600202016000909190919091506000820151816000015560208201518160010155505084600001805490508560010160008681526020019081526020016000208190555060019150506131fb565b828560000160018303815481106131e057fe5b90600052602060002090600202016001018190555060009150505b9392505050565b600080823b905060008111915050919050565b60606132248484600085613250565b90509392505050565b600080836001016000848152602001908152602001600020541415905092915050565b6060824710156132ab576040517f08c379a0000000000000000000000000000000000000000000000000000000008152600401808060200182810382526026815260200180613f5b6026913960400191505060405180910390fd5b6132b485613202565b613326576040517f08c379a000000000000000000000000000000000000000000000000000000000815260040180806020018281038252601d8152602001807f416464726573733a2063616c6c20746f206e6f6e2d636f6e747261637400000081525060200191505060405180910390fd5b6000808673ffffffffffffffffffffffffffffffffffffffff1685876040518082805190602001908083835b602083106133755780518252602082019150602081019050602083039250613352565b6001836020036101000a03801982511681845116808217855250505050505090500191505060006040518083038185875af1925050503d80600081146133d7576040519150601f19603f3d011682016040523d82523d6000602084013e6133dc565b606091505b50915091506133ec8282866133f8565b92505050949350505050565b60608315613408578290506134bd565b60008351111561341b5782518084602001fd5b816040517f08c379a00000000000000000000000000000000000000000000000000000000081526004018080602001828103825283818151815260200191508051906020019080838360005b83811015613482578082015181840152602081019050613467565b50505050905090810190601f1680156134af5780820380516001836020036101000a031916815260200191505b509250505060405180910390fd5b9392505050565b828054600181600116156101000203166002900490600052602060002090601f0160209004810192826134fa5760008555613541565b82601f1061351357805160ff1916838001178555613541565b82800160010185558215613541579182015b82811115613540578251825591602001919060010190613525565b5b50905061354e9190613552565b5090565b5b8082111561356b576000816000905550600101613553565b5090565b600061358261357d84613cf9565b613cc8565b90508281526020810184848401111561359a57600080fd5b6135a5848285613e31565b509392505050565b60006135c06135bb84613d29565b613cc8565b9050828152602081018484840111156135d857600080fd5b6135e3848285613e31565b509392505050565b6000813590506135fa81613e86565b92915050565b60008135905061360f81613e9d565b92915050565b60008135905061362481613eb4565b92915050565b600082601f83011261363b57600080fd5b813561364b84826020860161356f565b91505092915050565b600082601f83011261366557600080fd5b81356136758482602086016135ad565b91505092915050565b60008135905061368d81613ecb565b92915050565b6000602082840312156136a557600080fd5b60006136b3848285016135eb565b91505092915050565b600080604083850312156136cf57600080fd5b60006136dd858286016135eb565b92505060206136ee858286016135eb565b9150509250929050565b60008060006060848603121561370d57600080fd5b600061371b868287016135eb565b935050602061372c868287016135eb565b925050604061373d8682870161367e565b9150509250925092565b6000806000806080858703121561375d57600080fd5b600061376b878288016135eb565b945050602061377c878288016135eb565b935050604061378d8782880161367e565b925050606085013567ffffffffffffffff8111156137aa57600080fd5b6137b68782880161362a565b91505092959194509250565b600080604083850312156137d557600080fd5b60006137e3858286016135eb565b92505060206137f485828601613600565b9150509250929050565b6000806040838503121561381157600080fd5b600061381f858286016135eb565b92505060206138308582860161367e565b9150509250929050565b60006020828403121561384c57600080fd5b600061385a84828501613615565b91505092915050565b60008060006060848603121561387857600080fd5b600084013567ffffffffffffffff81111561389257600080fd5b61389e86828701613654565b935050602084013567ffffffffffffffff8111156138bb57600080fd5b6138c786828701613654565b925050604084013567ffffffffffffffff8111156138e457600080fd5b6138f086828701613654565b9150509250925092565b60006020828403121561390c57600080fd5b600061391a8482850161367e565b91505092915050565b6000806040838503121561393657600080fd5b60006139448582860161367e565b9250506020613955858286016135eb565b9150509250929050565b600080600080600060a0868803121561397757600080fd5b60006139858882890161367e565b955050602086013567ffffffffffffffff8111156139a257600080fd5b6139ae88828901613654565b94505060406139bf8882890161367e565b935050606086013567ffffffffffffffff8111156139dc57600080fd5b6139e888828901613654565b92505060806139f988828901613600565b9150509295509295909350565b613a0f81613dfb565b82525050565b613a1e81613d87565b82525050565b613a2d81613d75565b82525050565b613a3c81613d99565b82525050565b6000613a4d82613d59565b613a578185613d64565b9350613a67818560208601613e40565b613a7081613e75565b840191505092915050565b613a8481613df1565b82525050565b6000602082019050613a9f6000830184613a24565b92915050565b6000602082019050613aba6000830184613a33565b92915050565b60006020820190508181036000830152613ada8184613a42565b905092915050565b6000602082019050613af76000830184613a7b565b92915050565b600060a082019050613b126000830188613a7b565b8181036020830152613b248187613a42565b90508181036040830152613b388186613a42565b9050613b476060830185613a06565b8181036080830152613b598184613a42565b90509695505050505050565b6000608082019050613b7a6000830187613a7b565b8181036020830152613b8c8186613a42565b90508181036040830152613ba08185613a42565b90508181036060830152613bb48184613a42565b905095945050505050565b600061010082019050613bd5600083018b613a7b565b613be2602083018a613a7b565b8181036040830152613bf48189613a42565b9050613c036060830188613a7b565b8181036080830152613c158187613a42565b9050613c2460a0830186613a15565b613c3160c0830185613a7b565b613c3e60e0830184613a33565b9998505050505050505050565b600060e082019050613c60600083018a613a7b565b613c6d6020830189613a7b565b8181036040830152613c7f8188613a42565b9050613c8e6060830187613a7b565b8181036080830152613ca08186613a42565b9050613caf60a0830185613a7b565b613cbc60c0830184613a33565b98975050505050505050565b6000604051905081810181811067ffffffffffffffff82111715613cef57613cee613e73565b5b8060405250919050565b600067ffffffffffffffff821115613d1457613d13613e73565b5b601f19601f8301169050602081019050919050565b600067ffffffffffffffff821115613d4457613d43613e73565b5b601f19601f8301169050602081019050919050565b600081519050919050565b600082825260208201905092915050565b6000613d8082613dd1565b9050919050565b6000613d9282613dd1565b9050919050565b60008115159050919050565b60007fffffffff0000000000000000000000000000000000000000000000000000000082169050919050565b600073ffffffffffffffffffffffffffffffffffffffff82169050919050565b6000819050919050565b6000613e0682613e0d565b9050919050565b6000613e1882613e1f565b9050919050565b6000613e2a82613dd1565b9050919050565b82818337600083830152505050565b60005b83811015613e5e578082015181840152602081019050613e43565b83811115613e6d576000848401525b50505050565bfe5b6000601f19601f8301169050919050565b613e8f81613d75565b8114613e9a57600080fd5b50565b613ea681613d99565b8114613eb157600080fd5b50565b613ebd81613da5565b8114613ec857600080fd5b50565b613ed481613df1565b8114613edf57600080fd5b5056fe456e756d657261626c655365743a20696e646578206f7574206f6620626f756e64734552433732313a207472616e7366657220746f206e6f6e20455243373231526563656976657220696d706c656d656e7465724552433732313a207472616e7366657220746f20746865207a65726f2061646472657373416464726573733a20696e73756666696369656e742062616c616e636520666f722063616c6c4552433732313a206f70657261746f7220717565727920666f72206e6f6e6578697374656e7420746f6b656e4552433732313a20617070726f76652063616c6c6572206973206e6f74206f776e6572206e6f7220617070726f76656420666f7220616c6c4552433732313a2062616c616e636520717565727920666f7220746865207a65726f20616464726573734552433732313a206f776e657220717565727920666f72206e6f6e6578697374656e7420746f6b656e456e756d657261626c654d61703a20696e646578206f7574206f6620626f756e64734552433732313a20617070726f76656420717565727920666f72206e6f6e6578697374656e7420746f6b656e4552433732314d657461646174613a2055524920736574206f66206e6f6e6578697374656e7420746f6b656e4552433732313a207472616e73666572206f6620746f6b656e2074686174206973206e6f74206f776e4552433732314d657461646174613a2055524920717565727920666f72206e6f6e6578697374656e7420746f6b656e4552433732313a20617070726f76616c20746f2063757272656e74206f776e65724552433732313a207472616e736665722063616c6c6572206973206e6f74206f776e6572206e6f7220617070726f766564a2646970667358221220ba54b8b07130846aa02605f01deee436aa3a9f304eef659f75bffc30443db02064736f6c63430007060033",
  "immutableReferences": {},
  "source": "//import ERC721 interface\r\nimport \"./ERC721.sol\";\r\n\r\npragma abicoder v2;\r\npragma solidity >=0.6.0 <0.8.0;\r\n\r\n//implement\r\ncontract ArtFundsStorage is ERC721 {\r\n    // this contract's token collection name\r\n    string public collectionName;\r\n    // this contract's token symbol\r\n    string public collectionNameSymbol;\r\n\r\n    struct Collection {\r\n        uint256 tokenId;\r\n        string imageURL;\r\n        string name;\r\n        string description;\r\n    }\r\n\r\n    uint256 public collectionCounter;\r\n    mapping(address => Collection[]) public ownerCollections;\r\n    // uint256[] collections;\r\n\r\n    struct DigitalItem {\r\n        uint256 tokenId;\r\n        uint256 collectionID;\r\n        string name;\r\n        uint256 price;\r\n        string itemURL;\r\n        // address payable mintedBy;\r\n        address payable currentOwner;\r\n        // address payable previousOwner;\r\n        uint256 numberOfTransfers;\r\n        bool forSale;   \r\n    }\r\n\r\n    uint256 public digitalItemCounter; \r\n    mapping(address => DigitalItem[]) public ownerDigitalItems;\r\n    // uint256[] digitalItems;\r\n\r\n    event ItemCreated(\r\n        uint256 id,\r\n        uint256 belongByColID,\r\n        string name,\r\n        address mintedBy,\r\n        address currentOwner,\r\n        address previousOwner,\r\n        uint256 price,\r\n        string imageURL,\r\n        uint256 numberOfTransfers,\r\n        bool forSale\r\n    );\r\n\r\n    event ItemForSale(uint256 id, bool forSale);\r\n\r\n    event CollectionCreated(\r\n        uint256 tokenId,\r\n        string imageURL,\r\n        string name,\r\n        address ownedBy,\r\n        string description\r\n    );\r\n\r\n    // initialize contract while deployment with contract's collection name and token\r\n    constructor() ERC721(\"ArtFunds Collection\", \"CB\") {\r\n        collectionName = name();\r\n        collectionNameSymbol = symbol();\r\n    }\r\n\r\n    // mint a new digital item\r\n    function mintDigitalItem(\r\n        uint256 _collectionID,\r\n        string memory _name,\r\n        uint256 _price,\r\n        string memory _itemURL,\r\n        bool _forSale\r\n    ) external {\r\n        // check if thic fucntion caller is not an zero address account\r\n        require(msg.sender != address(0));\r\n        // increment counter\r\n        digitalItemCounter++;\r\n        // check if a token exists with the above token id => incremented counter\r\n        require(!_exists(digitalItemCounter));\r\n\r\n        // mint the token\r\n        _mint(msg.sender, digitalItemCounter);\r\n        // set token URL (bind token id with the passed in token URL)\r\n        _setTokenURI(digitalItemCounter, _itemURL);\r\n\r\n        DigitalItem memory newDigitalItem = DigitalItem(\r\n            digitalItemCounter,\r\n            _collectionID,\r\n            _name,\r\n            _price,\r\n            _itemURL,\r\n            // _tech,\r\n            // _material,\r\n            // _color,\r\n            // _field,\r\n            // _imageURL,\r\n            // _description,\r\n            msg.sender,\r\n            0,\r\n            _forSale\r\n        );\r\n\r\n        ownerDigitalItems[msg.sender].push(newDigitalItem);\r\n    }\r\n\r\n    // function updateCurrentOwnerDigitalItem(\r\n    //     address _owner,\r\n    //     address payable _newOwner,\r\n    //     uint256 _tokenId\r\n    // ) public returns (bool success) {\r\n    //     require(_owner != address(0x0));\r\n    //     require(_newOwner != address(0x0));\r\n    //     require(_tokenId >= 0);\r\n    //     DigitalItem memory digitalItem = ownerDigitalItems[_owner][_tokenId];\r\n    //     digitalItem.previousOwner = digitalItem.currentOwner;\r\n    //     digitalItem.currentOwner = _newOwner;\r\n    //     return true;\r\n    // }\r\n\r\n    // function updateInfoBasicDigitalItem(\r\n    //     address _owner,\r\n    //     uint256 _tokenId,\r\n    //     string memory _name,\r\n    //     uint256 _price,\r\n    //     string memory _imageURL,\r\n    //     uint256 _numberOfTransfers,\r\n    //     bool _forSale\r\n    // ) public returns (bool success) {\r\n    //     require(_owner != address(0x0));\r\n    //     require(_tokenId >= 0);\r\n    //     require(ownerDigitalItems[_owner].length > 0);\r\n    //     DigitalItem storage digitalItem = ownerDigitalItems[_owner][_tokenId];\r\n    //     digitalItem.imageURL = _imageURL;\r\n    //     digitalItem.name = _name;\r\n    //     digitalItem.price = _price;\r\n    //     digitalItem.forSale = _forSale;\r\n    //     digitalItem.numberOfTransfers = _numberOfTransfers;\r\n    //     return true;\r\n    // }\r\n\r\n    function getDigitalItem(uint256 _itemID, address _owner)\r\n        public\r\n        view\r\n        returns (\r\n            uint256 _tokenId,\r\n            uint256 _collectionID,\r\n            string memory _name,\r\n            uint256 _price,\r\n            string memory _itemURL,\r\n            uint256 numberOfTransfers,\r\n            bool _forSale\r\n        )\r\n    {\r\n        require(_owner != address(0x0));\r\n        require(_collectionID >= 0);\r\n        require(ownerDigitalItems[_owner].length > 0);\r\n        DigitalItem memory digitalItem = ownerDigitalItems[_owner][_itemID];\r\n\r\n        return (\r\n            digitalItem.tokenId,\r\n            digitalItem.collectionID,\r\n            digitalItem.name,\r\n            digitalItem.price,\r\n            digitalItem.itemURL,\r\n            digitalItem.numberOfTransfers,\r\n            digitalItem.forSale\r\n        );\r\n    }\r\n\r\n    function getDigitalItemCount(address _owner)\r\n        public\r\n        view\r\n        returns (uint256 count)\r\n    {\r\n        require(_owner != address(0x0));\r\n        return ownerDigitalItems[_owner].length;\r\n    }\r\n\r\n    //This function to create collection from address\r\n    function createCollection(\r\n        string memory _imageURL,\r\n        string memory _name,\r\n        string memory _description\r\n    ) public returns (bool success) {\r\n        collectionCounter++;\r\n        Collection memory collection = Collection(\r\n            collectionCounter,\r\n            _imageURL,\r\n            _name,\r\n            _description\r\n        );\r\n        ownerCollections[msg.sender].push(collection);\r\n\r\n        emit CollectionCreated(\r\n            collectionCounter,\r\n            _imageURL,\r\n            _name,\r\n            msg.sender,\r\n            _description\r\n        );\r\n        return true;\r\n    }\r\n\r\n    // function getCollections(address _owner)\r\n    //     public\r\n    //     view\r\n    //     returns (Collection[] memory)\r\n    // {\r\n    //     require(_owner != address(0x0));\r\n    //     require(ownerCollections[_owner].length > 0);\r\n    //     return ownerCollections[_owner];\r\n    // }\r\n\r\n    function getCollection(uint256 _tokenId, address _owner)\r\n        public\r\n        view\r\n        returns (\r\n            uint256 _id,\r\n            string memory _imageURL,\r\n            string memory _name,\r\n            string memory _description\r\n        )\r\n    {\r\n        // require(_owner != address(0x0));\r\n        // require(_tokenId >= 0);\r\n        // require(ownerCollections[_owner].length > 0);\r\n        Collection memory collection = ownerCollections[_owner][_tokenId];\r\n\r\n        return (collection.tokenId, collection.imageURL, collection.name, collection.description);\r\n    }\r\n\r\n    // // function updateCollection(\r\n    // //     uint256 _tokenId,\r\n    // //     string memory _imageURL,\r\n    // //     string memory _name,\r\n    // //     string memory _description,\r\n    // //     address _owner\r\n    // // ) public returns (bool success) {\r\n    // //     require(_owner != address(0x0));\r\n    // //     require(_tokenId >= 0);\r\n    // //     require(ownerCollections[_owner].length > 0);\r\n    // //     Collection storage collection = ownerCollections[_owner][_tokenId];\r\n    // //     collection.imageURL = _imageURL;\r\n    // //     collection.name = _name;\r\n    // //     collection.description = _description;\r\n    // //     return true;\r\n    // // }\r\n\r\n    // // function deleteCollection(address _owner, uint256 _tokenId)\r\n    // //     public\r\n    // //     returns (bool success)\r\n    // // {\r\n    // //     require(_owner != address(0x0));\r\n    // //     require(_tokenId >= 0);\r\n    // //     require(ownerCollections[_owner].length > 0);\r\n    // //     // uint256 rowToDelete = ownerCollections[_owner][_tokenId].index;\r\n    // //     delete ownerCollections[_owner][_tokenId];\r\n    // //     collectionCounter--;\r\n    // //     return true;\r\n    // // }\r\n\r\n    \r\n\r\n    function getCollectionCount(address _owner)\r\n        public\r\n        view\r\n        returns (uint256 count)\r\n    {\r\n        require(_owner != address(0x0));\r\n        return ownerCollections[_owner].length;\r\n    }   \r\n\r\n    function getDigitalItemOwnerCount(address _owner) public view returns (uint256 count) {\r\n        return ownerDigitalItems[_owner].length;\r\n    }\r\n\r\n    struct Order {\r\n        address maker;\r\n        address taker;\r\n        uint256 tokenId;\r\n    }\r\n\r\n    // mapping(uint256 => Order) orders;\r\n\r\n    // function makeOrder(uint256 _tokenId, uint256 _price) external {\r\n    //     // validate nft\r\n    //     // ...\r\n    // }\r\n\r\n    // function takeOrder(uint256 _tokenId) external {\r\n    //     // check order exists\r\n    //     // validate funds\r\n    //     // transfer funds\r\n    //     // transfer nft\r\n    // }\r\n}\r\n",
  "sourcePath": "E:\\DSC\\DevFest\\ArtFunds\\ArtFunds_DevFest2021\\blockchain\\contracts\\ArtFundsStorage.sol",
  "compiler": {
    "name": "solc",
    "version": "0.7.6+commit.7338295f.Emscripten.clang"
  },
  "schemaVersion": "3.4.3",
  "updatedAt": "2021-10-28T17:04:30.625Z",
  "networkType": "ethereum",
  "devdoc": {
    "kind": "dev",
    "methods": {
      "approve(address,uint256)": {
        "details": "See {IERC721-approve}."
      },
      "balanceOf(address)": {
        "details": "See {IERC721-balanceOf}."
      },
      "baseURI()": {
        "details": "Returns the base URI set via {_setBaseURI}. This will be automatically added as a prefix in {tokenURI} to each token's URI, or to the token ID if no specific URI is set for that token ID."
      },
      "getApproved(uint256)": {
        "details": "See {IERC721-getApproved}."
      },
      "isApprovedForAll(address,address)": {
        "details": "See {IERC721-isApprovedForAll}."
      },
      "name()": {
        "details": "See {IERC721Metadata-name}."
      },
      "ownerOf(uint256)": {
        "details": "See {IERC721-ownerOf}."
      },
      "safeTransferFrom(address,address,uint256)": {
        "details": "See {IERC721-safeTransferFrom}."
      },
      "safeTransferFrom(address,address,uint256,bytes)": {
        "details": "See {IERC721-safeTransferFrom}."
      },
      "setApprovalForAll(address,bool)": {
        "details": "See {IERC721-setApprovalForAll}."
      },
      "supportsInterface(bytes4)": {
        "details": "See {IERC165-supportsInterface}. Time complexity O(1), guaranteed to always use less than 30 000 gas."
      },
      "symbol()": {
        "details": "See {IERC721Metadata-symbol}."
      },
      "tokenByIndex(uint256)": {
        "details": "See {IERC721Enumerable-tokenByIndex}."
      },
      "tokenOfOwnerByIndex(address,uint256)": {
        "details": "See {IERC721Enumerable-tokenOfOwnerByIndex}."
      },
      "tokenURI(uint256)": {
        "details": "See {IERC721Metadata-tokenURI}."
      },
      "totalSupply()": {
        "details": "See {IERC721Enumerable-totalSupply}."
      },
      "transferFrom(address,address,uint256)": {
        "details": "See {IERC721-transferFrom}."
      }
    },
    "version": 1
  },
  "userdoc": {
    "kind": "user",
    "methods": {},
    "version": 1
  }
}