{
  "contractName": "ArtFundsStorage",
  "abi": [
    {
      "inputs": [],
      "stateMutability": "nonpayable",
      "type": "constructor"
    },
    {
      "anonymous": false,
      "inputs": [
        {
          "indexed": true,
          "internalType": "address",
          "name": "owner",
          "type": "address"
        },
        {
          "indexed": true,
          "internalType": "address",
          "name": "approved",
          "type": "address"
        },
        {
          "indexed": true,
          "internalType": "uint256",
          "name": "tokenId",
          "type": "uint256"
        }
      ],
      "name": "Approval",
      "type": "event"
    },
    {
      "anonymous": false,
      "inputs": [
        {
          "indexed": true,
          "internalType": "address",
          "name": "owner",
          "type": "address"
        },
        {
          "indexed": true,
          "internalType": "address",
          "name": "operator",
          "type": "address"
        },
        {
          "indexed": false,
          "internalType": "bool",
          "name": "approved",
          "type": "bool"
        }
      ],
      "name": "ApprovalForAll",
      "type": "event"
    },
    {
      "anonymous": false,
      "inputs": [
        {
          "indexed": false,
          "internalType": "uint256",
          "name": "tokenId",
          "type": "uint256"
        },
        {
          "indexed": false,
          "internalType": "string",
          "name": "imageURL",
          "type": "string"
        },
        {
          "indexed": false,
          "internalType": "string",
          "name": "name",
          "type": "string"
        },
        {
          "indexed": false,
          "internalType": "address",
          "name": "ownedBy",
          "type": "address"
        },
        {
          "indexed": false,
          "internalType": "string",
          "name": "description",
          "type": "string"
        }
      ],
      "name": "CollectionCreated",
      "type": "event"
    },
    {
      "anonymous": false,
      "inputs": [
        {
          "indexed": false,
          "internalType": "uint256",
          "name": "id",
          "type": "uint256"
        },
        {
          "indexed": false,
          "internalType": "string",
          "name": "name",
          "type": "string"
        },
        {
          "indexed": false,
          "internalType": "address",
          "name": "mintedBy",
          "type": "address"
        },
        {
          "indexed": false,
          "internalType": "address",
          "name": "currentOwner",
          "type": "address"
        },
        {
          "indexed": false,
          "internalType": "address",
          "name": "previousOwner",
          "type": "address"
        },
        {
          "indexed": false,
          "internalType": "uint256",
          "name": "price",
          "type": "uint256"
        },
        {
          "indexed": false,
          "internalType": "string",
          "name": "imageURL",
          "type": "string"
        },
        {
          "indexed": false,
          "internalType": "uint256",
          "name": "numberOfTransfers",
          "type": "uint256"
        },
        {
          "indexed": false,
          "internalType": "bool",
          "name": "forSale",
          "type": "bool"
        }
      ],
      "name": "ItemCreated",
      "type": "event"
    },
    {
      "anonymous": false,
      "inputs": [
        {
          "indexed": false,
          "internalType": "uint256",
          "name": "id",
          "type": "uint256"
        },
        {
          "indexed": false,
          "internalType": "bool",
          "name": "forSale",
          "type": "bool"
        }
      ],
      "name": "ItemForSale",
      "type": "event"
    },
    {
      "anonymous": false,
      "inputs": [
        {
          "indexed": true,
          "internalType": "address",
          "name": "from",
          "type": "address"
        },
        {
          "indexed": true,
          "internalType": "address",
          "name": "to",
          "type": "address"
        },
        {
          "indexed": true,
          "internalType": "uint256",
          "name": "tokenId",
          "type": "uint256"
        }
      ],
      "name": "Transfer",
      "type": "event"
    },
    {
      "inputs": [
        {
          "internalType": "address",
          "name": "to",
          "type": "address"
        },
        {
          "internalType": "uint256",
          "name": "tokenId",
          "type": "uint256"
        }
      ],
      "name": "approve",
      "outputs": [],
      "stateMutability": "nonpayable",
      "type": "function"
    },
    {
      "inputs": [
        {
          "internalType": "address",
          "name": "owner",
          "type": "address"
        }
      ],
      "name": "balanceOf",
      "outputs": [
        {
          "internalType": "uint256",
          "name": "",
          "type": "uint256"
        }
      ],
      "stateMutability": "view",
      "type": "function",
      "constant": true
    },
    {
      "inputs": [],
      "name": "baseURI",
      "outputs": [
        {
          "internalType": "string",
          "name": "",
          "type": "string"
        }
      ],
      "stateMutability": "view",
      "type": "function",
      "constant": true
    },
    {
      "inputs": [],
      "name": "collectionCounter",
      "outputs": [
        {
          "internalType": "uint256",
          "name": "",
          "type": "uint256"
        }
      ],
      "stateMutability": "view",
      "type": "function",
      "constant": true
    },
    {
      "inputs": [],
      "name": "collectionName",
      "outputs": [
        {
          "internalType": "string",
          "name": "",
          "type": "string"
        }
      ],
      "stateMutability": "view",
      "type": "function",
      "constant": true
    },
    {
      "inputs": [],
      "name": "collectionNameSymbol",
      "outputs": [
        {
          "internalType": "string",
          "name": "",
          "type": "string"
        }
      ],
      "stateMutability": "view",
      "type": "function",
      "constant": true
    },
    {
      "inputs": [],
      "name": "digitalItemCounter",
      "outputs": [
        {
          "internalType": "uint256",
          "name": "",
          "type": "uint256"
        }
      ],
      "stateMutability": "view",
      "type": "function",
      "constant": true
    },
    {
      "inputs": [
        {
          "internalType": "uint256",
          "name": "tokenId",
          "type": "uint256"
        }
      ],
      "name": "getApproved",
      "outputs": [
        {
          "internalType": "address",
          "name": "",
          "type": "address"
        }
      ],
      "stateMutability": "view",
      "type": "function",
      "constant": true
    },
    {
      "inputs": [
        {
          "internalType": "address",
          "name": "owner",
          "type": "address"
        },
        {
          "internalType": "address",
          "name": "operator",
          "type": "address"
        }
      ],
      "name": "isApprovedForAll",
      "outputs": [
        {
          "internalType": "bool",
          "name": "",
          "type": "bool"
        }
      ],
      "stateMutability": "view",
      "type": "function",
      "constant": true
    },
    {
      "inputs": [],
      "name": "name",
      "outputs": [
        {
          "internalType": "string",
          "name": "",
          "type": "string"
        }
      ],
      "stateMutability": "view",
      "type": "function",
      "constant": true
    },
    {
      "inputs": [
        {
          "internalType": "address",
          "name": "",
          "type": "address"
        },
        {
          "internalType": "uint256",
          "name": "",
          "type": "uint256"
        }
      ],
      "name": "ownerCollections",
      "outputs": [
        {
          "internalType": "uint256",
          "name": "tokenId",
          "type": "uint256"
        },
        {
          "internalType": "string",
          "name": "imageURL",
          "type": "string"
        },
        {
          "internalType": "string",
          "name": "name",
          "type": "string"
        },
        {
          "internalType": "string",
          "name": "description",
          "type": "string"
        }
      ],
      "stateMutability": "view",
      "type": "function",
      "constant": true
    },
    {
      "inputs": [
        {
          "internalType": "address",
          "name": "",
          "type": "address"
        },
        {
          "internalType": "uint256",
          "name": "",
          "type": "uint256"
        }
      ],
      "name": "ownerDigitalItems",
      "outputs": [
        {
          "internalType": "uint256",
          "name": "tokenId",
          "type": "uint256"
        },
        {
          "internalType": "uint256",
          "name": "collectionID",
          "type": "uint256"
        },
        {
          "internalType": "string",
          "name": "name",
          "type": "string"
        },
        {
          "internalType": "uint256",
          "name": "price",
          "type": "uint256"
        },
        {
          "internalType": "string",
          "name": "itemURL",
          "type": "string"
        },
        {
          "internalType": "address payable",
          "name": "currentOwner",
          "type": "address"
        },
        {
          "internalType": "uint256",
          "name": "numberOfTransfers",
          "type": "uint256"
        },
        {
          "internalType": "bool",
          "name": "forSale",
          "type": "bool"
        }
      ],
      "stateMutability": "view",
      "type": "function",
      "constant": true
    },
    {
      "inputs": [
        {
          "internalType": "uint256",
          "name": "tokenId",
          "type": "uint256"
        }
      ],
      "name": "ownerOf",
      "outputs": [
        {
          "internalType": "address",
          "name": "",
          "type": "address"
        }
      ],
      "stateMutability": "view",
      "type": "function",
      "constant": true
    },
    {
      "inputs": [
        {
          "internalType": "address",
          "name": "from",
          "type": "address"
        },
        {
          "internalType": "address",
          "name": "to",
          "type": "address"
        },
        {
          "internalType": "uint256",
          "name": "tokenId",
          "type": "uint256"
        }
      ],
      "name": "safeTransferFrom",
      "outputs": [],
      "stateMutability": "nonpayable",
      "type": "function"
    },
    {
      "inputs": [
        {
          "internalType": "address",
          "name": "from",
          "type": "address"
        },
        {
          "internalType": "address",
          "name": "to",
          "type": "address"
        },
        {
          "internalType": "uint256",
          "name": "tokenId",
          "type": "uint256"
        },
        {
          "internalType": "bytes",
          "name": "_data",
          "type": "bytes"
        }
      ],
      "name": "safeTransferFrom",
      "outputs": [],
      "stateMutability": "nonpayable",
      "type": "function"
    },
    {
      "inputs": [
        {
          "internalType": "address",
          "name": "operator",
          "type": "address"
        },
        {
          "internalType": "bool",
          "name": "approved",
          "type": "bool"
        }
      ],
      "name": "setApprovalForAll",
      "outputs": [],
      "stateMutability": "nonpayable",
      "type": "function"
    },
    {
      "inputs": [
        {
          "internalType": "bytes4",
          "name": "interfaceId",
          "type": "bytes4"
        }
      ],
      "name": "supportsInterface",
      "outputs": [
        {
          "internalType": "bool",
          "name": "",
          "type": "bool"
        }
      ],
      "stateMutability": "view",
      "type": "function",
      "constant": true
    },
    {
      "inputs": [],
      "name": "symbol",
      "outputs": [
        {
          "internalType": "string",
          "name": "",
          "type": "string"
        }
      ],
      "stateMutability": "view",
      "type": "function",
      "constant": true
    },
    {
      "inputs": [
        {
          "internalType": "uint256",
          "name": "index",
          "type": "uint256"
        }
      ],
      "name": "tokenByIndex",
      "outputs": [
        {
          "internalType": "uint256",
          "name": "",
          "type": "uint256"
        }
      ],
      "stateMutability": "view",
      "type": "function",
      "constant": true
    },
    {
      "inputs": [
        {
          "internalType": "address",
          "name": "owner",
          "type": "address"
        },
        {
          "internalType": "uint256",
          "name": "index",
          "type": "uint256"
        }
      ],
      "name": "tokenOfOwnerByIndex",
      "outputs": [
        {
          "internalType": "uint256",
          "name": "",
          "type": "uint256"
        }
      ],
      "stateMutability": "view",
      "type": "function",
      "constant": true
    },
    {
      "inputs": [
        {
          "internalType": "uint256",
          "name": "tokenId",
          "type": "uint256"
        }
      ],
      "name": "tokenURI",
      "outputs": [
        {
          "internalType": "string",
          "name": "",
          "type": "string"
        }
      ],
      "stateMutability": "view",
      "type": "function",
      "constant": true
    },
    {
      "inputs": [],
      "name": "totalSupply",
      "outputs": [
        {
          "internalType": "uint256",
          "name": "",
          "type": "uint256"
        }
      ],
      "stateMutability": "view",
      "type": "function",
      "constant": true
    },
    {
      "inputs": [
        {
          "internalType": "address",
          "name": "from",
          "type": "address"
        },
        {
          "internalType": "address",
          "name": "to",
          "type": "address"
        },
        {
          "internalType": "uint256",
          "name": "tokenId",
          "type": "uint256"
        }
      ],
      "name": "transferFrom",
      "outputs": [],
      "stateMutability": "nonpayable",
      "type": "function"
    },
    {
      "inputs": [
        {
          "internalType": "uint256",
          "name": "_collectionID",
          "type": "uint256"
        },
        {
          "internalType": "string",
          "name": "_name",
          "type": "string"
        },
        {
          "internalType": "uint256",
          "name": "_price",
          "type": "uint256"
        },
        {
          "internalType": "string",
          "name": "_itemURL",
          "type": "string"
        },
        {
          "internalType": "bool",
          "name": "_forSale",
          "type": "bool"
        }
      ],
      "name": "mintDigitalItem",
      "outputs": [],
      "stateMutability": "nonpayable",
      "type": "function"
    },
    {
      "inputs": [
        {
          "internalType": "uint256",
          "name": "_itemID",
          "type": "uint256"
        },
        {
          "internalType": "address",
          "name": "_owner",
          "type": "address"
        }
      ],
      "name": "getDigitalItem",
      "outputs": [
        {
          "internalType": "uint256",
          "name": "_tokenId",
          "type": "uint256"
        },
        {
          "internalType": "uint256",
          "name": "_collectionID",
          "type": "uint256"
        },
        {
          "internalType": "string",
          "name": "_name",
          "type": "string"
        },
        {
          "internalType": "uint256",
          "name": "_price",
          "type": "uint256"
        },
        {
          "internalType": "string",
          "name": "_itemURL",
          "type": "string"
        },
        {
          "internalType": "uint256",
          "name": "numberOfTransfers",
          "type": "uint256"
        },
        {
          "internalType": "bool",
          "name": "_forSale",
          "type": "bool"
        }
      ],
      "stateMutability": "view",
      "type": "function",
      "constant": true
    },
    {
      "inputs": [
        {
          "internalType": "string",
          "name": "_imageURL",
          "type": "string"
        },
        {
          "internalType": "string",
          "name": "_name",
          "type": "string"
        },
        {
          "internalType": "string",
          "name": "_description",
          "type": "string"
        }
      ],
      "name": "createCollection",
      "outputs": [
        {
          "internalType": "bool",
          "name": "success",
          "type": "bool"
        }
      ],
      "stateMutability": "nonpayable",
      "type": "function"
    },
    {
      "inputs": [
        {
          "internalType": "uint256",
          "name": "_tokenId",
          "type": "uint256"
        },
        {
          "internalType": "address",
          "name": "_owner",
          "type": "address"
        }
      ],
      "name": "getCollection",
      "outputs": [
        {
          "internalType": "uint256",
          "name": "_id",
          "type": "uint256"
        },
        {
          "internalType": "string",
          "name": "_imageURL",
          "type": "string"
        },
        {
          "internalType": "string",
          "name": "_name",
          "type": "string"
        },
        {
          "internalType": "string",
          "name": "_description",
          "type": "string"
        }
      ],
      "stateMutability": "view",
      "type": "function",
      "constant": true
    },
    {
      "inputs": [
        {
          "internalType": "address",
          "name": "_owner",
          "type": "address"
        }
      ],
      "name": "getCollectionCount",
      "outputs": [
        {
          "internalType": "uint256",
          "name": "count",
          "type": "uint256"
        }
      ],
      "stateMutability": "view",
      "type": "function",
      "constant": true
    },
    {
      "inputs": [
        {
          "internalType": "address",
          "name": "_owner",
          "type": "address"
        }
      ],
      "name": "getDigitalItemOwnerCount",
      "outputs": [
        {
          "internalType": "uint256",
          "name": "count",
          "type": "uint256"
        }
      ],
      "stateMutability": "view",
      "type": "function",
      "constant": true
    }
  ],
  "bytecode": "0x60806040523480156200001157600080fd5b506040518060400160405280601381526020017f41727446756e647320436f6c6c656374696f6e000000000000000000000000008152506040518060400160405280600281526020017f4342000000000000000000000000000000000000000000000000000000000000815250620000966301ffc9a760e01b6200016860201b60201c565b8160069080519060200190620000ae929190620003bd565b508060079080519060200190620000c7929190620003bd565b50620000e06380ac58cd60e01b6200016860201b60201c565b620000f8635b5e139f60e01b6200016860201b60201c565b6200011063780e9d6360e01b6200016860201b60201c565b5050620001226200027160201b60201c565b600a908051906020019062000139929190620003bd565b506200014a6200031760201b60201c565b600b908051906020019062000161929190620003bd565b5062000473565b63ffffffff60e01b817bffffffffffffffffffffffffffffffffffffffffffffffffffffffff1916141562000205576040517f08c379a000000000000000000000000000000000000000000000000000000000815260040180806020018281038252601c8152602001807f4552433136353a20696e76616c696420696e746572666163652069640000000081525060200191505060405180910390fd5b6001600080837bffffffffffffffffffffffffffffffffffffffffffffffffffffffff19167bffffffffffffffffffffffffffffffffffffffffffffffffffffffff1916815260200190815260200160002060006101000a81548160ff02191690831515021790555050565b606060068054600181600116156101000203166002900480601f0160208091040260200160405190810160405280929190818152602001828054600181600116156101000203166002900480156200030d5780601f10620002e1576101008083540402835291602001916200030d565b820191906000526020600020905b815481529060010190602001808311620002ef57829003601f168201915b5050505050905090565b606060078054600181600116156101000203166002900480601f016020809104026020016040519081016040528092919081815260200182805460018160011615610100020316600290048015620003b35780601f106200038757610100808354040283529160200191620003b3565b820191906000526020600020905b8154815290600101906020018083116200039557829003601f168201915b5050505050905090565b828054600181600116156101000203166002900490600052602060002090601f016020900481019282620003f5576000855562000441565b82601f106200041057805160ff191683800117855562000441565b8280016001018555821562000441579182015b828111156200044057825182559160200191906001019062000423565b5b50905062000450919062000454565b5090565b5b808211156200046f57600081600090555060010162000455565b5090565b6140d180620004836000396000f3fe608060405234801561001057600080fd5b50600436106101cf5760003560e01c80636352211e116101045780639bdbf7e0116100a2578063d5f45a7d11610071578063d5f45a7d1461059a578063e5326ab1146105d1578063e985e9c5146105ef578063ece86c211461061f576101cf565b80639bdbf7e0146104fc578063a22cb46514610532578063b88d4fde1461054e578063c87b56dd1461056a576101cf565b80636f9507f9116100de5780636f9507f91461046057806370a082311461047e578063849a33ce146104ae57806395d89b41146104de576101cf565b80636352211e146103f65780636a3a852e146104265780636c0360eb14610442576101cf565b80632f745c591161017157806342842e0e1161014b57806342842e0e1461035c5780634f6ccce7146103785780635187a82d146103a857806354515bb6146103c6576101cf565b80632f745c59146102db578063371913261461030b57806339b5f83014610329576101cf565b8063081812fc116101ad578063081812fc14610255578063095ea7b31461028557806318160ddd146102a157806323b872dd146102bf576101cf565b806301188b3f146101d457806301ffc9a71461020757806306fdde0314610237575b600080fd5b6101ee60048036038101906101e99190613863565b61064f565b6040516101fe9493929190613aa5565b60405180910390f35b610221600480360381019061021c919061377a565b6108d3565b60405161022e91906139e5565b60405180910390f35b61023f61093a565b60405161024c9190613a00565b60405180910390f35b61026f600480360381019061026a919061383a565b6109dc565b60405161027c91906139ca565b60405180910390f35b61029f600480360381019061029a919061373e565b610a77565b005b6102a9610bbb565b6040516102b69190613a22565b60405180910390f35b6102d960048036038101906102d49190613638565b610bcc565b005b6102f560048036038101906102f0919061373e565b610c42565b6040516103029190613a22565b60405180910390f35b610313610c9d565b6040516103209190613a22565b60405180910390f35b610343600480360381019061033e919061373e565b610ca3565b6040516103539493929190613aa5565b60405180910390f35b61037660048036038101906103719190613638565b610eb8565b005b610392600480360381019061038d919061383a565b610ed8565b60405161039f9190613a22565b60405180910390f35b6103b0610efb565b6040516103bd9190613a22565b60405180910390f35b6103e060048036038101906103db91906135d3565b610f01565b6040516103ed9190613a22565b60405180910390f35b610410600480360381019061040b919061383a565b610f86565b60405161041d91906139ca565b60405180910390f35b610440600480360381019061043b919061389f565b610fbd565b005b61044a6111cb565b6040516104579190613a00565b60405180910390f35b61046861126d565b6040516104759190613a00565b60405180910390f35b610498600480360381019061049391906135d3565b61130b565b6040516104a59190613a22565b60405180910390f35b6104c860048036038101906104c391906135d3565b6113e0565b6040516104d59190613a22565b60405180910390f35b6104e661142c565b6040516104f39190613a00565b60405180910390f35b61051660048036038101906105119190613863565b6114ce565b6040516105299796959493929190613b8b565b60405180910390f35b61054c60048036038101906105479190613702565b6117f4565b005b61056860048036038101906105639190613687565b6119aa565b005b610584600480360381019061057f919061383a565b611a22565b6040516105919190613a00565b60405180910390f35b6105b460048036038101906105af919061373e565b611cf3565b6040516105c8989796959493929190613aff565b60405180910390f35b6105d9611eb5565b6040516105e69190613a00565b60405180910390f35b610609600480360381019061060491906135fc565b611f53565b60405161061691906139e5565b60405180910390f35b610639600480360381019061063491906137a3565b611fe7565b60405161064691906139e5565b60405180910390f35b600060608060606000600d60008773ffffffffffffffffffffffffffffffffffffffff1673ffffffffffffffffffffffffffffffffffffffff16815260200190815260200160002087815481106106a257fe5b906000526020600020906004020160405180608001604052908160008201548152602001600182018054600181600116156101000203166002900480601f01602080910402602001604051908101604052809291908181526020018280546001816001161561010002031660029004801561075e5780601f106107335761010080835404028352916020019161075e565b820191906000526020600020905b81548152906001019060200180831161074157829003601f168201915b50505050508152602001600282018054600181600116156101000203166002900480601f0160208091040260200160405190810160405280929190818152602001828054600181600116156101000203166002900480156108005780601f106107d557610100808354040283529160200191610800565b820191906000526020600020905b8154815290600101906020018083116107e357829003601f168201915b50505050508152602001600382018054600181600116156101000203166002900480601f0160208091040260200160405190810160405280929190818152602001828054600181600116156101000203166002900480156108a25780601f10610877576101008083540402835291602001916108a2565b820191906000526020600020905b81548152906001019060200180831161088557829003601f168201915b5050505050815250509050806000015181602001518260400151836060015194509450945094505092959194509250565b6000806000837bffffffffffffffffffffffffffffffffffffffffffffffffffffffff19167bffffffffffffffffffffffffffffffffffffffffffffffffffffffff1916815260200190815260200160002060009054906101000a900460ff169050919050565b606060068054600181600116156101000203166002900480601f0160208091040260200160405190810160405280929190818152602001828054600181600116156101000203166002900480156109d25780601f106109a7576101008083540402835291602001916109d2565b820191906000526020600020905b8154815290600101906020018083116109b557829003601f168201915b5050505050905090565b60006109e78261213b565b610a3c576040517f08c379a000000000000000000000000000000000000000000000000000000000815260040180806020018281038252602c815260200180613f9a602c913960400191505060405180910390fd5b6004600083815260200190815260200160002060009054906101000a900473ffffffffffffffffffffffffffffffffffffffff169050919050565b6000610a8282610f86565b90508073ffffffffffffffffffffffffffffffffffffffff168373ffffffffffffffffffffffffffffffffffffffff161415610b09576040517f08c379a000000000000000000000000000000000000000000000000000000000815260040180806020018281038252602181526020018061404a6021913960400191505060405180910390fd5b8073ffffffffffffffffffffffffffffffffffffffff16610b28612158565b73ffffffffffffffffffffffffffffffffffffffff161480610b575750610b5681610b51612158565b611f53565b5b610bac576040517f08c379a0000000000000000000000000000000000000000000000000000000008152600401808060200182810382526038815260200180613eed6038913960400191505060405180910390fd5b610bb68383612160565b505050565b6000610bc76002612219565b905090565b610bdd610bd7612158565b8261222e565b610c32576040517f08c379a000000000000000000000000000000000000000000000000000000000815260040180806020018281038252603181526020018061406b6031913960400191505060405180910390fd5b610c3d838383612322565b505050565b6000610c9582600160008673ffffffffffffffffffffffffffffffffffffffff1673ffffffffffffffffffffffffffffffffffffffff16815260200190815260200160002061256590919063ffffffff16565b905092915050565b600e5481565b600d6020528160005260406000208181548110610cbf57600080fd5b906000526020600020906004020160009150915050806000015490806001018054600181600116156101000203166002900480601f016020809104026020016040519081016040528092919081815260200182805460018160011615610100020316600290048015610d725780601f10610d4757610100808354040283529160200191610d72565b820191906000526020600020905b815481529060010190602001808311610d5557829003601f168201915b505050505090806002018054600181600116156101000203166002900480601f016020809104026020016040519081016040528092919081815260200182805460018160011615610100020316600290048015610e105780601f10610de557610100808354040283529160200191610e10565b820191906000526020600020905b815481529060010190602001808311610df357829003601f168201915b505050505090806003018054600181600116156101000203166002900480601f016020809104026020016040519081016040528092919081815260200182805460018160011615610100020316600290048015610eae5780601f10610e8357610100808354040283529160200191610eae565b820191906000526020600020905b815481529060010190602001808311610e9157829003601f168201915b5050505050905084565b610ed3838383604051806020016040528060008152506119aa565b505050565b600080610eef83600261257f90919063ffffffff16565b50905080915050919050565b600c5481565b60008073ffffffffffffffffffffffffffffffffffffffff168273ffffffffffffffffffffffffffffffffffffffff161415610f3c57600080fd5b600d60008373ffffffffffffffffffffffffffffffffffffffff1673ffffffffffffffffffffffffffffffffffffffff168152602001908152602001600020805490509050919050565b6000610fb682604051806060016040528060298152602001613f4f6029913960026125ab9092919063ffffffff16565b9050919050565b600073ffffffffffffffffffffffffffffffffffffffff163373ffffffffffffffffffffffffffffffffffffffff161415610ff757600080fd5b600e60008154809291906001019190505550611014600e5461213b565b1561101e57600080fd5b61102a33600e546125ca565b611036600e54836127be565b6000604051806101000160405280600e5481526020018781526020018681526020018581526020018481526020013373ffffffffffffffffffffffffffffffffffffffff168152602001600081526020018315158152509050600f60003373ffffffffffffffffffffffffffffffffffffffff1673ffffffffffffffffffffffffffffffffffffffff16815260200190815260200160002081908060018154018082558091505060019003906000526020600020906008020160009091909190915060008201518160000155602082015181600101556040820151816002019080519060200190611128929190613404565b5060608201518160030155608082015181600401908051906020019061114f929190613404565b5060a08201518160050160006101000a81548173ffffffffffffffffffffffffffffffffffffffff021916908373ffffffffffffffffffffffffffffffffffffffff16021790555060c0820151816006015560e08201518160070160006101000a81548160ff0219169083151502179055505050505050505050565b606060098054600181600116156101000203166002900480601f0160208091040260200160405190810160405280929190818152602001828054600181600116156101000203166002900480156112635780601f1061123857610100808354040283529160200191611263565b820191906000526020600020905b81548152906001019060200180831161124657829003601f168201915b5050505050905090565b600b8054600181600116156101000203166002900480601f0160208091040260200160405190810160405280929190818152602001828054600181600116156101000203166002900480156113035780601f106112d857610100808354040283529160200191611303565b820191906000526020600020905b8154815290600101906020018083116112e657829003601f168201915b505050505081565b60008073ffffffffffffffffffffffffffffffffffffffff168273ffffffffffffffffffffffffffffffffffffffff161415611392576040517f08c379a000000000000000000000000000000000000000000000000000000000815260040180806020018281038252602a815260200180613f25602a913960400191505060405180910390fd5b6113d9600160008473ffffffffffffffffffffffffffffffffffffffff1673ffffffffffffffffffffffffffffffffffffffff168152602001908152602001600020612848565b9050919050565b6000600f60008373ffffffffffffffffffffffffffffffffffffffff1673ffffffffffffffffffffffffffffffffffffffff168152602001908152602001600020805490509050919050565b606060078054600181600116156101000203166002900480601f0160208091040260200160405190810160405280929190818152602001828054600181600116156101000203166002900480156114c45780601f10611499576101008083540402835291602001916114c4565b820191906000526020600020905b8154815290600101906020018083116114a757829003601f168201915b5050505050905090565b600080606060006060600080600073ffffffffffffffffffffffffffffffffffffffff168873ffffffffffffffffffffffffffffffffffffffff16141561151457600080fd5b600086101561152257600080fd5b6000600f60008a73ffffffffffffffffffffffffffffffffffffffff1673ffffffffffffffffffffffffffffffffffffffff168152602001908152602001600020805490501161157157600080fd5b6000600f60008a73ffffffffffffffffffffffffffffffffffffffff1673ffffffffffffffffffffffffffffffffffffffff1681526020019081526020016000208a815481106115bd57fe5b9060005260206000209060080201604051806101000160405290816000820154815260200160018201548152602001600282018054600181600116156101000203166002900480601f0160208091040260200160405190810160405280929190818152602001828054600181600116156101000203166002900480156116845780601f1061165957610100808354040283529160200191611684565b820191906000526020600020905b81548152906001019060200180831161166757829003601f168201915b5050505050815260200160038201548152602001600482018054600181600116156101000203166002900480601f0160208091040260200160405190810160405280929190818152602001828054600181600116156101000203166002900480156117305780601f1061170557610100808354040283529160200191611730565b820191906000526020600020905b81548152906001019060200180831161171357829003601f168201915b505050505081526020016005820160009054906101000a900473ffffffffffffffffffffffffffffffffffffffff1673ffffffffffffffffffffffffffffffffffffffff1673ffffffffffffffffffffffffffffffffffffffff168152602001600682015481526020016007820160009054906101000a900460ff1615151515815250509050806000015181602001518260400151836060015184608001518560c001518660e0015197509750975097509750975097505092959891949750929550565b6117fc612158565b73ffffffffffffffffffffffffffffffffffffffff168273ffffffffffffffffffffffffffffffffffffffff16141561189d576040517f08c379a00000000000000000000000000000000000000000000000000000000081526004018080602001828103825260198152602001807f4552433732313a20617070726f766520746f2063616c6c65720000000000000081525060200191505060405180910390fd5b80600560006118aa612158565b73ffffffffffffffffffffffffffffffffffffffff1673ffffffffffffffffffffffffffffffffffffffff16815260200190815260200160002060008473ffffffffffffffffffffffffffffffffffffffff1673ffffffffffffffffffffffffffffffffffffffff16815260200190815260200160002060006101000a81548160ff0219169083151502179055508173ffffffffffffffffffffffffffffffffffffffff16611957612158565b73ffffffffffffffffffffffffffffffffffffffff167f17307eab39ab6107e8899845ad3d59bd9653f200f220920489ca2b5937696c318360405180821515815260200191505060405180910390a35050565b6119bb6119b5612158565b8361222e565b611a10576040517f08c379a000000000000000000000000000000000000000000000000000000000815260040180806020018281038252603181526020018061406b6031913960400191505060405180910390fd5b611a1c8484848461285d565b50505050565b6060611a2d8261213b565b611a82576040517f08c379a000000000000000000000000000000000000000000000000000000000815260040180806020018281038252602f81526020018061401b602f913960400191505060405180910390fd5b6000600860008481526020019081526020016000208054600181600116156101000203166002900480601f016020809104026020016040519081016040528092919081815260200182805460018160011615610100020316600290048015611b2b5780601f10611b0057610100808354040283529160200191611b2b565b820191906000526020600020905b815481529060010190602001808311611b0e57829003601f168201915b505050505090506000611b3c6111cb565b9050600081511415611b52578192505050611cee565b600082511115611c235780826040516020018083805190602001908083835b60208310611b945780518252602082019150602081019050602083039250611b71565b6001836020036101000a03801982511681845116808217855250505050505090500182805190602001908083835b60208310611be55780518252602082019150602081019050602083039250611bc2565b6001836020036101000a0380198251168184511680821785525050505050509050019250505060405160208183030381529060405292505050611cee565b80611c2d856128cf565b6040516020018083805190602001908083835b60208310611c635780518252602082019150602081019050602083039250611c40565b6001836020036101000a03801982511681845116808217855250505050505090500182805190602001908083835b60208310611cb45780518252602082019150602081019050602083039250611c91565b6001836020036101000a03801982511681845116808217855250505050505090500192505050604051602081830303815290604052925050505b919050565b600f6020528160005260406000208181548110611d0f57600080fd5b906000526020600020906008020160009150915050806000015490806001015490806002018054600181600116156101000203166002900480601f016020809104026020016040519081016040528092919081815260200182805460018160011615610100020316600290048015611dc85780601f10611d9d57610100808354040283529160200191611dc8565b820191906000526020600020905b815481529060010190602001808311611dab57829003601f168201915b505050505090806003015490806004018054600181600116156101000203166002900480601f016020809104026020016040519081016040528092919081815260200182805460018160011615610100020316600290048015611e6c5780601f10611e4157610100808354040283529160200191611e6c565b820191906000526020600020905b815481529060010190602001808311611e4f57829003601f168201915b5050505050908060050160009054906101000a900473ffffffffffffffffffffffffffffffffffffffff16908060060154908060070160009054906101000a900460ff16905088565b600a8054600181600116156101000203166002900480601f016020809104026020016040519081016040528092919081815260200182805460018160011615610100020316600290048015611f4b5780601f10611f2057610100808354040283529160200191611f4b565b820191906000526020600020905b815481529060010190602001808311611f2e57829003601f168201915b505050505081565b6000600560008473ffffffffffffffffffffffffffffffffffffffff1673ffffffffffffffffffffffffffffffffffffffff16815260200190815260200160002060008373ffffffffffffffffffffffffffffffffffffffff1673ffffffffffffffffffffffffffffffffffffffff16815260200190815260200160002060009054906101000a900460ff16905092915050565b6000600c6000815480929190600101919050555060006040518060800160405280600c548152602001868152602001858152602001848152509050600d60003373ffffffffffffffffffffffffffffffffffffffff1673ffffffffffffffffffffffffffffffffffffffff1681526020019081526020016000208190806001815401808255809150506001900390600052602060002090600402016000909190919091506000820151816000015560208201518160010190805190602001906120b1929190613404565b5060408201518160020190805190602001906120ce929190613404565b5060608201518160030190805190602001906120eb929190613404565b5050507fefbd145fea57de09a0db3eea45c2b6b13a53246bff3d28eaf26c5b4b1ece83f8600c5486863387604051612127959493929190613a3d565b60405180910390a160019150509392505050565b6000612151826002612a1690919063ffffffff16565b9050919050565b600033905090565b816004600083815260200190815260200160002060006101000a81548173ffffffffffffffffffffffffffffffffffffffff021916908373ffffffffffffffffffffffffffffffffffffffff160217905550808273ffffffffffffffffffffffffffffffffffffffff166121d383610f86565b73ffffffffffffffffffffffffffffffffffffffff167f8c5be1e5ebec7d5bd14f71427d1e84f3dd0314c0f7b2291e5b200ac8c7c3b92560405160405180910390a45050565b600061222782600001612a30565b9050919050565b60006122398261213b565b61228e576040517f08c379a000000000000000000000000000000000000000000000000000000000815260040180806020018281038252602c815260200180613ec1602c913960400191505060405180910390fd5b600061229983610f86565b90508073ffffffffffffffffffffffffffffffffffffffff168473ffffffffffffffffffffffffffffffffffffffff16148061230857508373ffffffffffffffffffffffffffffffffffffffff166122f0846109dc565b73ffffffffffffffffffffffffffffffffffffffff16145b8061231957506123188185611f53565b5b91505092915050565b8273ffffffffffffffffffffffffffffffffffffffff1661234282610f86565b73ffffffffffffffffffffffffffffffffffffffff16146123ae576040517f08c379a0000000000000000000000000000000000000000000000000000000008152600401808060200182810382526029815260200180613ff26029913960400191505060405180910390fd5b600073ffffffffffffffffffffffffffffffffffffffff168273ffffffffffffffffffffffffffffffffffffffff161415612434576040517f08c379a0000000000000000000000000000000000000000000000000000000008152600401808060200182810382526024815260200180613e776024913960400191505060405180910390fd5b61243f838383612a41565b61244a600082612160565b61249b81600160008673ffffffffffffffffffffffffffffffffffffffff1673ffffffffffffffffffffffffffffffffffffffff168152602001908152602001600020612a4690919063ffffffff16565b506124ed81600160008573ffffffffffffffffffffffffffffffffffffffff1673ffffffffffffffffffffffffffffffffffffffff168152602001908152602001600020612a6090919063ffffffff16565b5061250481836002612a7a9092919063ffffffff16565b50808273ffffffffffffffffffffffffffffffffffffffff168473ffffffffffffffffffffffffffffffffffffffff167fddf252ad1be2c89b69c2b068fc378daa952ba7f163c4a11628f55a4df523b3ef60405160405180910390a4505050565b60006125748360000183612aaf565b60001c905092915050565b6000806000806125928660000186612b32565b915091508160001c8160001c9350935050509250929050565b60006125be846000018460001b84612bcb565b60001c90509392505050565b600073ffffffffffffffffffffffffffffffffffffffff168273ffffffffffffffffffffffffffffffffffffffff16141561266d576040517f08c379a00000000000000000000000000000000000000000000000000000000081526004018080602001828103825260208152602001807f4552433732313a206d696e7420746f20746865207a65726f206164647265737381525060200191505060405180910390fd5b6126768161213b565b156126e9576040517f08c379a000000000000000000000000000000000000000000000000000000000815260040180806020018281038252601c8152602001807f4552433732313a20746f6b656e20616c7265616479206d696e7465640000000081525060200191505060405180910390fd5b6126f560008383612a41565b61274681600160008573ffffffffffffffffffffffffffffffffffffffff1673ffffffffffffffffffffffffffffffffffffffff168152602001908152602001600020612a6090919063ffffffff16565b5061275d81836002612a7a9092919063ffffffff16565b50808273ffffffffffffffffffffffffffffffffffffffff16600073ffffffffffffffffffffffffffffffffffffffff167fddf252ad1be2c89b69c2b068fc378daa952ba7f163c4a11628f55a4df523b3ef60405160405180910390a45050565b6127c78261213b565b61281c576040517f08c379a000000000000000000000000000000000000000000000000000000000815260040180806020018281038252602c815260200180613fc6602c913960400191505060405180910390fd5b80600860008481526020019081526020016000209080519060200190612843929190613404565b505050565b600061285682600001612cc1565b9050919050565b612868848484612322565b61287484848484612cd2565b6128c9576040517f08c379a0000000000000000000000000000000000000000000000000000000008152600401808060200182810382526032815260200180613e456032913960400191505060405180910390fd5b50505050565b60606000821415612917576040518060400160405280600181526020017f30000000000000000000000000000000000000000000000000000000000000008152509050612a11565b600082905060005b60008214612941578080600101915050600a828161293957fe5b04915061291f565b60008167ffffffffffffffff8111801561295a57600080fd5b506040519080825280601f01601f19166020018201604052801561298d5781602001600182028036833780820191505090505b50905060006001830390508593505b60008414612a0957600a84816129ae57fe5b0660300160f81b828280600190039350815181106129c857fe5b60200101907effffffffffffffffffffffffffffffffffffffffffffffffffffffffffffff1916908160001a905350600a8481612a0157fe5b04935061299c565b819450505050505b919050565b6000612a28836000018360001b612eeb565b905092915050565b600081600001805490509050919050565b505050565b6000612a58836000018360001b612f0e565b905092915050565b6000612a72836000018360001b612ff6565b905092915050565b6000612aa6846000018460001b8473ffffffffffffffffffffffffffffffffffffffff1660001b613066565b90509392505050565b600081836000018054905011612b10576040517f08c379a0000000000000000000000000000000000000000000000000000000008152600401808060200182810382526022815260200180613e236022913960400191505060405180910390fd5b826000018281548110612b1f57fe5b9060005260206000200154905092915050565b60008082846000018054905011612b94576040517f08c379a0000000000000000000000000000000000000000000000000000000008152600401808060200182810382526022815260200180613f786022913960400191505060405180910390fd5b6000846000018481548110612ba557fe5b906000526020600020906002020190508060000154816001015492509250509250929050565b60008084600101600085815260200190815260200160002054905060008114158390612c92576040517f08c379a00000000000000000000000000000000000000000000000000000000081526004018080602001828103825283818151815260200191508051906020019080838360005b83811015612c57578082015181840152602081019050612c3c565b50505050905090810190601f168015612c845780820380516001836020036101000a031916815260200191505b509250505060405180910390fd5b50846000016001820381548110612ca557fe5b9060005260206000209060020201600101549150509392505050565b600081600001805490509050919050565b6000612cf38473ffffffffffffffffffffffffffffffffffffffff16613142565b612d005760019050612ee3565b6000612e6a63150b7a0260e01b612d15612158565b888787604051602401808573ffffffffffffffffffffffffffffffffffffffff1681526020018473ffffffffffffffffffffffffffffffffffffffff16815260200183815260200180602001828103825283818151815260200191508051906020019080838360005b83811015612d99578082015181840152602081019050612d7e565b50505050905090810190601f168015612dc65780820380516001836020036101000a031916815260200191505b5095505050505050604051602081830303815290604052907bffffffffffffffffffffffffffffffffffffffffffffffffffffffff19166020820180517bffffffffffffffffffffffffffffffffffffffffffffffffffffffff8381831617835250505050604051806060016040528060328152602001613e45603291398773ffffffffffffffffffffffffffffffffffffffff166131559092919063ffffffff16565b90506000818060200190516020811015612e8357600080fd5b8101908080519060200190929190505050905063150b7a0260e01b7bffffffffffffffffffffffffffffffffffffffffffffffffffffffff1916817bffffffffffffffffffffffffffffffffffffffffffffffffffffffff191614925050505b949350505050565b600080836001016000848152602001908152602001600020541415905092915050565b60008083600101600084815260200190815260200160002054905060008114612fea5760006001820390506000600186600001805490500390506000866000018281548110612f5957fe5b9060005260206000200154905080876000018481548110612f7657fe5b9060005260206000200181905550600183018760010160008381526020019081526020016000208190555086600001805480612fae57fe5b60019003818190600052602060002001600090559055866001016000878152602001908152602001600020600090556001945050505050612ff0565b60009150505b92915050565b6000613002838361316d565b61305b578260000182908060018154018082558091505060019003906000526020600020016000909190919091505582600001805490508360010160008481526020019081526020016000208190555060019050613060565b600090505b92915050565b600080846001016000858152602001908152602001600020549050600081141561310d5784600001604051806040016040528086815260200185815250908060018154018082558091505060019003906000526020600020906002020160009091909190915060008201518160000155602082015181600101555050846000018054905085600101600086815260200190815260200160002081905550600191505061313b565b8285600001600183038154811061312057fe5b90600052602060002090600202016001018190555060009150505b9392505050565b600080823b905060008111915050919050565b60606131648484600085613190565b90509392505050565b600080836001016000848152602001908152602001600020541415905092915050565b6060824710156131eb576040517f08c379a0000000000000000000000000000000000000000000000000000000008152600401808060200182810382526026815260200180613e9b6026913960400191505060405180910390fd5b6131f485613142565b613266576040517f08c379a000000000000000000000000000000000000000000000000000000000815260040180806020018281038252601d8152602001807f416464726573733a2063616c6c20746f206e6f6e2d636f6e747261637400000081525060200191505060405180910390fd5b6000808673ffffffffffffffffffffffffffffffffffffffff1685876040518082805190602001908083835b602083106132b55780518252602082019150602081019050602083039250613292565b6001836020036101000a03801982511681845116808217855250505050505090500191505060006040518083038185875af1925050503d8060008114613317576040519150601f19603f3d011682016040523d82523d6000602084013e61331c565b606091505b509150915061332c828286613338565b92505050949350505050565b60608315613348578290506133fd565b60008351111561335b5782518084602001fd5b816040517f08c379a00000000000000000000000000000000000000000000000000000000081526004018080602001828103825283818151815260200191508051906020019080838360005b838110156133c25780820151818401526020810190506133a7565b50505050905090810190601f1680156133ef5780820380516001836020036101000a031916815260200191505b509250505060405180910390fd5b9392505050565b828054600181600116156101000203166002900490600052602060002090601f01602090048101928261343a5760008555613481565b82601f1061345357805160ff1916838001178555613481565b82800160010185558215613481579182015b82811115613480578251825591602001919060010190613465565b5b50905061348e9190613492565b5090565b5b808211156134ab576000816000905550600101613493565b5090565b60006134c26134bd84613c39565b613c08565b9050828152602081018484840111156134da57600080fd5b6134e5848285613d71565b509392505050565b60006135006134fb84613c69565b613c08565b90508281526020810184848401111561351857600080fd5b613523848285613d71565b509392505050565b60008135905061353a81613dc6565b92915050565b60008135905061354f81613ddd565b92915050565b60008135905061356481613df4565b92915050565b600082601f83011261357b57600080fd5b813561358b8482602086016134af565b91505092915050565b600082601f8301126135a557600080fd5b81356135b58482602086016134ed565b91505092915050565b6000813590506135cd81613e0b565b92915050565b6000602082840312156135e557600080fd5b60006135f38482850161352b565b91505092915050565b6000806040838503121561360f57600080fd5b600061361d8582860161352b565b925050602061362e8582860161352b565b9150509250929050565b60008060006060848603121561364d57600080fd5b600061365b8682870161352b565b935050602061366c8682870161352b565b925050604061367d868287016135be565b9150509250925092565b6000806000806080858703121561369d57600080fd5b60006136ab8782880161352b565b94505060206136bc8782880161352b565b93505060406136cd878288016135be565b925050606085013567ffffffffffffffff8111156136ea57600080fd5b6136f68782880161356a565b91505092959194509250565b6000806040838503121561371557600080fd5b60006137238582860161352b565b925050602061373485828601613540565b9150509250929050565b6000806040838503121561375157600080fd5b600061375f8582860161352b565b9250506020613770858286016135be565b9150509250929050565b60006020828403121561378c57600080fd5b600061379a84828501613555565b91505092915050565b6000806000606084860312156137b857600080fd5b600084013567ffffffffffffffff8111156137d257600080fd5b6137de86828701613594565b935050602084013567ffffffffffffffff8111156137fb57600080fd5b61380786828701613594565b925050604084013567ffffffffffffffff81111561382457600080fd5b61383086828701613594565b9150509250925092565b60006020828403121561384c57600080fd5b600061385a848285016135be565b91505092915050565b6000806040838503121561387657600080fd5b6000613884858286016135be565b92505060206138958582860161352b565b9150509250929050565b600080600080600060a086880312156138b757600080fd5b60006138c5888289016135be565b955050602086013567ffffffffffffffff8111156138e257600080fd5b6138ee88828901613594565b94505060406138ff888289016135be565b935050606086013567ffffffffffffffff81111561391c57600080fd5b61392888828901613594565b925050608061393988828901613540565b9150509295509295909350565b61394f81613d3b565b82525050565b61395e81613cc7565b82525050565b61396d81613cb5565b82525050565b61397c81613cd9565b82525050565b600061398d82613c99565b6139978185613ca4565b93506139a7818560208601613d80565b6139b081613db5565b840191505092915050565b6139c481613d31565b82525050565b60006020820190506139df6000830184613964565b92915050565b60006020820190506139fa6000830184613973565b92915050565b60006020820190508181036000830152613a1a8184613982565b905092915050565b6000602082019050613a3760008301846139bb565b92915050565b600060a082019050613a5260008301886139bb565b8181036020830152613a648187613982565b90508181036040830152613a788186613982565b9050613a876060830185613946565b8181036080830152613a998184613982565b90509695505050505050565b6000608082019050613aba60008301876139bb565b8181036020830152613acc8186613982565b90508181036040830152613ae08185613982565b90508181036060830152613af48184613982565b905095945050505050565b600061010082019050613b15600083018b6139bb565b613b22602083018a6139bb565b8181036040830152613b348189613982565b9050613b4360608301886139bb565b8181036080830152613b558187613982565b9050613b6460a0830186613955565b613b7160c08301856139bb565b613b7e60e0830184613973565b9998505050505050505050565b600060e082019050613ba0600083018a6139bb565b613bad60208301896139bb565b8181036040830152613bbf8188613982565b9050613bce60608301876139bb565b8181036080830152613be08186613982565b9050613bef60a08301856139bb565b613bfc60c0830184613973565b98975050505050505050565b6000604051905081810181811067ffffffffffffffff82111715613c2f57613c2e613db3565b5b8060405250919050565b600067ffffffffffffffff821115613c5457613c53613db3565b5b601f19601f8301169050602081019050919050565b600067ffffffffffffffff821115613c8457613c83613db3565b5b601f19601f8301169050602081019050919050565b600081519050919050565b600082825260208201905092915050565b6000613cc082613d11565b9050919050565b6000613cd282613d11565b9050919050565b60008115159050919050565b60007fffffffff0000000000000000000000000000000000000000000000000000000082169050919050565b600073ffffffffffffffffffffffffffffffffffffffff82169050919050565b6000819050919050565b6000613d4682613d4d565b9050919050565b6000613d5882613d5f565b9050919050565b6000613d6a82613d11565b9050919050565b82818337600083830152505050565b60005b83811015613d9e578082015181840152602081019050613d83565b83811115613dad576000848401525b50505050565bfe5b6000601f19601f8301169050919050565b613dcf81613cb5565b8114613dda57600080fd5b50565b613de681613cd9565b8114613df157600080fd5b50565b613dfd81613ce5565b8114613e0857600080fd5b50565b613e1481613d31565b8114613e1f57600080fd5b5056fe456e756d657261626c655365743a20696e646578206f7574206f6620626f756e64734552433732313a207472616e7366657220746f206e6f6e20455243373231526563656976657220696d706c656d656e7465724552433732313a207472616e7366657220746f20746865207a65726f2061646472657373416464726573733a20696e73756666696369656e742062616c616e636520666f722063616c6c4552433732313a206f70657261746f7220717565727920666f72206e6f6e6578697374656e7420746f6b656e4552433732313a20617070726f76652063616c6c6572206973206e6f74206f776e6572206e6f7220617070726f76656420666f7220616c6c4552433732313a2062616c616e636520717565727920666f7220746865207a65726f20616464726573734552433732313a206f776e657220717565727920666f72206e6f6e6578697374656e7420746f6b656e456e756d657261626c654d61703a20696e646578206f7574206f6620626f756e64734552433732313a20617070726f76656420717565727920666f72206e6f6e6578697374656e7420746f6b656e4552433732314d657461646174613a2055524920736574206f66206e6f6e6578697374656e7420746f6b656e4552433732313a207472616e73666572206f6620746f6b656e2074686174206973206e6f74206f776e4552433732314d657461646174613a2055524920717565727920666f72206e6f6e6578697374656e7420746f6b656e4552433732313a20617070726f76616c20746f2063757272656e74206f776e65724552433732313a207472616e736665722063616c6c6572206973206e6f74206f776e6572206e6f7220617070726f766564a264697066735822122063e0ba0554b93053980d299b8ae6e4e0a567e7155eab18ebfed3f424dd133e5864736f6c63430007060033",
  "immutableReferences": {},
  "source": "//import ERC721 interface\r\nimport \"./ERC721.sol\";\r\n\r\npragma abicoder v2;\r\npragma solidity >=0.6.0 <0.8.0;\r\n\r\n//implement\r\ncontract ArtFundsStorage is ERC721 {\r\n    // this contract's token collection name\r\n    string public collectionName;\r\n    // this contract's token symbol\r\n    string public collectionNameSymbol;\r\n\r\n    struct Collection {\r\n        uint256 tokenId;\r\n        string imageURL;\r\n        string name;\r\n        string description;\r\n    }\r\n\r\n    uint256 public collectionCounter;\r\n    mapping(address => Collection[]) public ownerCollections;\r\n    // uint256[] collections;\r\n\r\n    struct DigitalItem {\r\n        uint256 tokenId;\r\n        uint256 collectionID;\r\n        string name;\r\n        uint256 price;\r\n        string itemURL;\r\n        // address payable mintedBy;\r\n        address payable currentOwner;\r\n        // address payable previousOwner;\r\n        uint256 numberOfTransfers;\r\n        bool forSale;   \r\n    }\r\n\r\n    uint256 public digitalItemCounter; \r\n    mapping(address => DigitalItem[]) public ownerDigitalItems;\r\n    // uint256[] digitalItems;\r\n\r\n    event ItemCreated(\r\n        uint256 id,\r\n        string name,\r\n        address mintedBy,\r\n        address currentOwner,\r\n        address previousOwner,\r\n        uint256 price,\r\n        string imageURL,\r\n        uint256 numberOfTransfers,\r\n        bool forSale\r\n    );\r\n\r\n    event ItemForSale(uint256 id, bool forSale);\r\n\r\n    event CollectionCreated(\r\n        uint256 tokenId,\r\n        string imageURL,\r\n        string name,\r\n        address ownedBy,\r\n        string description\r\n    );\r\n\r\n    // initialize contract while deployment with contract's collection name and token\r\n    constructor() ERC721(\"ArtFunds Collection\", \"CB\") {\r\n        collectionName = name();\r\n        collectionNameSymbol = symbol();\r\n    }\r\n\r\n    // mint a new digital item\r\n    function mintDigitalItem(\r\n        uint256 _collectionID,\r\n        string memory _name,\r\n        uint256 _price,\r\n        string memory _itemURL,\r\n        bool _forSale\r\n    ) external {\r\n        // check if thic fucntion caller is not an zero address account\r\n        require(msg.sender != address(0));\r\n        // increment counter\r\n        digitalItemCounter++;\r\n        // check if a token exists with the above token id => incremented counter\r\n        require(!_exists(digitalItemCounter));\r\n\r\n        // mint the token\r\n        _mint(msg.sender, digitalItemCounter);\r\n        // set token URL (bind token id with the passed in token URL)\r\n        _setTokenURI(digitalItemCounter, _itemURL);\r\n\r\n        DigitalItem memory newDigitalItem = DigitalItem(\r\n            digitalItemCounter,\r\n            _collectionID,\r\n            _name,\r\n            _price,\r\n            _itemURL,\r\n            // _tech,\r\n            // _material,\r\n            // _color,\r\n            // _field,\r\n            // _imageURL,\r\n            // _description,\r\n            msg.sender,\r\n            0,\r\n            _forSale\r\n        );\r\n\r\n        ownerDigitalItems[msg.sender].push(newDigitalItem);\r\n    }\r\n\r\n    // function updateCurrentOwnerDigitalItem(\r\n    //     address _owner,\r\n    //     address payable _newOwner,\r\n    //     uint256 _tokenId\r\n    // ) public returns (bool success) {\r\n    //     require(_owner != address(0x0));\r\n    //     require(_newOwner != address(0x0));\r\n    //     require(_tokenId >= 0);\r\n    //     DigitalItem storage digitalItem = ownerDigitalItems[_owner][_tokenId];\r\n    //     digitalItem.previousOwner = digitalItem.currentOwner;\r\n    //     digitalItem.currentOwner = _newOwner;\r\n    //     return true;\r\n    // }\r\n\r\n    // function updateInfoBasicDigitalItem(\r\n    //     address _owner,\r\n    //     uint256 _tokenId,\r\n    //     string memory _name,\r\n    //     uint256 _price,\r\n    //     string memory _imageURL,\r\n    //     uint256 _numberOfTransfers,\r\n    //     bool _forSale\r\n    // ) public returns (bool success) {\r\n    //     require(_owner != address(0x0));\r\n    //     require(_tokenId >= 0);\r\n    //     require(ownerDigitalItems[_owner].length > 0);\r\n    //     DigitalItem storage digitalItem = ownerDigitalItems[_owner][_tokenId];\r\n    //     digitalItem.imageURL = _imageURL;\r\n    //     digitalItem.name = _name;\r\n    //     digitalItem.price = _price;\r\n    //     digitalItem.forSale = _forSale;\r\n    //     digitalItem.numberOfTransfers = _numberOfTransfers;\r\n    //     return true;\r\n    // }\r\n\r\n    function getDigitalItem(uint256 _itemID, address _owner)\r\n        public\r\n        view\r\n        returns (\r\n            uint256 _tokenId,\r\n            uint256 _collectionID,\r\n            string memory _name,\r\n            uint256 _price,\r\n            string memory _itemURL,\r\n            uint256 numberOfTransfers,\r\n            bool _forSale\r\n        )\r\n    {\r\n        require(_owner != address(0x0));\r\n        require(_collectionID >= 0);\r\n        require(ownerDigitalItems[_owner].length > 0);\r\n        DigitalItem memory digitalItem = ownerDigitalItems[_owner][_itemID];\r\n\r\n        return (\r\n            digitalItem.tokenId,\r\n            digitalItem.collectionID,\r\n            digitalItem.name,\r\n            digitalItem.price,\r\n            digitalItem.itemURL,\r\n            digitalItem.numberOfTransfers,\r\n            digitalItem.forSale\r\n        );\r\n    }\r\n\r\n    // function getDigitalItemCount(address _owner) public view returns (uint256) {\r\n    //     require(_owner != address(0x0));\r\n    //     return ownerDigitalItems[_owner].length;\r\n    // }\r\n\r\n    //This function to create collection from address\r\n    function createCollection(\r\n        string memory _imageURL,\r\n        string memory _name,\r\n        string memory _description\r\n    ) public returns (bool success) {\r\n        collectionCounter++;\r\n        Collection memory collection = Collection(\r\n            collectionCounter,\r\n            _imageURL,\r\n            _name,\r\n            _description\r\n        );\r\n        // ownerDigitalItems[msg.sender].push(newDigitalItem);\r\n        // collection.tokenId = collectionCounter;\r\n        // collection.imageURL = _imageURL;\r\n        // collection.name = _name;\r\n        // collection.description = _description;\r\n        // collection.listSize = 0;\r\n        ownerCollections[msg.sender].push(collection);\r\n        // ownerCollections[msg.sender].push(collection);\r\n\r\n        emit CollectionCreated(\r\n            collectionCounter,\r\n            _imageURL,\r\n            _name,\r\n            msg.sender,\r\n            _description\r\n        );\r\n        return true;\r\n    }\r\n\r\n    // function getCollections(address _owner)\r\n    //     public\r\n    //     view\r\n    //     returns (Collection[] memory)\r\n    // {\r\n    //     require(_owner != address(0x0));\r\n    //     require(ownerCollections[_owner].length > 0);\r\n    //     return ownerCollections[_owner];\r\n    // }\r\n\r\n    function getCollection(uint256 _tokenId, address _owner)\r\n        public\r\n        view\r\n        returns (\r\n            uint256 _id,\r\n            string memory _imageURL,\r\n            string memory _name,\r\n            string memory _description\r\n        )\r\n    {\r\n        // require(_owner != address(0x0));\r\n        // require(_tokenId >= 0);\r\n        // require(ownerCollections[_owner].length > 0);\r\n        Collection memory collection = ownerCollections[_owner][_tokenId];\r\n\r\n        return (collection.tokenId, collection.imageURL, collection.name, collection.description);\r\n    }\r\n\r\n    // // function updateCollection(\r\n    // //     uint256 _tokenId,\r\n    // //     string memory _imageURL,\r\n    // //     string memory _name,\r\n    // //     string memory _description,\r\n    // //     address _owner\r\n    // // ) public returns (bool success) {\r\n    // //     require(_owner != address(0x0));\r\n    // //     require(_tokenId >= 0);\r\n    // //     require(ownerCollections[_owner].length > 0);\r\n    // //     Collection storage collection = ownerCollections[_owner][_tokenId];\r\n    // //     collection.imageURL = _imageURL;\r\n    // //     collection.name = _name;\r\n    // //     collection.description = _description;\r\n    // //     return true;\r\n    // // }\r\n\r\n    // // function deleteCollection(address _owner, uint256 _tokenId)\r\n    // //     public\r\n    // //     returns (bool success)\r\n    // // {\r\n    // //     require(_owner != address(0x0));\r\n    // //     require(_tokenId >= 0);\r\n    // //     require(ownerCollections[_owner].length > 0);\r\n    // //     // uint256 rowToDelete = ownerCollections[_owner][_tokenId].index;\r\n    // //     delete ownerCollections[_owner][_tokenId];\r\n    // //     collectionCounter--;\r\n    // //     return true;\r\n    // // }\r\n\r\n    \r\n\r\n    function getCollectionCount(address _owner)\r\n        public\r\n        view\r\n        returns (uint256 count)\r\n    {\r\n        require(_owner != address(0x0));\r\n        return ownerCollections[_owner].length;\r\n    }   \r\n\r\n    function getDigitalItemOwnerCount(address _owner) public view returns (uint256 count) {\r\n        return ownerDigitalItems[_owner].length;\r\n    }\r\n\r\n    struct Order {\r\n        address maker;\r\n        address taker;\r\n        uint256 tokenId;\r\n    }\r\n\r\n    // mapping(uint256 => Order) orders;\r\n\r\n    // function makeOrder(uint256 _tokenId, uint256 _price) external {\r\n    //     // validate nft\r\n    //     // ...\r\n    // }\r\n\r\n    // function takeOrder(uint256 _tokenId) external {\r\n    //     // check order exists\r\n    //     // validate funds\r\n    //     // transfer funds\r\n    //     // transfer nft\r\n    // }\r\n}\r\n",
  "sourcePath": "E:\\DSC\\DevFest\\ArtFunds\\ArtFunds_DevFest2021\\blockchain\\contracts\\ArtFundsStorage.sol",
  "compiler": {
    "name": "solc",
    "version": "0.7.6+commit.7338295f.Emscripten.clang"
  },
  "schemaVersion": "3.4.3",
  "updatedAt": "2021-10-28T16:59:09.132Z",
  "networkType": "ethereum",
  "devdoc": {
    "kind": "dev",
    "methods": {
      "approve(address,uint256)": {
        "details": "See {IERC721-approve}."
      },
      "balanceOf(address)": {
        "details": "See {IERC721-balanceOf}."
      },
      "baseURI()": {
        "details": "Returns the base URI set via {_setBaseURI}. This will be automatically added as a prefix in {tokenURI} to each token's URI, or to the token ID if no specific URI is set for that token ID."
      },
      "getApproved(uint256)": {
        "details": "See {IERC721-getApproved}."
      },
      "isApprovedForAll(address,address)": {
        "details": "See {IERC721-isApprovedForAll}."
      },
      "name()": {
        "details": "See {IERC721Metadata-name}."
      },
      "ownerOf(uint256)": {
        "details": "See {IERC721-ownerOf}."
      },
      "safeTransferFrom(address,address,uint256)": {
        "details": "See {IERC721-safeTransferFrom}."
      },
      "safeTransferFrom(address,address,uint256,bytes)": {
        "details": "See {IERC721-safeTransferFrom}."
      },
      "setApprovalForAll(address,bool)": {
        "details": "See {IERC721-setApprovalForAll}."
      },
      "supportsInterface(bytes4)": {
        "details": "See {IERC165-supportsInterface}. Time complexity O(1), guaranteed to always use less than 30 000 gas."
      },
      "symbol()": {
        "details": "See {IERC721Metadata-symbol}."
      },
      "tokenByIndex(uint256)": {
        "details": "See {IERC721Enumerable-tokenByIndex}."
      },
      "tokenOfOwnerByIndex(address,uint256)": {
        "details": "See {IERC721Enumerable-tokenOfOwnerByIndex}."
      },
      "tokenURI(uint256)": {
        "details": "See {IERC721Metadata-tokenURI}."
      },
      "totalSupply()": {
        "details": "See {IERC721Enumerable-totalSupply}."
      },
      "transferFrom(address,address,uint256)": {
        "details": "See {IERC721-transferFrom}."
      }
    },
    "version": 1
  },
  "userdoc": {
    "kind": "user",
    "methods": {},
    "version": 1
  }
}