{
  "contractName": "ArtFundsStorage",
  "abi": [
    {
      "inputs": [],
      "stateMutability": "nonpayable",
      "type": "constructor"
    },
    {
      "anonymous": false,
      "inputs": [
        {
          "indexed": true,
          "internalType": "address",
          "name": "owner",
          "type": "address"
        },
        {
          "indexed": true,
          "internalType": "address",
          "name": "approved",
          "type": "address"
        },
        {
          "indexed": true,
          "internalType": "uint256",
          "name": "tokenId",
          "type": "uint256"
        }
      ],
      "name": "Approval",
      "type": "event"
    },
    {
      "anonymous": false,
      "inputs": [
        {
          "indexed": true,
          "internalType": "address",
          "name": "owner",
          "type": "address"
        },
        {
          "indexed": true,
          "internalType": "address",
          "name": "operator",
          "type": "address"
        },
        {
          "indexed": false,
          "internalType": "bool",
          "name": "approved",
          "type": "bool"
        }
      ],
      "name": "ApprovalForAll",
      "type": "event"
    },
    {
      "anonymous": false,
      "inputs": [
        {
          "indexed": false,
          "internalType": "uint256",
          "name": "tokenId",
          "type": "uint256"
        },
        {
          "indexed": false,
          "internalType": "string",
          "name": "imageURL",
          "type": "string"
        },
        {
          "indexed": false,
          "internalType": "string",
          "name": "name",
          "type": "string"
        },
        {
          "indexed": false,
          "internalType": "address",
          "name": "ownedBy",
          "type": "address"
        },
        {
          "indexed": false,
          "internalType": "string",
          "name": "description",
          "type": "string"
        }
      ],
      "name": "CollectionCreated",
      "type": "event"
    },
    {
      "anonymous": false,
      "inputs": [
        {
          "indexed": false,
          "internalType": "uint256",
          "name": "id",
          "type": "uint256"
        },
        {
          "indexed": false,
          "internalType": "string",
          "name": "name",
          "type": "string"
        },
        {
          "indexed": false,
          "internalType": "address",
          "name": "mintedBy",
          "type": "address"
        },
        {
          "indexed": false,
          "internalType": "address",
          "name": "currentOwner",
          "type": "address"
        },
        {
          "indexed": false,
          "internalType": "address",
          "name": "previousOwner",
          "type": "address"
        },
        {
          "indexed": false,
          "internalType": "uint256",
          "name": "price",
          "type": "uint256"
        },
        {
          "indexed": false,
          "internalType": "string",
          "name": "imageURL",
          "type": "string"
        },
        {
          "indexed": false,
          "internalType": "uint256",
          "name": "numberOfTransfers",
          "type": "uint256"
        },
        {
          "indexed": false,
          "internalType": "bool",
          "name": "forSale",
          "type": "bool"
        }
      ],
      "name": "ItemCreated",
      "type": "event"
    },
    {
      "anonymous": false,
      "inputs": [
        {
          "indexed": false,
          "internalType": "uint256",
          "name": "id",
          "type": "uint256"
        },
        {
          "indexed": false,
          "internalType": "bool",
          "name": "forSale",
          "type": "bool"
        }
      ],
      "name": "ItemForSale",
      "type": "event"
    },
    {
      "anonymous": false,
      "inputs": [
        {
          "indexed": true,
          "internalType": "address",
          "name": "from",
          "type": "address"
        },
        {
          "indexed": true,
          "internalType": "address",
          "name": "to",
          "type": "address"
        },
        {
          "indexed": true,
          "internalType": "uint256",
          "name": "tokenId",
          "type": "uint256"
        }
      ],
      "name": "Transfer",
      "type": "event"
    },
    {
      "inputs": [
        {
          "internalType": "address",
          "name": "to",
          "type": "address"
        },
        {
          "internalType": "uint256",
          "name": "tokenId",
          "type": "uint256"
        }
      ],
      "name": "approve",
      "outputs": [],
      "stateMutability": "nonpayable",
      "type": "function"
    },
    {
      "inputs": [
        {
          "internalType": "address",
          "name": "owner",
          "type": "address"
        }
      ],
      "name": "balanceOf",
      "outputs": [
        {
          "internalType": "uint256",
          "name": "",
          "type": "uint256"
        }
      ],
      "stateMutability": "view",
      "type": "function"
    },
    {
      "inputs": [],
      "name": "baseURI",
      "outputs": [
        {
          "internalType": "string",
          "name": "",
          "type": "string"
        }
      ],
      "stateMutability": "view",
      "type": "function"
    },
    {
      "inputs": [],
      "name": "collectionCounter",
      "outputs": [
        {
          "internalType": "uint256",
          "name": "",
          "type": "uint256"
        }
      ],
      "stateMutability": "view",
      "type": "function"
    },
    {
      "inputs": [],
      "name": "collectionName",
      "outputs": [
        {
          "internalType": "string",
          "name": "",
          "type": "string"
        }
      ],
      "stateMutability": "view",
      "type": "function"
    },
    {
      "inputs": [],
      "name": "collectionNameSymbol",
      "outputs": [
        {
          "internalType": "string",
          "name": "",
          "type": "string"
        }
      ],
      "stateMutability": "view",
      "type": "function"
    },
    {
      "inputs": [
        {
          "internalType": "uint256",
          "name": "tokenId",
          "type": "uint256"
        }
      ],
      "name": "getApproved",
      "outputs": [
        {
          "internalType": "address",
          "name": "",
          "type": "address"
        }
      ],
      "stateMutability": "view",
      "type": "function"
    },
    {
      "inputs": [
        {
          "internalType": "address",
          "name": "owner",
          "type": "address"
        },
        {
          "internalType": "address",
          "name": "operator",
          "type": "address"
        }
      ],
      "name": "isApprovedForAll",
      "outputs": [
        {
          "internalType": "bool",
          "name": "",
          "type": "bool"
        }
      ],
      "stateMutability": "view",
      "type": "function"
    },
    {
      "inputs": [],
      "name": "name",
      "outputs": [
        {
          "internalType": "string",
          "name": "",
          "type": "string"
        }
      ],
      "stateMutability": "view",
      "type": "function"
    },
    {
      "inputs": [
        {
          "internalType": "address",
          "name": "",
          "type": "address"
        },
        {
          "internalType": "uint256",
          "name": "",
          "type": "uint256"
        }
      ],
      "name": "ownerCollections",
      "outputs": [
        {
          "internalType": "uint256",
          "name": "tokenId",
          "type": "uint256"
        },
        {
          "internalType": "string",
          "name": "imageURL",
          "type": "string"
        },
        {
          "internalType": "string",
          "name": "name",
          "type": "string"
        },
        {
          "internalType": "string",
          "name": "description",
          "type": "string"
        },
        {
          "internalType": "uint8",
          "name": "listSize",
          "type": "uint8"
        }
      ],
      "stateMutability": "view",
      "type": "function"
    },
    {
      "inputs": [
        {
          "internalType": "address",
          "name": "",
          "type": "address"
        },
        {
          "internalType": "uint256",
          "name": "",
          "type": "uint256"
        }
      ],
      "name": "ownerDigitalItems",
      "outputs": [
        {
          "internalType": "uint256",
          "name": "tokenId",
          "type": "uint256"
        },
        {
          "internalType": "string",
          "name": "name",
          "type": "string"
        },
        {
          "internalType": "address payable",
          "name": "mintedBy",
          "type": "address"
        },
        {
          "internalType": "address payable",
          "name": "currentOwner",
          "type": "address"
        },
        {
          "internalType": "address payable",
          "name": "previousOwner",
          "type": "address"
        },
        {
          "internalType": "uint256",
          "name": "price",
          "type": "uint256"
        },
        {
          "internalType": "string",
          "name": "imageURL",
          "type": "string"
        },
        {
          "internalType": "uint256",
          "name": "numberOfTransfers",
          "type": "uint256"
        },
        {
          "internalType": "bool",
          "name": "forSale",
          "type": "bool"
        }
      ],
      "stateMutability": "view",
      "type": "function"
    },
    {
      "inputs": [
        {
          "internalType": "uint256",
          "name": "tokenId",
          "type": "uint256"
        }
      ],
      "name": "ownerOf",
      "outputs": [
        {
          "internalType": "address",
          "name": "",
          "type": "address"
        }
      ],
      "stateMutability": "view",
      "type": "function"
    },
    {
      "inputs": [
        {
          "internalType": "address",
          "name": "from",
          "type": "address"
        },
        {
          "internalType": "address",
          "name": "to",
          "type": "address"
        },
        {
          "internalType": "uint256",
          "name": "tokenId",
          "type": "uint256"
        }
      ],
      "name": "safeTransferFrom",
      "outputs": [],
      "stateMutability": "nonpayable",
      "type": "function"
    },
    {
      "inputs": [
        {
          "internalType": "address",
          "name": "from",
          "type": "address"
        },
        {
          "internalType": "address",
          "name": "to",
          "type": "address"
        },
        {
          "internalType": "uint256",
          "name": "tokenId",
          "type": "uint256"
        },
        {
          "internalType": "bytes",
          "name": "_data",
          "type": "bytes"
        }
      ],
      "name": "safeTransferFrom",
      "outputs": [],
      "stateMutability": "nonpayable",
      "type": "function"
    },
    {
      "inputs": [
        {
          "internalType": "address",
          "name": "operator",
          "type": "address"
        },
        {
          "internalType": "bool",
          "name": "approved",
          "type": "bool"
        }
      ],
      "name": "setApprovalForAll",
      "outputs": [],
      "stateMutability": "nonpayable",
      "type": "function"
    },
    {
      "inputs": [
        {
          "internalType": "bytes4",
          "name": "interfaceId",
          "type": "bytes4"
        }
      ],
      "name": "supportsInterface",
      "outputs": [
        {
          "internalType": "bool",
          "name": "",
          "type": "bool"
        }
      ],
      "stateMutability": "view",
      "type": "function"
    },
    {
      "inputs": [],
      "name": "symbol",
      "outputs": [
        {
          "internalType": "string",
          "name": "",
          "type": "string"
        }
      ],
      "stateMutability": "view",
      "type": "function"
    },
    {
      "inputs": [
        {
          "internalType": "uint256",
          "name": "index",
          "type": "uint256"
        }
      ],
      "name": "tokenByIndex",
      "outputs": [
        {
          "internalType": "uint256",
          "name": "",
          "type": "uint256"
        }
      ],
      "stateMutability": "view",
      "type": "function"
    },
    {
      "inputs": [
        {
          "internalType": "address",
          "name": "owner",
          "type": "address"
        },
        {
          "internalType": "uint256",
          "name": "index",
          "type": "uint256"
        }
      ],
      "name": "tokenOfOwnerByIndex",
      "outputs": [
        {
          "internalType": "uint256",
          "name": "",
          "type": "uint256"
        }
      ],
      "stateMutability": "view",
      "type": "function"
    },
    {
      "inputs": [
        {
          "internalType": "uint256",
          "name": "tokenId",
          "type": "uint256"
        }
      ],
      "name": "tokenURI",
      "outputs": [
        {
          "internalType": "string",
          "name": "",
          "type": "string"
        }
      ],
      "stateMutability": "view",
      "type": "function"
    },
    {
      "inputs": [],
      "name": "totalSupply",
      "outputs": [
        {
          "internalType": "uint256",
          "name": "",
          "type": "uint256"
        }
      ],
      "stateMutability": "view",
      "type": "function"
    },
    {
      "inputs": [
        {
          "internalType": "address",
          "name": "from",
          "type": "address"
        },
        {
          "internalType": "address",
          "name": "to",
          "type": "address"
        },
        {
          "internalType": "uint256",
          "name": "tokenId",
          "type": "uint256"
        }
      ],
      "name": "transferFrom",
      "outputs": [],
      "stateMutability": "nonpayable",
      "type": "function"
    },
    {
      "inputs": [
        {
          "internalType": "string",
          "name": "_name",
          "type": "string"
        },
        {
          "internalType": "uint256",
          "name": "_price",
          "type": "uint256"
        },
        {
          "internalType": "string",
          "name": "_imageURL",
          "type": "string"
        },
        {
          "internalType": "uint256",
          "name": "_numberOfTransfers",
          "type": "uint256"
        },
        {
          "internalType": "bool",
          "name": "_forSale",
          "type": "bool"
        }
      ],
      "name": "mintDigitalItem",
      "outputs": [],
      "stateMutability": "nonpayable",
      "type": "function"
    },
    {
      "inputs": [
        {
          "internalType": "address",
          "name": "_owner",
          "type": "address"
        },
        {
          "internalType": "address payable",
          "name": "_newOwner",
          "type": "address"
        },
        {
          "internalType": "uint256",
          "name": "_tokenId",
          "type": "uint256"
        }
      ],
      "name": "updateCurrentOwnerDigitalItem",
      "outputs": [
        {
          "internalType": "bool",
          "name": "success",
          "type": "bool"
        }
      ],
      "stateMutability": "nonpayable",
      "type": "function"
    },
    {
      "inputs": [
        {
          "internalType": "address",
          "name": "_owner",
          "type": "address"
        },
        {
          "internalType": "uint256",
          "name": "_tokenId",
          "type": "uint256"
        },
        {
          "internalType": "string",
          "name": "_name",
          "type": "string"
        },
        {
          "internalType": "uint256",
          "name": "_price",
          "type": "uint256"
        },
        {
          "internalType": "string",
          "name": "_imageURL",
          "type": "string"
        },
        {
          "internalType": "uint256",
          "name": "_numberOfTransfers",
          "type": "uint256"
        },
        {
          "internalType": "bool",
          "name": "_forSale",
          "type": "bool"
        }
      ],
      "name": "updateInfoBasicDigitalItem",
      "outputs": [
        {
          "internalType": "bool",
          "name": "success",
          "type": "bool"
        }
      ],
      "stateMutability": "nonpayable",
      "type": "function"
    },
    {
      "inputs": [
        {
          "internalType": "uint256",
          "name": "_tokenId",
          "type": "uint256"
        },
        {
          "internalType": "address",
          "name": "_owner",
          "type": "address"
        }
      ],
      "name": "getDigitalItem",
      "outputs": [
        {
          "internalType": "string",
          "name": "_name",
          "type": "string"
        },
        {
          "internalType": "address",
          "name": "_mintedBy",
          "type": "address"
        },
        {
          "internalType": "address",
          "name": "_currentOwner",
          "type": "address"
        },
        {
          "internalType": "address",
          "name": "_previousOwner",
          "type": "address"
        },
        {
          "internalType": "uint256",
          "name": "_price",
          "type": "uint256"
        },
        {
          "internalType": "string",
          "name": "_imageURL",
          "type": "string"
        },
        {
          "internalType": "uint256",
          "name": "_numberOfTransfers",
          "type": "uint256"
        },
        {
          "internalType": "bool",
          "name": "_forSale",
          "type": "bool"
        }
      ],
      "stateMutability": "view",
      "type": "function"
    },
    {
      "inputs": [
        {
          "internalType": "address",
          "name": "_owner",
          "type": "address"
        }
      ],
      "name": "getDigitalItemCount",
      "outputs": [
        {
          "internalType": "uint256",
          "name": "",
          "type": "uint256"
        }
      ],
      "stateMutability": "view",
      "type": "function"
    },
    {
      "inputs": [
        {
          "internalType": "string",
          "name": "_imageURL",
          "type": "string"
        },
        {
          "internalType": "string",
          "name": "_name",
          "type": "string"
        },
        {
          "internalType": "string",
          "name": "_description",
          "type": "string"
        }
      ],
      "name": "createCollection",
      "outputs": [
        {
          "internalType": "bool",
          "name": "success",
          "type": "bool"
        }
      ],
      "stateMutability": "nonpayable",
      "type": "function"
    },
    {
      "inputs": [
        {
          "internalType": "uint256",
          "name": "_tokenId",
          "type": "uint256"
        },
        {
          "internalType": "address",
          "name": "_owner",
          "type": "address"
        }
      ],
      "name": "getCollection",
      "outputs": [
        {
          "internalType": "string",
          "name": "_imageURL",
          "type": "string"
        },
        {
          "internalType": "string",
          "name": "_name",
          "type": "string"
        },
        {
          "internalType": "string",
          "name": "_description",
          "type": "string"
        }
      ],
      "stateMutability": "view",
      "type": "function"
    },
    {
      "inputs": [
        {
          "internalType": "address",
          "name": "_owner",
          "type": "address"
        }
      ],
      "name": "getCollectionCount",
      "outputs": [
        {
          "internalType": "uint256",
          "name": "",
          "type": "uint256"
        }
      ],
      "stateMutability": "view",
      "type": "function"
    }
  ],
  "bytecode": "0x60806040526000600c556000600e553480156200001b57600080fd5b506040518060400160405280601381526020017f41727446756e647320436f6c6c656374696f6e000000000000000000000000008152506040518060400160405280600281526020017f4342000000000000000000000000000000000000000000000000000000000000815250620000a06301ffc9a760e01b6200017260201b60201c565b8160069080519060200190620000b8929190620003c7565b508060079080519060200190620000d1929190620003c7565b50620000ea6380ac58cd60e01b6200017260201b60201c565b62000102635b5e139f60e01b6200017260201b60201c565b6200011a63780e9d6360e01b6200017260201b60201c565b50506200012c6200027b60201b60201c565b600a908051906020019062000143929190620003c7565b50620001546200032160201b60201c565b600b90805190602001906200016b929190620003c7565b506200047d565b63ffffffff60e01b817bffffffffffffffffffffffffffffffffffffffffffffffffffffffff191614156200020f576040517f08c379a000000000000000000000000000000000000000000000000000000000815260040180806020018281038252601c8152602001807f4552433136353a20696e76616c696420696e746572666163652069640000000081525060200191505060405180910390fd5b6001600080837bffffffffffffffffffffffffffffffffffffffffffffffffffffffff19167bffffffffffffffffffffffffffffffffffffffffffffffffffffffff1916815260200190815260200160002060006101000a81548160ff02191690831515021790555050565b606060068054600181600116156101000203166002900480601f016020809104026020016040519081016040528092919081815260200182805460018160011615610100020316600290048015620003175780601f10620002eb5761010080835404028352916020019162000317565b820191906000526020600020905b815481529060010190602001808311620002f957829003601f168201915b5050505050905090565b606060078054600181600116156101000203166002900480601f016020809104026020016040519081016040528092919081815260200182805460018160011615610100020316600290048015620003bd5780601f106200039157610100808354040283529160200191620003bd565b820191906000526020600020905b8154815290600101906020018083116200039f57829003601f168201915b5050505050905090565b828054600181600116156101000203166002900490600052602060002090601f016020900481019282620003ff57600085556200044b565b82601f106200041a57805160ff19168380011785556200044b565b828001600101855582156200044b579182015b828111156200044a5782518255916020019190600101906200042d565b5b5090506200045a91906200045e565b5090565b5b80821115620004795760008160009055506001016200045f565b5090565b614679806200048d6000396000f3fe608060405234801561001057600080fd5b50600436106101da5760003560e01c806354515bb611610104578063a22cb465116100a2578063e5326ab111610071578063e5326ab1146105f0578063e985e9c51461060e578063ebdc07e81461063e578063ece86c211461066e576101da565b8063a22cb46514610550578063b88d4fde1461056c578063c87b56dd14610588578063d5f45a7d146105b8576101da565b80636f9507f9116100de5780636f9507f9146104ad57806370a08231146104cb57806395d89b41146104fb5780639bdbf7e014610519576101da565b806354515bb61461042f5780636352211e1461045f5780636c0360eb1461048f576101da565b806323b872dd1161017c57806342842e0e1161014b57806342842e0e146103a95780634f6ccce7146103c5578063501845c6146103f55780635187a82d14610411576101da565b806323b872dd146102f95780632588e01c146103155780632f745c591461034557806339b5f83014610375576101da565b806307a5b578116101b857806307a5b5781461025f578063081812fc1461028f578063095ea7b3146102bf57806318160ddd146102db576101da565b806301188b3f146101df57806301ffc9a71461021157806306fdde0314610241575b600080fd5b6101f960048036038101906101f49190613e33565b61069e565b60405161020893929190613fe6565b60405180910390f35b61022b60048036038101906102269190613ca3565b610984565b6040516102389190613f1d565b60405180910390f35b6102496109eb565b6040516102569190613f38565b60405180910390f35b610279600480360381019061027491906139df565b610a8d565b6040516102869190614032565b60405180910390f35b6102a960048036038101906102a49190613e0a565b610b12565b6040516102b69190613f02565b60405180910390f35b6102d960048036038101906102d49190613b99565b610bad565b005b6102e3610cf1565b6040516102f09190614032565b60405180910390f35b610313600480360381019061030e9190613a93565b610d02565b005b61032f600480360381019061032a9190613a44565b610d78565b60405161033c9190613f1d565b60405180910390f35b61035f600480360381019061035a9190613b99565b610f0d565b60405161036c9190614032565b60405180910390f35b61038f600480360381019061038a9190613b99565b610f68565b6040516103a0959493929190614150565b60405180910390f35b6103c360048036038101906103be9190613a93565b611190565b005b6103df60048036038101906103da9190613e0a565b6111b0565b6040516103ec9190614032565b60405180910390f35b61040f600480360381019061040a9190613d63565b6111d3565b005b61041961148d565b6040516104269190614032565b60405180910390f35b610449600480360381019061044491906139df565b611493565b6040516104569190614032565b60405180910390f35b61047960048036038101906104749190613e0a565b611518565b6040516104869190613f02565b60405180910390f35b61049761154f565b6040516104a49190613f38565b60405180910390f35b6104b56115f1565b6040516104c29190613f38565b60405180910390f35b6104e560048036038101906104e091906139df565b61168f565b6040516104f29190614032565b60405180910390f35b610503611764565b6040516105109190613f38565b60405180910390f35b610533600480360381019061052e9190613e33565b611806565b604051610547989796959493929190613f5a565b60405180910390f35b61056a60048036038101906105659190613b5d565b611aef565b005b61058660048036038101906105819190613ae2565b611ca5565b005b6105a2600480360381019061059d9190613e0a565b611d1d565b6040516105af9190613f38565b60405180910390f35b6105d260048036038101906105cd9190613b99565b611fee565b6040516105e79998979695949392919061404d565b60405180910390f35b6105f86121f6565b6040516106059190613f38565b60405180910390f35b61062860048036038101906106239190613a08565b612294565b6040516106359190613f1d565b60405180910390f35b61065860048036038101906106539190613bd5565b612328565b6040516106659190613f1d565b60405180910390f35b61068860048036038101906106839190613ccc565b61248c565b6040516106959190613f1d565b60405180910390f35b6060806060600073ffffffffffffffffffffffffffffffffffffffff168473ffffffffffffffffffffffffffffffffffffffff1614156106dd57600080fd5b60008510156106eb57600080fd5b6000600d60008673ffffffffffffffffffffffffffffffffffffffff1673ffffffffffffffffffffffffffffffffffffffff168152602001908152602001600020805490501161073a57600080fd5b6000600d60008673ffffffffffffffffffffffffffffffffffffffff1673ffffffffffffffffffffffffffffffffffffffff168152602001908152602001600020868154811061078657fe5b90600052602060002090600602019050806001018160020182600301828054600181600116156101000203166002900480601f0160208091040260200160405190810160405280929190818152602001828054600181600116156101000203166002900480156108375780601f1061080c57610100808354040283529160200191610837565b820191906000526020600020905b81548152906001019060200180831161081a57829003601f168201915b50505050509250818054600181600116156101000203166002900480601f0160208091040260200160405190810160405280929190818152602001828054600181600116156101000203166002900480156108d35780601f106108a8576101008083540402835291602001916108d3565b820191906000526020600020905b8154815290600101906020018083116108b657829003601f168201915b50505050509150808054600181600116156101000203166002900480601f01602080910402602001604051908101604052809291908181526020018280546001816001161561010002031660029004801561096f5780601f106109445761010080835404028352916020019161096f565b820191906000526020600020905b81548152906001019060200180831161095257829003601f168201915b50505050509050935093509350509250925092565b6000806000837bffffffffffffffffffffffffffffffffffffffffffffffffffffffff19167bffffffffffffffffffffffffffffffffffffffffffffffffffffffff1916815260200190815260200160002060009054906101000a900460ff169050919050565b606060068054600181600116156101000203166002900480601f016020809104026020016040519081016040528092919081815260200182805460018160011615610100020316600290048015610a835780601f10610a5857610100808354040283529160200191610a83565b820191906000526020600020905b815481529060010190602001808311610a6657829003601f168201915b5050505050905090565b60008073ffffffffffffffffffffffffffffffffffffffff168273ffffffffffffffffffffffffffffffffffffffff161415610ac857600080fd5b600f60008373ffffffffffffffffffffffffffffffffffffffff1673ffffffffffffffffffffffffffffffffffffffff168152602001908152602001600020805490509050919050565b6000610b1d826125bc565b610b72576040517f08c379a000000000000000000000000000000000000000000000000000000000815260040180806020018281038252602c81526020018061456e602c913960400191505060405180910390fd5b6004600083815260200190815260200160002060009054906101000a900473ffffffffffffffffffffffffffffffffffffffff169050919050565b6000610bb882611518565b90508073ffffffffffffffffffffffffffffffffffffffff168373ffffffffffffffffffffffffffffffffffffffff161415610c3f576040517f08c379a00000000000000000000000000000000000000000000000000000000081526004018080602001828103825260218152602001806145f26021913960400191505060405180910390fd5b8073ffffffffffffffffffffffffffffffffffffffff16610c5e6125d9565b73ffffffffffffffffffffffffffffffffffffffff161480610c8d5750610c8c81610c876125d9565b612294565b5b610ce2576040517f08c379a00000000000000000000000000000000000000000000000000000000081526004018080602001828103825260388152602001806144c16038913960400191505060405180910390fd5b610cec83836125e1565b505050565b6000610cfd600261269a565b905090565b610d13610d0d6125d9565b826126af565b610d68576040517f08c379a00000000000000000000000000000000000000000000000000000000081526004018080602001828103825260318152602001806146136031913960400191505060405180910390fd5b610d738383836127a3565b505050565b60008073ffffffffffffffffffffffffffffffffffffffff168473ffffffffffffffffffffffffffffffffffffffff161415610db357600080fd5b600073ffffffffffffffffffffffffffffffffffffffff168373ffffffffffffffffffffffffffffffffffffffff161415610ded57600080fd5b6000821015610dfb57600080fd5b6000600f60008673ffffffffffffffffffffffffffffffffffffffff1673ffffffffffffffffffffffffffffffffffffffff1681526020019081526020016000208381548110610e4757fe5b906000526020600020906009020190508060030160009054906101000a900473ffffffffffffffffffffffffffffffffffffffff168160040160006101000a81548173ffffffffffffffffffffffffffffffffffffffff021916908373ffffffffffffffffffffffffffffffffffffffff160217905550838160030160006101000a81548173ffffffffffffffffffffffffffffffffffffffff021916908373ffffffffffffffffffffffffffffffffffffffff16021790555060019150509392505050565b6000610f6082600160008673ffffffffffffffffffffffffffffffffffffffff1673ffffffffffffffffffffffffffffffffffffffff1681526020019081526020016000206129e690919063ffffffff16565b905092915050565b600d6020528160005260406000208181548110610f8457600080fd5b906000526020600020906006020160009150915050806000015490806001018054600181600116156101000203166002900480601f0160208091040260200160405190810160405280929190818152602001828054600181600116156101000203166002900480156110375780601f1061100c57610100808354040283529160200191611037565b820191906000526020600020905b81548152906001019060200180831161101a57829003601f168201915b505050505090806002018054600181600116156101000203166002900480601f0160208091040260200160405190810160405280929190818152602001828054600181600116156101000203166002900480156110d55780601f106110aa576101008083540402835291602001916110d5565b820191906000526020600020905b8154815290600101906020018083116110b857829003601f168201915b505050505090806003018054600181600116156101000203166002900480601f0160208091040260200160405190810160405280929190818152602001828054600181600116156101000203166002900480156111735780601f1061114857610100808354040283529160200191611173565b820191906000526020600020905b81548152906001019060200180831161115657829003601f168201915b5050505050908060050160009054906101000a900460ff16905085565b6111ab83838360405180602001604052806000815250611ca5565b505050565b6000806111c7836002612a0090919063ffffffff16565b50905080915050919050565b600073ffffffffffffffffffffffffffffffffffffffff163373ffffffffffffffffffffffffffffffffffffffff16141561120d57600080fd5b600e6000815480929190600101919050555061122a600e546125bc565b1561123457600080fd5b61124033600e54612a2c565b6000604051806101200160405280600e5481526020018781526020013373ffffffffffffffffffffffffffffffffffffffff1681526020013373ffffffffffffffffffffffffffffffffffffffff1681526020013373ffffffffffffffffffffffffffffffffffffffff16815260200186815260200185815260200160008152602001600115158152509050600f60003373ffffffffffffffffffffffffffffffffffffffff1673ffffffffffffffffffffffffffffffffffffffff16815260200190815260200160002081908060018154018082558091505060019003906000526020600020906009020160009091909190915060008201518160000155602082015181600101908051906020019061135b9291906137fb565b5060408201518160020160006101000a81548173ffffffffffffffffffffffffffffffffffffffff021916908373ffffffffffffffffffffffffffffffffffffffff16021790555060608201518160030160006101000a81548173ffffffffffffffffffffffffffffffffffffffff021916908373ffffffffffffffffffffffffffffffffffffffff16021790555060808201518160040160006101000a81548173ffffffffffffffffffffffffffffffffffffffff021916908373ffffffffffffffffffffffffffffffffffffffff16021790555060a0820151816005015560c08201518160060190805190602001906114579291906137fb565b5060e082015181600701556101008201518160080160006101000a81548160ff0219169083151502179055505050505050505050565b600c5481565b60008073ffffffffffffffffffffffffffffffffffffffff168273ffffffffffffffffffffffffffffffffffffffff1614156114ce57600080fd5b600d60008373ffffffffffffffffffffffffffffffffffffffff1673ffffffffffffffffffffffffffffffffffffffff168152602001908152602001600020805490509050919050565b600061154882604051806060016040528060298152602001614523602991396002612c209092919063ffffffff16565b9050919050565b606060098054600181600116156101000203166002900480601f0160208091040260200160405190810160405280929190818152602001828054600181600116156101000203166002900480156115e75780601f106115bc576101008083540402835291602001916115e7565b820191906000526020600020905b8154815290600101906020018083116115ca57829003601f168201915b5050505050905090565b600b8054600181600116156101000203166002900480601f0160208091040260200160405190810160405280929190818152602001828054600181600116156101000203166002900480156116875780601f1061165c57610100808354040283529160200191611687565b820191906000526020600020905b81548152906001019060200180831161166a57829003601f168201915b505050505081565b60008073ffffffffffffffffffffffffffffffffffffffff168273ffffffffffffffffffffffffffffffffffffffff161415611716576040517f08c379a000000000000000000000000000000000000000000000000000000000815260040180806020018281038252602a8152602001806144f9602a913960400191505060405180910390fd5b61175d600160008473ffffffffffffffffffffffffffffffffffffffff1673ffffffffffffffffffffffffffffffffffffffff168152602001908152602001600020612c3f565b9050919050565b606060078054600181600116156101000203166002900480601f0160208091040260200160405190810160405280929190818152602001828054600181600116156101000203166002900480156117fc5780601f106117d1576101008083540402835291602001916117fc565b820191906000526020600020905b8154815290600101906020018083116117df57829003601f168201915b5050505050905090565b60606000806000806060600080600073ffffffffffffffffffffffffffffffffffffffff168973ffffffffffffffffffffffffffffffffffffffff16141561184d57600080fd5b60008a101561185b57600080fd5b6000600f60008b73ffffffffffffffffffffffffffffffffffffffff1673ffffffffffffffffffffffffffffffffffffffff16815260200190815260200160002080549050116118aa57600080fd5b6000600f60008b73ffffffffffffffffffffffffffffffffffffffff1673ffffffffffffffffffffffffffffffffffffffff1681526020019081526020016000208b815481106118f657fe5b90600052602060002090600902019050806001018160020160009054906101000a900473ffffffffffffffffffffffffffffffffffffffff168260030160009054906101000a900473ffffffffffffffffffffffffffffffffffffffff168360040160009054906101000a900473ffffffffffffffffffffffffffffffffffffffff1684600501548560060186600701548760080160009054906101000a900460ff16878054600181600116156101000203166002900480601f016020809104026020016040519081016040528092919081815260200182805460018160011615610100020316600290048015611a2e5780601f10611a0357610100808354040283529160200191611a2e565b820191906000526020600020905b815481529060010190602001808311611a1157829003601f168201915b50505050509750828054600181600116156101000203166002900480601f016020809104026020016040519081016040528092919081815260200182805460018160011615610100020316600290048015611aca5780601f10611a9f57610100808354040283529160200191611aca565b820191906000526020600020905b815481529060010190602001808311611aad57829003601f168201915b5050505050925098509850985098509850985098509850509295985092959890939650565b611af76125d9565b73ffffffffffffffffffffffffffffffffffffffff168273ffffffffffffffffffffffffffffffffffffffff161415611b98576040517f08c379a00000000000000000000000000000000000000000000000000000000081526004018080602001828103825260198152602001807f4552433732313a20617070726f766520746f2063616c6c65720000000000000081525060200191505060405180910390fd5b8060056000611ba56125d9565b73ffffffffffffffffffffffffffffffffffffffff1673ffffffffffffffffffffffffffffffffffffffff16815260200190815260200160002060008473ffffffffffffffffffffffffffffffffffffffff1673ffffffffffffffffffffffffffffffffffffffff16815260200190815260200160002060006101000a81548160ff0219169083151502179055508173ffffffffffffffffffffffffffffffffffffffff16611c526125d9565b73ffffffffffffffffffffffffffffffffffffffff167f17307eab39ab6107e8899845ad3d59bd9653f200f220920489ca2b5937696c318360405180821515815260200191505060405180910390a35050565b611cb6611cb06125d9565b836126af565b611d0b576040517f08c379a00000000000000000000000000000000000000000000000000000000081526004018080602001828103825260318152602001806146136031913960400191505060405180910390fd5b611d1784848484612c54565b50505050565b6060611d28826125bc565b611d7d576040517f08c379a000000000000000000000000000000000000000000000000000000000815260040180806020018281038252602f8152602001806145c3602f913960400191505060405180910390fd5b6000600860008481526020019081526020016000208054600181600116156101000203166002900480601f016020809104026020016040519081016040528092919081815260200182805460018160011615610100020316600290048015611e265780601f10611dfb57610100808354040283529160200191611e26565b820191906000526020600020905b815481529060010190602001808311611e0957829003601f168201915b505050505090506000611e3761154f565b9050600081511415611e4d578192505050611fe9565b600082511115611f1e5780826040516020018083805190602001908083835b60208310611e8f5780518252602082019150602081019050602083039250611e6c565b6001836020036101000a03801982511681845116808217855250505050505090500182805190602001908083835b60208310611ee05780518252602082019150602081019050602083039250611ebd565b6001836020036101000a0380198251168184511680821785525050505050509050019250505060405160208183030381529060405292505050611fe9565b80611f2885612cc6565b6040516020018083805190602001908083835b60208310611f5e5780518252602082019150602081019050602083039250611f3b565b6001836020036101000a03801982511681845116808217855250505050505090500182805190602001908083835b60208310611faf5780518252602082019150602081019050602083039250611f8c565b6001836020036101000a03801982511681845116808217855250505050505090500192505050604051602081830303815290604052925050505b919050565b600f602052816000526040600020818154811061200a57600080fd5b906000526020600020906009020160009150915050806000015490806001018054600181600116156101000203166002900480601f0160208091040260200160405190810160405280929190818152602001828054600181600116156101000203166002900480156120bd5780601f10612092576101008083540402835291602001916120bd565b820191906000526020600020905b8154815290600101906020018083116120a057829003601f168201915b5050505050908060020160009054906101000a900473ffffffffffffffffffffffffffffffffffffffff16908060030160009054906101000a900473ffffffffffffffffffffffffffffffffffffffff16908060040160009054906101000a900473ffffffffffffffffffffffffffffffffffffffff1690806005015490806006018054600181600116156101000203166002900480601f0160208091040260200160405190810160405280929190818152602001828054600181600116156101000203166002900480156121d35780601f106121a8576101008083540402835291602001916121d3565b820191906000526020600020905b8154815290600101906020018083116121b657829003601f168201915b5050505050908060070154908060080160009054906101000a900460ff16905089565b600a8054600181600116156101000203166002900480601f01602080910402602001604051908101604052809291908181526020018280546001816001161561010002031660029004801561228c5780601f106122615761010080835404028352916020019161228c565b820191906000526020600020905b81548152906001019060200180831161226f57829003601f168201915b505050505081565b6000600560008473ffffffffffffffffffffffffffffffffffffffff1673ffffffffffffffffffffffffffffffffffffffff16815260200190815260200160002060008373ffffffffffffffffffffffffffffffffffffffff1673ffffffffffffffffffffffffffffffffffffffff16815260200190815260200160002060009054906101000a900460ff16905092915050565b60008073ffffffffffffffffffffffffffffffffffffffff168873ffffffffffffffffffffffffffffffffffffffff16141561236357600080fd5b600087101561237157600080fd5b6000600f60008a73ffffffffffffffffffffffffffffffffffffffff1673ffffffffffffffffffffffffffffffffffffffff16815260200190815260200160002080549050116123c057600080fd5b6000600f60008a73ffffffffffffffffffffffffffffffffffffffff1673ffffffffffffffffffffffffffffffffffffffff168152602001908152602001600020888154811061240c57fe5b90600052602060002090600902019050848160060190805190602001906124349291906137fb565b508681600101908051906020019061244d9291906137fb565b50858160050181905550828160080160006101000a81548160ff0219169083151502179055508381600701819055506001915050979650505050505050565b6000600c60008154600101919050819055506000600d60003373ffffffffffffffffffffffffffffffffffffffff1673ffffffffffffffffffffffffffffffffffffffff1681526020019081526020016000206001815481106124eb57fe5b90600052602060002090600602019050600c5481600001819055508481600101908051906020019061251e9291906137fb565b50838160020190805190602001906125379291906137fb565b50828160030190805190602001906125509291906137fb565b5060008160050160006101000a81548160ff021916908360ff1602179055507fefbd145fea57de09a0db3eea45c2b6b13a53246bff3d28eaf26c5b4b1ece83f8600c54868633876040516125a89594939291906140e8565b60405180910390a160019150509392505050565b60006125d2826002612e0d90919063ffffffff16565b9050919050565b600033905090565b816004600083815260200190815260200160002060006101000a81548173ffffffffffffffffffffffffffffffffffffffff021916908373ffffffffffffffffffffffffffffffffffffffff160217905550808273ffffffffffffffffffffffffffffffffffffffff1661265483611518565b73ffffffffffffffffffffffffffffffffffffffff167f8c5be1e5ebec7d5bd14f71427d1e84f3dd0314c0f7b2291e5b200ac8c7c3b92560405160405180910390a45050565b60006126a882600001612e27565b9050919050565b60006126ba826125bc565b61270f576040517f08c379a000000000000000000000000000000000000000000000000000000000815260040180806020018281038252602c815260200180614495602c913960400191505060405180910390fd5b600061271a83611518565b90508073ffffffffffffffffffffffffffffffffffffffff168473ffffffffffffffffffffffffffffffffffffffff16148061278957508373ffffffffffffffffffffffffffffffffffffffff1661277184610b12565b73ffffffffffffffffffffffffffffffffffffffff16145b8061279a57506127998185612294565b5b91505092915050565b8273ffffffffffffffffffffffffffffffffffffffff166127c382611518565b73ffffffffffffffffffffffffffffffffffffffff161461282f576040517f08c379a000000000000000000000000000000000000000000000000000000000815260040180806020018281038252602981526020018061459a6029913960400191505060405180910390fd5b600073ffffffffffffffffffffffffffffffffffffffff168273ffffffffffffffffffffffffffffffffffffffff1614156128b5576040517f08c379a000000000000000000000000000000000000000000000000000000000815260040180806020018281038252602481526020018061444b6024913960400191505060405180910390fd5b6128c0838383612e38565b6128cb6000826125e1565b61291c81600160008673ffffffffffffffffffffffffffffffffffffffff1673ffffffffffffffffffffffffffffffffffffffff168152602001908152602001600020612e3d90919063ffffffff16565b5061296e81600160008573ffffffffffffffffffffffffffffffffffffffff1673ffffffffffffffffffffffffffffffffffffffff168152602001908152602001600020612e5790919063ffffffff16565b5061298581836002612e719092919063ffffffff16565b50808273ffffffffffffffffffffffffffffffffffffffff168473ffffffffffffffffffffffffffffffffffffffff167fddf252ad1be2c89b69c2b068fc378daa952ba7f163c4a11628f55a4df523b3ef60405160405180910390a4505050565b60006129f58360000183612ea6565b60001c905092915050565b600080600080612a138660000186612f29565b915091508160001c8160001c9350935050509250929050565b600073ffffffffffffffffffffffffffffffffffffffff168273ffffffffffffffffffffffffffffffffffffffff161415612acf576040517f08c379a00000000000000000000000000000000000000000000000000000000081526004018080602001828103825260208152602001807f4552433732313a206d696e7420746f20746865207a65726f206164647265737381525060200191505060405180910390fd5b612ad8816125bc565b15612b4b576040517f08c379a000000000000000000000000000000000000000000000000000000000815260040180806020018281038252601c8152602001807f4552433732313a20746f6b656e20616c7265616479206d696e7465640000000081525060200191505060405180910390fd5b612b5760008383612e38565b612ba881600160008573ffffffffffffffffffffffffffffffffffffffff1673ffffffffffffffffffffffffffffffffffffffff168152602001908152602001600020612e5790919063ffffffff16565b50612bbf81836002612e719092919063ffffffff16565b50808273ffffffffffffffffffffffffffffffffffffffff16600073ffffffffffffffffffffffffffffffffffffffff167fddf252ad1be2c89b69c2b068fc378daa952ba7f163c4a11628f55a4df523b3ef60405160405180910390a45050565b6000612c33846000018460001b84612fc2565b60001c90509392505050565b6000612c4d826000016130b8565b9050919050565b612c5f8484846127a3565b612c6b848484846130c9565b612cc0576040517f08c379a00000000000000000000000000000000000000000000000000000000081526004018080602001828103825260328152602001806144196032913960400191505060405180910390fd5b50505050565b60606000821415612d0e576040518060400160405280600181526020017f30000000000000000000000000000000000000000000000000000000000000008152509050612e08565b600082905060005b60008214612d38578080600101915050600a8281612d3057fe5b049150612d16565b60008167ffffffffffffffff81118015612d5157600080fd5b506040519080825280601f01601f191660200182016040528015612d845781602001600182028036833780820191505090505b50905060006001830390508593505b60008414612e0057600a8481612da557fe5b0660300160f81b82828060019003935081518110612dbf57fe5b60200101907effffffffffffffffffffffffffffffffffffffffffffffffffffffffffffff1916908160001a905350600a8481612df857fe5b049350612d93565b819450505050505b919050565b6000612e1f836000018360001b6132e2565b905092915050565b600081600001805490509050919050565b505050565b6000612e4f836000018360001b613305565b905092915050565b6000612e69836000018360001b6133ed565b905092915050565b6000612e9d846000018460001b8473ffffffffffffffffffffffffffffffffffffffff1660001b61345d565b90509392505050565b600081836000018054905011612f07576040517f08c379a00000000000000000000000000000000000000000000000000000000081526004018080602001828103825260228152602001806143f76022913960400191505060405180910390fd5b826000018281548110612f1657fe5b9060005260206000200154905092915050565b60008082846000018054905011612f8b576040517f08c379a000000000000000000000000000000000000000000000000000000000815260040180806020018281038252602281526020018061454c6022913960400191505060405180910390fd5b6000846000018481548110612f9c57fe5b906000526020600020906002020190508060000154816001015492509250509250929050565b60008084600101600085815260200190815260200160002054905060008114158390613089576040517f08c379a00000000000000000000000000000000000000000000000000000000081526004018080602001828103825283818151815260200191508051906020019080838360005b8381101561304e578082015181840152602081019050613033565b50505050905090810190601f16801561307b5780820380516001836020036101000a031916815260200191505b509250505060405180910390fd5b5084600001600182038154811061309c57fe5b9060005260206000209060020201600101549150509392505050565b600081600001805490509050919050565b60006130ea8473ffffffffffffffffffffffffffffffffffffffff16613539565b6130f757600190506132da565b600061326163150b7a0260e01b61310c6125d9565b888787604051602401808573ffffffffffffffffffffffffffffffffffffffff1681526020018473ffffffffffffffffffffffffffffffffffffffff16815260200183815260200180602001828103825283818151815260200191508051906020019080838360005b83811015613190578082015181840152602081019050613175565b50505050905090810190601f1680156131bd5780820380516001836020036101000a031916815260200191505b5095505050505050604051602081830303815290604052907bffffffffffffffffffffffffffffffffffffffffffffffffffffffff19166020820180517bffffffffffffffffffffffffffffffffffffffffffffffffffffffff8381831617835250505050604051806060016040528060328152602001614419603291398773ffffffffffffffffffffffffffffffffffffffff1661354c9092919063ffffffff16565b9050600081806020019051602081101561327a57600080fd5b8101908080519060200190929190505050905063150b7a0260e01b7bffffffffffffffffffffffffffffffffffffffffffffffffffffffff1916817bffffffffffffffffffffffffffffffffffffffffffffffffffffffff191614925050505b949350505050565b600080836001016000848152602001908152602001600020541415905092915050565b600080836001016000848152602001908152602001600020549050600081146133e1576000600182039050600060018660000180549050039050600086600001828154811061335057fe5b906000526020600020015490508087600001848154811061336d57fe5b90600052602060002001819055506001830187600101600083815260200190815260200160002081905550866000018054806133a557fe5b600190038181906000526020600020016000905590558660010160008781526020019081526020016000206000905560019450505050506133e7565b60009150505b92915050565b60006133f98383613564565b613452578260000182908060018154018082558091505060019003906000526020600020016000909190919091505582600001805490508360010160008481526020019081526020016000208190555060019050613457565b600090505b92915050565b600080846001016000858152602001908152602001600020549050600081141561350457846000016040518060400160405280868152602001858152509080600181540180825580915050600190039060005260206000209060020201600090919091909150600082015181600001556020820151816001015550508460000180549050856001016000868152602001908152602001600020819055506001915050613532565b8285600001600183038154811061351757fe5b90600052602060002090600202016001018190555060009150505b9392505050565b600080823b905060008111915050919050565b606061355b8484600085613587565b90509392505050565b600080836001016000848152602001908152602001600020541415905092915050565b6060824710156135e2576040517f08c379a000000000000000000000000000000000000000000000000000000000815260040180806020018281038252602681526020018061446f6026913960400191505060405180910390fd5b6135eb85613539565b61365d576040517f08c379a000000000000000000000000000000000000000000000000000000000815260040180806020018281038252601d8152602001807f416464726573733a2063616c6c20746f206e6f6e2d636f6e747261637400000081525060200191505060405180910390fd5b6000808673ffffffffffffffffffffffffffffffffffffffff1685876040518082805190602001908083835b602083106136ac5780518252602082019150602081019050602083039250613689565b6001836020036101000a03801982511681845116808217855250505050505090500191505060006040518083038185875af1925050503d806000811461370e576040519150601f19603f3d011682016040523d82523d6000602084013e613713565b606091505b509150915061372382828661372f565b92505050949350505050565b6060831561373f578290506137f4565b6000835111156137525782518084602001fd5b816040517f08c379a00000000000000000000000000000000000000000000000000000000081526004018080602001828103825283818151815260200191508051906020019080838360005b838110156137b957808201518184015260208101905061379e565b50505050905090810190601f1680156137e65780820380516001836020036101000a031916815260200191505b509250505060405180910390fd5b9392505050565b828054600181600116156101000203166002900490600052602060002090601f0160209004810192826138315760008555613878565b82601f1061384a57805160ff1916838001178555613878565b82800160010185558215613878579182015b8281111561387757825182559160200191906001019061385c565b5b5090506138859190613889565b5090565b5b808211156138a257600081600090555060010161388a565b5090565b60006138b96138b4846141e9565b6141b8565b9050828152602081018484840111156138d157600080fd5b6138dc84828561432e565b509392505050565b60006138f76138f284614219565b6141b8565b90508281526020810184848401111561390f57600080fd5b61391a84828561432e565b509392505050565b60008135905061393181614383565b92915050565b6000813590506139468161439a565b92915050565b60008135905061395b816143b1565b92915050565b600081359050613970816143c8565b92915050565b600082601f83011261398757600080fd5b81356139978482602086016138a6565b91505092915050565b600082601f8301126139b157600080fd5b81356139c18482602086016138e4565b91505092915050565b6000813590506139d9816143df565b92915050565b6000602082840312156139f157600080fd5b60006139ff84828501613922565b91505092915050565b60008060408385031215613a1b57600080fd5b6000613a2985828601613922565b9250506020613a3a85828601613922565b9150509250929050565b600080600060608486031215613a5957600080fd5b6000613a6786828701613922565b9350506020613a7886828701613937565b9250506040613a89868287016139ca565b9150509250925092565b600080600060608486031215613aa857600080fd5b6000613ab686828701613922565b9350506020613ac786828701613922565b9250506040613ad8868287016139ca565b9150509250925092565b60008060008060808587031215613af857600080fd5b6000613b0687828801613922565b9450506020613b1787828801613922565b9350506040613b28878288016139ca565b925050606085013567ffffffffffffffff811115613b4557600080fd5b613b5187828801613976565b91505092959194509250565b60008060408385031215613b7057600080fd5b6000613b7e85828601613922565b9250506020613b8f8582860161394c565b9150509250929050565b60008060408385031215613bac57600080fd5b6000613bba85828601613922565b9250506020613bcb858286016139ca565b9150509250929050565b600080600080600080600060e0888a031215613bf057600080fd5b6000613bfe8a828b01613922565b9750506020613c0f8a828b016139ca565b965050604088013567ffffffffffffffff811115613c2c57600080fd5b613c388a828b016139a0565b9550506060613c498a828b016139ca565b945050608088013567ffffffffffffffff811115613c6657600080fd5b613c728a828b016139a0565b93505060a0613c838a828b016139ca565b92505060c0613c948a828b0161394c565b91505092959891949750929550565b600060208284031215613cb557600080fd5b6000613cc384828501613961565b91505092915050565b600080600060608486031215613ce157600080fd5b600084013567ffffffffffffffff811115613cfb57600080fd5b613d07868287016139a0565b935050602084013567ffffffffffffffff811115613d2457600080fd5b613d30868287016139a0565b925050604084013567ffffffffffffffff811115613d4d57600080fd5b613d59868287016139a0565b9150509250925092565b600080600080600060a08688031215613d7b57600080fd5b600086013567ffffffffffffffff811115613d9557600080fd5b613da1888289016139a0565b9550506020613db2888289016139ca565b945050604086013567ffffffffffffffff811115613dcf57600080fd5b613ddb888289016139a0565b9350506060613dec888289016139ca565b9250506080613dfd8882890161394c565b9150509295509295909350565b600060208284031215613e1c57600080fd5b6000613e2a848285016139ca565b91505092915050565b60008060408385031215613e4657600080fd5b6000613e54858286016139ca565b9250506020613e6585828601613922565b9150509250929050565b613e78816142f8565b82525050565b613e8781614277565b82525050565b613e9681614265565b82525050565b613ea581614289565b82525050565b6000613eb682614249565b613ec08185614254565b9350613ed081856020860161433d565b613ed981614372565b840191505092915050565b613eed816142e1565b82525050565b613efc816142eb565b82525050565b6000602082019050613f176000830184613e8d565b92915050565b6000602082019050613f326000830184613e9c565b92915050565b60006020820190508181036000830152613f528184613eab565b905092915050565b6000610100820190508181036000830152613f75818b613eab565b9050613f84602083018a613e8d565b613f916040830189613e8d565b613f9e6060830188613e8d565b613fab6080830187613ee4565b81810360a0830152613fbd8186613eab565b9050613fcc60c0830185613ee4565b613fd960e0830184613e9c565b9998505050505050505050565b600060608201905081810360008301526140008186613eab565b905081810360208301526140148185613eab565b905081810360408301526140288184613eab565b9050949350505050565b60006020820190506140476000830184613ee4565b92915050565b600061012082019050614063600083018c613ee4565b8181036020830152614075818b613eab565b9050614084604083018a613e7e565b6140916060830189613e7e565b61409e6080830188613e7e565b6140ab60a0830187613ee4565b81810360c08301526140bd8186613eab565b90506140cc60e0830185613ee4565b6140da610100830184613e9c565b9a9950505050505050505050565b600060a0820190506140fd6000830188613ee4565b818103602083015261410f8187613eab565b905081810360408301526141238186613eab565b90506141326060830185613e6f565b81810360808301526141448184613eab565b90509695505050505050565b600060a0820190506141656000830188613ee4565b81810360208301526141778187613eab565b9050818103604083015261418b8186613eab565b9050818103606083015261419f8185613eab565b90506141ae6080830184613ef3565b9695505050505050565b6000604051905081810181811067ffffffffffffffff821117156141df576141de614370565b5b8060405250919050565b600067ffffffffffffffff82111561420457614203614370565b5b601f19601f8301169050602081019050919050565b600067ffffffffffffffff82111561423457614233614370565b5b601f19601f8301169050602081019050919050565b600081519050919050565b600082825260208201905092915050565b6000614270826142c1565b9050919050565b6000614282826142c1565b9050919050565b60008115159050919050565b60007fffffffff0000000000000000000000000000000000000000000000000000000082169050919050565b600073ffffffffffffffffffffffffffffffffffffffff82169050919050565b6000819050919050565b600060ff82169050919050565b60006143038261430a565b9050919050565b60006143158261431c565b9050919050565b6000614327826142c1565b9050919050565b82818337600083830152505050565b60005b8381101561435b578082015181840152602081019050614340565b8381111561436a576000848401525b50505050565bfe5b6000601f19601f8301169050919050565b61438c81614265565b811461439757600080fd5b50565b6143a381614277565b81146143ae57600080fd5b50565b6143ba81614289565b81146143c557600080fd5b50565b6143d181614295565b81146143dc57600080fd5b50565b6143e8816142e1565b81146143f357600080fd5b5056fe456e756d657261626c655365743a20696e646578206f7574206f6620626f756e64734552433732313a207472616e7366657220746f206e6f6e20455243373231526563656976657220696d706c656d656e7465724552433732313a207472616e7366657220746f20746865207a65726f2061646472657373416464726573733a20696e73756666696369656e742062616c616e636520666f722063616c6c4552433732313a206f70657261746f7220717565727920666f72206e6f6e6578697374656e7420746f6b656e4552433732313a20617070726f76652063616c6c6572206973206e6f74206f776e6572206e6f7220617070726f76656420666f7220616c6c4552433732313a2062616c616e636520717565727920666f7220746865207a65726f20616464726573734552433732313a206f776e657220717565727920666f72206e6f6e6578697374656e7420746f6b656e456e756d657261626c654d61703a20696e646578206f7574206f6620626f756e64734552433732313a20617070726f76656420717565727920666f72206e6f6e6578697374656e7420746f6b656e4552433732313a207472616e73666572206f6620746f6b656e2074686174206973206e6f74206f776e4552433732314d657461646174613a2055524920717565727920666f72206e6f6e6578697374656e7420746f6b656e4552433732313a20617070726f76616c20746f2063757272656e74206f776e65724552433732313a207472616e736665722063616c6c6572206973206e6f74206f776e6572206e6f7220617070726f766564a26469706673582212209b27bf77644f90eee277ebd3f6c185171a68f6295afc28442213024e6ebb9fa164736f6c63430007060033",
  "immutableReferences": {},
  "source": "//import ERC721 interface\r\nimport \"./ERC721.sol\";\r\n\r\npragma abicoder v2;\r\npragma solidity >=0.6.0 <0.8.0;\r\n\r\n//implement\r\ncontract ArtFundsStorage is ERC721 {\r\n    // this contract's token collection name\r\n    string public collectionName;\r\n    // this contract's token symbol\r\n    string public collectionNameSymbol;\r\n\r\n    struct Collection {\r\n        uint256 tokenId;\r\n        string imageURL;\r\n        string name;\r\n        string description;\r\n        mapping(uint256 => DigitalItem) listDigital;\r\n        uint8 listSize;\r\n    }\r\n\r\n    uint256 public collectionCounter = 0;\r\n    mapping(address => Collection[]) public ownerCollections;\r\n    // uint256[] collections;\r\n\r\n    struct DigitalItem {\r\n        uint256 tokenId;\r\n        string name;\r\n        address payable mintedBy;\r\n        address payable currentOwner;\r\n        address payable previousOwner;\r\n        uint256 price;\r\n        string imageURL;\r\n        uint256 numberOfTransfers;\r\n        bool forSale;\r\n    }\r\n\r\n    uint256 digitalItemCounter = 0;\r\n    mapping(address => DigitalItem[]) public ownerDigitalItems;\r\n    // uint256[] digitalItems;\r\n\r\n    event ItemCreated(\r\n        uint256 id,\r\n        string name,\r\n        address mintedBy,\r\n        address currentOwner,\r\n        address previousOwner,\r\n        uint256 price,\r\n        string imageURL,\r\n        uint256 numberOfTransfers,\r\n        bool forSale\r\n    );\r\n\r\n    event ItemForSale(uint256 id, bool forSale);\r\n\r\n    event CollectionCreated(\r\n        uint256 tokenId,\r\n        string imageURL,\r\n        string name,\r\n        address ownedBy,\r\n        string description\r\n    );\r\n\r\n    // initialize contract while deployment with contract's collection name and token\r\n    constructor() ERC721(\"ArtFunds Collection\", \"CB\") {\r\n        collectionName = name();\r\n        collectionNameSymbol = symbol();\r\n    }\r\n\r\n    // mint a new digital item\r\n    function mintDigitalItem(\r\n        string memory _name,\r\n        uint256 _price,\r\n        string memory _imageURL,\r\n        uint256 _numberOfTransfers,\r\n        bool _forSale\r\n    ) external {\r\n        // check if thic fucntion caller is not an zero address account\r\n        require(msg.sender != address(0));\r\n        // increment counter\r\n        digitalItemCounter++;\r\n        // check if a token exists with the above token id => incremented counter\r\n        require(!_exists(digitalItemCounter));\r\n\r\n        // mint the token\r\n        _mint(msg.sender, digitalItemCounter);\r\n\r\n        DigitalItem memory newDigitalItem = DigitalItem(\r\n            digitalItemCounter,\r\n            _name,\r\n            msg.sender,\r\n            msg.sender,\r\n            msg.sender,\r\n            _price,\r\n            _imageURL,\r\n            0,\r\n            true\r\n        );\r\n        ownerDigitalItems[msg.sender].push(newDigitalItem);\r\n    }\r\n\r\n    function updateCurrentOwnerDigitalItem(\r\n        address _owner,\r\n        address payable _newOwner,\r\n        uint256 _tokenId\r\n    ) public returns (bool success) {\r\n        require(_owner != address(0x0));\r\n        require(_newOwner != address(0x0));\r\n        require(_tokenId >= 0);\r\n        DigitalItem storage digitalItem = ownerDigitalItems[_owner][_tokenId];\r\n        digitalItem.previousOwner = digitalItem.currentOwner;\r\n        digitalItem.currentOwner = _newOwner;\r\n        return true;\r\n    }\r\n\r\n    function updateInfoBasicDigitalItem(\r\n        address _owner,\r\n        uint256 _tokenId,\r\n        string memory _name,\r\n        uint256 _price,\r\n        string memory _imageURL,\r\n        uint256 _numberOfTransfers,\r\n        bool _forSale\r\n    ) public returns (bool success) {\r\n        require(_owner != address(0x0));\r\n        require(_tokenId >= 0);\r\n        require(ownerDigitalItems[_owner].length > 0);\r\n        DigitalItem storage digitalItem = ownerDigitalItems[_owner][_tokenId];\r\n        digitalItem.imageURL = _imageURL;\r\n        digitalItem.name = _name;\r\n        digitalItem.price = _price;\r\n        digitalItem.forSale = _forSale;\r\n        digitalItem.numberOfTransfers = _numberOfTransfers;\r\n        return true;\r\n    }\r\n\r\n    function getDigitalItem(uint256 _tokenId, address _owner)\r\n        public\r\n        view\r\n        returns (\r\n            string memory _name,\r\n            address _mintedBy,\r\n            address _currentOwner,\r\n            address _previousOwner,\r\n            uint256 _price,\r\n            string memory _imageURL,\r\n            uint256 _numberOfTransfers,\r\n            bool _forSale\r\n        )\r\n    {\r\n        require(_owner != address(0x0));\r\n        require(_tokenId >= 0);\r\n        require(ownerDigitalItems[_owner].length > 0);\r\n        DigitalItem storage digitalItem = ownerDigitalItems[_owner][_tokenId];\r\n\r\n        return (\r\n            digitalItem.name,\r\n            digitalItem.mintedBy,\r\n            digitalItem.currentOwner,\r\n            digitalItem.previousOwner,\r\n            digitalItem.price,\r\n            digitalItem.imageURL,\r\n            digitalItem.numberOfTransfers,\r\n            digitalItem.forSale\r\n        );\r\n    }\r\n\r\n    function getDigitalItemCount(address _owner) public view returns (uint256) {\r\n        require(_owner != address(0x0));\r\n        return ownerDigitalItems[_owner].length;\r\n    }\r\n\r\n    //This function to create collection from address\r\n    function createCollection(\r\n        string memory _imageURL,\r\n        string memory _name,\r\n        string memory _description\r\n    ) public returns (bool success) {\r\n        ++collectionCounter;\r\n        Collection storage collection = ownerCollections[msg.sender][1];\r\n        collection.tokenId = collectionCounter;\r\n        collection.imageURL = _imageURL;\r\n        collection.name = _name;\r\n        collection.description = _description;\r\n        collection.listSize = 0;\r\n\r\n        // ownerCollections[msg.sender].push(collection);\r\n\r\n        emit CollectionCreated( \r\n            collectionCounter,\r\n            _imageURL,\r\n            _name,\r\n            msg.sender,\r\n            _description\r\n        );\r\n        return true;\r\n    }\r\n\r\n    // function getCollections(address _owner)\r\n    //     public\r\n    //     view\r\n    //     returns (Collection[] memory)\r\n    // {\r\n    //     require(_owner != address(0x0));\r\n    //     require(ownerCollections[_owner].length > 0);\r\n    //     return ownerCollections[_owner];\r\n    // }\r\n\r\n    function getCollection(uint256 _tokenId, address _owner)\r\n        public\r\n        view\r\n        returns (\r\n            string memory _imageURL,\r\n            string memory _name,\r\n            string memory _description\r\n        )\r\n    {\r\n        require(_owner != address(0x0));\r\n        require(_tokenId >= 0);\r\n        require(ownerCollections[_owner].length > 0);\r\n        Collection storage collection = ownerCollections[_owner][_tokenId];\r\n\r\n        return (collection.imageURL, collection.name, collection.description);\r\n    }\r\n\r\n    // function updateCollection(\r\n    //     uint256 _tokenId,\r\n    //     string memory _imageURL,\r\n    //     string memory _name,\r\n    //     string memory _description,\r\n    //     address _owner\r\n    // ) public returns (bool success) {\r\n    //     require(_owner != address(0x0));\r\n    //     require(_tokenId >= 0);\r\n    //     require(ownerCollections[_owner].length > 0);\r\n    //     Collection storage collection = ownerCollections[_owner][_tokenId];\r\n    //     collection.imageURL = _imageURL;\r\n    //     collection.name = _name;\r\n    //     collection.description = _description;\r\n    //     return true;\r\n    // }\r\n\r\n    // function deleteCollection(address _owner, uint256 _tokenId)\r\n    //     public\r\n    //     returns (bool success)\r\n    // {\r\n    //     require(_owner != address(0x0));\r\n    //     require(_tokenId >= 0);\r\n    //     require(ownerCollections[_owner].length > 0);\r\n    //     // uint256 rowToDelete = ownerCollections[_owner][_tokenId].index;\r\n    //     delete ownerCollections[_owner][_tokenId];\r\n    //     collectionCounter--;\r\n    //     return true;\r\n    // }\r\n\r\n    function getCollectionCount(address _owner)\r\n        public\r\n        view\r\n        returns (uint256)\r\n    {\r\n        require(_owner != address(0x0));\r\n        // return (collectionCounter);\r\n        return (ownerCollections[_owner].length);\r\n    }\r\n\r\n    struct Order {\r\n        address maker;\r\n        address taker;\r\n        uint256 tokenId;\r\n    }\r\n\r\n    // mapping(uint256 => Order) orders;\r\n\r\n    // function makeOrder(uint256 _tokenId, uint256 _price) external {\r\n    //     // validate nft\r\n    //     // ...\r\n    // }\r\n\r\n    // function takeOrder(uint256 _tokenId) external {\r\n    //     // check order exists\r\n    //     // validate funds\r\n    //     // transfer funds\r\n    //     // transfer nft\r\n    // }\r\n}\r\n",
  "sourcePath": "E:\\DSC\\DevFest\\ArtFunds\\ArtFunds_DevFest2021\\blockchain\\contracts\\ArtFundsStorage.sol",
  "compiler": {
    "name": "solc",
    "version": "0.7.6+commit.7338295f.Emscripten.clang"
  },
  "schemaVersion": "3.4.3",
  "updatedAt": "2021-10-28T07:02:20.257Z",
  "devdoc": {
    "kind": "dev",
    "methods": {
      "approve(address,uint256)": {
        "details": "See {IERC721-approve}."
      },
      "balanceOf(address)": {
        "details": "See {IERC721-balanceOf}."
      },
      "baseURI()": {
        "details": "Returns the base URI set via {_setBaseURI}. This will be automatically added as a prefix in {tokenURI} to each token's URI, or to the token ID if no specific URI is set for that token ID."
      },
      "getApproved(uint256)": {
        "details": "See {IERC721-getApproved}."
      },
      "isApprovedForAll(address,address)": {
        "details": "See {IERC721-isApprovedForAll}."
      },
      "name()": {
        "details": "See {IERC721Metadata-name}."
      },
      "ownerOf(uint256)": {
        "details": "See {IERC721-ownerOf}."
      },
      "safeTransferFrom(address,address,uint256)": {
        "details": "See {IERC721-safeTransferFrom}."
      },
      "safeTransferFrom(address,address,uint256,bytes)": {
        "details": "See {IERC721-safeTransferFrom}."
      },
      "setApprovalForAll(address,bool)": {
        "details": "See {IERC721-setApprovalForAll}."
      },
      "supportsInterface(bytes4)": {
        "details": "See {IERC165-supportsInterface}. Time complexity O(1), guaranteed to always use less than 30 000 gas."
      },
      "symbol()": {
        "details": "See {IERC721Metadata-symbol}."
      },
      "tokenByIndex(uint256)": {
        "details": "See {IERC721Enumerable-tokenByIndex}."
      },
      "tokenOfOwnerByIndex(address,uint256)": {
        "details": "See {IERC721Enumerable-tokenOfOwnerByIndex}."
      },
      "tokenURI(uint256)": {
        "details": "See {IERC721Metadata-tokenURI}."
      },
      "totalSupply()": {
        "details": "See {IERC721Enumerable-totalSupply}."
      },
      "transferFrom(address,address,uint256)": {
        "details": "See {IERC721-transferFrom}."
      }
    },
    "version": 1
  },
  "userdoc": {
    "kind": "user",
    "methods": {},
    "version": 1
  }
}