{
  "contractName": "ArtFundsStorage",
  "abi": [
    {
      "inputs": [],
      "stateMutability": "nonpayable",
      "type": "constructor"
    },
    {
      "anonymous": false,
      "inputs": [
        {
          "indexed": true,
          "internalType": "address",
          "name": "owner",
          "type": "address"
        },
        {
          "indexed": true,
          "internalType": "address",
          "name": "approved",
          "type": "address"
        },
        {
          "indexed": true,
          "internalType": "uint256",
          "name": "tokenId",
          "type": "uint256"
        }
      ],
      "name": "Approval",
      "type": "event"
    },
    {
      "anonymous": false,
      "inputs": [
        {
          "indexed": true,
          "internalType": "address",
          "name": "owner",
          "type": "address"
        },
        {
          "indexed": true,
          "internalType": "address",
          "name": "operator",
          "type": "address"
        },
        {
          "indexed": false,
          "internalType": "bool",
          "name": "approved",
          "type": "bool"
        }
      ],
      "name": "ApprovalForAll",
      "type": "event"
    },
    {
      "anonymous": false,
      "inputs": [
        {
          "indexed": false,
          "internalType": "uint256",
          "name": "tokenId",
          "type": "uint256"
        },
        {
          "indexed": false,
          "internalType": "string",
          "name": "imageURL",
          "type": "string"
        },
        {
          "indexed": false,
          "internalType": "string",
          "name": "name",
          "type": "string"
        },
        {
          "indexed": false,
          "internalType": "address",
          "name": "ownedBy",
          "type": "address"
        },
        {
          "indexed": false,
          "internalType": "string",
          "name": "description",
          "type": "string"
        }
      ],
      "name": "CollectionCreated",
      "type": "event"
    },
    {
      "anonymous": false,
      "inputs": [
        {
          "indexed": false,
          "internalType": "uint256",
          "name": "id",
          "type": "uint256"
        },
        {
          "indexed": false,
          "internalType": "string",
          "name": "name",
          "type": "string"
        },
        {
          "indexed": false,
          "internalType": "address",
          "name": "mintedBy",
          "type": "address"
        },
        {
          "indexed": false,
          "internalType": "address",
          "name": "currentOwner",
          "type": "address"
        },
        {
          "indexed": false,
          "internalType": "address",
          "name": "previousOwner",
          "type": "address"
        },
        {
          "indexed": false,
          "internalType": "uint256",
          "name": "price",
          "type": "uint256"
        },
        {
          "indexed": false,
          "internalType": "string",
          "name": "imageURL",
          "type": "string"
        },
        {
          "indexed": false,
          "internalType": "uint256",
          "name": "numberOfTransfers",
          "type": "uint256"
        },
        {
          "indexed": false,
          "internalType": "bool",
          "name": "forSale",
          "type": "bool"
        }
      ],
      "name": "ItemCreated",
      "type": "event"
    },
    {
      "anonymous": false,
      "inputs": [
        {
          "indexed": false,
          "internalType": "uint256",
          "name": "id",
          "type": "uint256"
        },
        {
          "indexed": false,
          "internalType": "bool",
          "name": "forSale",
          "type": "bool"
        }
      ],
      "name": "ItemForSale",
      "type": "event"
    },
    {
      "anonymous": false,
      "inputs": [
        {
          "indexed": true,
          "internalType": "address",
          "name": "from",
          "type": "address"
        },
        {
          "indexed": true,
          "internalType": "address",
          "name": "to",
          "type": "address"
        },
        {
          "indexed": true,
          "internalType": "uint256",
          "name": "tokenId",
          "type": "uint256"
        }
      ],
      "name": "Transfer",
      "type": "event"
    },
    {
      "inputs": [
        {
          "internalType": "address",
          "name": "to",
          "type": "address"
        },
        {
          "internalType": "uint256",
          "name": "tokenId",
          "type": "uint256"
        }
      ],
      "name": "approve",
      "outputs": [],
      "stateMutability": "nonpayable",
      "type": "function"
    },
    {
      "inputs": [
        {
          "internalType": "address",
          "name": "owner",
          "type": "address"
        }
      ],
      "name": "balanceOf",
      "outputs": [
        {
          "internalType": "uint256",
          "name": "",
          "type": "uint256"
        }
      ],
      "stateMutability": "view",
      "type": "function",
      "constant": true
    },
    {
      "inputs": [],
      "name": "baseURI",
      "outputs": [
        {
          "internalType": "string",
          "name": "",
          "type": "string"
        }
      ],
      "stateMutability": "view",
      "type": "function",
      "constant": true
    },
    {
      "inputs": [],
      "name": "collectionCounter",
      "outputs": [
        {
          "internalType": "uint256",
          "name": "",
          "type": "uint256"
        }
      ],
      "stateMutability": "view",
      "type": "function",
      "constant": true
    },
    {
      "inputs": [],
      "name": "collectionName",
      "outputs": [
        {
          "internalType": "string",
          "name": "",
          "type": "string"
        }
      ],
      "stateMutability": "view",
      "type": "function",
      "constant": true
    },
    {
      "inputs": [],
      "name": "collectionNameSymbol",
      "outputs": [
        {
          "internalType": "string",
          "name": "",
          "type": "string"
        }
      ],
      "stateMutability": "view",
      "type": "function",
      "constant": true
    },
    {
      "inputs": [
        {
          "internalType": "uint256",
          "name": "tokenId",
          "type": "uint256"
        }
      ],
      "name": "getApproved",
      "outputs": [
        {
          "internalType": "address",
          "name": "",
          "type": "address"
        }
      ],
      "stateMutability": "view",
      "type": "function",
      "constant": true
    },
    {
      "inputs": [
        {
          "internalType": "address",
          "name": "owner",
          "type": "address"
        },
        {
          "internalType": "address",
          "name": "operator",
          "type": "address"
        }
      ],
      "name": "isApprovedForAll",
      "outputs": [
        {
          "internalType": "bool",
          "name": "",
          "type": "bool"
        }
      ],
      "stateMutability": "view",
      "type": "function",
      "constant": true
    },
    {
      "inputs": [],
      "name": "name",
      "outputs": [
        {
          "internalType": "string",
          "name": "",
          "type": "string"
        }
      ],
      "stateMutability": "view",
      "type": "function",
      "constant": true
    },
    {
      "inputs": [
        {
          "internalType": "address",
          "name": "",
          "type": "address"
        },
        {
          "internalType": "uint256",
          "name": "",
          "type": "uint256"
        }
      ],
      "name": "ownerCollections",
      "outputs": [
        {
          "internalType": "uint256",
          "name": "tokenId",
          "type": "uint256"
        },
        {
          "internalType": "string",
          "name": "imageURL",
          "type": "string"
        },
        {
          "internalType": "string",
          "name": "name",
          "type": "string"
        },
        {
          "internalType": "string",
          "name": "description",
          "type": "string"
        },
        {
          "internalType": "uint8",
          "name": "listSize",
          "type": "uint8"
        }
      ],
      "stateMutability": "view",
      "type": "function",
      "constant": true
    },
    {
      "inputs": [
        {
          "internalType": "address",
          "name": "",
          "type": "address"
        },
        {
          "internalType": "uint256",
          "name": "",
          "type": "uint256"
        }
      ],
      "name": "ownerDigitalItems",
      "outputs": [
        {
          "internalType": "uint256",
          "name": "tokenId",
          "type": "uint256"
        },
        {
          "internalType": "string",
          "name": "name",
          "type": "string"
        },
        {
          "internalType": "address payable",
          "name": "mintedBy",
          "type": "address"
        },
        {
          "internalType": "address payable",
          "name": "currentOwner",
          "type": "address"
        },
        {
          "internalType": "address payable",
          "name": "previousOwner",
          "type": "address"
        },
        {
          "internalType": "uint256",
          "name": "price",
          "type": "uint256"
        },
        {
          "internalType": "string",
          "name": "imageURL",
          "type": "string"
        },
        {
          "internalType": "uint256",
          "name": "numberOfTransfers",
          "type": "uint256"
        },
        {
          "internalType": "bool",
          "name": "forSale",
          "type": "bool"
        }
      ],
      "stateMutability": "view",
      "type": "function",
      "constant": true
    },
    {
      "inputs": [
        {
          "internalType": "uint256",
          "name": "tokenId",
          "type": "uint256"
        }
      ],
      "name": "ownerOf",
      "outputs": [
        {
          "internalType": "address",
          "name": "",
          "type": "address"
        }
      ],
      "stateMutability": "view",
      "type": "function",
      "constant": true
    },
    {
      "inputs": [
        {
          "internalType": "address",
          "name": "from",
          "type": "address"
        },
        {
          "internalType": "address",
          "name": "to",
          "type": "address"
        },
        {
          "internalType": "uint256",
          "name": "tokenId",
          "type": "uint256"
        }
      ],
      "name": "safeTransferFrom",
      "outputs": [],
      "stateMutability": "nonpayable",
      "type": "function"
    },
    {
      "inputs": [
        {
          "internalType": "address",
          "name": "from",
          "type": "address"
        },
        {
          "internalType": "address",
          "name": "to",
          "type": "address"
        },
        {
          "internalType": "uint256",
          "name": "tokenId",
          "type": "uint256"
        },
        {
          "internalType": "bytes",
          "name": "_data",
          "type": "bytes"
        }
      ],
      "name": "safeTransferFrom",
      "outputs": [],
      "stateMutability": "nonpayable",
      "type": "function"
    },
    {
      "inputs": [
        {
          "internalType": "address",
          "name": "operator",
          "type": "address"
        },
        {
          "internalType": "bool",
          "name": "approved",
          "type": "bool"
        }
      ],
      "name": "setApprovalForAll",
      "outputs": [],
      "stateMutability": "nonpayable",
      "type": "function"
    },
    {
      "inputs": [
        {
          "internalType": "bytes4",
          "name": "interfaceId",
          "type": "bytes4"
        }
      ],
      "name": "supportsInterface",
      "outputs": [
        {
          "internalType": "bool",
          "name": "",
          "type": "bool"
        }
      ],
      "stateMutability": "view",
      "type": "function",
      "constant": true
    },
    {
      "inputs": [],
      "name": "symbol",
      "outputs": [
        {
          "internalType": "string",
          "name": "",
          "type": "string"
        }
      ],
      "stateMutability": "view",
      "type": "function",
      "constant": true
    },
    {
      "inputs": [
        {
          "internalType": "uint256",
          "name": "index",
          "type": "uint256"
        }
      ],
      "name": "tokenByIndex",
      "outputs": [
        {
          "internalType": "uint256",
          "name": "",
          "type": "uint256"
        }
      ],
      "stateMutability": "view",
      "type": "function",
      "constant": true
    },
    {
      "inputs": [
        {
          "internalType": "address",
          "name": "owner",
          "type": "address"
        },
        {
          "internalType": "uint256",
          "name": "index",
          "type": "uint256"
        }
      ],
      "name": "tokenOfOwnerByIndex",
      "outputs": [
        {
          "internalType": "uint256",
          "name": "",
          "type": "uint256"
        }
      ],
      "stateMutability": "view",
      "type": "function",
      "constant": true
    },
    {
      "inputs": [
        {
          "internalType": "uint256",
          "name": "tokenId",
          "type": "uint256"
        }
      ],
      "name": "tokenURI",
      "outputs": [
        {
          "internalType": "string",
          "name": "",
          "type": "string"
        }
      ],
      "stateMutability": "view",
      "type": "function",
      "constant": true
    },
    {
      "inputs": [],
      "name": "totalSupply",
      "outputs": [
        {
          "internalType": "uint256",
          "name": "",
          "type": "uint256"
        }
      ],
      "stateMutability": "view",
      "type": "function",
      "constant": true
    },
    {
      "inputs": [
        {
          "internalType": "address",
          "name": "from",
          "type": "address"
        },
        {
          "internalType": "address",
          "name": "to",
          "type": "address"
        },
        {
          "internalType": "uint256",
          "name": "tokenId",
          "type": "uint256"
        }
      ],
      "name": "transferFrom",
      "outputs": [],
      "stateMutability": "nonpayable",
      "type": "function"
    },
    {
      "inputs": [
        {
          "internalType": "string",
          "name": "_name",
          "type": "string"
        },
        {
          "internalType": "uint256",
          "name": "_price",
          "type": "uint256"
        },
        {
          "internalType": "string",
          "name": "_imageURL",
          "type": "string"
        },
        {
          "internalType": "uint256",
          "name": "_numberOfTransfers",
          "type": "uint256"
        },
        {
          "internalType": "bool",
          "name": "_forSale",
          "type": "bool"
        }
      ],
      "name": "mintDigitalItem",
      "outputs": [],
      "stateMutability": "nonpayable",
      "type": "function"
    },
    {
      "inputs": [
        {
          "internalType": "address",
          "name": "_owner",
          "type": "address"
        },
        {
          "internalType": "address payable",
          "name": "_newOwner",
          "type": "address"
        },
        {
          "internalType": "uint256",
          "name": "_tokenId",
          "type": "uint256"
        }
      ],
      "name": "updateCurrentOwnerDigitalItem",
      "outputs": [
        {
          "internalType": "bool",
          "name": "success",
          "type": "bool"
        }
      ],
      "stateMutability": "nonpayable",
      "type": "function"
    },
    {
      "inputs": [
        {
          "internalType": "address",
          "name": "_owner",
          "type": "address"
        },
        {
          "internalType": "uint256",
          "name": "_tokenId",
          "type": "uint256"
        },
        {
          "internalType": "string",
          "name": "_name",
          "type": "string"
        },
        {
          "internalType": "uint256",
          "name": "_price",
          "type": "uint256"
        },
        {
          "internalType": "string",
          "name": "_imageURL",
          "type": "string"
        },
        {
          "internalType": "uint256",
          "name": "_numberOfTransfers",
          "type": "uint256"
        },
        {
          "internalType": "bool",
          "name": "_forSale",
          "type": "bool"
        }
      ],
      "name": "updateInfoBasicDigitalItem",
      "outputs": [
        {
          "internalType": "bool",
          "name": "success",
          "type": "bool"
        }
      ],
      "stateMutability": "nonpayable",
      "type": "function"
    },
    {
      "inputs": [
        {
          "internalType": "uint256",
          "name": "_tokenId",
          "type": "uint256"
        },
        {
          "internalType": "address",
          "name": "_owner",
          "type": "address"
        }
      ],
      "name": "getDigitalItem",
      "outputs": [
        {
          "internalType": "string",
          "name": "_name",
          "type": "string"
        },
        {
          "internalType": "address",
          "name": "_mintedBy",
          "type": "address"
        },
        {
          "internalType": "address",
          "name": "_currentOwner",
          "type": "address"
        },
        {
          "internalType": "address",
          "name": "_previousOwner",
          "type": "address"
        },
        {
          "internalType": "uint256",
          "name": "_price",
          "type": "uint256"
        },
        {
          "internalType": "string",
          "name": "_imageURL",
          "type": "string"
        },
        {
          "internalType": "uint256",
          "name": "_numberOfTransfers",
          "type": "uint256"
        },
        {
          "internalType": "bool",
          "name": "_forSale",
          "type": "bool"
        }
      ],
      "stateMutability": "view",
      "type": "function",
      "constant": true
    },
    {
      "inputs": [
        {
          "internalType": "address",
          "name": "_owner",
          "type": "address"
        }
      ],
      "name": "getDigitalItemCount",
      "outputs": [
        {
          "internalType": "uint256",
          "name": "",
          "type": "uint256"
        }
      ],
      "stateMutability": "view",
      "type": "function",
      "constant": true
    },
    {
      "inputs": [
        {
          "internalType": "string",
          "name": "_imageURL",
          "type": "string"
        },
        {
          "internalType": "string",
          "name": "_name",
          "type": "string"
        },
        {
          "internalType": "string",
          "name": "_description",
          "type": "string"
        }
      ],
      "name": "createCollection",
      "outputs": [
        {
          "internalType": "bool",
          "name": "success",
          "type": "bool"
        }
      ],
      "stateMutability": "nonpayable",
      "type": "function"
    },
    {
      "inputs": [
        {
          "internalType": "uint256",
          "name": "_tokenId",
          "type": "uint256"
        },
        {
          "internalType": "address",
          "name": "_owner",
          "type": "address"
        }
      ],
      "name": "getCollection",
      "outputs": [
        {
          "internalType": "string",
          "name": "_imageURL",
          "type": "string"
        },
        {
          "internalType": "string",
          "name": "_name",
          "type": "string"
        },
        {
          "internalType": "string",
          "name": "_description",
          "type": "string"
        }
      ],
      "stateMutability": "view",
      "type": "function",
      "constant": true
    },
    {
      "inputs": [
        {
          "internalType": "uint256",
          "name": "_tokenId",
          "type": "uint256"
        },
        {
          "internalType": "string",
          "name": "_imageURL",
          "type": "string"
        },
        {
          "internalType": "string",
          "name": "_name",
          "type": "string"
        },
        {
          "internalType": "string",
          "name": "_description",
          "type": "string"
        },
        {
          "internalType": "address",
          "name": "_owner",
          "type": "address"
        }
      ],
      "name": "updateCollection",
      "outputs": [
        {
          "internalType": "bool",
          "name": "success",
          "type": "bool"
        }
      ],
      "stateMutability": "nonpayable",
      "type": "function"
    },
    {
      "inputs": [
        {
          "internalType": "address",
          "name": "_owner",
          "type": "address"
        },
        {
          "internalType": "uint256",
          "name": "_tokenId",
          "type": "uint256"
        }
      ],
      "name": "deleteCollection",
      "outputs": [
        {
          "internalType": "bool",
          "name": "success",
          "type": "bool"
        }
      ],
      "stateMutability": "nonpayable",
      "type": "function"
    },
    {
      "inputs": [
        {
          "internalType": "address",
          "name": "_owner",
          "type": "address"
        }
      ],
      "name": "getCollectionCount",
      "outputs": [
        {
          "internalType": "uint256",
          "name": "",
          "type": "uint256"
        }
      ],
      "stateMutability": "view",
      "type": "function",
      "constant": true
    },
    {
      "inputs": [
        {
          "internalType": "address",
          "name": "_owner",
          "type": "address"
        }
      ],
      "name": "getTotalNumberOfTokensOwnedByAnAddress",
      "outputs": [
        {
          "internalType": "uint256",
          "name": "",
          "type": "uint256"
        }
      ],
      "stateMutability": "view",
      "type": "function",
      "constant": true
    }
  ],
  "bytecode": "0x60806040526000600e553480156200001657600080fd5b506040518060400160405280601381526020017f41727446756e647320436f6c6c656374696f6e000000000000000000000000008152506040518060400160405280600281526020017f43420000000000000000000000000000000000000000000000000000000000008152506200009b6301ffc9a760e01b6200016d60201b60201c565b8160069080519060200190620000b3929190620003c2565b508060079080519060200190620000cc929190620003c2565b50620000e56380ac58cd60e01b6200016d60201b60201c565b620000fd635b5e139f60e01b6200016d60201b60201c565b6200011563780e9d6360e01b6200016d60201b60201c565b5050620001276200027660201b60201c565b600a90805190602001906200013e929190620003c2565b506200014f6200031c60201b60201c565b600b908051906020019062000166929190620003c2565b5062000478565b63ffffffff60e01b817bffffffffffffffffffffffffffffffffffffffffffffffffffffffff191614156200020a576040517f08c379a000000000000000000000000000000000000000000000000000000000815260040180806020018281038252601c8152602001807f4552433136353a20696e76616c696420696e746572666163652069640000000081525060200191505060405180910390fd5b6001600080837bffffffffffffffffffffffffffffffffffffffffffffffffffffffff19167bffffffffffffffffffffffffffffffffffffffffffffffffffffffff1916815260200190815260200160002060006101000a81548160ff02191690831515021790555050565b606060068054600181600116156101000203166002900480601f016020809104026020016040519081016040528092919081815260200182805460018160011615610100020316600290048015620003125780601f10620002e65761010080835404028352916020019162000312565b820191906000526020600020905b815481529060010190602001808311620002f457829003601f168201915b5050505050905090565b606060078054600181600116156101000203166002900480601f016020809104026020016040519081016040528092919081815260200182805460018160011615610100020316600290048015620003b85780601f106200038c57610100808354040283529160200191620003b8565b820191906000526020600020905b8154815290600101906020018083116200039a57829003601f168201915b5050505050905090565b828054600181600116156101000203166002900490600052602060002090601f016020900481019282620003fa576000855562000446565b82601f106200041557805160ff191683800117855562000446565b8280016001018555821562000446579182015b828111156200044557825182559160200191906001019062000428565b5b50905062000455919062000459565b5090565b5b80821115620004745760008160009055506001016200045a565b5090565b614ab480620004886000396000f3fe608060405234801561001057600080fd5b50600436106101fb5760003560e01c806354515bb61161011a578063a22cb465116100ad578063e5326ab11161007c578063e5326ab114610671578063e5e4d79c1461068f578063e985e9c5146106bf578063ebdc07e8146106ef578063ece86c211461071f576101fb565b8063a22cb465146105d1578063b88d4fde146105ed578063c87b56dd14610609578063d5f45a7d14610639576101fb565b806370a08231116100e957806370a082311461051c578063816e5f3a1461054c57806395d89b411461057c5780639bdbf7e01461059a576101fb565b806354515bb6146104805780636352211e146104b05780636c0360eb146104e05780636f9507f9146104fe576101fb565b80632588e01c11610192578063439028501161016157806343902850146103e65780634f6ccce714610416578063501845c6146104465780635187a82d14610462576101fb565b80632588e01c146103365780632f745c591461036657806339b5f8301461039657806342842e0e146103ca576101fb565b8063081812fc116101ce578063081812fc146102b0578063095ea7b3146102e057806318160ddd146102fc57806323b872dd1461031a576101fb565b806301188b3f1461020057806301ffc9a71461023257806306fdde031461026257806307a5b57814610280575b600080fd5b61021a600480360381019061021591906141af565b61074f565b60405161022993929190614421565b60405180910390f35b61024c6004803603810190610247919061401f565b610a35565b6040516102599190614358565b60405180910390f35b61026a610a9c565b6040516102779190614373565b60405180910390f35b61029a60048036038101906102959190613d5b565b610b3e565b6040516102a7919061446d565b60405180910390f35b6102ca60048036038101906102c59190614186565b610bc3565b6040516102d7919061433d565b60405180910390f35b6102fa60048036038101906102f59190613f15565b610c5e565b005b610304610da2565b604051610311919061446d565b60405180910390f35b610334600480360381019061032f9190613e0f565b610db3565b005b610350600480360381019061034b9190613dc0565b610e29565b60405161035d9190614358565b60405180910390f35b610380600480360381019061037b9190613f15565b610fbe565b60405161038d919061446d565b60405180910390f35b6103b060048036038101906103ab9190613f15565b611019565b6040516103c195949392919061458b565b60405180910390f35b6103e460048036038101906103df9190613e0f565b611241565b005b61040060048036038101906103fb9190613d5b565b611261565b60405161040d919061446d565b60405180910390f35b610430600480360381019061042b9190614186565b611278565b60405161043d919061446d565b60405180910390f35b610460600480360381019061045b91906140df565b61129b565b005b61046a611555565b604051610477919061446d565b60405180910390f35b61049a60048036038101906104959190613d5b565b61155b565b6040516104a7919061446d565b60405180910390f35b6104ca60048036038101906104c59190614186565b6115a0565b6040516104d7919061433d565b60405180910390f35b6104e86115d7565b6040516104f59190614373565b60405180910390f35b610506611679565b6040516105139190614373565b60405180910390f35b61053660048036038101906105319190613d5b565b611717565b604051610543919061446d565b60405180910390f35b61056660048036038101906105619190613f15565b6117ec565b6040516105739190614358565b60405180910390f35b610584611948565b6040516105919190614373565b60405180910390f35b6105b460048036038101906105af91906141af565b6119ea565b6040516105c8989796959493929190614395565b60405180910390f35b6105eb60048036038101906105e69190613ed9565b611cd3565b005b61060760048036038101906106029190613e5e565b611e89565b005b610623600480360381019061061e9190614186565b611f01565b6040516106309190614373565b60405180910390f35b610653600480360381019061064e9190613f15565b6121d2565b60405161066899989796959493929190614488565b60405180910390f35b6106796123da565b6040516106869190614373565b60405180910390f35b6106a960048036038101906106a491906141eb565b612478565b6040516106b69190614358565b60405180910390f35b6106d960048036038101906106d49190613d84565b6125c5565b6040516106e69190614358565b60405180910390f35b61070960048036038101906107049190613f51565b612659565b6040516107169190614358565b60405180910390f35b61073960048036038101906107349190614048565b6127bd565b6040516107469190614358565b60405180910390f35b6060806060600073ffffffffffffffffffffffffffffffffffffffff168473ffffffffffffffffffffffffffffffffffffffff16141561078e57600080fd5b600085101561079c57600080fd5b6000600d60008673ffffffffffffffffffffffffffffffffffffffff1673ffffffffffffffffffffffffffffffffffffffff16815260200190815260200160002080549050116107eb57600080fd5b6000600d60008673ffffffffffffffffffffffffffffffffffffffff1673ffffffffffffffffffffffffffffffffffffffff168152602001908152602001600020868154811061083757fe5b90600052602060002090600602019050806001018160020182600301828054600181600116156101000203166002900480601f0160208091040260200160405190810160405280929190818152602001828054600181600116156101000203166002900480156108e85780601f106108bd576101008083540402835291602001916108e8565b820191906000526020600020905b8154815290600101906020018083116108cb57829003601f168201915b50505050509250818054600181600116156101000203166002900480601f0160208091040260200160405190810160405280929190818152602001828054600181600116156101000203166002900480156109845780601f1061095957610100808354040283529160200191610984565b820191906000526020600020905b81548152906001019060200180831161096757829003601f168201915b50505050509150808054600181600116156101000203166002900480601f016020809104026020016040519081016040528092919081815260200182805460018160011615610100020316600290048015610a205780601f106109f557610100808354040283529160200191610a20565b820191906000526020600020905b815481529060010190602001808311610a0357829003601f168201915b50505050509050935093509350509250925092565b6000806000837bffffffffffffffffffffffffffffffffffffffffffffffffffffffff19167bffffffffffffffffffffffffffffffffffffffffffffffffffffffff1916815260200190815260200160002060009054906101000a900460ff169050919050565b606060068054600181600116156101000203166002900480601f016020809104026020016040519081016040528092919081815260200182805460018160011615610100020316600290048015610b345780601f10610b0957610100808354040283529160200191610b34565b820191906000526020600020905b815481529060010190602001808311610b1757829003601f168201915b5050505050905090565b60008073ffffffffffffffffffffffffffffffffffffffff168273ffffffffffffffffffffffffffffffffffffffff161415610b7957600080fd5b600f60008373ffffffffffffffffffffffffffffffffffffffff1673ffffffffffffffffffffffffffffffffffffffff168152602001908152602001600020805490509050919050565b6000610bce826128f0565b610c23576040517f08c379a000000000000000000000000000000000000000000000000000000000815260040180806020018281038252602c8152602001806149a9602c913960400191505060405180910390fd5b6004600083815260200190815260200160002060009054906101000a900473ffffffffffffffffffffffffffffffffffffffff169050919050565b6000610c69826115a0565b90508073ffffffffffffffffffffffffffffffffffffffff168373ffffffffffffffffffffffffffffffffffffffff161415610cf0576040517f08c379a0000000000000000000000000000000000000000000000000000000008152600401808060200182810382526021815260200180614a2d6021913960400191505060405180910390fd5b8073ffffffffffffffffffffffffffffffffffffffff16610d0f61290d565b73ffffffffffffffffffffffffffffffffffffffff161480610d3e5750610d3d81610d3861290d565b6125c5565b5b610d93576040517f08c379a00000000000000000000000000000000000000000000000000000000081526004018080602001828103825260388152602001806148fc6038913960400191505060405180910390fd5b610d9d8383612915565b505050565b6000610dae60026129ce565b905090565b610dc4610dbe61290d565b826129e3565b610e19576040517f08c379a0000000000000000000000000000000000000000000000000000000008152600401808060200182810382526031815260200180614a4e6031913960400191505060405180910390fd5b610e24838383612ad7565b505050565b60008073ffffffffffffffffffffffffffffffffffffffff168473ffffffffffffffffffffffffffffffffffffffff161415610e6457600080fd5b600073ffffffffffffffffffffffffffffffffffffffff168373ffffffffffffffffffffffffffffffffffffffff161415610e9e57600080fd5b6000821015610eac57600080fd5b6000600f60008673ffffffffffffffffffffffffffffffffffffffff1673ffffffffffffffffffffffffffffffffffffffff1681526020019081526020016000208381548110610ef857fe5b906000526020600020906009020190508060030160009054906101000a900473ffffffffffffffffffffffffffffffffffffffff168160040160006101000a81548173ffffffffffffffffffffffffffffffffffffffff021916908373ffffffffffffffffffffffffffffffffffffffff160217905550838160030160006101000a81548173ffffffffffffffffffffffffffffffffffffffff021916908373ffffffffffffffffffffffffffffffffffffffff16021790555060019150509392505050565b600061101182600160008673ffffffffffffffffffffffffffffffffffffffff1673ffffffffffffffffffffffffffffffffffffffff168152602001908152602001600020612d1a90919063ffffffff16565b905092915050565b600d602052816000526040600020818154811061103557600080fd5b906000526020600020906006020160009150915050806000015490806001018054600181600116156101000203166002900480601f0160208091040260200160405190810160405280929190818152602001828054600181600116156101000203166002900480156110e85780601f106110bd576101008083540402835291602001916110e8565b820191906000526020600020905b8154815290600101906020018083116110cb57829003601f168201915b505050505090806002018054600181600116156101000203166002900480601f0160208091040260200160405190810160405280929190818152602001828054600181600116156101000203166002900480156111865780601f1061115b57610100808354040283529160200191611186565b820191906000526020600020905b81548152906001019060200180831161116957829003601f168201915b505050505090806003018054600181600116156101000203166002900480601f0160208091040260200160405190810160405280929190818152602001828054600181600116156101000203166002900480156112245780601f106111f957610100808354040283529160200191611224565b820191906000526020600020905b81548152906001019060200180831161120757829003601f168201915b5050505050908060050160009054906101000a900460ff16905085565b61125c83838360405180602001604052806000815250611e89565b505050565b60008061126d83611717565b905080915050919050565b60008061128f836002612d3490919063ffffffff16565b50905080915050919050565b600073ffffffffffffffffffffffffffffffffffffffff163373ffffffffffffffffffffffffffffffffffffffff1614156112d557600080fd5b600e600081548092919060010191905055506112f2600e546128f0565b156112fc57600080fd5b61130833600e54612d60565b6000604051806101200160405280600e5481526020018781526020013373ffffffffffffffffffffffffffffffffffffffff1681526020013373ffffffffffffffffffffffffffffffffffffffff1681526020013373ffffffffffffffffffffffffffffffffffffffff16815260200186815260200185815260200160008152602001600115158152509050600f60003373ffffffffffffffffffffffffffffffffffffffff1673ffffffffffffffffffffffffffffffffffffffff168152602001908152602001600020819080600181540180825580915050600190039060005260206000209060090201600090919091909150600082015181600001556020820151816001019080519060200190611423929190613b2f565b5060408201518160020160006101000a81548173ffffffffffffffffffffffffffffffffffffffff021916908373ffffffffffffffffffffffffffffffffffffffff16021790555060608201518160030160006101000a81548173ffffffffffffffffffffffffffffffffffffffff021916908373ffffffffffffffffffffffffffffffffffffffff16021790555060808201518160040160006101000a81548173ffffffffffffffffffffffffffffffffffffffff021916908373ffffffffffffffffffffffffffffffffffffffff16021790555060a0820151816005015560c082015181600601908051906020019061151f929190613b2f565b5060e082015181600701556101008201518160080160006101000a81548160ff0219169083151502179055505050505050505050565b600c5481565b60008073ffffffffffffffffffffffffffffffffffffffff168273ffffffffffffffffffffffffffffffffffffffff16141561159657600080fd5b600c549050919050565b60006115d08260405180606001604052806029815260200161495e602991396002612f549092919063ffffffff16565b9050919050565b606060098054600181600116156101000203166002900480601f01602080910402602001604051908101604052809291908181526020018280546001816001161561010002031660029004801561166f5780601f106116445761010080835404028352916020019161166f565b820191906000526020600020905b81548152906001019060200180831161165257829003601f168201915b5050505050905090565b600b8054600181600116156101000203166002900480601f01602080910402602001604051908101604052809291908181526020018280546001816001161561010002031660029004801561170f5780601f106116e45761010080835404028352916020019161170f565b820191906000526020600020905b8154815290600101906020018083116116f257829003601f168201915b505050505081565b60008073ffffffffffffffffffffffffffffffffffffffff168273ffffffffffffffffffffffffffffffffffffffff16141561179e576040517f08c379a000000000000000000000000000000000000000000000000000000000815260040180806020018281038252602a815260200180614934602a913960400191505060405180910390fd5b6117e5600160008473ffffffffffffffffffffffffffffffffffffffff1673ffffffffffffffffffffffffffffffffffffffff168152602001908152602001600020612f73565b9050919050565b60008073ffffffffffffffffffffffffffffffffffffffff168373ffffffffffffffffffffffffffffffffffffffff16141561182757600080fd5b600082101561183557600080fd5b6000600d60008573ffffffffffffffffffffffffffffffffffffffff1673ffffffffffffffffffffffffffffffffffffffff168152602001908152602001600020805490501161188457600080fd5b600d60008473ffffffffffffffffffffffffffffffffffffffff1673ffffffffffffffffffffffffffffffffffffffff16815260200190815260200160002082815481106118ce57fe5b90600052602060002090600602016000808201600090556001820160006118f59190613bbd565b6002820160006119059190613bbd565b6003820160006119159190613bbd565b6005820160006101000a81549060ff02191690555050600c60008154809291906001900391905055506001905092915050565b606060078054600181600116156101000203166002900480601f0160208091040260200160405190810160405280929190818152602001828054600181600116156101000203166002900480156119e05780601f106119b5576101008083540402835291602001916119e0565b820191906000526020600020905b8154815290600101906020018083116119c357829003601f168201915b5050505050905090565b60606000806000806060600080600073ffffffffffffffffffffffffffffffffffffffff168973ffffffffffffffffffffffffffffffffffffffff161415611a3157600080fd5b60008a1015611a3f57600080fd5b6000600f60008b73ffffffffffffffffffffffffffffffffffffffff1673ffffffffffffffffffffffffffffffffffffffff1681526020019081526020016000208054905011611a8e57600080fd5b6000600f60008b73ffffffffffffffffffffffffffffffffffffffff1673ffffffffffffffffffffffffffffffffffffffff1681526020019081526020016000208b81548110611ada57fe5b90600052602060002090600902019050806001018160020160009054906101000a900473ffffffffffffffffffffffffffffffffffffffff168260030160009054906101000a900473ffffffffffffffffffffffffffffffffffffffff168360040160009054906101000a900473ffffffffffffffffffffffffffffffffffffffff1684600501548560060186600701548760080160009054906101000a900460ff16878054600181600116156101000203166002900480601f016020809104026020016040519081016040528092919081815260200182805460018160011615610100020316600290048015611c125780601f10611be757610100808354040283529160200191611c12565b820191906000526020600020905b815481529060010190602001808311611bf557829003601f168201915b50505050509750828054600181600116156101000203166002900480601f016020809104026020016040519081016040528092919081815260200182805460018160011615610100020316600290048015611cae5780601f10611c8357610100808354040283529160200191611cae565b820191906000526020600020905b815481529060010190602001808311611c9157829003601f168201915b5050505050925098509850985098509850985098509850509295985092959890939650565b611cdb61290d565b73ffffffffffffffffffffffffffffffffffffffff168273ffffffffffffffffffffffffffffffffffffffff161415611d7c576040517f08c379a00000000000000000000000000000000000000000000000000000000081526004018080602001828103825260198152602001807f4552433732313a20617070726f766520746f2063616c6c65720000000000000081525060200191505060405180910390fd5b8060056000611d8961290d565b73ffffffffffffffffffffffffffffffffffffffff1673ffffffffffffffffffffffffffffffffffffffff16815260200190815260200160002060008473ffffffffffffffffffffffffffffffffffffffff1673ffffffffffffffffffffffffffffffffffffffff16815260200190815260200160002060006101000a81548160ff0219169083151502179055508173ffffffffffffffffffffffffffffffffffffffff16611e3661290d565b73ffffffffffffffffffffffffffffffffffffffff167f17307eab39ab6107e8899845ad3d59bd9653f200f220920489ca2b5937696c318360405180821515815260200191505060405180910390a35050565b611e9a611e9461290d565b836129e3565b611eef576040517f08c379a0000000000000000000000000000000000000000000000000000000008152600401808060200182810382526031815260200180614a4e6031913960400191505060405180910390fd5b611efb84848484612f88565b50505050565b6060611f0c826128f0565b611f61576040517f08c379a000000000000000000000000000000000000000000000000000000000815260040180806020018281038252602f8152602001806149fe602f913960400191505060405180910390fd5b6000600860008481526020019081526020016000208054600181600116156101000203166002900480601f01602080910402602001604051908101604052809291908181526020018280546001816001161561010002031660029004801561200a5780601f10611fdf5761010080835404028352916020019161200a565b820191906000526020600020905b815481529060010190602001808311611fed57829003601f168201915b50505050509050600061201b6115d7565b90506000815114156120315781925050506121cd565b6000825111156121025780826040516020018083805190602001908083835b602083106120735780518252602082019150602081019050602083039250612050565b6001836020036101000a03801982511681845116808217855250505050505090500182805190602001908083835b602083106120c457805182526020820191506020810190506020830392506120a1565b6001836020036101000a03801982511681845116808217855250505050505090500192505050604051602081830303815290604052925050506121cd565b8061210c85612ffa565b6040516020018083805190602001908083835b60208310612142578051825260208201915060208101905060208303925061211f565b6001836020036101000a03801982511681845116808217855250505050505090500182805190602001908083835b602083106121935780518252602082019150602081019050602083039250612170565b6001836020036101000a03801982511681845116808217855250505050505090500192505050604051602081830303815290604052925050505b919050565b600f60205281600052604060002081815481106121ee57600080fd5b906000526020600020906009020160009150915050806000015490806001018054600181600116156101000203166002900480601f0160208091040260200160405190810160405280929190818152602001828054600181600116156101000203166002900480156122a15780601f10612276576101008083540402835291602001916122a1565b820191906000526020600020905b81548152906001019060200180831161228457829003601f168201915b5050505050908060020160009054906101000a900473ffffffffffffffffffffffffffffffffffffffff16908060030160009054906101000a900473ffffffffffffffffffffffffffffffffffffffff16908060040160009054906101000a900473ffffffffffffffffffffffffffffffffffffffff1690806005015490806006018054600181600116156101000203166002900480601f0160208091040260200160405190810160405280929190818152602001828054600181600116156101000203166002900480156123b75780601f1061238c576101008083540402835291602001916123b7565b820191906000526020600020905b81548152906001019060200180831161239a57829003601f168201915b5050505050908060070154908060080160009054906101000a900460ff16905089565b600a8054600181600116156101000203166002900480601f0160208091040260200160405190810160405280929190818152602001828054600181600116156101000203166002900480156124705780601f1061244557610100808354040283529160200191612470565b820191906000526020600020905b81548152906001019060200180831161245357829003601f168201915b505050505081565b60008073ffffffffffffffffffffffffffffffffffffffff168273ffffffffffffffffffffffffffffffffffffffff1614156124b357600080fd5b60008610156124c157600080fd5b6000600d60008473ffffffffffffffffffffffffffffffffffffffff1673ffffffffffffffffffffffffffffffffffffffff168152602001908152602001600020805490501161251057600080fd5b6000600d60008473ffffffffffffffffffffffffffffffffffffffff1673ffffffffffffffffffffffffffffffffffffffff168152602001908152602001600020878154811061255c57fe5b9060005260206000209060060201905085816001019080519060200190612584929190613b2f565b508481600201908051906020019061259d929190613b2f565b50838160030190805190602001906125b6929190613b2f565b50600191505095945050505050565b6000600560008473ffffffffffffffffffffffffffffffffffffffff1673ffffffffffffffffffffffffffffffffffffffff16815260200190815260200160002060008373ffffffffffffffffffffffffffffffffffffffff1673ffffffffffffffffffffffffffffffffffffffff16815260200190815260200160002060009054906101000a900460ff16905092915050565b60008073ffffffffffffffffffffffffffffffffffffffff168873ffffffffffffffffffffffffffffffffffffffff16141561269457600080fd5b60008710156126a257600080fd5b6000600f60008a73ffffffffffffffffffffffffffffffffffffffff1673ffffffffffffffffffffffffffffffffffffffff16815260200190815260200160002080549050116126f157600080fd5b6000600f60008a73ffffffffffffffffffffffffffffffffffffffff1673ffffffffffffffffffffffffffffffffffffffff168152602001908152602001600020888154811061273d57fe5b9060005260206000209060090201905084816006019080519060200190612765929190613b2f565b508681600101908051906020019061277e929190613b2f565b50858160050181905550828160080160006101000a81548160ff0219169083151502179055508381600701819055506001915050979650505050505050565b6000600c600081548092919060010191905055506000600d60003373ffffffffffffffffffffffffffffffffffffffff1673ffffffffffffffffffffffffffffffffffffffff168152602001908152602001600020600c548154811061281f57fe5b90600052602060002090600602019050600c54816000018190555084816001019080519060200190612852929190613b2f565b508381600201908051906020019061286b929190613b2f565b5082816003019080519060200190612884929190613b2f565b5060008160050160006101000a81548160ff021916908360ff1602179055507fefbd145fea57de09a0db3eea45c2b6b13a53246bff3d28eaf26c5b4b1ece83f8600c54868633876040516128dc959493929190614523565b60405180910390a160019150509392505050565b600061290682600261314190919063ffffffff16565b9050919050565b600033905090565b816004600083815260200190815260200160002060006101000a81548173ffffffffffffffffffffffffffffffffffffffff021916908373ffffffffffffffffffffffffffffffffffffffff160217905550808273ffffffffffffffffffffffffffffffffffffffff16612988836115a0565b73ffffffffffffffffffffffffffffffffffffffff167f8c5be1e5ebec7d5bd14f71427d1e84f3dd0314c0f7b2291e5b200ac8c7c3b92560405160405180910390a45050565b60006129dc8260000161315b565b9050919050565b60006129ee826128f0565b612a43576040517f08c379a000000000000000000000000000000000000000000000000000000000815260040180806020018281038252602c8152602001806148d0602c913960400191505060405180910390fd5b6000612a4e836115a0565b90508073ffffffffffffffffffffffffffffffffffffffff168473ffffffffffffffffffffffffffffffffffffffff161480612abd57508373ffffffffffffffffffffffffffffffffffffffff16612aa584610bc3565b73ffffffffffffffffffffffffffffffffffffffff16145b80612ace5750612acd81856125c5565b5b91505092915050565b8273ffffffffffffffffffffffffffffffffffffffff16612af7826115a0565b73ffffffffffffffffffffffffffffffffffffffff1614612b63576040517f08c379a00000000000000000000000000000000000000000000000000000000081526004018080602001828103825260298152602001806149d56029913960400191505060405180910390fd5b600073ffffffffffffffffffffffffffffffffffffffff168273ffffffffffffffffffffffffffffffffffffffff161415612be9576040517f08c379a00000000000000000000000000000000000000000000000000000000081526004018080602001828103825260248152602001806148866024913960400191505060405180910390fd5b612bf483838361316c565b612bff600082612915565b612c5081600160008673ffffffffffffffffffffffffffffffffffffffff1673ffffffffffffffffffffffffffffffffffffffff16815260200190815260200160002061317190919063ffffffff16565b50612ca281600160008573ffffffffffffffffffffffffffffffffffffffff1673ffffffffffffffffffffffffffffffffffffffff16815260200190815260200160002061318b90919063ffffffff16565b50612cb9818360026131a59092919063ffffffff16565b50808273ffffffffffffffffffffffffffffffffffffffff168473ffffffffffffffffffffffffffffffffffffffff167fddf252ad1be2c89b69c2b068fc378daa952ba7f163c4a11628f55a4df523b3ef60405160405180910390a4505050565b6000612d2983600001836131da565b60001c905092915050565b600080600080612d47866000018661325d565b915091508160001c8160001c9350935050509250929050565b600073ffffffffffffffffffffffffffffffffffffffff168273ffffffffffffffffffffffffffffffffffffffff161415612e03576040517f08c379a00000000000000000000000000000000000000000000000000000000081526004018080602001828103825260208152602001807f4552433732313a206d696e7420746f20746865207a65726f206164647265737381525060200191505060405180910390fd5b612e0c816128f0565b15612e7f576040517f08c379a000000000000000000000000000000000000000000000000000000000815260040180806020018281038252601c8152602001807f4552433732313a20746f6b656e20616c7265616479206d696e7465640000000081525060200191505060405180910390fd5b612e8b6000838361316c565b612edc81600160008573ffffffffffffffffffffffffffffffffffffffff1673ffffffffffffffffffffffffffffffffffffffff16815260200190815260200160002061318b90919063ffffffff16565b50612ef3818360026131a59092919063ffffffff16565b50808273ffffffffffffffffffffffffffffffffffffffff16600073ffffffffffffffffffffffffffffffffffffffff167fddf252ad1be2c89b69c2b068fc378daa952ba7f163c4a11628f55a4df523b3ef60405160405180910390a45050565b6000612f67846000018460001b846132f6565b60001c90509392505050565b6000612f81826000016133ec565b9050919050565b612f93848484612ad7565b612f9f848484846133fd565b612ff4576040517f08c379a00000000000000000000000000000000000000000000000000000000081526004018080602001828103825260328152602001806148546032913960400191505060405180910390fd5b50505050565b60606000821415613042576040518060400160405280600181526020017f3000000000000000000000000000000000000000000000000000000000000000815250905061313c565b600082905060005b6000821461306c578080600101915050600a828161306457fe5b04915061304a565b60008167ffffffffffffffff8111801561308557600080fd5b506040519080825280601f01601f1916602001820160405280156130b85781602001600182028036833780820191505090505b50905060006001830390508593505b6000841461313457600a84816130d957fe5b0660300160f81b828280600190039350815181106130f357fe5b60200101907effffffffffffffffffffffffffffffffffffffffffffffffffffffffffffff1916908160001a905350600a848161312c57fe5b0493506130c7565b819450505050505b919050565b6000613153836000018360001b613616565b905092915050565b600081600001805490509050919050565b505050565b6000613183836000018360001b613639565b905092915050565b600061319d836000018360001b613721565b905092915050565b60006131d1846000018460001b8473ffffffffffffffffffffffffffffffffffffffff1660001b613791565b90509392505050565b60008183600001805490501161323b576040517f08c379a00000000000000000000000000000000000000000000000000000000081526004018080602001828103825260228152602001806148326022913960400191505060405180910390fd5b82600001828154811061324a57fe5b9060005260206000200154905092915050565b600080828460000180549050116132bf576040517f08c379a00000000000000000000000000000000000000000000000000000000081526004018080602001828103825260228152602001806149876022913960400191505060405180910390fd5b60008460000184815481106132d057fe5b906000526020600020906002020190508060000154816001015492509250509250929050565b600080846001016000858152602001908152602001600020549050600081141583906133bd576040517f08c379a00000000000000000000000000000000000000000000000000000000081526004018080602001828103825283818151815260200191508051906020019080838360005b83811015613382578082015181840152602081019050613367565b50505050905090810190601f1680156133af5780820380516001836020036101000a031916815260200191505b509250505060405180910390fd5b508460000160018203815481106133d057fe5b9060005260206000209060020201600101549150509392505050565b600081600001805490509050919050565b600061341e8473ffffffffffffffffffffffffffffffffffffffff1661386d565b61342b576001905061360e565b600061359563150b7a0260e01b61344061290d565b888787604051602401808573ffffffffffffffffffffffffffffffffffffffff1681526020018473ffffffffffffffffffffffffffffffffffffffff16815260200183815260200180602001828103825283818151815260200191508051906020019080838360005b838110156134c45780820151818401526020810190506134a9565b50505050905090810190601f1680156134f15780820380516001836020036101000a031916815260200191505b5095505050505050604051602081830303815290604052907bffffffffffffffffffffffffffffffffffffffffffffffffffffffff19166020820180517bffffffffffffffffffffffffffffffffffffffffffffffffffffffff8381831617835250505050604051806060016040528060328152602001614854603291398773ffffffffffffffffffffffffffffffffffffffff166138809092919063ffffffff16565b905060008180602001905160208110156135ae57600080fd5b8101908080519060200190929190505050905063150b7a0260e01b7bffffffffffffffffffffffffffffffffffffffffffffffffffffffff1916817bffffffffffffffffffffffffffffffffffffffffffffffffffffffff191614925050505b949350505050565b600080836001016000848152602001908152602001600020541415905092915050565b60008083600101600084815260200190815260200160002054905060008114613715576000600182039050600060018660000180549050039050600086600001828154811061368457fe5b90600052602060002001549050808760000184815481106136a157fe5b90600052602060002001819055506001830187600101600083815260200190815260200160002081905550866000018054806136d957fe5b6001900381819060005260206000200160009055905586600101600087815260200190815260200160002060009055600194505050505061371b565b60009150505b92915050565b600061372d8383613898565b61378657826000018290806001815401808255809150506001900390600052602060002001600090919091909150558260000180549050836001016000848152602001908152602001600020819055506001905061378b565b600090505b92915050565b600080846001016000858152602001908152602001600020549050600081141561383857846000016040518060400160405280868152602001858152509080600181540180825580915050600190039060005260206000209060020201600090919091909150600082015181600001556020820151816001015550508460000180549050856001016000868152602001908152602001600020819055506001915050613866565b8285600001600183038154811061384b57fe5b90600052602060002090600202016001018190555060009150505b9392505050565b600080823b905060008111915050919050565b606061388f84846000856138bb565b90509392505050565b600080836001016000848152602001908152602001600020541415905092915050565b606082471015613916576040517f08c379a00000000000000000000000000000000000000000000000000000000081526004018080602001828103825260268152602001806148aa6026913960400191505060405180910390fd5b61391f8561386d565b613991576040517f08c379a000000000000000000000000000000000000000000000000000000000815260040180806020018281038252601d8152602001807f416464726573733a2063616c6c20746f206e6f6e2d636f6e747261637400000081525060200191505060405180910390fd5b6000808673ffffffffffffffffffffffffffffffffffffffff1685876040518082805190602001908083835b602083106139e057805182526020820191506020810190506020830392506139bd565b6001836020036101000a03801982511681845116808217855250505050505090500191505060006040518083038185875af1925050503d8060008114613a42576040519150601f19603f3d011682016040523d82523d6000602084013e613a47565b606091505b5091509150613a57828286613a63565b92505050949350505050565b60608315613a7357829050613b28565b600083511115613a865782518084602001fd5b816040517f08c379a00000000000000000000000000000000000000000000000000000000081526004018080602001828103825283818151815260200191508051906020019080838360005b83811015613aed578082015181840152602081019050613ad2565b50505050905090810190601f168015613b1a5780820380516001836020036101000a031916815260200191505b509250505060405180910390fd5b9392505050565b828054600181600116156101000203166002900490600052602060002090601f016020900481019282613b655760008555613bac565b82601f10613b7e57805160ff1916838001178555613bac565b82800160010185558215613bac579182015b82811115613bab578251825591602001919060010190613b90565b5b509050613bb99190613c05565b5090565b50805460018160011615610100020316600290046000825580601f10613be35750613c02565b601f016020900490600052602060002090810190613c019190613c05565b5b50565b5b80821115613c1e576000816000905550600101613c06565b5090565b6000613c35613c3084614624565b6145f3565b905082815260208101848484011115613c4d57600080fd5b613c58848285614769565b509392505050565b6000613c73613c6e84614654565b6145f3565b905082815260208101848484011115613c8b57600080fd5b613c96848285614769565b509392505050565b600081359050613cad816147be565b92915050565b600081359050613cc2816147d5565b92915050565b600081359050613cd7816147ec565b92915050565b600081359050613cec81614803565b92915050565b600082601f830112613d0357600080fd5b8135613d13848260208601613c22565b91505092915050565b600082601f830112613d2d57600080fd5b8135613d3d848260208601613c60565b91505092915050565b600081359050613d558161481a565b92915050565b600060208284031215613d6d57600080fd5b6000613d7b84828501613c9e565b91505092915050565b60008060408385031215613d9757600080fd5b6000613da585828601613c9e565b9250506020613db685828601613c9e565b9150509250929050565b600080600060608486031215613dd557600080fd5b6000613de386828701613c9e565b9350506020613df486828701613cb3565b9250506040613e0586828701613d46565b9150509250925092565b600080600060608486031215613e2457600080fd5b6000613e3286828701613c9e565b9350506020613e4386828701613c9e565b9250506040613e5486828701613d46565b9150509250925092565b60008060008060808587031215613e7457600080fd5b6000613e8287828801613c9e565b9450506020613e9387828801613c9e565b9350506040613ea487828801613d46565b925050606085013567ffffffffffffffff811115613ec157600080fd5b613ecd87828801613cf2565b91505092959194509250565b60008060408385031215613eec57600080fd5b6000613efa85828601613c9e565b9250506020613f0b85828601613cc8565b9150509250929050565b60008060408385031215613f2857600080fd5b6000613f3685828601613c9e565b9250506020613f4785828601613d46565b9150509250929050565b600080600080600080600060e0888a031215613f6c57600080fd5b6000613f7a8a828b01613c9e565b9750506020613f8b8a828b01613d46565b965050604088013567ffffffffffffffff811115613fa857600080fd5b613fb48a828b01613d1c565b9550506060613fc58a828b01613d46565b945050608088013567ffffffffffffffff811115613fe257600080fd5b613fee8a828b01613d1c565b93505060a0613fff8a828b01613d46565b92505060c06140108a828b01613cc8565b91505092959891949750929550565b60006020828403121561403157600080fd5b600061403f84828501613cdd565b91505092915050565b60008060006060848603121561405d57600080fd5b600084013567ffffffffffffffff81111561407757600080fd5b61408386828701613d1c565b935050602084013567ffffffffffffffff8111156140a057600080fd5b6140ac86828701613d1c565b925050604084013567ffffffffffffffff8111156140c957600080fd5b6140d586828701613d1c565b9150509250925092565b600080600080600060a086880312156140f757600080fd5b600086013567ffffffffffffffff81111561411157600080fd5b61411d88828901613d1c565b955050602061412e88828901613d46565b945050604086013567ffffffffffffffff81111561414b57600080fd5b61415788828901613d1c565b935050606061416888828901613d46565b925050608061417988828901613cc8565b9150509295509295909350565b60006020828403121561419857600080fd5b60006141a684828501613d46565b91505092915050565b600080604083850312156141c257600080fd5b60006141d085828601613d46565b92505060206141e185828601613c9e565b9150509250929050565b600080600080600060a0868803121561420357600080fd5b600061421188828901613d46565b955050602086013567ffffffffffffffff81111561422e57600080fd5b61423a88828901613d1c565b945050604086013567ffffffffffffffff81111561425757600080fd5b61426388828901613d1c565b935050606086013567ffffffffffffffff81111561428057600080fd5b61428c88828901613d1c565b925050608061429d88828901613c9e565b9150509295509295909350565b6142b381614733565b82525050565b6142c2816146b2565b82525050565b6142d1816146a0565b82525050565b6142e0816146c4565b82525050565b60006142f182614684565b6142fb818561468f565b935061430b818560208601614778565b614314816147ad565b840191505092915050565b6143288161471c565b82525050565b61433781614726565b82525050565b600060208201905061435260008301846142c8565b92915050565b600060208201905061436d60008301846142d7565b92915050565b6000602082019050818103600083015261438d81846142e6565b905092915050565b60006101008201905081810360008301526143b0818b6142e6565b90506143bf602083018a6142c8565b6143cc60408301896142c8565b6143d960608301886142c8565b6143e6608083018761431f565b81810360a08301526143f881866142e6565b905061440760c083018561431f565b61441460e08301846142d7565b9998505050505050505050565b6000606082019050818103600083015261443b81866142e6565b9050818103602083015261444f81856142e6565b9050818103604083015261446381846142e6565b9050949350505050565b6000602082019050614482600083018461431f565b92915050565b60006101208201905061449e600083018c61431f565b81810360208301526144b0818b6142e6565b90506144bf604083018a6142b9565b6144cc60608301896142b9565b6144d960808301886142b9565b6144e660a083018761431f565b81810360c08301526144f881866142e6565b905061450760e083018561431f565b6145156101008301846142d7565b9a9950505050505050505050565b600060a082019050614538600083018861431f565b818103602083015261454a81876142e6565b9050818103604083015261455e81866142e6565b905061456d60608301856142aa565b818103608083015261457f81846142e6565b90509695505050505050565b600060a0820190506145a0600083018861431f565b81810360208301526145b281876142e6565b905081810360408301526145c681866142e6565b905081810360608301526145da81856142e6565b90506145e9608083018461432e565b9695505050505050565b6000604051905081810181811067ffffffffffffffff8211171561461a576146196147ab565b5b8060405250919050565b600067ffffffffffffffff82111561463f5761463e6147ab565b5b601f19601f8301169050602081019050919050565b600067ffffffffffffffff82111561466f5761466e6147ab565b5b601f19601f8301169050602081019050919050565b600081519050919050565b600082825260208201905092915050565b60006146ab826146fc565b9050919050565b60006146bd826146fc565b9050919050565b60008115159050919050565b60007fffffffff0000000000000000000000000000000000000000000000000000000082169050919050565b600073ffffffffffffffffffffffffffffffffffffffff82169050919050565b6000819050919050565b600060ff82169050919050565b600061473e82614745565b9050919050565b600061475082614757565b9050919050565b6000614762826146fc565b9050919050565b82818337600083830152505050565b60005b8381101561479657808201518184015260208101905061477b565b838111156147a5576000848401525b50505050565bfe5b6000601f19601f8301169050919050565b6147c7816146a0565b81146147d257600080fd5b50565b6147de816146b2565b81146147e957600080fd5b50565b6147f5816146c4565b811461480057600080fd5b50565b61480c816146d0565b811461481757600080fd5b50565b6148238161471c565b811461482e57600080fd5b5056fe456e756d657261626c655365743a20696e646578206f7574206f6620626f756e64734552433732313a207472616e7366657220746f206e6f6e20455243373231526563656976657220696d706c656d656e7465724552433732313a207472616e7366657220746f20746865207a65726f2061646472657373416464726573733a20696e73756666696369656e742062616c616e636520666f722063616c6c4552433732313a206f70657261746f7220717565727920666f72206e6f6e6578697374656e7420746f6b656e4552433732313a20617070726f76652063616c6c6572206973206e6f74206f776e6572206e6f7220617070726f76656420666f7220616c6c4552433732313a2062616c616e636520717565727920666f7220746865207a65726f20616464726573734552433732313a206f776e657220717565727920666f72206e6f6e6578697374656e7420746f6b656e456e756d657261626c654d61703a20696e646578206f7574206f6620626f756e64734552433732313a20617070726f76656420717565727920666f72206e6f6e6578697374656e7420746f6b656e4552433732313a207472616e73666572206f6620746f6b656e2074686174206973206e6f74206f776e4552433732314d657461646174613a2055524920717565727920666f72206e6f6e6578697374656e7420746f6b656e4552433732313a20617070726f76616c20746f2063757272656e74206f776e65724552433732313a207472616e736665722063616c6c6572206973206e6f74206f776e6572206e6f7220617070726f766564a2646970667358221220dff6efbf1495297f7664f828cd048bc7c5b8807b422acc3c8f82d6b7aa26f72e64736f6c63430007060033",
  "immutableReferences": {},
  "source": "//import ERC721 interface\r\nimport \"./ERC721.sol\";\r\n\r\npragma abicoder v2;\r\npragma solidity >=0.6.0 <0.8.0;\r\n\r\n//implement\r\ncontract ArtFundsStorage is ERC721 {\r\n    // this contract's token collection name\r\n    string public collectionName;\r\n    // this contract's token symbol\r\n    string public collectionNameSymbol;\r\n\r\n    struct Collection {\r\n        uint256 tokenId;\r\n        string imageURL;\r\n        string name;\r\n        string description;\r\n        mapping(uint256 => DigitalItem) listDigital;\r\n        uint8 listSize;\r\n    }\r\n\r\n    uint256 public collectionCounter;\r\n    mapping(address => Collection[]) public ownerCollections;\r\n    // uint256[] collections;\r\n\r\n    struct DigitalItem {\r\n        uint256 tokenId;\r\n        string name;\r\n        address payable mintedBy;\r\n        address payable currentOwner;\r\n        address payable previousOwner;\r\n        uint256 price;\r\n        string imageURL;\r\n        uint256 numberOfTransfers;\r\n        bool forSale;\r\n    }\r\n\r\n    uint256 digitalItemCounter = 0;\r\n    mapping(address => DigitalItem[]) public ownerDigitalItems;\r\n    // uint256[] digitalItems;\r\n\r\n    event ItemCreated(\r\n        uint256 id,\r\n        string name,\r\n        address mintedBy,\r\n        address currentOwner,\r\n        address previousOwner,\r\n        uint256 price,\r\n        string imageURL,\r\n        uint256 numberOfTransfers,\r\n        bool forSale\r\n    );\r\n\r\n    event ItemForSale(uint256 id, bool forSale);\r\n\r\n    event CollectionCreated(\r\n        uint256 tokenId,\r\n        string imageURL,\r\n        string name,\r\n        address ownedBy,\r\n        string description\r\n    );\r\n\r\n    // initialize contract while deployment with contract's collection name and token\r\n    constructor() ERC721(\"ArtFunds Collection\", \"CB\") {\r\n        collectionName = name();\r\n        collectionNameSymbol = symbol();\r\n    }\r\n\r\n    // mint a new digital item\r\n    function mintDigitalItem(\r\n        string memory _name,\r\n        uint256 _price,\r\n        string memory _imageURL,\r\n        uint256 _numberOfTransfers,\r\n        bool _forSale\r\n    ) external {\r\n        // check if thic fucntion caller is not an zero address account\r\n        require(msg.sender != address(0));\r\n        // increment counter\r\n        digitalItemCounter++;\r\n        // check if a token exists with the above token id => incremented counter\r\n        require(!_exists(digitalItemCounter));\r\n\r\n        // mint the token\r\n        _mint(msg.sender, digitalItemCounter);\r\n\r\n        DigitalItem memory newDigitalItem = DigitalItem(\r\n            digitalItemCounter,\r\n            _name,\r\n            msg.sender,\r\n            msg.sender,\r\n            msg.sender,\r\n            _price,\r\n            _imageURL,\r\n            0,\r\n            true\r\n        );\r\n        ownerDigitalItems[msg.sender].push(newDigitalItem);\r\n    }\r\n\r\n    function updateCurrentOwnerDigitalItem(\r\n        address _owner,\r\n        address payable _newOwner,\r\n        uint256 _tokenId\r\n    ) public returns (bool success) {\r\n        require(_owner != address(0x0));\r\n        require(_newOwner != address(0x0));\r\n        require(_tokenId >= 0);\r\n        DigitalItem storage digitalItem = ownerDigitalItems[_owner][_tokenId];\r\n        digitalItem.previousOwner = digitalItem.currentOwner;\r\n        digitalItem.currentOwner = _newOwner;\r\n        return true;\r\n    }\r\n\r\n    function updateInfoBasicDigitalItem(\r\n        address _owner,\r\n        uint256 _tokenId,\r\n        string memory _name,\r\n        uint256 _price,\r\n        string memory _imageURL,\r\n        uint256 _numberOfTransfers,\r\n        bool _forSale\r\n    ) public returns (bool success) {\r\n        require(_owner != address(0x0));\r\n        require(_tokenId >= 0);\r\n        require(ownerDigitalItems[_owner].length > 0);\r\n        DigitalItem storage digitalItem = ownerDigitalItems[_owner][_tokenId];\r\n        digitalItem.imageURL = _imageURL;\r\n        digitalItem.name = _name;\r\n        digitalItem.price = _price;\r\n        digitalItem.forSale = _forSale;\r\n        digitalItem.numberOfTransfers = _numberOfTransfers;\r\n        return true;\r\n    }\r\n\r\n    function getDigitalItem(uint256 _tokenId, address _owner)\r\n        public\r\n        view\r\n        returns (\r\n            string memory _name,\r\n            address _mintedBy,\r\n            address _currentOwner,\r\n            address _previousOwner,\r\n            uint256 _price,\r\n            string memory _imageURL,\r\n            uint256 _numberOfTransfers,\r\n            bool _forSale\r\n        )\r\n    {\r\n        require(_owner != address(0x0));\r\n        require(_tokenId >= 0);\r\n        require(ownerDigitalItems[_owner].length > 0);\r\n        DigitalItem storage digitalItem = ownerDigitalItems[_owner][_tokenId];\r\n\r\n        return (\r\n            digitalItem.name,\r\n            digitalItem.mintedBy,\r\n            digitalItem.currentOwner,\r\n            digitalItem.previousOwner,\r\n            digitalItem.price,\r\n            digitalItem.imageURL,\r\n            digitalItem.numberOfTransfers,\r\n            digitalItem.forSale\r\n        );\r\n    }\r\n\r\n    function getDigitalItemCount(address _owner) public view returns (uint256) {\r\n        require(_owner != address(0x0));\r\n        return ownerDigitalItems[_owner].length;\r\n    }\r\n\r\n    //This function to create collection from address\r\n    function createCollection(\r\n        string memory _imageURL,\r\n        string memory _name,\r\n        string memory _description\r\n    ) public returns (bool success) {\r\n        collectionCounter++;\r\n        Collection storage collection = ownerCollections[msg.sender][\r\n            collectionCounter\r\n        ];\r\n        collection.tokenId = collectionCounter;\r\n        collection.imageURL = _imageURL;\r\n        collection.name = _name;\r\n        collection.description = _description;\r\n        collection.listSize = 0;\r\n\r\n        // ownerCollections[msg.sender].push(collection);\r\n\r\n        emit CollectionCreated( \r\n            collectionCounter,\r\n            _imageURL,\r\n            _name,\r\n            msg.sender,\r\n            _description\r\n        );\r\n        return true;\r\n    }\r\n\r\n    // function getCollections(address _owner)\r\n    //     public\r\n    //     view\r\n    //     returns (Collection[] memory)\r\n    // {\r\n    //     require(_owner != address(0x0));\r\n    //     require(ownerCollections[_owner].length > 0);\r\n    //     return ownerCollections[_owner];\r\n    // }\r\n\r\n    function getCollection(uint256 _tokenId, address _owner)\r\n        public\r\n        view\r\n        returns (\r\n            string memory _imageURL,\r\n            string memory _name,\r\n            string memory _description\r\n        )\r\n    {\r\n        require(_owner != address(0x0));\r\n        require(_tokenId >= 0);\r\n        require(ownerCollections[_owner].length > 0);\r\n        Collection storage collection = ownerCollections[_owner][_tokenId];\r\n\r\n        return (collection.imageURL, collection.name, collection.description);\r\n    }\r\n\r\n    function updateCollection(\r\n        uint256 _tokenId,\r\n        string memory _imageURL,\r\n        string memory _name,\r\n        string memory _description,\r\n        address _owner\r\n    ) public returns (bool success) {\r\n        require(_owner != address(0x0));\r\n        require(_tokenId >= 0);\r\n        require(ownerCollections[_owner].length > 0);\r\n        Collection storage collection = ownerCollections[_owner][_tokenId];\r\n        collection.imageURL = _imageURL;\r\n        collection.name = _name;\r\n        collection.description = _description;\r\n        return true;\r\n    }\r\n\r\n    function deleteCollection(address _owner, uint256 _tokenId)\r\n        public\r\n        returns (bool success)\r\n    {\r\n        require(_owner != address(0x0));\r\n        require(_tokenId >= 0);\r\n        require(ownerCollections[_owner].length > 0);\r\n        // uint256 rowToDelete = ownerCollections[_owner][_tokenId].index;\r\n        delete ownerCollections[_owner][_tokenId];\r\n        collectionCounter--;\r\n        return true;\r\n    }\r\n\r\n    function getCollectionCount(address _owner) public view returns (uint256) {\r\n        require(_owner != address(0x0));\r\n        return (collectionCounter);\r\n        // return ownerCollections[_owner].length;\r\n    }\r\n\r\n\r\n    // get total number of tokens owned by an address\r\n    function getTotalNumberOfTokensOwnedByAnAddress(address _owner) public view returns(uint256) {\r\n        uint256 totalNumberOfTokensOwned = balanceOf(_owner);\r\n        return totalNumberOfTokensOwned;\r\n    }\r\n\r\n    // struct Order {\r\n    //     address maker;\r\n    //     address taker;\r\n    //     uint256 tokenId;\r\n    // }\r\n\r\n    // mapping(uint256 => Order) orders;\r\n\r\n    // function makeOrder(uint256 _tokenId, uint256 _price) external {\r\n    //     // validate nft\r\n    //     // ...\r\n    // }\r\n\r\n    // function takeOrder(uint256 _tokenId) external {\r\n    //     // check order exists\r\n    //     // validate funds\r\n    //     // transfer funds\r\n    //     // transfer nft\r\n    // }\r\n}\r\n",
  "sourcePath": "E:\\DSC\\DevFest\\ArtFunds\\ArtFunds_DevFest2021\\blockchain\\contracts\\ArtFundsStorage.sol",
  "compiler": {
    "name": "solc",
    "version": "0.7.6+commit.7338295f.Emscripten.clang"
  },
  "schemaVersion": "3.4.3",
  "updatedAt": "2021-10-28T04:30:17.794Z",
  "networkType": "ethereum",
  "devdoc": {
    "kind": "dev",
    "methods": {
      "approve(address,uint256)": {
        "details": "See {IERC721-approve}."
      },
      "balanceOf(address)": {
        "details": "See {IERC721-balanceOf}."
      },
      "baseURI()": {
        "details": "Returns the base URI set via {_setBaseURI}. This will be automatically added as a prefix in {tokenURI} to each token's URI, or to the token ID if no specific URI is set for that token ID."
      },
      "getApproved(uint256)": {
        "details": "See {IERC721-getApproved}."
      },
      "isApprovedForAll(address,address)": {
        "details": "See {IERC721-isApprovedForAll}."
      },
      "name()": {
        "details": "See {IERC721Metadata-name}."
      },
      "ownerOf(uint256)": {
        "details": "See {IERC721-ownerOf}."
      },
      "safeTransferFrom(address,address,uint256)": {
        "details": "See {IERC721-safeTransferFrom}."
      },
      "safeTransferFrom(address,address,uint256,bytes)": {
        "details": "See {IERC721-safeTransferFrom}."
      },
      "setApprovalForAll(address,bool)": {
        "details": "See {IERC721-setApprovalForAll}."
      },
      "supportsInterface(bytes4)": {
        "details": "See {IERC165-supportsInterface}. Time complexity O(1), guaranteed to always use less than 30 000 gas."
      },
      "symbol()": {
        "details": "See {IERC721Metadata-symbol}."
      },
      "tokenByIndex(uint256)": {
        "details": "See {IERC721Enumerable-tokenByIndex}."
      },
      "tokenOfOwnerByIndex(address,uint256)": {
        "details": "See {IERC721Enumerable-tokenOfOwnerByIndex}."
      },
      "tokenURI(uint256)": {
        "details": "See {IERC721Metadata-tokenURI}."
      },
      "totalSupply()": {
        "details": "See {IERC721Enumerable-totalSupply}."
      },
      "transferFrom(address,address,uint256)": {
        "details": "See {IERC721-transferFrom}."
      }
    },
    "version": 1
  },
  "userdoc": {
    "kind": "user",
    "methods": {},
    "version": 1
  }
}