{
  "contractName": "ArtFundsStorage",
  "abi": [
    {
      "inputs": [],
      "stateMutability": "nonpayable",
      "type": "constructor"
    },
    {
      "anonymous": false,
      "inputs": [
        {
          "indexed": true,
          "internalType": "address",
          "name": "owner",
          "type": "address"
        },
        {
          "indexed": true,
          "internalType": "address",
          "name": "approved",
          "type": "address"
        },
        {
          "indexed": true,
          "internalType": "uint256",
          "name": "tokenId",
          "type": "uint256"
        }
      ],
      "name": "Approval",
      "type": "event"
    },
    {
      "anonymous": false,
      "inputs": [
        {
          "indexed": true,
          "internalType": "address",
          "name": "owner",
          "type": "address"
        },
        {
          "indexed": true,
          "internalType": "address",
          "name": "operator",
          "type": "address"
        },
        {
          "indexed": false,
          "internalType": "bool",
          "name": "approved",
          "type": "bool"
        }
      ],
      "name": "ApprovalForAll",
      "type": "event"
    },
    {
      "anonymous": false,
      "inputs": [
        {
          "indexed": false,
          "internalType": "uint256",
          "name": "tokenId",
          "type": "uint256"
        },
        {
          "indexed": false,
          "internalType": "string",
          "name": "imageURL",
          "type": "string"
        },
        {
          "indexed": false,
          "internalType": "string",
          "name": "name",
          "type": "string"
        },
        {
          "indexed": false,
          "internalType": "address",
          "name": "ownedBy",
          "type": "address"
        },
        {
          "indexed": false,
          "internalType": "string",
          "name": "description",
          "type": "string"
        }
      ],
      "name": "CollectionCreated",
      "type": "event"
    },
    {
      "anonymous": false,
      "inputs": [
        {
          "indexed": false,
          "internalType": "uint256",
          "name": "id",
          "type": "uint256"
        },
        {
          "indexed": false,
          "internalType": "uint256",
          "name": "belongByColID",
          "type": "uint256"
        },
        {
          "indexed": false,
          "internalType": "string",
          "name": "name",
          "type": "string"
        },
        {
          "indexed": false,
          "internalType": "address",
          "name": "mintedBy",
          "type": "address"
        },
        {
          "indexed": false,
          "internalType": "address",
          "name": "currentOwner",
          "type": "address"
        },
        {
          "indexed": false,
          "internalType": "uint256",
          "name": "price",
          "type": "uint256"
        },
        {
          "indexed": false,
          "internalType": "string",
          "name": "itemURL",
          "type": "string"
        },
        {
          "indexed": false,
          "internalType": "uint256",
          "name": "numberOfTransfers",
          "type": "uint256"
        },
        {
          "indexed": false,
          "internalType": "bool",
          "name": "forSale",
          "type": "bool"
        }
      ],
      "name": "ItemCreated",
      "type": "event"
    },
    {
      "anonymous": false,
      "inputs": [
        {
          "indexed": false,
          "internalType": "uint256",
          "name": "id",
          "type": "uint256"
        },
        {
          "indexed": false,
          "internalType": "bool",
          "name": "forSale",
          "type": "bool"
        }
      ],
      "name": "ItemForSale",
      "type": "event"
    },
    {
      "anonymous": false,
      "inputs": [
        {
          "indexed": true,
          "internalType": "address",
          "name": "from",
          "type": "address"
        },
        {
          "indexed": true,
          "internalType": "address",
          "name": "to",
          "type": "address"
        },
        {
          "indexed": true,
          "internalType": "uint256",
          "name": "tokenId",
          "type": "uint256"
        }
      ],
      "name": "Transfer",
      "type": "event"
    },
    {
      "inputs": [],
      "name": "ARTFUNDS",
      "outputs": [
        {
          "internalType": "address payable",
          "name": "",
          "type": "address"
        }
      ],
      "stateMutability": "view",
      "type": "function",
      "constant": true
    },
    {
      "inputs": [
        {
          "internalType": "address",
          "name": "to",
          "type": "address"
        },
        {
          "internalType": "uint256",
          "name": "tokenId",
          "type": "uint256"
        }
      ],
      "name": "approve",
      "outputs": [],
      "stateMutability": "nonpayable",
      "type": "function"
    },
    {
      "inputs": [
        {
          "internalType": "address",
          "name": "owner",
          "type": "address"
        }
      ],
      "name": "balanceOf",
      "outputs": [
        {
          "internalType": "uint256",
          "name": "",
          "type": "uint256"
        }
      ],
      "stateMutability": "view",
      "type": "function",
      "constant": true
    },
    {
      "inputs": [],
      "name": "baseURI",
      "outputs": [
        {
          "internalType": "string",
          "name": "",
          "type": "string"
        }
      ],
      "stateMutability": "view",
      "type": "function",
      "constant": true
    },
    {
      "inputs": [],
      "name": "collectionCounter",
      "outputs": [
        {
          "internalType": "uint256",
          "name": "",
          "type": "uint256"
        }
      ],
      "stateMutability": "view",
      "type": "function",
      "constant": true
    },
    {
      "inputs": [],
      "name": "collectionName",
      "outputs": [
        {
          "internalType": "string",
          "name": "",
          "type": "string"
        }
      ],
      "stateMutability": "view",
      "type": "function",
      "constant": true
    },
    {
      "inputs": [],
      "name": "collectionNameSymbol",
      "outputs": [
        {
          "internalType": "string",
          "name": "",
          "type": "string"
        }
      ],
      "stateMutability": "view",
      "type": "function",
      "constant": true
    },
    {
      "inputs": [],
      "name": "digitalItemCounter",
      "outputs": [
        {
          "internalType": "uint256",
          "name": "",
          "type": "uint256"
        }
      ],
      "stateMutability": "view",
      "type": "function",
      "constant": true
    },
    {
      "inputs": [
        {
          "internalType": "uint256",
          "name": "tokenId",
          "type": "uint256"
        }
      ],
      "name": "getApproved",
      "outputs": [
        {
          "internalType": "address",
          "name": "",
          "type": "address"
        }
      ],
      "stateMutability": "view",
      "type": "function",
      "constant": true
    },
    {
      "inputs": [
        {
          "internalType": "address",
          "name": "owner",
          "type": "address"
        },
        {
          "internalType": "address",
          "name": "operator",
          "type": "address"
        }
      ],
      "name": "isApprovedForAll",
      "outputs": [
        {
          "internalType": "bool",
          "name": "",
          "type": "bool"
        }
      ],
      "stateMutability": "view",
      "type": "function",
      "constant": true
    },
    {
      "inputs": [
        {
          "internalType": "uint256",
          "name": "",
          "type": "uint256"
        }
      ],
      "name": "listAllDigitalItem",
      "outputs": [
        {
          "internalType": "uint256",
          "name": "tokenId",
          "type": "uint256"
        },
        {
          "internalType": "uint256",
          "name": "collectionID",
          "type": "uint256"
        },
        {
          "internalType": "string",
          "name": "name",
          "type": "string"
        },
        {
          "internalType": "uint256",
          "name": "price",
          "type": "uint256"
        },
        {
          "internalType": "string",
          "name": "itemURL",
          "type": "string"
        },
        {
          "internalType": "address payable",
          "name": "mintedBy",
          "type": "address"
        },
        {
          "internalType": "address payable",
          "name": "currentOwner",
          "type": "address"
        },
        {
          "internalType": "uint256",
          "name": "numberOfTransfers",
          "type": "uint256"
        },
        {
          "internalType": "bool",
          "name": "forSale",
          "type": "bool"
        }
      ],
      "stateMutability": "view",
      "type": "function",
      "constant": true
    },
    {
      "inputs": [],
      "name": "name",
      "outputs": [
        {
          "internalType": "string",
          "name": "",
          "type": "string"
        }
      ],
      "stateMutability": "view",
      "type": "function",
      "constant": true
    },
    {
      "inputs": [
        {
          "internalType": "address",
          "name": "",
          "type": "address"
        },
        {
          "internalType": "uint256",
          "name": "",
          "type": "uint256"
        }
      ],
      "name": "ownerCollections",
      "outputs": [
        {
          "internalType": "uint256",
          "name": "tokenId",
          "type": "uint256"
        },
        {
          "internalType": "string",
          "name": "imageURL",
          "type": "string"
        },
        {
          "internalType": "string",
          "name": "name",
          "type": "string"
        },
        {
          "internalType": "string",
          "name": "description",
          "type": "string"
        }
      ],
      "stateMutability": "view",
      "type": "function",
      "constant": true
    },
    {
      "inputs": [
        {
          "internalType": "address",
          "name": "",
          "type": "address"
        },
        {
          "internalType": "uint256",
          "name": "",
          "type": "uint256"
        }
      ],
      "name": "ownerDigitalItems",
      "outputs": [
        {
          "internalType": "uint256",
          "name": "tokenId",
          "type": "uint256"
        },
        {
          "internalType": "uint256",
          "name": "collectionID",
          "type": "uint256"
        },
        {
          "internalType": "string",
          "name": "name",
          "type": "string"
        },
        {
          "internalType": "uint256",
          "name": "price",
          "type": "uint256"
        },
        {
          "internalType": "string",
          "name": "itemURL",
          "type": "string"
        },
        {
          "internalType": "address payable",
          "name": "mintedBy",
          "type": "address"
        },
        {
          "internalType": "address payable",
          "name": "currentOwner",
          "type": "address"
        },
        {
          "internalType": "uint256",
          "name": "numberOfTransfers",
          "type": "uint256"
        },
        {
          "internalType": "bool",
          "name": "forSale",
          "type": "bool"
        }
      ],
      "stateMutability": "view",
      "type": "function",
      "constant": true
    },
    {
      "inputs": [
        {
          "internalType": "uint256",
          "name": "tokenId",
          "type": "uint256"
        }
      ],
      "name": "ownerOf",
      "outputs": [
        {
          "internalType": "address",
          "name": "",
          "type": "address"
        }
      ],
      "stateMutability": "view",
      "type": "function",
      "constant": true
    },
    {
      "inputs": [
        {
          "internalType": "address",
          "name": "from",
          "type": "address"
        },
        {
          "internalType": "address",
          "name": "to",
          "type": "address"
        },
        {
          "internalType": "uint256",
          "name": "tokenId",
          "type": "uint256"
        }
      ],
      "name": "safeTransferFrom",
      "outputs": [],
      "stateMutability": "nonpayable",
      "type": "function"
    },
    {
      "inputs": [
        {
          "internalType": "address",
          "name": "from",
          "type": "address"
        },
        {
          "internalType": "address",
          "name": "to",
          "type": "address"
        },
        {
          "internalType": "uint256",
          "name": "tokenId",
          "type": "uint256"
        },
        {
          "internalType": "bytes",
          "name": "_data",
          "type": "bytes"
        }
      ],
      "name": "safeTransferFrom",
      "outputs": [],
      "stateMutability": "nonpayable",
      "type": "function"
    },
    {
      "inputs": [
        {
          "internalType": "address",
          "name": "operator",
          "type": "address"
        },
        {
          "internalType": "bool",
          "name": "approved",
          "type": "bool"
        }
      ],
      "name": "setApprovalForAll",
      "outputs": [],
      "stateMutability": "nonpayable",
      "type": "function"
    },
    {
      "inputs": [
        {
          "internalType": "bytes4",
          "name": "interfaceId",
          "type": "bytes4"
        }
      ],
      "name": "supportsInterface",
      "outputs": [
        {
          "internalType": "bool",
          "name": "",
          "type": "bool"
        }
      ],
      "stateMutability": "view",
      "type": "function",
      "constant": true
    },
    {
      "inputs": [],
      "name": "symbol",
      "outputs": [
        {
          "internalType": "string",
          "name": "",
          "type": "string"
        }
      ],
      "stateMutability": "view",
      "type": "function",
      "constant": true
    },
    {
      "inputs": [
        {
          "internalType": "uint256",
          "name": "index",
          "type": "uint256"
        }
      ],
      "name": "tokenByIndex",
      "outputs": [
        {
          "internalType": "uint256",
          "name": "",
          "type": "uint256"
        }
      ],
      "stateMutability": "view",
      "type": "function",
      "constant": true
    },
    {
      "inputs": [
        {
          "internalType": "address",
          "name": "owner",
          "type": "address"
        },
        {
          "internalType": "uint256",
          "name": "index",
          "type": "uint256"
        }
      ],
      "name": "tokenOfOwnerByIndex",
      "outputs": [
        {
          "internalType": "uint256",
          "name": "",
          "type": "uint256"
        }
      ],
      "stateMutability": "view",
      "type": "function",
      "constant": true
    },
    {
      "inputs": [
        {
          "internalType": "uint256",
          "name": "tokenId",
          "type": "uint256"
        }
      ],
      "name": "tokenURI",
      "outputs": [
        {
          "internalType": "string",
          "name": "",
          "type": "string"
        }
      ],
      "stateMutability": "view",
      "type": "function",
      "constant": true
    },
    {
      "inputs": [],
      "name": "totalSupply",
      "outputs": [
        {
          "internalType": "uint256",
          "name": "",
          "type": "uint256"
        }
      ],
      "stateMutability": "view",
      "type": "function",
      "constant": true
    },
    {
      "inputs": [
        {
          "internalType": "address",
          "name": "from",
          "type": "address"
        },
        {
          "internalType": "address",
          "name": "to",
          "type": "address"
        },
        {
          "internalType": "uint256",
          "name": "tokenId",
          "type": "uint256"
        }
      ],
      "name": "transferFrom",
      "outputs": [],
      "stateMutability": "nonpayable",
      "type": "function"
    },
    {
      "inputs": [
        {
          "internalType": "uint256",
          "name": "_collectionID",
          "type": "uint256"
        },
        {
          "internalType": "string",
          "name": "_name",
          "type": "string"
        },
        {
          "internalType": "uint256",
          "name": "_price",
          "type": "uint256"
        },
        {
          "internalType": "string",
          "name": "_itemURL",
          "type": "string"
        },
        {
          "internalType": "bool",
          "name": "_forSale",
          "type": "bool"
        }
      ],
      "name": "mintDigitalItem",
      "outputs": [],
      "stateMutability": "nonpayable",
      "type": "function"
    },
    {
      "inputs": [
        {
          "internalType": "address",
          "name": "_owner",
          "type": "address"
        },
        {
          "internalType": "uint256",
          "name": "_tokenId",
          "type": "uint256"
        },
        {
          "internalType": "uint256",
          "name": "_newCollectionID",
          "type": "uint256"
        },
        {
          "internalType": "string",
          "name": "_name",
          "type": "string"
        },
        {
          "internalType": "uint256",
          "name": "_price",
          "type": "uint256"
        },
        {
          "internalType": "string",
          "name": "_itemURL",
          "type": "string"
        },
        {
          "internalType": "uint256",
          "name": "_numberOfTransfers",
          "type": "uint256"
        },
        {
          "internalType": "bool",
          "name": "_forSale",
          "type": "bool"
        }
      ],
      "name": "updateInfoBasicDigitalItem",
      "outputs": [
        {
          "internalType": "bool",
          "name": "success",
          "type": "bool"
        }
      ],
      "stateMutability": "nonpayable",
      "type": "function"
    },
    {
      "inputs": [
        {
          "internalType": "uint256",
          "name": "_itemID",
          "type": "uint256"
        },
        {
          "internalType": "address",
          "name": "_owner",
          "type": "address"
        }
      ],
      "name": "getDigitalItem",
      "outputs": [
        {
          "components": [
            {
              "internalType": "uint256",
              "name": "tokenId",
              "type": "uint256"
            },
            {
              "internalType": "uint256",
              "name": "collectionID",
              "type": "uint256"
            },
            {
              "internalType": "string",
              "name": "name",
              "type": "string"
            },
            {
              "internalType": "uint256",
              "name": "price",
              "type": "uint256"
            },
            {
              "internalType": "string",
              "name": "itemURL",
              "type": "string"
            },
            {
              "internalType": "address payable",
              "name": "mintedBy",
              "type": "address"
            },
            {
              "internalType": "address payable",
              "name": "currentOwner",
              "type": "address"
            },
            {
              "internalType": "uint256",
              "name": "numberOfTransfers",
              "type": "uint256"
            },
            {
              "internalType": "bool",
              "name": "forSale",
              "type": "bool"
            }
          ],
          "internalType": "struct ArtFundsStorage.DigitalItem",
          "name": "",
          "type": "tuple"
        }
      ],
      "stateMutability": "view",
      "type": "function",
      "constant": true
    },
    {
      "inputs": [
        {
          "internalType": "address",
          "name": "_owner",
          "type": "address"
        }
      ],
      "name": "getDigitalItemCount",
      "outputs": [
        {
          "internalType": "uint256",
          "name": "count",
          "type": "uint256"
        }
      ],
      "stateMutability": "view",
      "type": "function",
      "constant": true
    },
    {
      "inputs": [
        {
          "internalType": "string",
          "name": "_imageURL",
          "type": "string"
        },
        {
          "internalType": "string",
          "name": "_name",
          "type": "string"
        },
        {
          "internalType": "string",
          "name": "_description",
          "type": "string"
        }
      ],
      "name": "createCollection",
      "outputs": [
        {
          "internalType": "bool",
          "name": "success",
          "type": "bool"
        }
      ],
      "stateMutability": "nonpayable",
      "type": "function"
    },
    {
      "inputs": [
        {
          "internalType": "uint256",
          "name": "_tokenId",
          "type": "uint256"
        },
        {
          "internalType": "address",
          "name": "_owner",
          "type": "address"
        }
      ],
      "name": "getCollection",
      "outputs": [
        {
          "internalType": "uint256",
          "name": "_id",
          "type": "uint256"
        },
        {
          "internalType": "string",
          "name": "_imageURL",
          "type": "string"
        },
        {
          "internalType": "string",
          "name": "_name",
          "type": "string"
        },
        {
          "internalType": "string",
          "name": "_description",
          "type": "string"
        }
      ],
      "stateMutability": "view",
      "type": "function",
      "constant": true
    },
    {
      "inputs": [
        {
          "internalType": "address",
          "name": "_owner",
          "type": "address"
        }
      ],
      "name": "getCollectionCount",
      "outputs": [
        {
          "internalType": "uint256",
          "name": "count",
          "type": "uint256"
        }
      ],
      "stateMutability": "view",
      "type": "function",
      "constant": true
    },
    {
      "inputs": [
        {
          "internalType": "address",
          "name": "_owner",
          "type": "address"
        }
      ],
      "name": "getDigitalItemOwnerCount",
      "outputs": [
        {
          "internalType": "uint256",
          "name": "count",
          "type": "uint256"
        }
      ],
      "stateMutability": "view",
      "type": "function",
      "constant": true
    },
    {
      "inputs": [
        {
          "internalType": "uint256",
          "name": "_tokenId",
          "type": "uint256"
        }
      ],
      "name": "buyItem",
      "outputs": [
        {
          "internalType": "bool",
          "name": "success",
          "type": "bool"
        }
      ],
      "stateMutability": "payable",
      "type": "function",
      "payable": true
    },
    {
      "inputs": [
        {
          "internalType": "uint256",
          "name": "_tokenId",
          "type": "uint256"
        },
        {
          "internalType": "uint256",
          "name": "_newPrice",
          "type": "uint256"
        }
      ],
      "name": "changeItemPrice",
      "outputs": [
        {
          "internalType": "bool",
          "name": "success",
          "type": "bool"
        }
      ],
      "stateMutability": "nonpayable",
      "type": "function"
    }
  ],
  "bytecode": "0x60806040526000600d553480156200001657600080fd5b506040518060400160405280601381526020017f41727446756e647320436f6c6c656374696f6e000000000000000000000000008152506040518060400160405280600281526020017f43420000000000000000000000000000000000000000000000000000000000008152506200009b6301ffc9a760e01b620001d860201b60201c565b8160069080519060200190620000b39291906200042d565b508060079080519060200190620000cc9291906200042d565b50620000e56380ac58cd60e01b620001d860201b60201c565b620000fd635b5e139f60e01b620001d860201b60201c565b6200011563780e9d6360e01b620001d860201b60201c565b505062000127620002e160201b60201c565b600a90805190602001906200013e9291906200042d565b506200014f6200038760201b60201c565b600b9080519060200190620001669291906200042d565b5073b6dc743c59122f7b2f0734c6cbe04b2b7155b24e73ffffffffffffffffffffffffffffffffffffffff16600c60006101000a81548173ffffffffffffffffffffffffffffffffffffffff021916908373ffffffffffffffffffffffffffffffffffffffff160217905550620004e3565b63ffffffff60e01b817bffffffffffffffffffffffffffffffffffffffffffffffffffffffff1916141562000275576040517f08c379a000000000000000000000000000000000000000000000000000000000815260040180806020018281038252601c8152602001807f4552433136353a20696e76616c696420696e746572666163652069640000000081525060200191505060405180910390fd5b6001600080837bffffffffffffffffffffffffffffffffffffffffffffffffffffffff19167bffffffffffffffffffffffffffffffffffffffffffffffffffffffff1916815260200190815260200160002060006101000a81548160ff02191690831515021790555050565b606060068054600181600116156101000203166002900480601f0160208091040260200160405190810160405280929190818152602001828054600181600116156101000203166002900480156200037d5780601f1062000351576101008083540402835291602001916200037d565b820191906000526020600020905b8154815290600101906020018083116200035f57829003601f168201915b5050505050905090565b606060078054600181600116156101000203166002900480601f016020809104026020016040519081016040528092919081815260200182805460018160011615610100020316600290048015620004235780601f10620003f75761010080835404028352916020019162000423565b820191906000526020600020905b8154815290600101906020018083116200040557829003601f168201915b5050505050905090565b828054600181600116156101000203166002900490600052602060002090601f016020900481019282620004655760008555620004b1565b82601f106200048057805160ff1916838001178555620004b1565b82800160010185558215620004b1579182015b82811115620004b057825182559160200191906001019062000493565b5b509050620004c09190620004c4565b5090565b5b80821115620004df576000816000905550600101620004c5565b5090565b61598880620004f36000396000f3fe6080604052600436106102045760003560e01c80636a3a852e11610118578063a7b19424116100a0578063d79e69421161006f578063d79e69421461083d578063e5326ab11461087a578063e7fb74c7146108a5578063e985e9c5146108d5578063ece86c211461091257610204565b8063a7b1942414610755578063b88d4fde14610792578063c87b56dd146107bb578063d5f45a7d146107f857610204565b80638146f68d116100e75780638146f68d14610642578063849a33ce1461068757806395d89b41146106c45780639bdbf7e0146106ef578063a22cb4651461072c57610204565b80636a3a852e146105865780636c0360eb146105af5780636f9507f9146105da57806370a082311461060557610204565b806323b872dd1161019b57806342842e0e1161016a57806342842e0e1461047b5780634f6ccce7146104a45780635187a82d146104e157806354515bb61461050c5780636352211e1461054957610204565b806323b872dd146103aa5780632f745c59146103d3578063371913261461041057806339b5f8301461043b57610204565b8063081812fc116101d7578063081812fc146102ee578063095ea7b31461032b57806318160ddd1461035457806322c009361461037f57610204565b806301188b3f1461020957806301ffc9a71461024957806306fdde031461028657806307a5b578146102b1575b600080fd5b34801561021557600080fd5b50610230600480360381019061022b9190614fcc565b61094f565b60405161024094939291906153b9565b60405180910390f35b34801561025557600080fd5b50610270600480360381019061026b9190614ee3565b610bd3565b60405161027d91906152d7565b60405180910390f35b34801561029257600080fd5b5061029b610c3a565b6040516102a891906152f2565b60405180910390f35b3480156102bd57600080fd5b506102d860048036038101906102d39190614c5a565b610cdc565b6040516102e59190615336565b60405180910390f35b3480156102fa57600080fd5b5061031560048036038101906103109190614fa3565b610d61565b60405161032291906152a1565b60405180910390f35b34801561033757600080fd5b50610352600480360381019061034d9190614dc5565b610dfc565b005b34801561036057600080fd5b50610369610f40565b6040516103769190615336565b60405180910390f35b34801561038b57600080fd5b50610394610f51565b6040516103a191906152bc565b60405180910390f35b3480156103b657600080fd5b506103d160048036038101906103cc9190614cbf565b610f77565b005b3480156103df57600080fd5b506103fa60048036038101906103f59190614dc5565b610fed565b6040516104079190615336565b60405180910390f35b34801561041c57600080fd5b50610425611048565b6040516104329190615336565b60405180910390f35b34801561044757600080fd5b50610462600480360381019061045d9190614dc5565b61104e565b60405161047294939291906153b9565b60405180910390f35b34801561048757600080fd5b506104a2600480360381019061049d9190614cbf565b611263565b005b3480156104b057600080fd5b506104cb60048036038101906104c69190614fa3565b611283565b6040516104d89190615336565b60405180910390f35b3480156104ed57600080fd5b506104f66112a6565b6040516105039190615336565b60405180910390f35b34801561051857600080fd5b50610533600480360381019061052e9190614c5a565b6112ac565b6040516105409190615336565b60405180910390f35b34801561055557600080fd5b50610570600480360381019061056b9190614fa3565b6112f8565b60405161057d91906152a1565b60405180910390f35b34801561059257600080fd5b506105ad60048036038101906105a89190615008565b61132f565b005b3480156105bb57600080fd5b506105c46116cb565b6040516105d191906152f2565b60405180910390f35b3480156105e657600080fd5b506105ef61176d565b6040516105fc91906152f2565b60405180910390f35b34801561061157600080fd5b5061062c60048036038101906106279190614c5a565b61180b565b6040516106399190615336565b60405180910390f35b34801561064e57600080fd5b5061066960048036038101906106649190614fa3565b6118e0565b60405161067e99989796959493929190615413565b60405180910390f35b34801561069357600080fd5b506106ae60048036038101906106a99190614c5a565b611aab565b6040516106bb9190615336565b60405180910390f35b3480156106d057600080fd5b506106d9611af7565b6040516106e691906152f2565b60405180910390f35b3480156106fb57600080fd5b5061071660048036038101906107119190614fcc565b611b99565b6040516107239190615314565b60405180910390f35b34801561073857600080fd5b50610753600480360381019061074e9190614d89565b611edf565b005b34801561076157600080fd5b5061077c600480360381019061077791906150af565b612095565b60405161078991906152d7565b60405180910390f35b34801561079e57600080fd5b506107b960048036038101906107b49190614d0e565b612545565b005b3480156107c757600080fd5b506107e260048036038101906107dd9190614fa3565b6125bd565b6040516107ef91906152f2565b60405180910390f35b34801561080457600080fd5b5061081f600480360381019061081a9190614dc5565b61288e565b60405161083499989796959493929190615413565b60405180910390f35b34801561084957600080fd5b50610864600480360381019061085f9190614e01565b612a76565b60405161087191906152d7565b60405180910390f35b34801561088657600080fd5b5061088f612f3c565b60405161089c91906152f2565b60405180910390f35b6108bf60048036038101906108ba9190614fa3565b612fda565b6040516108cc91906152d7565b60405180910390f35b3480156108e157600080fd5b506108fc60048036038101906108f79190614c83565b613560565b60405161090991906152d7565b60405180910390f35b34801561091e57600080fd5b5061093960048036038101906109349190614f0c565b6135f4565b60405161094691906152d7565b60405180910390f35b600060608060606000600e60008773ffffffffffffffffffffffffffffffffffffffff1673ffffffffffffffffffffffffffffffffffffffff16815260200190815260200160002087815481106109a257fe5b906000526020600020906004020160405180608001604052908160008201548152602001600182018054600181600116156101000203166002900480601f016020809104026020016040519081016040528092919081815260200182805460018160011615610100020316600290048015610a5e5780601f10610a3357610100808354040283529160200191610a5e565b820191906000526020600020905b815481529060010190602001808311610a4157829003601f168201915b50505050508152602001600282018054600181600116156101000203166002900480601f016020809104026020016040519081016040528092919081815260200182805460018160011615610100020316600290048015610b005780601f10610ad557610100808354040283529160200191610b00565b820191906000526020600020905b815481529060010190602001808311610ae357829003601f168201915b50505050508152602001600382018054600181600116156101000203166002900480601f016020809104026020016040519081016040528092919081815260200182805460018160011615610100020316600290048015610ba25780601f10610b7757610100808354040283529160200191610ba2565b820191906000526020600020905b815481529060010190602001808311610b8557829003601f168201915b5050505050815250509050806000015181602001518260400151836060015194509450945094505092959194509250565b6000806000837bffffffffffffffffffffffffffffffffffffffffffffffffffffffff19167bffffffffffffffffffffffffffffffffffffffffffffffffffffffff1916815260200190815260200160002060009054906101000a900460ff169050919050565b606060068054600181600116156101000203166002900480601f016020809104026020016040519081016040528092919081815260200182805460018160011615610100020316600290048015610cd25780601f10610ca757610100808354040283529160200191610cd2565b820191906000526020600020905b815481529060010190602001808311610cb557829003601f168201915b5050505050905090565b60008073ffffffffffffffffffffffffffffffffffffffff168273ffffffffffffffffffffffffffffffffffffffff161415610d1757600080fd5b601060008373ffffffffffffffffffffffffffffffffffffffff1673ffffffffffffffffffffffffffffffffffffffff168152602001908152602001600020805490509050919050565b6000610d6c82613748565b610dc1576040517f08c379a000000000000000000000000000000000000000000000000000000000815260040180806020018281038252602c815260200180615851602c913960400191505060405180910390fd5b6004600083815260200190815260200160002060009054906101000a900473ffffffffffffffffffffffffffffffffffffffff169050919050565b6000610e07826112f8565b90508073ffffffffffffffffffffffffffffffffffffffff168373ffffffffffffffffffffffffffffffffffffffff161415610e8e576040517f08c379a00000000000000000000000000000000000000000000000000000000081526004018080602001828103825260218152602001806159016021913960400191505060405180910390fd5b8073ffffffffffffffffffffffffffffffffffffffff16610ead613765565b73ffffffffffffffffffffffffffffffffffffffff161480610edc5750610edb81610ed6613765565b613560565b5b610f31576040517f08c379a00000000000000000000000000000000000000000000000000000000081526004018080602001828103825260388152602001806157a46038913960400191505060405180910390fd5b610f3b838361376d565b505050565b6000610f4c6002613826565b905090565b600c60009054906101000a900473ffffffffffffffffffffffffffffffffffffffff1681565b610f88610f82613765565b8261383b565b610fdd576040517f08c379a00000000000000000000000000000000000000000000000000000000081526004018080602001828103825260318152602001806159226031913960400191505060405180910390fd5b610fe883838361392f565b505050565b600061104082600160008673ffffffffffffffffffffffffffffffffffffffff1673ffffffffffffffffffffffffffffffffffffffff168152602001908152602001600020613b7290919063ffffffff16565b905092915050565b600f5481565b600e602052816000526040600020818154811061106a57600080fd5b906000526020600020906004020160009150915050806000015490806001018054600181600116156101000203166002900480601f01602080910402602001604051908101604052809291908181526020018280546001816001161561010002031660029004801561111d5780601f106110f25761010080835404028352916020019161111d565b820191906000526020600020905b81548152906001019060200180831161110057829003601f168201915b505050505090806002018054600181600116156101000203166002900480601f0160208091040260200160405190810160405280929190818152602001828054600181600116156101000203166002900480156111bb5780601f10611190576101008083540402835291602001916111bb565b820191906000526020600020905b81548152906001019060200180831161119e57829003601f168201915b505050505090806003018054600181600116156101000203166002900480601f0160208091040260200160405190810160405280929190818152602001828054600181600116156101000203166002900480156112595780601f1061122e57610100808354040283529160200191611259565b820191906000526020600020905b81548152906001019060200180831161123c57829003601f168201915b5050505050905084565b61127e83838360405180602001604052806000815250612545565b505050565b60008061129a836002613b8c90919063ffffffff16565b50905080915050919050565b600d5481565b6000600e60008373ffffffffffffffffffffffffffffffffffffffff1673ffffffffffffffffffffffffffffffffffffffff168152602001908152602001600020805490509050919050565b600061132882604051806060016040528060298152602001615806602991396002613bb89092919063ffffffff16565b9050919050565b600073ffffffffffffffffffffffffffffffffffffffff163373ffffffffffffffffffffffffffffffffffffffff16141561136957600080fd5b600f60008154809291906001019190505550611386600f54613748565b1561139057600080fd5b61139c33600f54613bd7565b6113a8600f5483613dcb565b6000604051806101200160405280600f5481526020018781526020018681526020018581526020018481526020013373ffffffffffffffffffffffffffffffffffffffff1681526020013373ffffffffffffffffffffffffffffffffffffffff1681526020016000815260200183151581525090508060116000600f54815260200190815260200160002060008201518160000155602082015181600101556040820151816002019080519060200190611463929190614a11565b5060608201518160030155608082015181600401908051906020019061148a929190614a11565b5060a08201518160050160006101000a81548173ffffffffffffffffffffffffffffffffffffffff021916908373ffffffffffffffffffffffffffffffffffffffff16021790555060c08201518160060160006101000a81548173ffffffffffffffffffffffffffffffffffffffff021916908373ffffffffffffffffffffffffffffffffffffffff16021790555060e082015181600701556101008201518160080160006101000a81548160ff021916908315150217905550905050601060003373ffffffffffffffffffffffffffffffffffffffff1673ffffffffffffffffffffffffffffffffffffffff168152602001908152602001600020819080600181540180825580915050600190039060005260206000209060090201600090919091909150600082015181600001556020820151816001015560408201518160020190805190602001906115e0929190614a11565b50606082015181600301556080820151816004019080519060200190611607929190614a11565b5060a08201518160050160006101000a81548173ffffffffffffffffffffffffffffffffffffffff021916908373ffffffffffffffffffffffffffffffffffffffff16021790555060c08201518160060160006101000a81548173ffffffffffffffffffffffffffffffffffffffff021916908373ffffffffffffffffffffffffffffffffffffffff16021790555060e082015181600701556101008201518160080160006101000a81548160ff0219169083151502179055505050505050505050565b606060098054600181600116156101000203166002900480601f0160208091040260200160405190810160405280929190818152602001828054600181600116156101000203166002900480156117635780601f1061173857610100808354040283529160200191611763565b820191906000526020600020905b81548152906001019060200180831161174657829003601f168201915b5050505050905090565b600b8054600181600116156101000203166002900480601f0160208091040260200160405190810160405280929190818152602001828054600181600116156101000203166002900480156118035780601f106117d857610100808354040283529160200191611803565b820191906000526020600020905b8154815290600101906020018083116117e657829003601f168201915b505050505081565b60008073ffffffffffffffffffffffffffffffffffffffff168273ffffffffffffffffffffffffffffffffffffffff161415611892576040517f08c379a000000000000000000000000000000000000000000000000000000000815260040180806020018281038252602a8152602001806157dc602a913960400191505060405180910390fd5b6118d9600160008473ffffffffffffffffffffffffffffffffffffffff1673ffffffffffffffffffffffffffffffffffffffff168152602001908152602001600020613e55565b9050919050565b6011602052806000526040600020600091509050806000015490806001015490806002018054600181600116156101000203166002900480601f0160208091040260200160405190810160405280929190818152602001828054600181600116156101000203166002900480156119985780601f1061196d57610100808354040283529160200191611998565b820191906000526020600020905b81548152906001019060200180831161197b57829003601f168201915b505050505090806003015490806004018054600181600116156101000203166002900480601f016020809104026020016040519081016040528092919081815260200182805460018160011615610100020316600290048015611a3c5780601f10611a1157610100808354040283529160200191611a3c565b820191906000526020600020905b815481529060010190602001808311611a1f57829003601f168201915b5050505050908060050160009054906101000a900473ffffffffffffffffffffffffffffffffffffffff16908060060160009054906101000a900473ffffffffffffffffffffffffffffffffffffffff16908060070154908060080160009054906101000a900460ff16905089565b6000601060008373ffffffffffffffffffffffffffffffffffffffff1673ffffffffffffffffffffffffffffffffffffffff168152602001908152602001600020805490509050919050565b606060078054600181600116156101000203166002900480601f016020809104026020016040519081016040528092919081815260200182805460018160011615610100020316600290048015611b8f5780601f10611b6457610100808354040283529160200191611b8f565b820191906000526020600020905b815481529060010190602001808311611b7257829003601f168201915b5050505050905090565b611ba1614a9f565b600073ffffffffffffffffffffffffffffffffffffffff168273ffffffffffffffffffffffffffffffffffffffff161415611bdb57600080fd5b6000600d541015611beb57600080fd5b6000601060008473ffffffffffffffffffffffffffffffffffffffff1673ffffffffffffffffffffffffffffffffffffffff1681526020019081526020016000208054905011611c3a57600080fd5b6000601060008473ffffffffffffffffffffffffffffffffffffffff1673ffffffffffffffffffffffffffffffffffffffff1681526020019081526020016000208481548110611c8657fe5b9060005260206000209060090201604051806101200160405290816000820154815260200160018201548152602001600282018054600181600116156101000203166002900480601f016020809104026020016040519081016040528092919081815260200182805460018160011615610100020316600290048015611d4d5780601f10611d2257610100808354040283529160200191611d4d565b820191906000526020600020905b815481529060010190602001808311611d3057829003601f168201915b5050505050815260200160038201548152602001600482018054600181600116156101000203166002900480601f016020809104026020016040519081016040528092919081815260200182805460018160011615610100020316600290048015611df95780601f10611dce57610100808354040283529160200191611df9565b820191906000526020600020905b815481529060010190602001808311611ddc57829003601f168201915b505050505081526020016005820160009054906101000a900473ffffffffffffffffffffffffffffffffffffffff1673ffffffffffffffffffffffffffffffffffffffff1673ffffffffffffffffffffffffffffffffffffffff1681526020016006820160009054906101000a900473ffffffffffffffffffffffffffffffffffffffff1673ffffffffffffffffffffffffffffffffffffffff1673ffffffffffffffffffffffffffffffffffffffff168152602001600782015481526020016008820160009054906101000a900460ff16151515158152505090508091505092915050565b611ee7613765565b73ffffffffffffffffffffffffffffffffffffffff168273ffffffffffffffffffffffffffffffffffffffff161415611f88576040517f08c379a00000000000000000000000000000000000000000000000000000000081526004018080602001828103825260198152602001807f4552433732313a20617070726f766520746f2063616c6c65720000000000000081525060200191505060405180910390fd5b8060056000611f95613765565b73ffffffffffffffffffffffffffffffffffffffff1673ffffffffffffffffffffffffffffffffffffffff16815260200190815260200160002060008473ffffffffffffffffffffffffffffffffffffffff1673ffffffffffffffffffffffffffffffffffffffff16815260200190815260200160002060006101000a81548160ff0219169083151502179055508173ffffffffffffffffffffffffffffffffffffffff16612042613765565b73ffffffffffffffffffffffffffffffffffffffff167f17307eab39ab6107e8899845ad3d59bd9653f200f220920489ca2b5937696c318360405180821515815260200191505060405180910390a35050565b60008073ffffffffffffffffffffffffffffffffffffffff163373ffffffffffffffffffffffffffffffffffffffff1614156120d057600080fd5b6120d983613748565b6120e257600080fd5b60006120ed846112f8565b90503373ffffffffffffffffffffffffffffffffffffffff168173ffffffffffffffffffffffffffffffffffffffff161461212757600080fd5b6000601060008373ffffffffffffffffffffffffffffffffffffffff1673ffffffffffffffffffffffffffffffffffffffff168152602001908152602001600020858154811061217357fe5b9060005260206000209060090201604051806101200160405290816000820154815260200160018201548152602001600282018054600181600116156101000203166002900480601f01602080910402602001604051908101604052809291908181526020018280546001816001161561010002031660029004801561223a5780601f1061220f5761010080835404028352916020019161223a565b820191906000526020600020905b81548152906001019060200180831161221d57829003601f168201915b5050505050815260200160038201548152602001600482018054600181600116156101000203166002900480601f0160208091040260200160405190810160405280929190818152602001828054600181600116156101000203166002900480156122e65780601f106122bb576101008083540402835291602001916122e6565b820191906000526020600020905b8154815290600101906020018083116122c957829003601f168201915b505050505081526020016005820160009054906101000a900473ffffffffffffffffffffffffffffffffffffffff1673ffffffffffffffffffffffffffffffffffffffff1673ffffffffffffffffffffffffffffffffffffffff1681526020016006820160009054906101000a900473ffffffffffffffffffffffffffffffffffffffff1673ffffffffffffffffffffffffffffffffffffffff1673ffffffffffffffffffffffffffffffffffffffff168152602001600782015481526020016008820160009054906101000a900460ff16151515158152505090508381606001818152505080601060008473ffffffffffffffffffffffffffffffffffffffff1673ffffffffffffffffffffffffffffffffffffffff168152602001908152602001600020868154811061241757fe5b906000526020600020906009020160008201518160000155602082015181600101556040820151816002019080519060200190612455929190614a11565b5060608201518160030155608082015181600401908051906020019061247c929190614a11565b5060a08201518160050160006101000a81548173ffffffffffffffffffffffffffffffffffffffff021916908373ffffffffffffffffffffffffffffffffffffffff16021790555060c08201518160060160006101000a81548173ffffffffffffffffffffffffffffffffffffffff021916908373ffffffffffffffffffffffffffffffffffffffff16021790555060e082015181600701556101008201518160080160006101000a81548160ff02191690831515021790555090505060019250505092915050565b612556612550613765565b8361383b565b6125ab576040517f08c379a00000000000000000000000000000000000000000000000000000000081526004018080602001828103825260318152602001806159226031913960400191505060405180910390fd5b6125b784848484613e6a565b50505050565b60606125c882613748565b61261d576040517f08c379a000000000000000000000000000000000000000000000000000000000815260040180806020018281038252602f8152602001806158d2602f913960400191505060405180910390fd5b6000600860008481526020019081526020016000208054600181600116156101000203166002900480601f0160208091040260200160405190810160405280929190818152602001828054600181600116156101000203166002900480156126c65780601f1061269b576101008083540402835291602001916126c6565b820191906000526020600020905b8154815290600101906020018083116126a957829003601f168201915b5050505050905060006126d76116cb565b90506000815114156126ed578192505050612889565b6000825111156127be5780826040516020018083805190602001908083835b6020831061272f578051825260208201915060208101905060208303925061270c565b6001836020036101000a03801982511681845116808217855250505050505090500182805190602001908083835b60208310612780578051825260208201915060208101905060208303925061275d565b6001836020036101000a0380198251168184511680821785525050505050509050019250505060405160208183030381529060405292505050612889565b806127c885613edc565b6040516020018083805190602001908083835b602083106127fe57805182526020820191506020810190506020830392506127db565b6001836020036101000a03801982511681845116808217855250505050505090500182805190602001908083835b6020831061284f578051825260208201915060208101905060208303925061282c565b6001836020036101000a03801982511681845116808217855250505050505090500192505050604051602081830303815290604052925050505b919050565b601060205281600052604060002081815481106128aa57600080fd5b906000526020600020906009020160009150915050806000015490806001015490806002018054600181600116156101000203166002900480601f0160208091040260200160405190810160405280929190818152602001828054600181600116156101000203166002900480156129635780601f1061293857610100808354040283529160200191612963565b820191906000526020600020905b81548152906001019060200180831161294657829003601f168201915b505050505090806003015490806004018054600181600116156101000203166002900480601f016020809104026020016040519081016040528092919081815260200182805460018160011615610100020316600290048015612a075780601f106129dc57610100808354040283529160200191612a07565b820191906000526020600020905b8154815290600101906020018083116129ea57829003601f168201915b5050505050908060050160009054906101000a900473ffffffffffffffffffffffffffffffffffffffff16908060060160009054906101000a900473ffffffffffffffffffffffffffffffffffffffff16908060070154908060080160009054906101000a900460ff16905089565b6000612a8188613748565b612a8a57600080fd5b612a9387613748565b612a9c57600080fd5b6000612aa7896112f8565b90508973ffffffffffffffffffffffffffffffffffffffff168173ffffffffffffffffffffffffffffffffffffffff1614612ae157600080fd5b6000601060008c73ffffffffffffffffffffffffffffffffffffffff1673ffffffffffffffffffffffffffffffffffffffff1681526020019081526020016000208a81548110612b2d57fe5b9060005260206000209060090201604051806101200160405290816000820154815260200160018201548152602001600282018054600181600116156101000203166002900480601f016020809104026020016040519081016040528092919081815260200182805460018160011615610100020316600290048015612bf45780601f10612bc957610100808354040283529160200191612bf4565b820191906000526020600020905b815481529060010190602001808311612bd757829003601f168201915b5050505050815260200160038201548152602001600482018054600181600116156101000203166002900480601f016020809104026020016040519081016040528092919081815260200182805460018160011615610100020316600290048015612ca05780601f10612c7557610100808354040283529160200191612ca0565b820191906000526020600020905b815481529060010190602001808311612c8357829003601f168201915b505050505081526020016005820160009054906101000a900473ffffffffffffffffffffffffffffffffffffffff1673ffffffffffffffffffffffffffffffffffffffff1673ffffffffffffffffffffffffffffffffffffffff1681526020016006820160009054906101000a900473ffffffffffffffffffffffffffffffffffffffff1673ffffffffffffffffffffffffffffffffffffffff1673ffffffffffffffffffffffffffffffffffffffff168152602001600782015481526020016008820160009054906101000a900460ff161515151581525050905085816080018190525087816040018190525086816060018181525050838161010001901515908115158152505088816020018181525050848160e001818152505080601060008d73ffffffffffffffffffffffffffffffffffffffff1673ffffffffffffffffffffffffffffffffffffffff1681526020019081526020016000208b81548110612e0857fe5b906000526020600020906009020160008201518160000155602082015181600101556040820151816002019080519060200190612e46929190614a11565b50606082015181600301556080820151816004019080519060200190612e6d929190614a11565b5060a08201518160050160006101000a81548173ffffffffffffffffffffffffffffffffffffffff021916908373ffffffffffffffffffffffffffffffffffffffff16021790555060c08201518160060160006101000a81548173ffffffffffffffffffffffffffffffffffffffff021916908373ffffffffffffffffffffffffffffffffffffffff16021790555060e082015181600701556101008201518160080160006101000a81548160ff02191690831515021790555090505060019250505098975050505050505050565b600a8054600181600116156101000203166002900480601f016020809104026020016040519081016040528092919081815260200182805460018160011615610100020316600290048015612fd25780601f10612fa757610100808354040283529160200191612fd2565b820191906000526020600020905b815481529060010190602001808311612fb557829003601f168201915b505050505081565b60008073ffffffffffffffffffffffffffffffffffffffff163373ffffffffffffffffffffffffffffffffffffffff16141561301557600080fd5b61301e82613748565b61302757600080fd5b6000613032836112f8565b9050600073ffffffffffffffffffffffffffffffffffffffff168173ffffffffffffffffffffffffffffffffffffffff16141561306e57600080fd5b3373ffffffffffffffffffffffffffffffffffffffff168173ffffffffffffffffffffffffffffffffffffffff1614156130a757600080fd5b600060116000858152602001908152602001600020604051806101200160405290816000820154815260200160018201548152602001600282018054600181600116156101000203166002900480601f0160208091040260200160405190810160405280929190818152602001828054600181600116156101000203166002900480156131755780601f1061314a57610100808354040283529160200191613175565b820191906000526020600020905b81548152906001019060200180831161315857829003601f168201915b5050505050815260200160038201548152602001600482018054600181600116156101000203166002900480601f0160208091040260200160405190810160405280929190818152602001828054600181600116156101000203166002900480156132215780601f106131f657610100808354040283529160200191613221565b820191906000526020600020905b81548152906001019060200180831161320457829003601f168201915b505050505081526020016005820160009054906101000a900473ffffffffffffffffffffffffffffffffffffffff1673ffffffffffffffffffffffffffffffffffffffff1673ffffffffffffffffffffffffffffffffffffffff1681526020016006820160009054906101000a900473ffffffffffffffffffffffffffffffffffffffff1673ffffffffffffffffffffffffffffffffffffffff1673ffffffffffffffffffffffffffffffffffffffff168152602001600782015481526020016008820160009054906101000a900460ff1615151515815250509050806060015134101561330e57600080fd5b80610100015161331d57600080fd5b61332882338661392f565b60008160c00151905060008260a0015190508173ffffffffffffffffffffffffffffffffffffffff166108fc6064605f34028161336157fe5b049081150290604051600060405180830381858888f1935050505015801561338d573d6000803e3d6000fd5b508073ffffffffffffffffffffffffffffffffffffffff166108fc606460033402816133b557fe5b049081150290604051600060405180830381858888f193505050501580156133e1573d6000803e3d6000fd5b50338360c0019073ffffffffffffffffffffffffffffffffffffffff16908173ffffffffffffffffffffffffffffffffffffffff168152505060018360e001818151019150818152505082601160008881526020019081526020016000206000820151816000015560208201518160010155604082015181600201908051906020019061346f929190614a11565b50606082015181600301556080820151816004019080519060200190613496929190614a11565b5060a08201518160050160006101000a81548173ffffffffffffffffffffffffffffffffffffffff021916908373ffffffffffffffffffffffffffffffffffffffff16021790555060c08201518160060160006101000a81548173ffffffffffffffffffffffffffffffffffffffff021916908373ffffffffffffffffffffffffffffffffffffffff16021790555060e082015181600701556101008201518160080160006101000a81548160ff0219169083151502179055509050506001945050505050919050565b6000600560008473ffffffffffffffffffffffffffffffffffffffff1673ffffffffffffffffffffffffffffffffffffffff16815260200190815260200160002060008373ffffffffffffffffffffffffffffffffffffffff1673ffffffffffffffffffffffffffffffffffffffff16815260200190815260200160002060009054906101000a900460ff16905092915050565b6000600d6000815480929190600101919050555060006040518060800160405280600d548152602001868152602001858152602001848152509050600e60003373ffffffffffffffffffffffffffffffffffffffff1673ffffffffffffffffffffffffffffffffffffffff1681526020019081526020016000208190806001815401808255809150506001900390600052602060002090600402016000909190919091506000820151816000015560208201518160010190805190602001906136be929190614a11565b5060408201518160020190805190602001906136db929190614a11565b5060608201518160030190805190602001906136f8929190614a11565b5050507fefbd145fea57de09a0db3eea45c2b6b13a53246bff3d28eaf26c5b4b1ece83f8600d5486863387604051613734959493929190615351565b60405180910390a160019150509392505050565b600061375e82600261402390919063ffffffff16565b9050919050565b600033905090565b816004600083815260200190815260200160002060006101000a81548173ffffffffffffffffffffffffffffffffffffffff021916908373ffffffffffffffffffffffffffffffffffffffff160217905550808273ffffffffffffffffffffffffffffffffffffffff166137e0836112f8565b73ffffffffffffffffffffffffffffffffffffffff167f8c5be1e5ebec7d5bd14f71427d1e84f3dd0314c0f7b2291e5b200ac8c7c3b92560405160405180910390a45050565b60006138348260000161403d565b9050919050565b600061384682613748565b61389b576040517f08c379a000000000000000000000000000000000000000000000000000000000815260040180806020018281038252602c815260200180615778602c913960400191505060405180910390fd5b60006138a6836112f8565b90508073ffffffffffffffffffffffffffffffffffffffff168473ffffffffffffffffffffffffffffffffffffffff16148061391557508373ffffffffffffffffffffffffffffffffffffffff166138fd84610d61565b73ffffffffffffffffffffffffffffffffffffffff16145b8061392657506139258185613560565b5b91505092915050565b8273ffffffffffffffffffffffffffffffffffffffff1661394f826112f8565b73ffffffffffffffffffffffffffffffffffffffff16146139bb576040517f08c379a00000000000000000000000000000000000000000000000000000000081526004018080602001828103825260298152602001806158a96029913960400191505060405180910390fd5b600073ffffffffffffffffffffffffffffffffffffffff168273ffffffffffffffffffffffffffffffffffffffff161415613a41576040517f08c379a000000000000000000000000000000000000000000000000000000000815260040180806020018281038252602481526020018061572e6024913960400191505060405180910390fd5b613a4c83838361404e565b613a5760008261376d565b613aa881600160008673ffffffffffffffffffffffffffffffffffffffff1673ffffffffffffffffffffffffffffffffffffffff16815260200190815260200160002061405390919063ffffffff16565b50613afa81600160008573ffffffffffffffffffffffffffffffffffffffff1673ffffffffffffffffffffffffffffffffffffffff16815260200190815260200160002061406d90919063ffffffff16565b50613b11818360026140879092919063ffffffff16565b50808273ffffffffffffffffffffffffffffffffffffffff168473ffffffffffffffffffffffffffffffffffffffff167fddf252ad1be2c89b69c2b068fc378daa952ba7f163c4a11628f55a4df523b3ef60405160405180910390a4505050565b6000613b8183600001836140bc565b60001c905092915050565b600080600080613b9f866000018661413f565b915091508160001c8160001c9350935050509250929050565b6000613bcb846000018460001b846141d8565b60001c90509392505050565b600073ffffffffffffffffffffffffffffffffffffffff168273ffffffffffffffffffffffffffffffffffffffff161415613c7a576040517f08c379a00000000000000000000000000000000000000000000000000000000081526004018080602001828103825260208152602001807f4552433732313a206d696e7420746f20746865207a65726f206164647265737381525060200191505060405180910390fd5b613c8381613748565b15613cf6576040517f08c379a000000000000000000000000000000000000000000000000000000000815260040180806020018281038252601c8152602001807f4552433732313a20746f6b656e20616c7265616479206d696e7465640000000081525060200191505060405180910390fd5b613d026000838361404e565b613d5381600160008573ffffffffffffffffffffffffffffffffffffffff1673ffffffffffffffffffffffffffffffffffffffff16815260200190815260200160002061406d90919063ffffffff16565b50613d6a818360026140879092919063ffffffff16565b50808273ffffffffffffffffffffffffffffffffffffffff16600073ffffffffffffffffffffffffffffffffffffffff167fddf252ad1be2c89b69c2b068fc378daa952ba7f163c4a11628f55a4df523b3ef60405160405180910390a45050565b613dd482613748565b613e29576040517f08c379a000000000000000000000000000000000000000000000000000000000815260040180806020018281038252602c81526020018061587d602c913960400191505060405180910390fd5b80600860008481526020019081526020016000209080519060200190613e50929190614a11565b505050565b6000613e63826000016142ce565b9050919050565b613e7584848461392f565b613e81848484846142df565b613ed6576040517f08c379a00000000000000000000000000000000000000000000000000000000081526004018080602001828103825260328152602001806156fc6032913960400191505060405180910390fd5b50505050565b60606000821415613f24576040518060400160405280600181526020017f3000000000000000000000000000000000000000000000000000000000000000815250905061401e565b600082905060005b60008214613f4e578080600101915050600a8281613f4657fe5b049150613f2c565b60008167ffffffffffffffff81118015613f6757600080fd5b506040519080825280601f01601f191660200182016040528015613f9a5781602001600182028036833780820191505090505b50905060006001830390508593505b6000841461401657600a8481613fbb57fe5b0660300160f81b82828060019003935081518110613fd557fe5b60200101907effffffffffffffffffffffffffffffffffffffffffffffffffffffffffffff1916908160001a905350600a848161400e57fe5b049350613fa9565b819450505050505b919050565b6000614035836000018360001b6144f8565b905092915050565b600081600001805490509050919050565b505050565b6000614065836000018360001b61451b565b905092915050565b600061407f836000018360001b614603565b905092915050565b60006140b3846000018460001b8473ffffffffffffffffffffffffffffffffffffffff1660001b614673565b90509392505050565b60008183600001805490501161411d576040517f08c379a00000000000000000000000000000000000000000000000000000000081526004018080602001828103825260228152602001806156da6022913960400191505060405180910390fd5b82600001828154811061412c57fe5b9060005260206000200154905092915050565b600080828460000180549050116141a1576040517f08c379a000000000000000000000000000000000000000000000000000000000815260040180806020018281038252602281526020018061582f6022913960400191505060405180910390fd5b60008460000184815481106141b257fe5b906000526020600020906002020190508060000154816001015492509250509250929050565b6000808460010160008581526020019081526020016000205490506000811415839061429f576040517f08c379a00000000000000000000000000000000000000000000000000000000081526004018080602001828103825283818151815260200191508051906020019080838360005b83811015614264578082015181840152602081019050614249565b50505050905090810190601f1680156142915780820380516001836020036101000a031916815260200191505b509250505060405180910390fd5b508460000160018203815481106142b257fe5b9060005260206000209060020201600101549150509392505050565b600081600001805490509050919050565b60006143008473ffffffffffffffffffffffffffffffffffffffff1661474f565b61430d57600190506144f0565b600061447763150b7a0260e01b614322613765565b888787604051602401808573ffffffffffffffffffffffffffffffffffffffff1681526020018473ffffffffffffffffffffffffffffffffffffffff16815260200183815260200180602001828103825283818151815260200191508051906020019080838360005b838110156143a657808201518184015260208101905061438b565b50505050905090810190601f1680156143d35780820380516001836020036101000a031916815260200191505b5095505050505050604051602081830303815290604052907bffffffffffffffffffffffffffffffffffffffffffffffffffffffff19166020820180517bffffffffffffffffffffffffffffffffffffffffffffffffffffffff83818316178352505050506040518060600160405280603281526020016156fc603291398773ffffffffffffffffffffffffffffffffffffffff166147629092919063ffffffff16565b9050600081806020019051602081101561449057600080fd5b8101908080519060200190929190505050905063150b7a0260e01b7bffffffffffffffffffffffffffffffffffffffffffffffffffffffff1916817bffffffffffffffffffffffffffffffffffffffffffffffffffffffff191614925050505b949350505050565b600080836001016000848152602001908152602001600020541415905092915050565b600080836001016000848152602001908152602001600020549050600081146145f7576000600182039050600060018660000180549050039050600086600001828154811061456657fe5b906000526020600020015490508087600001848154811061458357fe5b90600052602060002001819055506001830187600101600083815260200190815260200160002081905550866000018054806145bb57fe5b600190038181906000526020600020016000905590558660010160008781526020019081526020016000206000905560019450505050506145fd565b60009150505b92915050565b600061460f838361477a565b61466857826000018290806001815401808255809150506001900390600052602060002001600090919091909150558260000180549050836001016000848152602001908152602001600020819055506001905061466d565b600090505b92915050565b600080846001016000858152602001908152602001600020549050600081141561471a57846000016040518060400160405280868152602001858152509080600181540180825580915050600190039060005260206000209060020201600090919091909150600082015181600001556020820151816001015550508460000180549050856001016000868152602001908152602001600020819055506001915050614748565b8285600001600183038154811061472d57fe5b90600052602060002090600202016001018190555060009150505b9392505050565b600080823b905060008111915050919050565b6060614771848460008561479d565b90509392505050565b600080836001016000848152602001908152602001600020541415905092915050565b6060824710156147f8576040517f08c379a00000000000000000000000000000000000000000000000000000000081526004018080602001828103825260268152602001806157526026913960400191505060405180910390fd5b6148018561474f565b614873576040517f08c379a000000000000000000000000000000000000000000000000000000000815260040180806020018281038252601d8152602001807f416464726573733a2063616c6c20746f206e6f6e2d636f6e747261637400000081525060200191505060405180910390fd5b6000808673ffffffffffffffffffffffffffffffffffffffff1685876040518082805190602001908083835b602083106148c2578051825260208201915060208101905060208303925061489f565b6001836020036101000a03801982511681845116808217855250505050505090500191505060006040518083038185875af1925050503d8060008114614924576040519150601f19603f3d011682016040523d82523d6000602084013e614929565b606091505b5091509150614939828286614945565b92505050949350505050565b6060831561495557829050614a0a565b6000835111156149685782518084602001fd5b816040517f08c379a00000000000000000000000000000000000000000000000000000000081526004018080602001828103825283818151815260200191508051906020019080838360005b838110156149cf5780820151818401526020810190506149b4565b50505050905090810190601f1680156149fc5780820380516001836020036101000a031916815260200191505b509250505060405180910390fd5b9392505050565b828054600181600116156101000203166002900490600052602060002090601f016020900481019282614a475760008555614a8e565b82601f10614a6057805160ff1916838001178555614a8e565b82800160010185558215614a8e579182015b82811115614a8d578251825591602001919060010190614a72565b5b509050614a9b9190614b19565b5090565b6040518061012001604052806000815260200160008152602001606081526020016000815260200160608152602001600073ffffffffffffffffffffffffffffffffffffffff168152602001600073ffffffffffffffffffffffffffffffffffffffff168152602001600081526020016000151581525090565b5b80821115614b32576000816000905550600101614b1a565b5090565b6000614b49614b44846154df565b6154ae565b905082815260208101848484011115614b6157600080fd5b614b6c848285615628565b509392505050565b6000614b87614b828461550f565b6154ae565b905082815260208101848484011115614b9f57600080fd5b614baa848285615628565b509392505050565b600081359050614bc18161567d565b92915050565b600081359050614bd681615694565b92915050565b600081359050614beb816156ab565b92915050565b600082601f830112614c0257600080fd5b8135614c12848260208601614b36565b91505092915050565b600082601f830112614c2c57600080fd5b8135614c3c848260208601614b74565b91505092915050565b600081359050614c54816156c2565b92915050565b600060208284031215614c6c57600080fd5b6000614c7a84828501614bb2565b91505092915050565b60008060408385031215614c9657600080fd5b6000614ca485828601614bb2565b9250506020614cb585828601614bb2565b9150509250929050565b600080600060608486031215614cd457600080fd5b6000614ce286828701614bb2565b9350506020614cf386828701614bb2565b9250506040614d0486828701614c45565b9150509250925092565b60008060008060808587031215614d2457600080fd5b6000614d3287828801614bb2565b9450506020614d4387828801614bb2565b9350506040614d5487828801614c45565b925050606085013567ffffffffffffffff811115614d7157600080fd5b614d7d87828801614bf1565b91505092959194509250565b60008060408385031215614d9c57600080fd5b6000614daa85828601614bb2565b9250506020614dbb85828601614bc7565b9150509250929050565b60008060408385031215614dd857600080fd5b6000614de685828601614bb2565b9250506020614df785828601614c45565b9150509250929050565b600080600080600080600080610100898b031215614e1e57600080fd5b6000614e2c8b828c01614bb2565b9850506020614e3d8b828c01614c45565b9750506040614e4e8b828c01614c45565b965050606089013567ffffffffffffffff811115614e6b57600080fd5b614e778b828c01614c1b565b9550506080614e888b828c01614c45565b94505060a089013567ffffffffffffffff811115614ea557600080fd5b614eb18b828c01614c1b565b93505060c0614ec28b828c01614c45565b92505060e0614ed38b828c01614bc7565b9150509295985092959890939650565b600060208284031215614ef557600080fd5b6000614f0384828501614bdc565b91505092915050565b600080600060608486031215614f2157600080fd5b600084013567ffffffffffffffff811115614f3b57600080fd5b614f4786828701614c1b565b935050602084013567ffffffffffffffff811115614f6457600080fd5b614f7086828701614c1b565b925050604084013567ffffffffffffffff811115614f8d57600080fd5b614f9986828701614c1b565b9150509250925092565b600060208284031215614fb557600080fd5b6000614fc384828501614c45565b91505092915050565b60008060408385031215614fdf57600080fd5b6000614fed85828601614c45565b9250506020614ffe85828601614bb2565b9150509250929050565b600080600080600060a0868803121561502057600080fd5b600061502e88828901614c45565b955050602086013567ffffffffffffffff81111561504b57600080fd5b61505788828901614c1b565b945050604061506888828901614c45565b935050606086013567ffffffffffffffff81111561508557600080fd5b61509188828901614c1b565b92505060806150a288828901614bc7565b9150509295509295909350565b600080604083850312156150c257600080fd5b60006150d085828601614c45565b92505060206150e185828601614c45565b9150509250929050565b6150f4816155f2565b82525050565b6151038161557e565b82525050565b6151128161557e565b82525050565b6151218161556c565b82525050565b61513081615590565b82525050565b61513f81615590565b82525050565b60006151508261553f565b61515a818561554a565b935061516a818560208601615637565b6151738161566c565b840191505092915050565b60006151898261553f565b615193818561555b565b93506151a3818560208601615637565b6151ac8161566c565b840191505092915050565b6000610120830160008301516151d06000860182615283565b5060208301516151e36020860182615283565b50604083015184820360408601526151fb8282615145565b91505060608301516152106060860182615283565b50608083015184820360808601526152288282615145565b91505060a083015161523d60a08601826150fa565b5060c083015161525060c08601826150fa565b5060e083015161526360e0860182615283565b50610100830151615278610100860182615127565b508091505092915050565b61528c816155e8565b82525050565b61529b816155e8565b82525050565b60006020820190506152b66000830184615118565b92915050565b60006020820190506152d16000830184615109565b92915050565b60006020820190506152ec6000830184615136565b92915050565b6000602082019050818103600083015261530c818461517e565b905092915050565b6000602082019050818103600083015261532e81846151b7565b905092915050565b600060208201905061534b6000830184615292565b92915050565b600060a0820190506153666000830188615292565b8181036020830152615378818761517e565b9050818103604083015261538c818661517e565b905061539b60608301856150eb565b81810360808301526153ad818461517e565b90509695505050505050565b60006080820190506153ce6000830187615292565b81810360208301526153e0818661517e565b905081810360408301526153f4818561517e565b90508181036060830152615408818461517e565b905095945050505050565b600061012082019050615429600083018c615292565b615436602083018b615292565b8181036040830152615448818a61517e565b90506154576060830189615292565b8181036080830152615469818861517e565b905061547860a0830187615109565b61548560c0830186615109565b61549260e0830185615292565b6154a0610100830184615136565b9a9950505050505050505050565b6000604051905081810181811067ffffffffffffffff821117156154d5576154d461566a565b5b8060405250919050565b600067ffffffffffffffff8211156154fa576154f961566a565b5b601f19601f8301169050602081019050919050565b600067ffffffffffffffff82111561552a5761552961566a565b5b601f19601f8301169050602081019050919050565b600081519050919050565b600082825260208201905092915050565b600082825260208201905092915050565b6000615577826155c8565b9050919050565b6000615589826155c8565b9050919050565b60008115159050919050565b60007fffffffff0000000000000000000000000000000000000000000000000000000082169050919050565b600073ffffffffffffffffffffffffffffffffffffffff82169050919050565b6000819050919050565b60006155fd82615604565b9050919050565b600061560f82615616565b9050919050565b6000615621826155c8565b9050919050565b82818337600083830152505050565b60005b8381101561565557808201518184015260208101905061563a565b83811115615664576000848401525b50505050565bfe5b6000601f19601f8301169050919050565b6156868161556c565b811461569157600080fd5b50565b61569d81615590565b81146156a857600080fd5b50565b6156b48161559c565b81146156bf57600080fd5b50565b6156cb816155e8565b81146156d657600080fd5b5056fe456e756d657261626c655365743a20696e646578206f7574206f6620626f756e64734552433732313a207472616e7366657220746f206e6f6e20455243373231526563656976657220696d706c656d656e7465724552433732313a207472616e7366657220746f20746865207a65726f2061646472657373416464726573733a20696e73756666696369656e742062616c616e636520666f722063616c6c4552433732313a206f70657261746f7220717565727920666f72206e6f6e6578697374656e7420746f6b656e4552433732313a20617070726f76652063616c6c6572206973206e6f74206f776e6572206e6f7220617070726f76656420666f7220616c6c4552433732313a2062616c616e636520717565727920666f7220746865207a65726f20616464726573734552433732313a206f776e657220717565727920666f72206e6f6e6578697374656e7420746f6b656e456e756d657261626c654d61703a20696e646578206f7574206f6620626f756e64734552433732313a20617070726f76656420717565727920666f72206e6f6e6578697374656e7420746f6b656e4552433732314d657461646174613a2055524920736574206f66206e6f6e6578697374656e7420746f6b656e4552433732313a207472616e73666572206f6620746f6b656e2074686174206973206e6f74206f776e4552433732314d657461646174613a2055524920717565727920666f72206e6f6e6578697374656e7420746f6b656e4552433732313a20617070726f76616c20746f2063757272656e74206f776e65724552433732313a207472616e736665722063616c6c6572206973206e6f74206f776e6572206e6f7220617070726f766564a2646970667358221220a61926bbdf6022009589c13eb16d9d8a3a5392ea5c4038fff2a3eeabf438cd0c64736f6c63430007060033",
  "immutableReferences": {},
  "source": "//import ERC721 interface\r\nimport \"./ERC721.sol\";\r\n// SPDX-License-Identifier: MIT\r\npragma solidity >=0.6.0 <0.8.0;\r\npragma experimental ABIEncoderV2;\r\n\r\n//implement\r\ncontract ArtFundsStorage is ERC721 {\r\n    // this contract's token collection name\r\n    string public collectionName;\r\n    // this contract's token symbol\r\n    string public collectionNameSymbol;\r\n    address payable public ARTFUNDS;\r\n    struct Collection {\r\n        uint256 tokenId;\r\n        string imageURL;\r\n        string name;\r\n        string description;\r\n    }\r\n\r\n    uint256 public collectionCounter = 0;\r\n    mapping(address => Collection[]) public ownerCollections;\r\n\r\n    struct DigitalItem {\r\n        uint256 tokenId;\r\n        uint256 collectionID;\r\n        string name;\r\n        uint256 price;\r\n        string itemURL;\r\n        address payable mintedBy;\r\n        address payable currentOwner;\r\n        // address payable previousOwner;\r\n        uint256 numberOfTransfers;\r\n        bool forSale;\r\n    }\r\n\r\n    uint256 public digitalItemCounter;\r\n    mapping(address => DigitalItem[]) public ownerDigitalItems;\r\n\r\n    mapping(uint256 => DigitalItem) public listAllDigitalItem;\r\n\r\n    event ItemCreated(\r\n        uint256 id,\r\n        uint256 belongByColID,\r\n        string name,\r\n        address mintedBy,\r\n        address currentOwner,\r\n        uint256 price,\r\n        string itemURL,\r\n        uint256 numberOfTransfers,\r\n        bool forSale\r\n    );\r\n\r\n    event ItemForSale(uint256 id, bool forSale);\r\n\r\n    event CollectionCreated(\r\n        uint256 tokenId,\r\n        string imageURL,\r\n        string name,\r\n        address ownedBy,\r\n        string description\r\n    );\r\n\r\n    // initialize contract while deployment with contract's collection name and token\r\n    constructor() ERC721(\"ArtFunds Collection\", \"CB\") {\r\n        collectionName = name();\r\n        collectionNameSymbol = symbol();\r\n        ARTFUNDS = address(uint256(0xb6dC743c59122F7b2F0734c6CBe04b2B7155B24e));\r\n    }\r\n\r\n    // mint a new digital item\r\n    function mintDigitalItem(\r\n        uint256 _collectionID,\r\n        string memory _name,\r\n        uint256 _price,\r\n        string memory _itemURL,\r\n        bool _forSale\r\n    ) external {\r\n        // check if thic fucntion caller is not an zero address account\r\n        require(msg.sender != address(0));\r\n        // increment counter\r\n        digitalItemCounter++;\r\n        // check if a token exists with the above token id => incremented counter\r\n        require(!_exists(digitalItemCounter));\r\n        // mint the token\r\n        _mint(msg.sender, digitalItemCounter);\r\n        // set token URL (bind token id with the passed in token URL)\r\n        _setTokenURI(digitalItemCounter, _itemURL);\r\n\r\n        DigitalItem memory newDigitalItem = DigitalItem(\r\n            digitalItemCounter,\r\n            _collectionID,\r\n            _name,\r\n            _price,\r\n            _itemURL,\r\n            // _tech,\r\n            // _material,\r\n            // _color,\r\n            // _field,\r\n            // _imageURL,\r\n            // _description,\r\n            msg.sender,\r\n            msg.sender,\r\n            0,\r\n            _forSale\r\n        );\r\n\r\n        listAllDigitalItem[digitalItemCounter] = newDigitalItem;\r\n        ownerDigitalItems[msg.sender].push(newDigitalItem);\r\n    }\r\n\r\n    function updateInfoBasicDigitalItem(\r\n        address _owner,\r\n        uint256 _tokenId,\r\n        uint256 _newCollectionID,\r\n        string memory _name,\r\n        uint256 _price,\r\n        string memory _itemURL,\r\n        uint256 _numberOfTransfers,\r\n        bool _forSale\r\n    ) public returns (bool success) {\r\n        require(_exists(_tokenId));\r\n        require(_exists(_newCollectionID));\r\n        address tokenOwner = ownerOf(_tokenId);\r\n        require(tokenOwner == _owner);\r\n        DigitalItem memory digitalItem = ownerDigitalItems[_owner][_tokenId];\r\n        digitalItem.itemURL = _itemURL;\r\n        digitalItem.name = _name;\r\n        digitalItem.price = _price;\r\n        digitalItem.forSale = _forSale;\r\n        digitalItem.collectionID = _newCollectionID;\r\n        digitalItem.numberOfTransfers = _numberOfTransfers;\r\n        ownerDigitalItems[_owner][_tokenId] = digitalItem;\r\n        return true;\r\n    }\r\n\r\n    function getDigitalItem(uint256 _itemID, address _owner)\r\n        public\r\n        view\r\n        returns (\r\n            DigitalItem memory\r\n        )\r\n    {\r\n        require(_owner != address(0x0));\r\n        require(collectionCounter >= 0);\r\n        require(ownerDigitalItems[_owner].length > 0);\r\n        DigitalItem memory digitalItem = ownerDigitalItems[_owner][_itemID];\r\n\r\n        return digitalItem;\r\n    }\r\n\r\n    function getDigitalItemCount(address _owner)\r\n        public\r\n        view\r\n        returns (uint256 count)\r\n    {\r\n        require(_owner != address(0x0));\r\n        return ownerDigitalItems[_owner].length;\r\n    }\r\n\r\n    //This function to create collection from address\r\n    function createCollection(\r\n        string memory _imageURL,\r\n        string memory _name,\r\n        string memory _description\r\n    ) public returns (bool success) {\r\n        collectionCounter++;\r\n        Collection memory collection = Collection(\r\n            collectionCounter,\r\n            _imageURL,\r\n            _name,\r\n            _description\r\n        );\r\n        ownerCollections[msg.sender].push(collection);\r\n\r\n        emit CollectionCreated(\r\n            collectionCounter,\r\n            _imageURL,\r\n            _name,\r\n            msg.sender,\r\n            _description\r\n        );\r\n        return true;\r\n    }\r\n\r\n    function getCollection(uint256 _tokenId, address _owner)\r\n        public\r\n        view\r\n        returns (\r\n            uint256 _id,\r\n            string memory _imageURL,\r\n            string memory _name,\r\n            string memory _description\r\n        )\r\n    {\r\n        Collection memory collection = ownerCollections[_owner][_tokenId];\r\n\r\n        return (\r\n            collection.tokenId,\r\n            collection.imageURL,\r\n            collection.name,\r\n            collection.description\r\n        );\r\n    }\r\n\r\n    // // function updateCollection(\r\n    // //     uint256 _tokenId,\r\n    // //     string memory _imageURL,\r\n    // //     string memory _name,\r\n    // //     string memory _description,\r\n    // //     address _owner\r\n    // // ) public returns (bool success) {\r\n    // //     require(_owner != address(0x0));\r\n    // //     require(_tokenId >= 0);\r\n    // //     require(ownerCollections[_owner].length > 0);\r\n    // //     Collection storage collection = ownerCollections[_owner][_tokenId];\r\n    // //     collection.imageURL = _imageURL;\r\n    // //     collection.name = _name;\r\n    // //     collection.description = _description;\r\n    // //     return true;\r\n    // // }\r\n\r\n    function getCollectionCount(address _owner)\r\n        public\r\n        view\r\n        returns (uint256 count)\r\n    {\r\n        return ownerCollections[_owner].length;\r\n    }\r\n\r\n    function getDigitalItemOwnerCount(address _owner)\r\n        public\r\n        view\r\n        returns (uint256 count)\r\n    {\r\n        return ownerDigitalItems[_owner].length;\r\n    }\r\n\r\n    // by a token by passing in the token's id\r\n    function buyItem(uint256 _tokenId) public payable returns (bool success) {\r\n        // check if the function caller is not an zero account address\r\n        require(msg.sender != address(0x0));\r\n        // check if the token id of the token being bought exists or not\r\n        require(_exists(_tokenId));\r\n        // get the token's owner\r\n        address tokenOwner = ownerOf(_tokenId);\r\n        // token's owner should not be an zero address account\r\n        require(tokenOwner != address(0));\r\n        // the one who wants to buy the token should not be the token's owner\r\n        require(tokenOwner != msg.sender);\r\n        // get that token from all crypto boys mapping and create a memory of it defined as (struct => digitalItem)\r\n        DigitalItem memory digitalItem = listAllDigitalItem[_tokenId];\r\n        // price sent in to buy should be equal to or more than the token's price\r\n        require(msg.value >= digitalItem.price);\r\n        // token should be for sale\r\n        require(digitalItem.forSale);\r\n        // transfer the token from owner to the caller of the function (buyer)\r\n        _transfer(tokenOwner, msg.sender, _tokenId);\r\n        // get owner of the token\r\n        address payable sendTo = digitalItem.currentOwner;\r\n        // get guy who mint this token\r\n        address payable sendToRoot = digitalItem.mintedBy;\r\n        // send token's worth of ethers to the owner\r\n        sendTo.transfer((msg.value * 95) / 100);\r\n        sendToRoot.transfer((msg.value * 3) / 100);\r\n        // send worth to marketplace\r\n        // ARTFUNDS.transfer((msg.value * 2) / 100);\r\n        // update the token's previous owner\r\n        // digitalItem.previousOwner = digitalItem.currentOwner;\r\n        // update the token's current owner\r\n        digitalItem.currentOwner = msg.sender;\r\n        // update the how many times this token was transfered\r\n        digitalItem.numberOfTransfers += 1;\r\n        // set and update that token in the mapping\r\n        listAllDigitalItem[_tokenId] = digitalItem;\r\n        // ownerDigitalItems[msg.sender].push(digitalItem);\r\n        return true;\r\n    }\r\n\r\n    function changeItemPrice(uint256 _tokenId, uint256 _newPrice)\r\n        public\r\n        returns (bool success)\r\n    {\r\n        // require caller of the function is not an empty address\r\n        require(msg.sender != address(0x0));\r\n        // require that token should exist\r\n        require(_exists(_tokenId));\r\n        // get the token's owner\r\n        address tokenOwner = ownerOf(_tokenId);\r\n        // check that token's owner should be equal to the caller of the function\r\n        require(tokenOwner == msg.sender);\r\n        // get that token from all crypto boys mapping and create a memory of it defined as (struct => digitalItem)\r\n        DigitalItem memory digitalItem = ownerDigitalItems[tokenOwner][\r\n            _tokenId\r\n        ];\r\n        // update token's price with new price\r\n        digitalItem.price = _newPrice;\r\n        // set and update that token in the mapping\r\n        ownerDigitalItems[tokenOwner][_tokenId] = digitalItem;\r\n        return true;\r\n    }\r\n\r\n    // switch between set for sale and set not for sale\r\n    // function toggleForSale(uint256 _tokenId) public returns (bool statusSale) {\r\n    //     // require caller of the function is not an empty address\r\n    //     require(msg.sender != address(0));\r\n    //     // require that token should exist\r\n    //     require(_exists(_tokenId));\r\n    //     // get the token's owner\r\n    //     address tokenOwner = ownerOf(_tokenId);\r\n    //     // check that token's owner should be equal to the caller of the function\r\n    //     require(tokenOwner == msg.sender);\r\n    //     // get that token from all crypto boys mapping and create a memory of it defined as (struct => digitalItem)\r\n    //     DigitalItem memory digitalItem = ownerDigitalItems[tokenOwner][\r\n    //         _tokenId\r\n    //     ];\r\n    //     // if token's forSale is false make it true and vice versa\r\n    //     if (digitalItem.forSale) {\r\n    //         digitalItem.forSale = false;\r\n    //     } else {\r\n    //         digitalItem.forSale = true;\r\n    //     }\r\n    //     // set and update that token in the mapping\r\n    //     ownerDigitalItems[tokenOwner][_tokenId] = digitalItem;\r\n    //     return digitalItem.forSale;\r\n    // }\r\n}\r\n",
  "sourcePath": "E:\\DSC\\DevFest\\ArtFunds\\ArtFunds_DevFest2021\\blockchain\\contracts\\ArtFundsStorage.sol",
  "compiler": {
    "name": "solc",
    "version": "0.7.6+commit.7338295f.Emscripten.clang"
  },
  "schemaVersion": "3.4.3",
  "updatedAt": "2021-10-29T15:00:27.176Z",
  "networkType": "ethereum",
  "devdoc": {
    "kind": "dev",
    "methods": {
      "approve(address,uint256)": {
        "details": "See {IERC721-approve}."
      },
      "balanceOf(address)": {
        "details": "See {IERC721-balanceOf}."
      },
      "baseURI()": {
        "details": "Returns the base URI set via {_setBaseURI}. This will be automatically added as a prefix in {tokenURI} to each token's URI, or to the token ID if no specific URI is set for that token ID."
      },
      "getApproved(uint256)": {
        "details": "See {IERC721-getApproved}."
      },
      "isApprovedForAll(address,address)": {
        "details": "See {IERC721-isApprovedForAll}."
      },
      "name()": {
        "details": "See {IERC721Metadata-name}."
      },
      "ownerOf(uint256)": {
        "details": "See {IERC721-ownerOf}."
      },
      "safeTransferFrom(address,address,uint256)": {
        "details": "See {IERC721-safeTransferFrom}."
      },
      "safeTransferFrom(address,address,uint256,bytes)": {
        "details": "See {IERC721-safeTransferFrom}."
      },
      "setApprovalForAll(address,bool)": {
        "details": "See {IERC721-setApprovalForAll}."
      },
      "supportsInterface(bytes4)": {
        "details": "See {IERC165-supportsInterface}. Time complexity O(1), guaranteed to always use less than 30 000 gas."
      },
      "symbol()": {
        "details": "See {IERC721Metadata-symbol}."
      },
      "tokenByIndex(uint256)": {
        "details": "See {IERC721Enumerable-tokenByIndex}."
      },
      "tokenOfOwnerByIndex(address,uint256)": {
        "details": "See {IERC721Enumerable-tokenOfOwnerByIndex}."
      },
      "tokenURI(uint256)": {
        "details": "See {IERC721Metadata-tokenURI}."
      },
      "totalSupply()": {
        "details": "See {IERC721Enumerable-totalSupply}."
      },
      "transferFrom(address,address,uint256)": {
        "details": "See {IERC721-transferFrom}."
      }
    },
    "version": 1
  },
  "userdoc": {
    "kind": "user",
    "methods": {},
    "version": 1
  }
}