{
  "contractName": "ArtFundsStorage",
  "abi": [
    {
      "inputs": [],
      "stateMutability": "nonpayable",
      "type": "constructor"
    },
    {
      "anonymous": false,
      "inputs": [
        {
          "indexed": true,
          "internalType": "address",
          "name": "owner",
          "type": "address"
        },
        {
          "indexed": true,
          "internalType": "address",
          "name": "approved",
          "type": "address"
        },
        {
          "indexed": true,
          "internalType": "uint256",
          "name": "tokenId",
          "type": "uint256"
        }
      ],
      "name": "Approval",
      "type": "event"
    },
    {
      "anonymous": false,
      "inputs": [
        {
          "indexed": true,
          "internalType": "address",
          "name": "owner",
          "type": "address"
        },
        {
          "indexed": true,
          "internalType": "address",
          "name": "operator",
          "type": "address"
        },
        {
          "indexed": false,
          "internalType": "bool",
          "name": "approved",
          "type": "bool"
        }
      ],
      "name": "ApprovalForAll",
      "type": "event"
    },
    {
      "anonymous": false,
      "inputs": [
        {
          "indexed": false,
          "internalType": "uint256",
          "name": "tokenId",
          "type": "uint256"
        },
        {
          "indexed": false,
          "internalType": "string",
          "name": "imageURL",
          "type": "string"
        },
        {
          "indexed": false,
          "internalType": "string",
          "name": "name",
          "type": "string"
        },
        {
          "indexed": false,
          "internalType": "address",
          "name": "ownedBy",
          "type": "address"
        },
        {
          "indexed": false,
          "internalType": "string",
          "name": "description",
          "type": "string"
        }
      ],
      "name": "CollectionCreated",
      "type": "event"
    },
    {
      "anonymous": false,
      "inputs": [
        {
          "indexed": false,
          "internalType": "uint256",
          "name": "id",
          "type": "uint256"
        },
        {
          "indexed": false,
          "internalType": "uint256",
          "name": "belongByColID",
          "type": "uint256"
        },
        {
          "indexed": false,
          "internalType": "string",
          "name": "name",
          "type": "string"
        },
        {
          "indexed": false,
          "internalType": "address",
          "name": "mintedBy",
          "type": "address"
        },
        {
          "indexed": false,
          "internalType": "address",
          "name": "currentOwner",
          "type": "address"
        },
        {
          "indexed": false,
          "internalType": "address",
          "name": "previousOwner",
          "type": "address"
        },
        {
          "indexed": false,
          "internalType": "uint256",
          "name": "price",
          "type": "uint256"
        },
        {
          "indexed": false,
          "internalType": "string",
          "name": "imageURL",
          "type": "string"
        },
        {
          "indexed": false,
          "internalType": "uint256",
          "name": "numberOfTransfers",
          "type": "uint256"
        },
        {
          "indexed": false,
          "internalType": "bool",
          "name": "forSale",
          "type": "bool"
        }
      ],
      "name": "ItemCreated",
      "type": "event"
    },
    {
      "anonymous": false,
      "inputs": [
        {
          "indexed": false,
          "internalType": "uint256",
          "name": "id",
          "type": "uint256"
        },
        {
          "indexed": false,
          "internalType": "bool",
          "name": "forSale",
          "type": "bool"
        }
      ],
      "name": "ItemForSale",
      "type": "event"
    },
    {
      "anonymous": false,
      "inputs": [
        {
          "indexed": true,
          "internalType": "address",
          "name": "from",
          "type": "address"
        },
        {
          "indexed": true,
          "internalType": "address",
          "name": "to",
          "type": "address"
        },
        {
          "indexed": true,
          "internalType": "uint256",
          "name": "tokenId",
          "type": "uint256"
        }
      ],
      "name": "Transfer",
      "type": "event"
    },
    {
      "inputs": [
        {
          "internalType": "address",
          "name": "to",
          "type": "address"
        },
        {
          "internalType": "uint256",
          "name": "tokenId",
          "type": "uint256"
        }
      ],
      "name": "approve",
      "outputs": [],
      "stateMutability": "nonpayable",
      "type": "function"
    },
    {
      "inputs": [
        {
          "internalType": "address",
          "name": "owner",
          "type": "address"
        }
      ],
      "name": "balanceOf",
      "outputs": [
        {
          "internalType": "uint256",
          "name": "",
          "type": "uint256"
        }
      ],
      "stateMutability": "view",
      "type": "function",
      "constant": true
    },
    {
      "inputs": [],
      "name": "baseURI",
      "outputs": [
        {
          "internalType": "string",
          "name": "",
          "type": "string"
        }
      ],
      "stateMutability": "view",
      "type": "function",
      "constant": true
    },
    {
      "inputs": [],
      "name": "collectionCounter",
      "outputs": [
        {
          "internalType": "uint256",
          "name": "",
          "type": "uint256"
        }
      ],
      "stateMutability": "view",
      "type": "function",
      "constant": true
    },
    {
      "inputs": [],
      "name": "collectionName",
      "outputs": [
        {
          "internalType": "string",
          "name": "",
          "type": "string"
        }
      ],
      "stateMutability": "view",
      "type": "function",
      "constant": true
    },
    {
      "inputs": [],
      "name": "collectionNameSymbol",
      "outputs": [
        {
          "internalType": "string",
          "name": "",
          "type": "string"
        }
      ],
      "stateMutability": "view",
      "type": "function",
      "constant": true
    },
    {
      "inputs": [
        {
          "internalType": "uint256",
          "name": "tokenId",
          "type": "uint256"
        }
      ],
      "name": "getApproved",
      "outputs": [
        {
          "internalType": "address",
          "name": "",
          "type": "address"
        }
      ],
      "stateMutability": "view",
      "type": "function",
      "constant": true
    },
    {
      "inputs": [
        {
          "internalType": "address",
          "name": "owner",
          "type": "address"
        },
        {
          "internalType": "address",
          "name": "operator",
          "type": "address"
        }
      ],
      "name": "isApprovedForAll",
      "outputs": [
        {
          "internalType": "bool",
          "name": "",
          "type": "bool"
        }
      ],
      "stateMutability": "view",
      "type": "function",
      "constant": true
    },
    {
      "inputs": [],
      "name": "name",
      "outputs": [
        {
          "internalType": "string",
          "name": "",
          "type": "string"
        }
      ],
      "stateMutability": "view",
      "type": "function",
      "constant": true
    },
    {
      "inputs": [
        {
          "internalType": "address",
          "name": "",
          "type": "address"
        },
        {
          "internalType": "uint256",
          "name": "",
          "type": "uint256"
        }
      ],
      "name": "ownerCollections",
      "outputs": [
        {
          "internalType": "uint256",
          "name": "tokenId",
          "type": "uint256"
        },
        {
          "internalType": "string",
          "name": "imageURL",
          "type": "string"
        },
        {
          "internalType": "string",
          "name": "name",
          "type": "string"
        },
        {
          "internalType": "string",
          "name": "description",
          "type": "string"
        }
      ],
      "stateMutability": "view",
      "type": "function",
      "constant": true
    },
    {
      "inputs": [
        {
          "internalType": "address",
          "name": "",
          "type": "address"
        },
        {
          "internalType": "uint256",
          "name": "",
          "type": "uint256"
        }
      ],
      "name": "ownerDigitalItems",
      "outputs": [
        {
          "internalType": "uint256",
          "name": "tokenId",
          "type": "uint256"
        },
        {
          "internalType": "uint256",
          "name": "belongByColID",
          "type": "uint256"
        },
        {
          "internalType": "string",
          "name": "name",
          "type": "string"
        },
        {
          "internalType": "address payable",
          "name": "mintedBy",
          "type": "address"
        },
        {
          "internalType": "address payable",
          "name": "currentOwner",
          "type": "address"
        },
        {
          "internalType": "address payable",
          "name": "previousOwner",
          "type": "address"
        },
        {
          "internalType": "uint256",
          "name": "price",
          "type": "uint256"
        },
        {
          "internalType": "string",
          "name": "imageURL",
          "type": "string"
        },
        {
          "internalType": "uint256",
          "name": "numberOfTransfers",
          "type": "uint256"
        },
        {
          "internalType": "bool",
          "name": "forSale",
          "type": "bool"
        }
      ],
      "stateMutability": "view",
      "type": "function",
      "constant": true
    },
    {
      "inputs": [
        {
          "internalType": "uint256",
          "name": "tokenId",
          "type": "uint256"
        }
      ],
      "name": "ownerOf",
      "outputs": [
        {
          "internalType": "address",
          "name": "",
          "type": "address"
        }
      ],
      "stateMutability": "view",
      "type": "function",
      "constant": true
    },
    {
      "inputs": [
        {
          "internalType": "address",
          "name": "from",
          "type": "address"
        },
        {
          "internalType": "address",
          "name": "to",
          "type": "address"
        },
        {
          "internalType": "uint256",
          "name": "tokenId",
          "type": "uint256"
        }
      ],
      "name": "safeTransferFrom",
      "outputs": [],
      "stateMutability": "nonpayable",
      "type": "function"
    },
    {
      "inputs": [
        {
          "internalType": "address",
          "name": "from",
          "type": "address"
        },
        {
          "internalType": "address",
          "name": "to",
          "type": "address"
        },
        {
          "internalType": "uint256",
          "name": "tokenId",
          "type": "uint256"
        },
        {
          "internalType": "bytes",
          "name": "_data",
          "type": "bytes"
        }
      ],
      "name": "safeTransferFrom",
      "outputs": [],
      "stateMutability": "nonpayable",
      "type": "function"
    },
    {
      "inputs": [
        {
          "internalType": "address",
          "name": "operator",
          "type": "address"
        },
        {
          "internalType": "bool",
          "name": "approved",
          "type": "bool"
        }
      ],
      "name": "setApprovalForAll",
      "outputs": [],
      "stateMutability": "nonpayable",
      "type": "function"
    },
    {
      "inputs": [
        {
          "internalType": "bytes4",
          "name": "interfaceId",
          "type": "bytes4"
        }
      ],
      "name": "supportsInterface",
      "outputs": [
        {
          "internalType": "bool",
          "name": "",
          "type": "bool"
        }
      ],
      "stateMutability": "view",
      "type": "function",
      "constant": true
    },
    {
      "inputs": [],
      "name": "symbol",
      "outputs": [
        {
          "internalType": "string",
          "name": "",
          "type": "string"
        }
      ],
      "stateMutability": "view",
      "type": "function",
      "constant": true
    },
    {
      "inputs": [
        {
          "internalType": "uint256",
          "name": "index",
          "type": "uint256"
        }
      ],
      "name": "tokenByIndex",
      "outputs": [
        {
          "internalType": "uint256",
          "name": "",
          "type": "uint256"
        }
      ],
      "stateMutability": "view",
      "type": "function",
      "constant": true
    },
    {
      "inputs": [
        {
          "internalType": "address",
          "name": "owner",
          "type": "address"
        },
        {
          "internalType": "uint256",
          "name": "index",
          "type": "uint256"
        }
      ],
      "name": "tokenOfOwnerByIndex",
      "outputs": [
        {
          "internalType": "uint256",
          "name": "",
          "type": "uint256"
        }
      ],
      "stateMutability": "view",
      "type": "function",
      "constant": true
    },
    {
      "inputs": [
        {
          "internalType": "uint256",
          "name": "tokenId",
          "type": "uint256"
        }
      ],
      "name": "tokenURI",
      "outputs": [
        {
          "internalType": "string",
          "name": "",
          "type": "string"
        }
      ],
      "stateMutability": "view",
      "type": "function",
      "constant": true
    },
    {
      "inputs": [],
      "name": "totalSupply",
      "outputs": [
        {
          "internalType": "uint256",
          "name": "",
          "type": "uint256"
        }
      ],
      "stateMutability": "view",
      "type": "function",
      "constant": true
    },
    {
      "inputs": [
        {
          "internalType": "address",
          "name": "from",
          "type": "address"
        },
        {
          "internalType": "address",
          "name": "to",
          "type": "address"
        },
        {
          "internalType": "uint256",
          "name": "tokenId",
          "type": "uint256"
        }
      ],
      "name": "transferFrom",
      "outputs": [],
      "stateMutability": "nonpayable",
      "type": "function"
    },
    {
      "inputs": [
        {
          "internalType": "uint256",
          "name": "belongByColID",
          "type": "uint256"
        },
        {
          "internalType": "string",
          "name": "_name",
          "type": "string"
        },
        {
          "internalType": "uint256",
          "name": "_price",
          "type": "uint256"
        },
        {
          "internalType": "string",
          "name": "_imageURL",
          "type": "string"
        },
        {
          "internalType": "uint256",
          "name": "_numberOfTransfers",
          "type": "uint256"
        },
        {
          "internalType": "bool",
          "name": "_forSale",
          "type": "bool"
        }
      ],
      "name": "mintDigitalItem",
      "outputs": [
        {
          "internalType": "bool",
          "name": "success",
          "type": "bool"
        }
      ],
      "stateMutability": "nonpayable",
      "type": "function"
    },
    {
      "inputs": [
        {
          "internalType": "address",
          "name": "_owner",
          "type": "address"
        }
      ],
      "name": "getDigitalItemCount",
      "outputs": [
        {
          "internalType": "uint256",
          "name": "count",
          "type": "uint256"
        }
      ],
      "stateMutability": "view",
      "type": "function",
      "constant": true
    },
    {
      "inputs": [
        {
          "internalType": "string",
          "name": "_imageURL",
          "type": "string"
        },
        {
          "internalType": "string",
          "name": "_name",
          "type": "string"
        },
        {
          "internalType": "string",
          "name": "_description",
          "type": "string"
        }
      ],
      "name": "createCollection",
      "outputs": [
        {
          "internalType": "bool",
          "name": "success",
          "type": "bool"
        }
      ],
      "stateMutability": "nonpayable",
      "type": "function"
    },
    {
      "inputs": [
        {
          "internalType": "uint256",
          "name": "_tokenId",
          "type": "uint256"
        },
        {
          "internalType": "address",
          "name": "_owner",
          "type": "address"
        }
      ],
      "name": "getCollection",
      "outputs": [
        {
          "internalType": "string",
          "name": "_imageURL",
          "type": "string"
        },
        {
          "internalType": "string",
          "name": "_name",
          "type": "string"
        },
        {
          "internalType": "string",
          "name": "_description",
          "type": "string"
        }
      ],
      "stateMutability": "view",
      "type": "function",
      "constant": true
    },
    {
      "inputs": [
        {
          "internalType": "uint256",
          "name": "_tokenId",
          "type": "uint256"
        },
        {
          "internalType": "string",
          "name": "_imageURL",
          "type": "string"
        },
        {
          "internalType": "string",
          "name": "_name",
          "type": "string"
        },
        {
          "internalType": "string",
          "name": "_description",
          "type": "string"
        },
        {
          "internalType": "address",
          "name": "_owner",
          "type": "address"
        }
      ],
      "name": "updateCollection",
      "outputs": [
        {
          "internalType": "bool",
          "name": "success",
          "type": "bool"
        }
      ],
      "stateMutability": "nonpayable",
      "type": "function"
    },
    {
      "inputs": [
        {
          "internalType": "address",
          "name": "_owner",
          "type": "address"
        }
      ],
      "name": "getCollectionCount",
      "outputs": [
        {
          "internalType": "uint256",
          "name": "count",
          "type": "uint256"
        }
      ],
      "stateMutability": "view",
      "type": "function",
      "constant": true
    }
  ],
  "bytecode": "0x60806040526000600c556000600e553480156200001b57600080fd5b506040518060400160405280601381526020017f41727446756e647320436f6c6c656374696f6e000000000000000000000000008152506040518060400160405280600281526020017f4342000000000000000000000000000000000000000000000000000000000000815250620000a06301ffc9a760e01b6200017260201b60201c565b8160069080519060200190620000b8929190620003c7565b508060079080519060200190620000d1929190620003c7565b50620000ea6380ac58cd60e01b6200017260201b60201c565b62000102635b5e139f60e01b6200017260201b60201c565b6200011a63780e9d6360e01b6200017260201b60201c565b50506200012c6200027b60201b60201c565b600a908051906020019062000143929190620003c7565b50620001546200032160201b60201c565b600b90805190602001906200016b929190620003c7565b506200047d565b63ffffffff60e01b817bffffffffffffffffffffffffffffffffffffffffffffffffffffffff191614156200020f576040517f08c379a000000000000000000000000000000000000000000000000000000000815260040180806020018281038252601c8152602001807f4552433136353a20696e76616c696420696e746572666163652069640000000081525060200191505060405180910390fd5b6001600080837bffffffffffffffffffffffffffffffffffffffffffffffffffffffff19167bffffffffffffffffffffffffffffffffffffffffffffffffffffffff1916815260200190815260200160002060006101000a81548160ff02191690831515021790555050565b606060068054600181600116156101000203166002900480601f016020809104026020016040519081016040528092919081815260200182805460018160011615610100020316600290048015620003175780601f10620002eb5761010080835404028352916020019162000317565b820191906000526020600020905b815481529060010190602001808311620002f957829003601f168201915b5050505050905090565b606060078054600181600116156101000203166002900480601f016020809104026020016040519081016040528092919081815260200182805460018160011615610100020316600290048015620003bd5780601f106200039157610100808354040283529160200191620003bd565b820191906000526020600020905b8154815290600101906020018083116200039f57829003601f168201915b5050505050905090565b828054600181600116156101000203166002900490600052602060002090601f016020900481019282620003ff57600085556200044b565b82601f106200041a57805160ff19168380011785556200044b565b828001600101855582156200044b579182015b828111156200044a5782518255916020019190600101906200042d565b5b5090506200045a91906200045e565b5090565b5b80821115620004795760008160009055506001016200045f565b5090565b614241806200048d6000396000f3fe608060405234801561001057600080fd5b50600436106101c45760003560e01c806354515bb6116100f9578063b88d4fde11610097578063e5326ab111610071578063e5326ab114610587578063e5e4d79c146105a5578063e985e9c5146105d5578063ece86c2114610605576101c4565b8063b88d4fde14610502578063c87b56dd1461051e578063d5f45a7d1461054e576101c4565b80636f9507f9116100d35780636f9507f91461047a57806370a082311461049857806395d89b41146104c8578063a22cb465146104e6576101c4565b806354515bb6146103fc5780636352211e1461042c5780636c0360eb1461045c576101c4565b8063200493181161016657806339b5f8301161014057806339b5f8301461035f57806342842e0e146103925780634f6ccce7146103ae5780635187a82d146103de576101c4565b806320049318146102e357806323b872dd146103135780632f745c591461032f576101c4565b806307a5b578116101a257806307a5b57814610249578063081812fc14610279578063095ea7b3146102a957806318160ddd146102c5576101c4565b806301188b3f146101c957806301ffc9a7146101fb57806306fdde031461022b575b600080fd5b6101e360048036038101906101de9190613941565b610635565b6040516101f293929190613bd1565b60405180910390f35b61021560048036038101906102109190613858565b610945565b6040516102229190613b94565b60405180910390f35b6102336109ac565b6040516102409190613baf565b60405180910390f35b610263600480360381019061025e91906136b1565b610a4e565b6040516102709190613c1d565b60405180910390f35b610293600480360381019061028e9190613918565b610ad3565b6040516102a09190613b79565b60405180910390f35b6102c360048036038101906102be919061381c565b610b6e565b005b6102cd610cb2565b6040516102da9190613c1d565b60405180910390f35b6102fd60048036038101906102f89190613a3c565b610cc3565b60405161030a9190613b94565b60405180910390f35b61032d60048036038101906103289190613716565b610f96565b005b6103496004803603810190610344919061381c565b61100c565b6040516103569190613c1d565b60405180910390f35b6103796004803603810190610374919061381c565b611067565b6040516103899493929190613ca0565b60405180910390f35b6103ac60048036038101906103a79190613716565b61127c565b005b6103c860048036038101906103c39190613918565b61129c565b6040516103d59190613c1d565b60405180910390f35b6103e66112bf565b6040516103f39190613c1d565b60405180910390f35b610416600480360381019061041191906136b1565b6112c5565b6040516104239190613c1d565b60405180910390f35b61044660048036038101906104419190613918565b61130a565b6040516104539190613b79565b60405180910390f35b610464611341565b6040516104719190613baf565b60405180910390f35b6104826113e3565b60405161048f9190613baf565b60405180910390f35b6104b260048036038101906104ad91906136b1565b611481565b6040516104bf9190613c1d565b60405180910390f35b6104d0611556565b6040516104dd9190613baf565b60405180910390f35b61050060048036038101906104fb91906137e0565b6115f8565b005b61051c60048036038101906105179190613765565b6117ae565b005b61053860048036038101906105339190613918565b611826565b6040516105459190613baf565b60405180910390f35b6105686004803603810190610563919061381c565b611af7565b60405161057e9a99989796959493929190613cfa565b60405180910390f35b61058f611d05565b60405161059c9190613baf565b60405180910390f35b6105bf60048036038101906105ba919061397d565b611da3565b6040516105cc9190613b94565b60405180910390f35b6105ef60048036038101906105ea91906136da565b6120bb565b6040516105fc9190613b94565b60405180910390f35b61061f600480360381019061061a9190613881565b61214f565b60405161062c9190613b94565b60405180910390f35b6060806060600073ffffffffffffffffffffffffffffffffffffffff168473ffffffffffffffffffffffffffffffffffffffff16141561067457600080fd5b600085101561068257600080fd5b6000600d60008673ffffffffffffffffffffffffffffffffffffffff1673ffffffffffffffffffffffffffffffffffffffff16815260200190815260200160002080549050116106d157600080fd5b6000600d60008673ffffffffffffffffffffffffffffffffffffffff1673ffffffffffffffffffffffffffffffffffffffff168152602001908152602001600020868154811061071d57fe5b906000526020600020906004020160405180608001604052908160008201548152602001600182018054600181600116156101000203166002900480601f0160208091040260200160405190810160405280929190818152602001828054600181600116156101000203166002900480156107d95780601f106107ae576101008083540402835291602001916107d9565b820191906000526020600020905b8154815290600101906020018083116107bc57829003601f168201915b50505050508152602001600282018054600181600116156101000203166002900480601f01602080910402602001604051908101604052809291908181526020018280546001816001161561010002031660029004801561087b5780601f106108505761010080835404028352916020019161087b565b820191906000526020600020905b81548152906001019060200180831161085e57829003601f168201915b50505050508152602001600382018054600181600116156101000203166002900480601f01602080910402602001604051908101604052809291908181526020018280546001816001161561010002031660029004801561091d5780601f106108f25761010080835404028352916020019161091d565b820191906000526020600020905b81548152906001019060200180831161090057829003601f168201915b5050505050815250509050806020015181604001518260600151935093509350509250925092565b6000806000837bffffffffffffffffffffffffffffffffffffffffffffffffffffffff19167bffffffffffffffffffffffffffffffffffffffffffffffffffffffff1916815260200190815260200160002060009054906101000a900460ff169050919050565b606060068054600181600116156101000203166002900480601f016020809104026020016040519081016040528092919081815260200182805460018160011615610100020316600290048015610a445780601f10610a1957610100808354040283529160200191610a44565b820191906000526020600020905b815481529060010190602001808311610a2757829003601f168201915b5050505050905090565b60008073ffffffffffffffffffffffffffffffffffffffff168273ffffffffffffffffffffffffffffffffffffffff161415610a8957600080fd5b600f60008373ffffffffffffffffffffffffffffffffffffffff1673ffffffffffffffffffffffffffffffffffffffff168152602001908152602001600020805490509050919050565b6000610ade826122a3565b610b33576040517f08c379a000000000000000000000000000000000000000000000000000000000815260040180806020018281038252602c815260200180614136602c913960400191505060405180910390fd5b6004600083815260200190815260200160002060009054906101000a900473ffffffffffffffffffffffffffffffffffffffff169050919050565b6000610b798261130a565b90508073ffffffffffffffffffffffffffffffffffffffff168373ffffffffffffffffffffffffffffffffffffffff161415610c00576040517f08c379a00000000000000000000000000000000000000000000000000000000081526004018080602001828103825260218152602001806141ba6021913960400191505060405180910390fd5b8073ffffffffffffffffffffffffffffffffffffffff16610c1f6122c0565b73ffffffffffffffffffffffffffffffffffffffff161480610c4e5750610c4d81610c486122c0565b6120bb565b5b610ca3576040517f08c379a00000000000000000000000000000000000000000000000000000000081526004018080602001828103825260388152602001806140896038913960400191505060405180910390fd5b610cad83836122c8565b505050565b6000610cbe6002612381565b905090565b60008073ffffffffffffffffffffffffffffffffffffffff163373ffffffffffffffffffffffffffffffffffffffff161415610cfe57600080fd5b600e60008154809291906001019190505550610d1b600e546122a3565b15610d2557600080fd5b610d3133600e54612396565b6000604051806101400160405280600e5481526020018981526020018881526020013373ffffffffffffffffffffffffffffffffffffffff1681526020013373ffffffffffffffffffffffffffffffffffffffff1681526020013373ffffffffffffffffffffffffffffffffffffffff16815260200187815260200186815260200160008152602001600115158152509050600f60003373ffffffffffffffffffffffffffffffffffffffff1673ffffffffffffffffffffffffffffffffffffffff1681526020019081526020016000208190806001815401808255809150506001900390600052602060002090600a020160009091909190915060008201518160000155602082015181600101556040820151816002019080519060200190610e5c9291906134e2565b5060608201518160030160006101000a81548173ffffffffffffffffffffffffffffffffffffffff021916908373ffffffffffffffffffffffffffffffffffffffff16021790555060808201518160040160006101000a81548173ffffffffffffffffffffffffffffffffffffffff021916908373ffffffffffffffffffffffffffffffffffffffff16021790555060a08201518160050160006101000a81548173ffffffffffffffffffffffffffffffffffffffff021916908373ffffffffffffffffffffffffffffffffffffffff16021790555060c0820151816006015560e0820151816007019080519060200190610f589291906134e2565b5061010082015181600801556101208201518160090160006101000a81548160ff021916908315150217905550505060019150509695505050505050565b610fa7610fa16122c0565b8261258a565b610ffc576040517f08c379a00000000000000000000000000000000000000000000000000000000081526004018080602001828103825260318152602001806141db6031913960400191505060405180910390fd5b61100783838361267e565b505050565b600061105f82600160008673ffffffffffffffffffffffffffffffffffffffff1673ffffffffffffffffffffffffffffffffffffffff1681526020019081526020016000206128c190919063ffffffff16565b905092915050565b600d602052816000526040600020818154811061108357600080fd5b906000526020600020906004020160009150915050806000015490806001018054600181600116156101000203166002900480601f0160208091040260200160405190810160405280929190818152602001828054600181600116156101000203166002900480156111365780601f1061110b57610100808354040283529160200191611136565b820191906000526020600020905b81548152906001019060200180831161111957829003601f168201915b505050505090806002018054600181600116156101000203166002900480601f0160208091040260200160405190810160405280929190818152602001828054600181600116156101000203166002900480156111d45780601f106111a9576101008083540402835291602001916111d4565b820191906000526020600020905b8154815290600101906020018083116111b757829003601f168201915b505050505090806003018054600181600116156101000203166002900480601f0160208091040260200160405190810160405280929190818152602001828054600181600116156101000203166002900480156112725780601f1061124757610100808354040283529160200191611272565b820191906000526020600020905b81548152906001019060200180831161125557829003601f168201915b5050505050905084565b611297838383604051806020016040528060008152506117ae565b505050565b6000806112b38360026128db90919063ffffffff16565b50905080915050919050565b600c5481565b60008073ffffffffffffffffffffffffffffffffffffffff168273ffffffffffffffffffffffffffffffffffffffff16141561130057600080fd5b600c549050919050565b600061133a826040518060600160405280602981526020016140eb6029913960026129079092919063ffffffff16565b9050919050565b606060098054600181600116156101000203166002900480601f0160208091040260200160405190810160405280929190818152602001828054600181600116156101000203166002900480156113d95780601f106113ae576101008083540402835291602001916113d9565b820191906000526020600020905b8154815290600101906020018083116113bc57829003601f168201915b5050505050905090565b600b8054600181600116156101000203166002900480601f0160208091040260200160405190810160405280929190818152602001828054600181600116156101000203166002900480156114795780601f1061144e57610100808354040283529160200191611479565b820191906000526020600020905b81548152906001019060200180831161145c57829003601f168201915b505050505081565b60008073ffffffffffffffffffffffffffffffffffffffff168273ffffffffffffffffffffffffffffffffffffffff161415611508576040517f08c379a000000000000000000000000000000000000000000000000000000000815260040180806020018281038252602a8152602001806140c1602a913960400191505060405180910390fd5b61154f600160008473ffffffffffffffffffffffffffffffffffffffff1673ffffffffffffffffffffffffffffffffffffffff168152602001908152602001600020612926565b9050919050565b606060078054600181600116156101000203166002900480601f0160208091040260200160405190810160405280929190818152602001828054600181600116156101000203166002900480156115ee5780601f106115c3576101008083540402835291602001916115ee565b820191906000526020600020905b8154815290600101906020018083116115d157829003601f168201915b5050505050905090565b6116006122c0565b73ffffffffffffffffffffffffffffffffffffffff168273ffffffffffffffffffffffffffffffffffffffff1614156116a1576040517f08c379a00000000000000000000000000000000000000000000000000000000081526004018080602001828103825260198152602001807f4552433732313a20617070726f766520746f2063616c6c65720000000000000081525060200191505060405180910390fd5b80600560006116ae6122c0565b73ffffffffffffffffffffffffffffffffffffffff1673ffffffffffffffffffffffffffffffffffffffff16815260200190815260200160002060008473ffffffffffffffffffffffffffffffffffffffff1673ffffffffffffffffffffffffffffffffffffffff16815260200190815260200160002060006101000a81548160ff0219169083151502179055508173ffffffffffffffffffffffffffffffffffffffff1661175b6122c0565b73ffffffffffffffffffffffffffffffffffffffff167f17307eab39ab6107e8899845ad3d59bd9653f200f220920489ca2b5937696c318360405180821515815260200191505060405180910390a35050565b6117bf6117b96122c0565b8361258a565b611814576040517f08c379a00000000000000000000000000000000000000000000000000000000081526004018080602001828103825260318152602001806141db6031913960400191505060405180910390fd5b6118208484848461293b565b50505050565b6060611831826122a3565b611886576040517f08c379a000000000000000000000000000000000000000000000000000000000815260040180806020018281038252602f81526020018061418b602f913960400191505060405180910390fd5b6000600860008481526020019081526020016000208054600181600116156101000203166002900480601f01602080910402602001604051908101604052809291908181526020018280546001816001161561010002031660029004801561192f5780601f106119045761010080835404028352916020019161192f565b820191906000526020600020905b81548152906001019060200180831161191257829003601f168201915b505050505090506000611940611341565b9050600081511415611956578192505050611af2565b600082511115611a275780826040516020018083805190602001908083835b602083106119985780518252602082019150602081019050602083039250611975565b6001836020036101000a03801982511681845116808217855250505050505090500182805190602001908083835b602083106119e957805182526020820191506020810190506020830392506119c6565b6001836020036101000a0380198251168184511680821785525050505050509050019250505060405160208183030381529060405292505050611af2565b80611a31856129ad565b6040516020018083805190602001908083835b60208310611a675780518252602082019150602081019050602083039250611a44565b6001836020036101000a03801982511681845116808217855250505050505090500182805190602001908083835b60208310611ab85780518252602082019150602081019050602083039250611a95565b6001836020036101000a03801982511681845116808217855250505050505090500192505050604051602081830303815290604052925050505b919050565b600f6020528160005260406000208181548110611b1357600080fd5b90600052602060002090600a020160009150915050806000015490806001015490806002018054600181600116156101000203166002900480601f016020809104026020016040519081016040528092919081815260200182805460018160011615610100020316600290048015611bcc5780601f10611ba157610100808354040283529160200191611bcc565b820191906000526020600020905b815481529060010190602001808311611baf57829003601f168201915b5050505050908060030160009054906101000a900473ffffffffffffffffffffffffffffffffffffffff16908060040160009054906101000a900473ffffffffffffffffffffffffffffffffffffffff16908060050160009054906101000a900473ffffffffffffffffffffffffffffffffffffffff1690806006015490806007018054600181600116156101000203166002900480601f016020809104026020016040519081016040528092919081815260200182805460018160011615610100020316600290048015611ce25780601f10611cb757610100808354040283529160200191611ce2565b820191906000526020600020905b815481529060010190602001808311611cc557829003601f168201915b5050505050908060080154908060090160009054906101000a900460ff1690508a565b600a8054600181600116156101000203166002900480601f016020809104026020016040519081016040528092919081815260200182805460018160011615610100020316600290048015611d9b5780601f10611d7057610100808354040283529160200191611d9b565b820191906000526020600020905b815481529060010190602001808311611d7e57829003601f168201915b505050505081565b60008073ffffffffffffffffffffffffffffffffffffffff168273ffffffffffffffffffffffffffffffffffffffff161415611dde57600080fd5b6000861015611dec57600080fd5b6000600d60008473ffffffffffffffffffffffffffffffffffffffff1673ffffffffffffffffffffffffffffffffffffffff1681526020019081526020016000208054905011611e3b57600080fd5b6000600d60008473ffffffffffffffffffffffffffffffffffffffff1673ffffffffffffffffffffffffffffffffffffffff1681526020019081526020016000208781548110611e8757fe5b906000526020600020906004020160405180608001604052908160008201548152602001600182018054600181600116156101000203166002900480601f016020809104026020016040519081016040528092919081815260200182805460018160011615610100020316600290048015611f435780601f10611f1857610100808354040283529160200191611f43565b820191906000526020600020905b815481529060010190602001808311611f2657829003601f168201915b50505050508152602001600282018054600181600116156101000203166002900480601f016020809104026020016040519081016040528092919081815260200182805460018160011615610100020316600290048015611fe55780601f10611fba57610100808354040283529160200191611fe5565b820191906000526020600020905b815481529060010190602001808311611fc857829003601f168201915b50505050508152602001600382018054600181600116156101000203166002900480601f0160208091040260200160405190810160405280929190818152602001828054600181600116156101000203166002900480156120875780601f1061205c57610100808354040283529160200191612087565b820191906000526020600020905b81548152906001019060200180831161206a57829003601f168201915b5050505050815250509050858160200181905250848160400181905250838160600181905250600191505095945050505050565b6000600560008473ffffffffffffffffffffffffffffffffffffffff1673ffffffffffffffffffffffffffffffffffffffff16815260200190815260200160002060008373ffffffffffffffffffffffffffffffffffffffff1673ffffffffffffffffffffffffffffffffffffffff16815260200190815260200160002060009054906101000a900460ff16905092915050565b6000600c6000815480929190600101919050555060006040518060800160405280600c548152602001868152602001858152602001848152509050600d60003373ffffffffffffffffffffffffffffffffffffffff1673ffffffffffffffffffffffffffffffffffffffff1681526020019081526020016000208190806001815401808255809150506001900390600052602060002090600402016000909190919091506000820151816000015560208201518160010190805190602001906122199291906134e2565b5060408201518160020190805190602001906122369291906134e2565b5060608201518160030190805190602001906122539291906134e2565b5050507fefbd145fea57de09a0db3eea45c2b6b13a53246bff3d28eaf26c5b4b1ece83f8600c548686338760405161228f959493929190613c38565b60405180910390a160019150509392505050565b60006122b9826002612af490919063ffffffff16565b9050919050565b600033905090565b816004600083815260200190815260200160002060006101000a81548173ffffffffffffffffffffffffffffffffffffffff021916908373ffffffffffffffffffffffffffffffffffffffff160217905550808273ffffffffffffffffffffffffffffffffffffffff1661233b8361130a565b73ffffffffffffffffffffffffffffffffffffffff167f8c5be1e5ebec7d5bd14f71427d1e84f3dd0314c0f7b2291e5b200ac8c7c3b92560405160405180910390a45050565b600061238f82600001612b0e565b9050919050565b600073ffffffffffffffffffffffffffffffffffffffff168273ffffffffffffffffffffffffffffffffffffffff161415612439576040517f08c379a00000000000000000000000000000000000000000000000000000000081526004018080602001828103825260208152602001807f4552433732313a206d696e7420746f20746865207a65726f206164647265737381525060200191505060405180910390fd5b612442816122a3565b156124b5576040517f08c379a000000000000000000000000000000000000000000000000000000000815260040180806020018281038252601c8152602001807f4552433732313a20746f6b656e20616c7265616479206d696e7465640000000081525060200191505060405180910390fd5b6124c160008383612b1f565b61251281600160008573ffffffffffffffffffffffffffffffffffffffff1673ffffffffffffffffffffffffffffffffffffffff168152602001908152602001600020612b2490919063ffffffff16565b5061252981836002612b3e9092919063ffffffff16565b50808273ffffffffffffffffffffffffffffffffffffffff16600073ffffffffffffffffffffffffffffffffffffffff167fddf252ad1be2c89b69c2b068fc378daa952ba7f163c4a11628f55a4df523b3ef60405160405180910390a45050565b6000612595826122a3565b6125ea576040517f08c379a000000000000000000000000000000000000000000000000000000000815260040180806020018281038252602c81526020018061405d602c913960400191505060405180910390fd5b60006125f58361130a565b90508073ffffffffffffffffffffffffffffffffffffffff168473ffffffffffffffffffffffffffffffffffffffff16148061266457508373ffffffffffffffffffffffffffffffffffffffff1661264c84610ad3565b73ffffffffffffffffffffffffffffffffffffffff16145b80612675575061267481856120bb565b5b91505092915050565b8273ffffffffffffffffffffffffffffffffffffffff1661269e8261130a565b73ffffffffffffffffffffffffffffffffffffffff161461270a576040517f08c379a00000000000000000000000000000000000000000000000000000000081526004018080602001828103825260298152602001806141626029913960400191505060405180910390fd5b600073ffffffffffffffffffffffffffffffffffffffff168273ffffffffffffffffffffffffffffffffffffffff161415612790576040517f08c379a00000000000000000000000000000000000000000000000000000000081526004018080602001828103825260248152602001806140136024913960400191505060405180910390fd5b61279b838383612b1f565b6127a66000826122c8565b6127f781600160008673ffffffffffffffffffffffffffffffffffffffff1673ffffffffffffffffffffffffffffffffffffffff168152602001908152602001600020612b7390919063ffffffff16565b5061284981600160008573ffffffffffffffffffffffffffffffffffffffff1673ffffffffffffffffffffffffffffffffffffffff168152602001908152602001600020612b2490919063ffffffff16565b5061286081836002612b3e9092919063ffffffff16565b50808273ffffffffffffffffffffffffffffffffffffffff168473ffffffffffffffffffffffffffffffffffffffff167fddf252ad1be2c89b69c2b068fc378daa952ba7f163c4a11628f55a4df523b3ef60405160405180910390a4505050565b60006128d08360000183612b8d565b60001c905092915050565b6000806000806128ee8660000186612c10565b915091508160001c8160001c9350935050509250929050565b600061291a846000018460001b84612ca9565b60001c90509392505050565b600061293482600001612d9f565b9050919050565b61294684848461267e565b61295284848484612db0565b6129a7576040517f08c379a0000000000000000000000000000000000000000000000000000000008152600401808060200182810382526032815260200180613fe16032913960400191505060405180910390fd5b50505050565b606060008214156129f5576040518060400160405280600181526020017f30000000000000000000000000000000000000000000000000000000000000008152509050612aef565b600082905060005b60008214612a1f578080600101915050600a8281612a1757fe5b0491506129fd565b60008167ffffffffffffffff81118015612a3857600080fd5b506040519080825280601f01601f191660200182016040528015612a6b5781602001600182028036833780820191505090505b50905060006001830390508593505b60008414612ae757600a8481612a8c57fe5b0660300160f81b82828060019003935081518110612aa657fe5b60200101907effffffffffffffffffffffffffffffffffffffffffffffffffffffffffffff1916908160001a905350600a8481612adf57fe5b049350612a7a565b819450505050505b919050565b6000612b06836000018360001b612fc9565b905092915050565b600081600001805490509050919050565b505050565b6000612b36836000018360001b612fec565b905092915050565b6000612b6a846000018460001b8473ffffffffffffffffffffffffffffffffffffffff1660001b61305c565b90509392505050565b6000612b85836000018360001b613138565b905092915050565b600081836000018054905011612bee576040517f08c379a0000000000000000000000000000000000000000000000000000000008152600401808060200182810382526022815260200180613fbf6022913960400191505060405180910390fd5b826000018281548110612bfd57fe5b9060005260206000200154905092915050565b60008082846000018054905011612c72576040517f08c379a00000000000000000000000000000000000000000000000000000000081526004018080602001828103825260228152602001806141146022913960400191505060405180910390fd5b6000846000018481548110612c8357fe5b906000526020600020906002020190508060000154816001015492509250509250929050565b60008084600101600085815260200190815260200160002054905060008114158390612d70576040517f08c379a00000000000000000000000000000000000000000000000000000000081526004018080602001828103825283818151815260200191508051906020019080838360005b83811015612d35578082015181840152602081019050612d1a565b50505050905090810190601f168015612d625780820380516001836020036101000a031916815260200191505b509250505060405180910390fd5b50846000016001820381548110612d8357fe5b9060005260206000209060020201600101549150509392505050565b600081600001805490509050919050565b6000612dd18473ffffffffffffffffffffffffffffffffffffffff16613220565b612dde5760019050612fc1565b6000612f4863150b7a0260e01b612df36122c0565b888787604051602401808573ffffffffffffffffffffffffffffffffffffffff1681526020018473ffffffffffffffffffffffffffffffffffffffff16815260200183815260200180602001828103825283818151815260200191508051906020019080838360005b83811015612e77578082015181840152602081019050612e5c565b50505050905090810190601f168015612ea45780820380516001836020036101000a031916815260200191505b5095505050505050604051602081830303815290604052907bffffffffffffffffffffffffffffffffffffffffffffffffffffffff19166020820180517bffffffffffffffffffffffffffffffffffffffffffffffffffffffff8381831617835250505050604051806060016040528060328152602001613fe1603291398773ffffffffffffffffffffffffffffffffffffffff166132339092919063ffffffff16565b90506000818060200190516020811015612f6157600080fd5b8101908080519060200190929190505050905063150b7a0260e01b7bffffffffffffffffffffffffffffffffffffffffffffffffffffffff1916817bffffffffffffffffffffffffffffffffffffffffffffffffffffffff191614925050505b949350505050565b600080836001016000848152602001908152602001600020541415905092915050565b6000612ff8838361324b565b613051578260000182908060018154018082558091505060019003906000526020600020016000909190919091505582600001805490508360010160008481526020019081526020016000208190555060019050613056565b600090505b92915050565b600080846001016000858152602001908152602001600020549050600081141561310357846000016040518060400160405280868152602001858152509080600181540180825580915050600190039060005260206000209060020201600090919091909150600082015181600001556020820151816001015550508460000180549050856001016000868152602001908152602001600020819055506001915050613131565b8285600001600183038154811061311657fe5b90600052602060002090600202016001018190555060009150505b9392505050565b60008083600101600084815260200190815260200160002054905060008114613214576000600182039050600060018660000180549050039050600086600001828154811061318357fe5b90600052602060002001549050808760000184815481106131a057fe5b90600052602060002001819055506001830187600101600083815260200190815260200160002081905550866000018054806131d857fe5b6001900381819060005260206000200160009055905586600101600087815260200190815260200160002060009055600194505050505061321a565b60009150505b92915050565b600080823b905060008111915050919050565b6060613242848460008561326e565b90509392505050565b600080836001016000848152602001908152602001600020541415905092915050565b6060824710156132c9576040517f08c379a00000000000000000000000000000000000000000000000000000000081526004018080602001828103825260268152602001806140376026913960400191505060405180910390fd5b6132d285613220565b613344576040517f08c379a000000000000000000000000000000000000000000000000000000000815260040180806020018281038252601d8152602001807f416464726573733a2063616c6c20746f206e6f6e2d636f6e747261637400000081525060200191505060405180910390fd5b6000808673ffffffffffffffffffffffffffffffffffffffff1685876040518082805190602001908083835b602083106133935780518252602082019150602081019050602083039250613370565b6001836020036101000a03801982511681845116808217855250505050505090500191505060006040518083038185875af1925050503d80600081146133f5576040519150601f19603f3d011682016040523d82523d6000602084013e6133fa565b606091505b509150915061340a828286613416565b92505050949350505050565b60608315613426578290506134db565b6000835111156134395782518084602001fd5b816040517f08c379a00000000000000000000000000000000000000000000000000000000081526004018080602001828103825283818151815260200191508051906020019080838360005b838110156134a0578082015181840152602081019050613485565b50505050905090810190601f1680156134cd5780820380516001836020036101000a031916815260200191505b509250505060405180910390fd5b9392505050565b828054600181600116156101000203166002900490600052602060002090601f016020900481019282613518576000855561355f565b82601f1061353157805160ff191683800117855561355f565b8280016001018555821561355f579182015b8281111561355e578251825591602001919060010190613543565b5b50905061356c9190613570565b5090565b5b80821115613589576000816000905550600101613571565b5090565b60006135a061359b84613dd5565b613da4565b9050828152602081018484840111156135b857600080fd5b6135c3848285613f0d565b509392505050565b60006135de6135d984613e05565b613da4565b9050828152602081018484840111156135f657600080fd5b613601848285613f0d565b509392505050565b60008135905061361881613f62565b92915050565b60008135905061362d81613f79565b92915050565b60008135905061364281613f90565b92915050565b600082601f83011261365957600080fd5b813561366984826020860161358d565b91505092915050565b600082601f83011261368357600080fd5b81356136938482602086016135cb565b91505092915050565b6000813590506136ab81613fa7565b92915050565b6000602082840312156136c357600080fd5b60006136d184828501613609565b91505092915050565b600080604083850312156136ed57600080fd5b60006136fb85828601613609565b925050602061370c85828601613609565b9150509250929050565b60008060006060848603121561372b57600080fd5b600061373986828701613609565b935050602061374a86828701613609565b925050604061375b8682870161369c565b9150509250925092565b6000806000806080858703121561377b57600080fd5b600061378987828801613609565b945050602061379a87828801613609565b93505060406137ab8782880161369c565b925050606085013567ffffffffffffffff8111156137c857600080fd5b6137d487828801613648565b91505092959194509250565b600080604083850312156137f357600080fd5b600061380185828601613609565b92505060206138128582860161361e565b9150509250929050565b6000806040838503121561382f57600080fd5b600061383d85828601613609565b925050602061384e8582860161369c565b9150509250929050565b60006020828403121561386a57600080fd5b600061387884828501613633565b91505092915050565b60008060006060848603121561389657600080fd5b600084013567ffffffffffffffff8111156138b057600080fd5b6138bc86828701613672565b935050602084013567ffffffffffffffff8111156138d957600080fd5b6138e586828701613672565b925050604084013567ffffffffffffffff81111561390257600080fd5b61390e86828701613672565b9150509250925092565b60006020828403121561392a57600080fd5b60006139388482850161369c565b91505092915050565b6000806040838503121561395457600080fd5b60006139628582860161369c565b925050602061397385828601613609565b9150509250929050565b600080600080600060a0868803121561399557600080fd5b60006139a38882890161369c565b955050602086013567ffffffffffffffff8111156139c057600080fd5b6139cc88828901613672565b945050604086013567ffffffffffffffff8111156139e957600080fd5b6139f588828901613672565b935050606086013567ffffffffffffffff811115613a1257600080fd5b613a1e88828901613672565b9250506080613a2f88828901613609565b9150509295509295909350565b60008060008060008060c08789031215613a5557600080fd5b6000613a6389828a0161369c565b965050602087013567ffffffffffffffff811115613a8057600080fd5b613a8c89828a01613672565b9550506040613a9d89828a0161369c565b945050606087013567ffffffffffffffff811115613aba57600080fd5b613ac689828a01613672565b9350506080613ad789828a0161369c565b92505060a0613ae889828a0161361e565b9150509295509295509295565b613afe81613ed7565b82525050565b613b0d81613e63565b82525050565b613b1c81613e51565b82525050565b613b2b81613e75565b82525050565b6000613b3c82613e35565b613b468185613e40565b9350613b56818560208601613f1c565b613b5f81613f51565b840191505092915050565b613b7381613ecd565b82525050565b6000602082019050613b8e6000830184613b13565b92915050565b6000602082019050613ba96000830184613b22565b92915050565b60006020820190508181036000830152613bc98184613b31565b905092915050565b60006060820190508181036000830152613beb8186613b31565b90508181036020830152613bff8185613b31565b90508181036040830152613c138184613b31565b9050949350505050565b6000602082019050613c326000830184613b6a565b92915050565b600060a082019050613c4d6000830188613b6a565b8181036020830152613c5f8187613b31565b90508181036040830152613c738186613b31565b9050613c826060830185613af5565b8181036080830152613c948184613b31565b90509695505050505050565b6000608082019050613cb56000830187613b6a565b8181036020830152613cc78186613b31565b90508181036040830152613cdb8185613b31565b90508181036060830152613cef8184613b31565b905095945050505050565b600061014082019050613d10600083018d613b6a565b613d1d602083018c613b6a565b8181036040830152613d2f818b613b31565b9050613d3e606083018a613b04565b613d4b6080830189613b04565b613d5860a0830188613b04565b613d6560c0830187613b6a565b81810360e0830152613d778186613b31565b9050613d87610100830185613b6a565b613d95610120830184613b22565b9b9a5050505050505050505050565b6000604051905081810181811067ffffffffffffffff82111715613dcb57613dca613f4f565b5b8060405250919050565b600067ffffffffffffffff821115613df057613def613f4f565b5b601f19601f8301169050602081019050919050565b600067ffffffffffffffff821115613e2057613e1f613f4f565b5b601f19601f8301169050602081019050919050565b600081519050919050565b600082825260208201905092915050565b6000613e5c82613ead565b9050919050565b6000613e6e82613ead565b9050919050565b60008115159050919050565b60007fffffffff0000000000000000000000000000000000000000000000000000000082169050919050565b600073ffffffffffffffffffffffffffffffffffffffff82169050919050565b6000819050919050565b6000613ee282613ee9565b9050919050565b6000613ef482613efb565b9050919050565b6000613f0682613ead565b9050919050565b82818337600083830152505050565b60005b83811015613f3a578082015181840152602081019050613f1f565b83811115613f49576000848401525b50505050565bfe5b6000601f19601f8301169050919050565b613f6b81613e51565b8114613f7657600080fd5b50565b613f8281613e75565b8114613f8d57600080fd5b50565b613f9981613e81565b8114613fa457600080fd5b50565b613fb081613ecd565b8114613fbb57600080fd5b5056fe456e756d657261626c655365743a20696e646578206f7574206f6620626f756e64734552433732313a207472616e7366657220746f206e6f6e20455243373231526563656976657220696d706c656d656e7465724552433732313a207472616e7366657220746f20746865207a65726f2061646472657373416464726573733a20696e73756666696369656e742062616c616e636520666f722063616c6c4552433732313a206f70657261746f7220717565727920666f72206e6f6e6578697374656e7420746f6b656e4552433732313a20617070726f76652063616c6c6572206973206e6f74206f776e6572206e6f7220617070726f76656420666f7220616c6c4552433732313a2062616c616e636520717565727920666f7220746865207a65726f20616464726573734552433732313a206f776e657220717565727920666f72206e6f6e6578697374656e7420746f6b656e456e756d657261626c654d61703a20696e646578206f7574206f6620626f756e64734552433732313a20617070726f76656420717565727920666f72206e6f6e6578697374656e7420746f6b656e4552433732313a207472616e73666572206f6620746f6b656e2074686174206973206e6f74206f776e4552433732314d657461646174613a2055524920717565727920666f72206e6f6e6578697374656e7420746f6b656e4552433732313a20617070726f76616c20746f2063757272656e74206f776e65724552433732313a207472616e736665722063616c6c6572206973206e6f74206f776e6572206e6f7220617070726f766564a2646970667358221220ad471a5f65ca98dc38b82580743fecbe7f9ca1eb9004a883466ca0c39ef0250064736f6c63430007060033",
  "immutableReferences": {},
  "source": "//import ERC721 interface\r\nimport \"./ERC721.sol\";\r\n\r\npragma abicoder v2;\r\npragma solidity >=0.6.0 <0.8.0;\r\n\r\n//implement\r\ncontract ArtFundsStorage is ERC721 {\r\n    // this contract's token collection name\r\n    string public collectionName;\r\n    // this contract's token symbol\r\n    string public collectionNameSymbol;\r\n\r\n    struct Collection {\r\n        uint256 tokenId;\r\n        string imageURL;\r\n        string name;\r\n        string description;\r\n    }\r\n\r\n    uint256 public collectionCounter = 0;\r\n    mapping(address => Collection[]) public ownerCollections;\r\n    // uint256[] collections;\r\n\r\n    struct DigitalItem {\r\n        uint256 tokenId;\r\n        uint256 belongByColID;\r\n        string name;\r\n        address payable mintedBy;\r\n        address payable currentOwner;\r\n        address payable previousOwner;\r\n        uint256 price;\r\n        string imageURL;\r\n        uint256 numberOfTransfers;\r\n        bool forSale;\r\n    }\r\n\r\n    uint256 digitalItemCounter = 0;\r\n    mapping(address => DigitalItem[]) public ownerDigitalItems;\r\n    // uint256[] digitalItems;\r\n\r\n    event ItemCreated(\r\n        uint256 id,\r\n        uint256 belongByColID,\r\n        string name,\r\n        address mintedBy,\r\n        address currentOwner,\r\n        address previousOwner,\r\n        uint256 price,\r\n        string imageURL,\r\n        uint256 numberOfTransfers,\r\n        bool forSale\r\n    );\r\n\r\n    event ItemForSale(uint256 id, bool forSale);\r\n\r\n    event CollectionCreated(\r\n        uint256 tokenId,\r\n        string imageURL,\r\n        string name,\r\n        address ownedBy,\r\n        string description\r\n    );\r\n\r\n    // initialize contract while deployment with contract's collection name and token\r\n    constructor() ERC721(\"ArtFunds Collection\", \"CB\") {\r\n        collectionName = name();\r\n        collectionNameSymbol = symbol();\r\n    }\r\n\r\n    // mint a new digital item\r\n    function mintDigitalItem(\r\n        uint256 belongByColID,\r\n        string memory _name,\r\n        uint256 _price,\r\n        string memory _imageURL,\r\n        uint256 _numberOfTransfers,\r\n        bool _forSale\r\n    ) external returns (bool success) {\r\n        // check if thic fucntion caller is not an zero address account\r\n        require(msg.sender != address(0));\r\n        // increment counter\r\n        digitalItemCounter++;\r\n        // check if a token exists with the above token id => incremented counter\r\n        require(!_exists(digitalItemCounter));\r\n\r\n        // mint the token\r\n        _mint(msg.sender, digitalItemCounter);\r\n\r\n        DigitalItem memory newDigitalItem = DigitalItem(\r\n            digitalItemCounter,\r\n            belongByColID,\r\n            _name,\r\n            msg.sender,\r\n            msg.sender,\r\n            msg.sender,\r\n            _price,\r\n            _imageURL,\r\n            0,\r\n            true\r\n        );\r\n        ownerDigitalItems[msg.sender].push(newDigitalItem);\r\n        return true;\r\n    }\r\n\r\n    // function updateCurrentOwnerDigitalItem(\r\n    //     address _owner,\r\n    //     address payable _newOwner,\r\n    //     uint256 _tokenId\r\n    // ) public returns (bool success) {\r\n    //     require(_owner != address(0x0));\r\n    //     require(_newOwner != address(0x0));\r\n    //     require(_tokenId >= 0);\r\n    //     DigitalItem memory digitalItem = ownerDigitalItems[_owner][_tokenId];\r\n    //     digitalItem.previousOwner = digitalItem.currentOwner;\r\n    //     digitalItem.currentOwner = _newOwner;\r\n    //     return true;\r\n    // }\r\n\r\n    // function updateInfoBasicDigitalItem(\r\n    //     address _owner,\r\n    //     uint256 _tokenId,\r\n    //     string memory _name,\r\n    //     uint256 _price,\r\n    //     string memory _imageURL,\r\n    //     uint256 _numberOfTransfers,\r\n    //     bool _forSale\r\n    // ) public returns (bool success) {\r\n    //     require(_owner != address(0x0));\r\n    //     require(_tokenId >= 0);\r\n    //     require(ownerDigitalItems[_owner].length > 0);\r\n    //     DigitalItem storage digitalItem = ownerDigitalItems[_owner][_tokenId];\r\n    //     digitalItem.imageURL = _imageURL;\r\n    //     digitalItem.name = _name;\r\n    //     digitalItem.price = _price;\r\n    //     digitalItem.forSale = _forSale;\r\n    //     digitalItem.numberOfTransfers = _numberOfTransfers;\r\n    //     return true;\r\n    // }\r\n\r\n    // function getDigitalItem(uint256 _tokenId, address _owner)\r\n    //     public\r\n    //     view\r\n    //     returns (\r\n    //         string memory _name,\r\n    //         address _mintedBy,\r\n    //         address _currentOwner,\r\n    //         address _previousOwner,\r\n    //         uint256 _price,\r\n    //         string memory _imageURL,\r\n    //         uint256 _numberOfTransfers,\r\n    //         bool _forSale\r\n    //     )\r\n    // {\r\n    //     require(_owner != address(0x0));\r\n    //     require(_tokenId >= 0);\r\n    //     require(ownerDigitalItems[_owner].length > 0);\r\n    //     DigitalItem storage digitalItem = ownerDigitalItems[_owner][_tokenId];\r\n\r\n    //     return (\r\n    //         digitalItem.name,\r\n    //         digitalItem.mintedBy,\r\n    //         digitalItem.currentOwner,\r\n    //         digitalItem.previousOwner,\r\n    //         digitalItem.price,\r\n    //         digitalItem.imageURL,\r\n    //         digitalItem.numberOfTransfers,\r\n    //         digitalItem.forSale\r\n    //     );\r\n    // }\r\n\r\n    function getDigitalItemCount(address _owner)\r\n        public\r\n        view\r\n        returns (uint256 count)\r\n    {\r\n        require(_owner != address(0x0));\r\n        return ownerDigitalItems[_owner].length;\r\n    }\r\n\r\n    //This function to create collection from address\r\n    function createCollection(\r\n        string memory _imageURL,\r\n        string memory _name,\r\n        string memory _description\r\n    ) public returns (bool success) {\r\n        collectionCounter++;\r\n        Collection memory collection = Collection(\r\n            collectionCounter,\r\n            _imageURL,\r\n            _name,\r\n            _description\r\n        );\r\n        ownerCollections[msg.sender].push(collection);\r\n\r\n        emit CollectionCreated(\r\n            collectionCounter,\r\n            _imageURL,\r\n            _name,\r\n            msg.sender,\r\n            _description\r\n        );\r\n        return true;\r\n    }\r\n\r\n    // function getCollections(address _owner)\r\n    //     public\r\n    //     view\r\n    //     returns (Collection[] memory)\r\n    // {\r\n    //     require(_owner != address(0x0));\r\n    //     require(ownerCollections[_owner].length > 0);\r\n    //     return ownerCollections[_owner];\r\n    // }\r\n\r\n    function getCollection(uint256 _tokenId, address _owner)\r\n        public\r\n        view\r\n        returns (\r\n            string memory _imageURL,\r\n            string memory _name,\r\n            string memory _description\r\n        )\r\n    {\r\n        require(_owner != address(0x0));\r\n        require(_tokenId >= 0);\r\n        require(ownerCollections[_owner].length > 0);\r\n        Collection memory collection = ownerCollections[_owner][_tokenId];\r\n\r\n        return (collection.imageURL, collection.name, collection.description);\r\n    }\r\n\r\n    function updateCollection(\r\n        uint256 _tokenId,\r\n        string memory _imageURL,\r\n        string memory _name,\r\n        string memory _description,\r\n        address _owner\r\n    ) public returns (bool success) {\r\n        require(_owner != address(0x0));\r\n        require(_tokenId >= 0);\r\n        require(ownerCollections[_owner].length > 0);\r\n        Collection memory collection = ownerCollections[_owner][_tokenId];\r\n        collection.imageURL = _imageURL;\r\n        collection.name = _name;\r\n        collection.description = _description;\r\n        return true;\r\n    }\r\n\r\n    // function deleteCollection(address _owner, uint256 _tokenId)\r\n    //     public\r\n    //     returns (bool success)\r\n    // {\r\n    //     require(_owner != address(0x0));\r\n    //     require(_tokenId >= 0);\r\n    //     require(ownerCollections[_owner].length > 0);\r\n    //     // uint256 rowToDelete = ownerCollections[_owner][_tokenId].index;\r\n    //     delete ownerCollections[_owner][_tokenId];\r\n    //     collectionCounter--;\r\n    //     return true;\r\n    // }\r\n\r\n    function getCollectionCount(address _owner)\r\n        public\r\n        view\r\n        returns (uint256 count)\r\n    {\r\n        require(_owner != address(0x0));\r\n        return (collectionCounter);\r\n        // return ownerCollections[_owner].length;\r\n    }\r\n\r\n    struct Order {\r\n        address maker;\r\n        address taker;\r\n        uint256 tokenId;\r\n    }\r\n\r\n    // mapping(uint256 => Order) orders;\r\n\r\n    // function makeOrder(uint256 _tokenId, uint256 _price) external {\r\n    //     // validate nft\r\n    //     // ...\r\n    // }\r\n\r\n    // function takeOrder(uint256 _tokenId) external {\r\n    //     // check order exists\r\n    //     // validate funds\r\n    //     // transfer funds\r\n    //     // transfer nft\r\n    // }\r\n}\r\n",
  "sourcePath": "G:\\GitHub\\ArtFunds_DevFest\\blockchain\\contracts\\ArtFundsStorage.sol",
  "compiler": {
    "name": "solc",
    "version": "0.7.6+commit.7338295f.Emscripten.clang"
  },
  "schemaVersion": "3.4.3",
  "updatedAt": "2021-10-28T08:50:59.245Z",
  "networkType": "ethereum",
  "devdoc": {
    "kind": "dev",
    "methods": {
      "approve(address,uint256)": {
        "details": "See {IERC721-approve}."
      },
      "balanceOf(address)": {
        "details": "See {IERC721-balanceOf}."
      },
      "baseURI()": {
        "details": "Returns the base URI set via {_setBaseURI}. This will be automatically added as a prefix in {tokenURI} to each token's URI, or to the token ID if no specific URI is set for that token ID."
      },
      "getApproved(uint256)": {
        "details": "See {IERC721-getApproved}."
      },
      "isApprovedForAll(address,address)": {
        "details": "See {IERC721-isApprovedForAll}."
      },
      "name()": {
        "details": "See {IERC721Metadata-name}."
      },
      "ownerOf(uint256)": {
        "details": "See {IERC721-ownerOf}."
      },
      "safeTransferFrom(address,address,uint256)": {
        "details": "See {IERC721-safeTransferFrom}."
      },
      "safeTransferFrom(address,address,uint256,bytes)": {
        "details": "See {IERC721-safeTransferFrom}."
      },
      "setApprovalForAll(address,bool)": {
        "details": "See {IERC721-setApprovalForAll}."
      },
      "supportsInterface(bytes4)": {
        "details": "See {IERC165-supportsInterface}. Time complexity O(1), guaranteed to always use less than 30 000 gas."
      },
      "symbol()": {
        "details": "See {IERC721Metadata-symbol}."
      },
      "tokenByIndex(uint256)": {
        "details": "See {IERC721Enumerable-tokenByIndex}."
      },
      "tokenOfOwnerByIndex(address,uint256)": {
        "details": "See {IERC721Enumerable-tokenOfOwnerByIndex}."
      },
      "tokenURI(uint256)": {
        "details": "See {IERC721Metadata-tokenURI}."
      },
      "totalSupply()": {
        "details": "See {IERC721Enumerable-totalSupply}."
      },
      "transferFrom(address,address,uint256)": {
        "details": "See {IERC721-transferFrom}."
      }
    },
    "version": 1
  },
  "userdoc": {
    "kind": "user",
    "methods": {},
    "version": 1
  }
}